S01700006275696C642F697269732F6D61696E2E7372656343
S11300000C9469000C9488000C9488000C9488006B
S11300100C9488000C9488000C9488000C9488003C
S11300200C9488000C9488000C9488000C9488002C
S11300300C9488000C945E140C9488000C94A61400
S11300400C94F7130C94AA130C94E1130C94EC1372
S11300500C942F140C9488000C9488000C94880041
S11300600C94BA140C9488000C9488000C948800A6
S11300700C9488000C9488000C9488000C948800DC
S11300800C9488000C9488000C9488000C948800CC
S11300900C9488000C9488000C9488000C947215BD
S11300A00C9488000C9488000C9488000C948800AC
S11300B00C9488000C9488000C9488000C9488009C
S11300C00C9488000C9488000C94880000020E069E
S11300D00C0411241FBECFEFD1E2DEBFCDBF12E06E
S11300E0A0E0B2E0E0EAF1E300E00BBF02C0079059
S11300F00D92AE30B107D9F713E0AEE0B2E001C023
S11301001D92AB3DB107E1F70E94C4110C94CF18C6
S11301100C9400008FB7F894992708958FBF089521
S11301208FB7F894282F332782B194E0892782B9B6
S11301302FBF08958FB7F894282F332782B192E008
S1130140892782B92FBF08958FB7F89499272091F2
S1130150090230910A028FBFC9010895982F8FB701
S1130160F894282FE92FFF27E953FC4F80818F3F14
S1130170B1F48091D303891791F08091C1038F3F2B
S113018019F49093C10307C08091D303E82FFF278C
S1130190E953FC4F90839093D30380E001C085E042
S11301A02FBF99270895EF92FF920F931F93CF9338
S11301B0DF93082F7B01EA01122F40E050E0FE019B
S11301C0319681819927982F882729813327822B7B
S11301D0932B87749C7C8154984811F441E050E03F
S11301E0242F3327222339F481E498E8898388E88B
S11301F090E0818328A70E94A4008887892F9927EB
S113020089878FB7F8949927209108028FBF822F8E
S113021099278C831D820B87EE828F2D99278F83DC
S11302208FE38A878091BB038F5F8093BB038B83AB
S11302301D3118F086E090E017C09091890399234E
S113024019F085E090E010C0135F1883D093800309
S1130250C0937F0381E0809389039093DA0383E062
S11302600E94AE0080E090E09927DF91CF911F912A
S11302700F91FF90EF9008951F93CF93DF93142F66
S1130280C82FDD27FE01EC0FFD1FEE54FD4F118238
S113029010821092000220E08091B2029091B30289
S11302A0892B19F08091C00380FD21E01092000297
S11302B0222319F081E080930002809100028823B8
S11302C0C9F4E091B202F091B30287819927782FA3
S11302D0662786819927682B792B80818D509927F1
S11302E0282FAF0183850E94D300882319F08BE067
S11302F00E94AE00CD2B49F4112319F40E949A00F8
S113030002C00E94900010929603DF91CF911F913A
S11303100895EF920F931F93AE2D99E0899FF001FA
S11303201124E156FD4F4083518362837383048318
S1130330158326833783A17080858E7F8A2B826004
S1130340808781E00E94AE001F910F91EF90089585
S113035080911102882319F480E090E0089581E0EF
S113036090E00895882319F08CB5806402C08CB5A0
S11303708F7B8CBD08951F93CF93DF93982F40E01C
S11303808FB7F894C82F80911102823089F580913B
S11303900502891769F520E030E0809107028F3F5C
S11303A011F421E030E0232BE9F48F3F81F0282F72
S11303B03327F901E852FC4F8081809307028F3F75
S11303C011F4809306028FEF8083C90102C08FEF7E
S11303D090E08093A20381E08093110288E00E9460
S11303E0AE0005C08FEF809305024093110241E0F7
S11303F0CFBF413019F480E090E002C081E090E08A
S1130400182F8FB7F894C82FDD270E94A8019927C9
S1130410882311F40E94B201CFBF812F9927DF9165
S1130420CF911F9108950F931F93CF93DF93FC01F6
S1130430C0E0D0E082819927382F22278181992733
S1130440282B392B822F9927807290708823A1F052
S113045027743C7C2154384879F487819927182FD4
S1130460002786819927082B192B0E94A4000817BE
S1130470190711F4C1E0D0E0CE01DF91CF911F91B3
S11304800F910895FC019A01AB0180A5826080A7B9
S113049023A734A745A756A708958FB7F894682FC4
S11304A077278091C6029091C702A091C802B091AB
S11304B0C9022091840030918500B09B07C0019649
S11304C0A11DB11D2091840030918500442755273A
S11304D0DC0199278827822B932BA42BB52B6FBF84
S11304E0BC01CD010895AC018FB7F894E82F209199
S11304F0840030918500C901841B950B03968617EF
S1130500970720F0B9016D5F7F4F02C0640F751F1C
S11305106115710511F461E070E0615070407093F1
S113052089006093880082E086BB80916F008260BE
S113053080936F00EFBF08959C0181E08093A8032E
S11305408093CB028091840090918500B9010E9430
S113055073020895FC0190A5662311F0916001C017
S11305609E7F90A70895DC01FC018191FD0191819A
S1130570282F332795FF03C0C9018B960895C9011D
S113058040960895CF93C82F882381F48091BD02AB
S11305909091BE020E94B30220917C0330917D03AE
S11305A0280F391F30937D0320937C038FB7F89471
S11305B09927C093AB038FBF83E00E94AE00CF9115
S11305C008951F93CF93BC0180919503282F33275F
S11305D0F901E20FF31FE856FC4F808191818617E1
S11305E0970799F4F901E854FD4F80819091CA026C
S11305F0891711F4C90168C0892F8F5F8093CA02DB
S11306008083C0E846C0CA015FC0C0E01C2F3C2FF5
S1130610A8EBB2E040E050E0FA01E40FF51FE85621
S1130620FC4F808191812091CA028617970761F45B
S1130630309395038C91821731F3822F8F5F8093CF
S1130640CA028C93C0E80CC08C91281BC21710F40A
S1130650C22F132F3F5F4F5F5F4F11963530E0F28B
S11306603530B9F410939503A12FBB27FD01EA0F90
S1130670FB1FE856FC4F71836083FD01E854FD4F76
S11306808091CA028F5F8093CA028083AB58BC4FAB
S11306901C922091CA02822F99278F7790708F37EE
S11306A0910579F4CF3768F0922F9078E8EBF2E077
S11306B034E080818F67821390833150319637FF05
S11306C0F8CF809195039927CF911F910895EF92C8
S11306D0FF920F931F937C018FB7F8949927009191
S11306E0B3031091B4030F5E1E4F1093B403009331
S11306F0B303015111408FBF86E00E94AE00C801D0
S1130700B7010E9465188A5D9E4F1F910F91FF905B
S1130710EF9008958FB7F894282F332782B191E092
S1130720892782B92FBF08958FB7F894282F3327CC
S11307308091BC008093B0032FBF08958FB7F894C5
S1130740982F8091B2002091C2023091C30240914F
S1130750C4025091C502B99B11C08091B300280F07
S1130760311D411D511D8091B200280F311D411DC5
S1130770511D2F5F3F4F4F4F5F4F04C0280F311D56
S1130780411D511D9FBFCA01B90108950F931F93C5
S1130790CF93DF9310E08FB7F894482F5527042F99
S11307A02091B3009091B20087B3291711F081FF13
S11307B002C04FBF71C0809182038823B1F10E94AF
S11307C09E03DC01CB01C091AC03D091AD03E09159
S11307D0AE03F091AF038C1B9D0BAE0BBF0B2091AE
S11307E002033091030340910403509105038217DF
S11307F09307A407B50720F01093820311E015C0F6
S11308002C0F3D1F4E1F5F1F8091C2029091C302A7
S1130810A091C402B091C502281B390B4A0B5B0B93
S1130820273E31054105510510F086EE05C0223002
S113083010F482E001C0822F682F61508091B600CD
S113084083FDFCCF8091B200861709F46F5F20917D
S1130850C2023091C3024091C4025091C502DA0130
S1130860C901860F911DA11DB11D0196A11DB11DC8
S113087082179307A407B50718F46091C202609524
S11308808091B60083FDFCCF6093B3000FBF1123AA
S113089019F080E00E94AE00DF91CF911F910F917B
S11308A00895EF92FF920F931F937B018C018FB7F2
S11308B0F894682F772781E080938203E092AC0359
S11308C0F092AD030093AE031093AF0320930203A1
S11308D03093030340930403509305036FBF0E94B6
S11308E0C6031F910F91FF90EF900895882319F08C
S11308F08CB5806802C08CB58F778CBD0895EF925B
S1130900FF921F9310E0812F0E94B2018FB7F894D9
S1130910E82EFF24229A2398219A8CB580618CBDFD
S1130920812F0E9476048DB581608DBD8CB5877F43
S11309308CBD8CB58B7F8CBD8CB58E7F8CBD81E0DE
S11309400E94B201EFBE1F91FF90EF9008951F9394
S1130950CF93DF93182F8FB7F894C82FDD270E9409
S1130960A801882311F40E947F04CFBF8FB7F894A5
S1130970C82FDD272C2F80911102882361F481E098
S1130980809311021093A20388E00E94AE00CFBFAF
S113099080E090E01FC0E12FFF27E852FC4F8081E8
S11309A08F3FA1F4E0910602E11781F080910702E4
S11309B08F3F19F41093070204C0FF27E852FC4F3D
S11309C010831093060280E090E002C085E090E07E
S11309D02FBF99279927DF91CF911F910895CF9326
S11309E08FB7F894282F3327922F809105028823FC
S11309F041F480911102823021F42FBF81E090E014
S1130A0003C09FBF80E090E0892BF1F48FB7F89486
S1130A10282F332790911102992349F482E080937F
S1130A201102909305022FBF80E090E003C02FBF16
S1130A3081E090E09927C82F882311F40E947F0455
S1130A40CC2329F4209A289A81E090E005C080E024
S1130A500E94A70480E090E0CF910895CF92DF92A6
S1130A60EF92FF920F931F93CF93DF936C018091CA
S1130A707B03882309F098C080919403853009F0A2
S1130A8093C00E94EF04882309F48EC08091FD0274
S1130A90882309F089C0F601B896E60188A5847018
S1130AA09927882311F082818F70682F8091080321
S1130AB0681789F060930803962F9068289885EC4E
S1130AC08EBD0DB407FEFDCF8EB59EBD0DB407FEE1
S1130AD0FDCF8EB5289A40E050E0E6012196898149
S1130AE09927982F8827F60121813327822B932B6E
S1130AF087749C7C8154984811F441E050E0452B64
S1130B0001F1289886E88EBD0DB407FEFDCF8EB5A1
S1130B101EBC0DB407FEFDCF8EB5289A282F3327AF
S1130B202F713070909107038091D903890F912D13
S1130B30911D53E0959587955A95E1F78217930790
S1130B409CF1289882EC8EBD0DB407FEFDCF8EB5C6
S1130B5089E08EBD0DB407FEFDCF8EB5289A0E94A4
S1130B604D027B018C01F60180A584FF06C08081C3
S1130B708151E80FF11D3C9602C0E0E0F0E02898B6
S1130B8081E88EBD0DB407FEFDCF8EB51EBC0DB43D
S1130B9007FEFDCF8EB5289A99278F71907009971B
S1130BA031F087E08093940385E090E0A4C08FB790
S1130BB0F89499272F9A20918400309185002E551E
S1130BC03F4F8FBF2F98289880E68EBDD6018C9119
S1130BD09927682F982F0DB407FEFDCF8EB59EBDC3
S1130BE0625097E0691708F4962F691B49910DB478
S1130BF007FEFDCF8EB54EBD9150C1F72E193F09AA
S1130C00C901AA2797FDA095BA2FE80EF91E0A1F5D
S1130C101B1F3097B9F080819181A281B3818E1915
S1130C209F09A00BB10B8383292F3A2F4B2F5527F4
S1130C3022839D014427552721838B2F9927AA2797
S1130C40BB27808399910DB407FEFDCF8EB59EBD61
S1130C506150C1F70DB407FEFDCF8EB5289A2898D0
S1130C6082EC8EBD0DB407FEFDCF8EB586E08EBD41
S1130C700DB407FEFDCF8EB5289A309779F18081A7
S1130C809927AA27BB27B82FAA2799278827218124
S1130C90332744275527A90133272227822B932B57
S1130CA0A42BB52B2281332744275527542F432FB8
S1130CB0322F2227822B932BA42BB52B238133276E
S1130CC044275527822B932BA42BB52B8E0D9F1DC8
S1130CD0A01FB11F80839183A283B383B801A701AE
S1130CE0C6010E94420286E08093940384E08093CC
S1130CF07B0380E090E0DF91CF911F910F91FF90F3
S1130D00EF90DF90CF9008951F93182F81E00E94F9
S1130D10B2011EBD0DB407FEFDCF8EB599271F91FC
S1130D2008951F93CF93182FC42F90910F029130E1
S1130D3041F0992319F484E090E048C085E090E004
S1130D4045C082E080930F027093D5036093D4036F
S1130D503093720320937103409383031093B7027B
S1130D601092BF0290930E020E9494039091B003DC
S1130D7091689F7B9093B003212F332720FF05C0F8
S1130D8090629093B00385E00DC0C23020F4CC2370
S1130D9031F022FF04C090649093B00302C0C130CC
S1130DA021F484E080930F020BC021FF09C086E088
S1130DB080930F028091B0038F7B80618093B00396
S1130DC08091B0038093BC0080E090E0CF911F91AC
S1130DD00895AF92BF92CF92DF92EF920F931F9339
S1130DE0CF93DF93433019F00E9490001BC0809191
S1130DF0D603E82FFF27EE0FFF1FEE56FC4F8F5F41
S1130E008093D603E9012A8189819927982F88271D
S1130E1080709F70820F911D8183892F9927808311
S1130E200E948A0380918C039927982F8827209108
S1130E308D033327822B932B5C01CC24DD240E9469
S1130E409E03DC01CB0171E0E72E96018501AC0124
S1130E50BD018E2D0E948901DF91CF911F910F91C9
S1130E60EF90DF90CF90BF90AF900895CF92DF9234
S1130E70EF92FF920F931F93CF93DF938091FD0224
S1130E80882309F417C10E94EF04882309F412C1CE
S1130E908FB7F8949927C091CC02D091CD028FBF1F
S1130EA01092FD0228988FE88EBD0DB407FEFDCF89
S1130EB08EB51EBC0DB407FEFDCF8EB5289A982FB3
S1130EC0082F112700FF0CC080917B03833011F0A1
S1130ED0873031F485E08093940388E080937B032A
S1130EE002FF58C080917B03863011F410927B037B
S1130EF080917B03882309F04DC09430D1F5289864
S1130F0086E88EBD0DB407FEFDCF8EB51EBC0DB4B4
S1130F1007FEFDCF2EB5289A2F718091D903982F03
S1130F2096959695322F391B830F8093D903E091C0
S1130F30C002F091C10280A58B7F886080A722A7A0
S1130F400E944D029B01AC01C61BD70B2797CE0113
S1130F50AA2797FDA095BA2F820F931FA41FB51F30
S1130F60AC01BD018091C0029091C1020E94420275
S1130F700EC0E091C002F091C10280A5877F80A7D6
S1130F80E091C002F091C10280A58D7F80A785E029
S1130F9080937B0303FF8EC080917B03843009F030
S1130FA057C085E08093940310927B0380910603DD
S1130FB0833019F4109206037DC0E091A903F091E7
S1130FC0AA0340E050E082819927382F22278181AB
S1130FD09927282B392B822F992780729070882388
S1130FE091F027743C7C2154384869F4878199270F
S1130FF0982F882726813327822B932B8F5F9F4F2F
S113100011F041E050E0452BD9F020E030E0809130
S1131010CB02882311F421E030E0232B89F012E085
S11310201093A80381E08093CB0280918400909177
S1131030850061EE72E00E947302109306033AC0C9
S11310401092060310927E0380E00E94C20232C016
S1131050853081F580919403873091F4289882EC4F
S11310608EBD0DB407FEFDCF8EB586E08EBD0DB4EA
S113107007FEFDCF8EB5289A85E08093940317C0B0
S1131080289886E88EBD0DB407FEFDCF8EB51EBC34
S11310900DB407FEFDCF8EB5289A8F71909107038A
S11310A0292F26952695821B980F9093070389E094
S11310B080937B0390917B03992309F493C2993025
S11310C009F0D2C1289880E28EBD0DB407FEFDCF91
S11310D08EB51EBC0DB407FEFDCF8EB59927A82F83
S11310E0833008F4CFC08A3208F0CCC01EBCE09133
S11310F0C002F091C10280836091C0027091C1026C
S11311006F5F7F4FEE24FF24A25027E0A21708F45C
S11311102A2FA21BFB016F5F7F4F0DB407FEFDCF8B
S11311208EB51EBC99278083A7014827042E4295BB
S1131130407F4025052E542F42954F700426469536
S113114054274527440F440F440F40257A0121506A
S113115009F70091C0021091C10240E050E0F8018B
S11311608181282F3327277030702230310511F404
S113117041E050E055274423E1F040E050E0809105
S113118006038230A1F4C090A903D090AA03EA0117
S1131190F8019381F6018381891729F422303105FE
S11311A011F4C1E0D0E0CD2B11F041E050E0CA01D0
S11311B00DC08FB7F894282F3327942F8091A5035F
S11311C0833008F491E02FBF892F9927882309F4ED
S11311D059C0A150AF3FF1F0FB016F5F7F4F0DB4D9
S11311E007FEFDCF8EB51EBC992780839701282763
S11311F0022E2295207F2025032E322F22952F7038
S11312000226269532272327220F220F220F20257C
S11312107901DFCF0DB407FEFDCF8EB51EBC97015B
S11312202827022E2295207F2025032E322F229557
S11312302F700226269532272327220F220F220FF2
S113124020250DB407FEFDCF8EB51EBC2827022E27
S11312502295207F2025032E322F22952F700226DF
S1131260269532272327220F220F220F20257901CA
S1131270E091C002F091C1020DB407FEFDCF8EB51E
S113128081A703C051E0E52EF12C289A45E0D42E25
S1131290D092940310927B03E114F10409F096C1F7
S11312A00091C0021091C1029701F8018181992730
S11312B087709070029711F421E030E0C22FDD278F
S11312C0809106038230A9F480916F008D7F809312
S11312D06F001092CB026C2F8091A9039091AA0306
S11312E00E94AA021092060310927E0380E00E94DC
S11312F0C202CC2309F08CC0C8010E9413028823C7
S1131300A9F0D0923C0382E090E080933D03E09208
S11313103E03F801838180933F038CE393E00E94B2
S11313202E05882319F483E080930603C09184007A
S1131330D0918500C8010E941302882311F0C45E75
S1131340DC4FD093A403C093A303809184009091B5
S11313508500C81BD90BCE011C161D066CF4209108
S11313607E03222331F40E949C0280E880937E0352
S113137003C0206820937E03C8010E94B302209119
S1131380870330918803280F391F309388032093F3
S11313908703E801289689819927382F2227F801A5
S11313A080859927822B932B0E94E102E82FFF2747
S11313B0EB58FC4F908191FD09C0809186038031E8
S11313C028F48F5F809386039260908389819927A4
S11313D0382F2227F80180859927822B932B0E948E
S11313E0E102F8019381A82FBB27FD01EB58FC4FC4
S11313F0808180FF0FC0FD01EE53FC4F8081981760
S113140059F48091B2038F3F19F08F5F8093B20338
S1131410C80125C081608083AE53BC4F9C938FB7B5
S1131420F894F82E8091A503833010F0E80115C0DC
S1131430E0919703E80FE33008F0E350FF27EE0F45
S1131440FF1FE559FC4FC081D181118300838F5F59
S11314508093A50384E00E94AE00FFBECE0190936A
S1131460C1028093C002B2C0892F8150833008F03A
S11314708CC081508230F0F4409194034130D1F417
S113148020E030E08091CB02882311F421E030E0A9
S1131490232B81F02F9883E08093A8034093CB0201
S11314A080918400909185006BE273E00E94730246
S11314B082E056C0933089F580919403833069F5B6
S11314C00E94EF04882349F128988FE88EBD0DB45B
S11314D007FEFDCF8EB51EBC0DB407FEFDCF8EB545
S11314E0289A8091810080648093810080E286BB89
S11314F080916F00806280936F00289882EC8EBD8B
S11315000DB407FEFDCF8EB586E08EBD0DB407FE8B
S1131510FDCF8EB5289A84E023C080917B0381504F
S1131520823000F5809194038530E1F40E94EF0449
S11315308823C1F0289882EC8EBD0DB407FEFDCF40
S11315408EB583E08EBD0DB407FEFDCF8EB5289A0F
S113155080916F008F7D80936F001092FD0283E075
S11315608093940390917B03913041F48091940390
S1131570833061F52F9A9093940325C0923031F50E
S113158080919403833011F51EC09730F9F40E94C2
S1131590EF048823D9F09091D7039066289888ECBB
S11315A08EBD0DB407FEFDCF8EB59EBD0DB407FEF6
S11315B0FDCF8EB5289A80919403853021F484E080
S11315C08093940303C088E080937B0380917B0322
S11315D0883041F410927B0385E00E94AE0082E0E3
S11315E00E94AE0080917B03882309F580919403C7
S11315F08530E9F48091FD028823C9F480910603C3
S11316008823A9F480917E03882389F420E030E0C4
S11316108091CB02882311F421E030E0232B39F0B0
S113162080918903813019F483E00E94AE00809197
S11316307B03882311F40E94BB018091CB0282308A
S113164009F0A8C01092CB028091A8039927813099
S1131650910561F0823091050CF49CC082309105B3
S113166009F46CC0039709F478C094C08091840095
S1131670909185000091A3031091A403081B190BFA
S113168080917E03803859F410927E0380918903FF
S1131690813009F07FC083E00E94AE007BC087FFE9
S11316A005C01016110614F4C5E022C0C091B90398
S11316B0D091BA0380910603882399F4CE010E9445
S11316C02E05682F7727F62E662369F4CE010E9433
S11316D0AA0281E080930603D093AA03C093A903CE
S11316E002C0C5E0FC2E8F2D9927C82F882311F145
S11316F020917E03822F99278F77019759F42078C0
S1131700226020937E0380E198E00E9467030E9498
S11317109C0240C027FF0AC0101611063CF480E862
S113172080937E03C8010E949C0202C010927E0333
S11317308C2F10C083E080937E032CC08091B20371
S11317408F3F19F08F5F8093B203109206031092BB
S11317507E0380E00E94C2021DC080919403823007
S113176021F483E08093940313C080917B0386303B
S113177079F410927B03289881E88EBD0DB407FE9E
S1131780FDCF8EB51EBC0DB407FEFDCF8EB5289AD5
S11317900E94E40B8FB7F894282F3327809181039C
S11317A0813021F4109281032FBF05C081E0809322
S11317B081032FBF63CBDF91CF911F910F91FF90D6
S11317C0EF90DF90CF9008958FB7F894282F3327A8
S11317D080918103882329F08068809381032FBF3F
S11317E0089581E0809381032FBF0E9436070895F6
S11317F08FB7F894282F33278091810381508093E9
S11318008103803811F02FBF089581E08093810314
S11318102FBF0E94360708958F929F92AF92BF9276
S1131820CF92DF92EF92FF920F931F93CF93DF93A8
S11318306B017C0100E06FE972E0FB01108511FF90
S113184042C12081318142815381D701C601821B6B
S1131850930BA40BB50B84809580A680B780881564
S11318609905AA05BB0508F42EC110FF03C01D7F0E
S1131870108709C0280D391D4A1D5B1DFB012083FB
S1131880318342835383802F9927009721F0019756
S113189009F458C01EC18FB7F894282F33278091BC
S11318A081038F5F809381032FBF80917C0390918C
S11318B07D039C01B3E036952795BA95E1F7821B29
S11318C0930B90937D0380937C0380918703909185
S11318D088039C01A3E036952795AA95E1F7821B1E
S11318E0930B90938803809387038091B203982F7E
S11318F0969596959695891B8093B2032091FE0246
S1131900422F46954695469530918603431741F4F8
S1131910822F992787709070892B11F0215002C073
S1131920341B230F2093FE02E5E7F3E094E080816B
S11319308D7F8193915097FFFACF109286030E9476
S1131940F80BC7C08091D603813009F068C080913C
S11319509603882309F044C0AAEDB2E0EAE8F3E074
S11319602AE001900D922150E1F76FEF7FEF4EECEA
S113197052E06093D4028FEF90E08093D50293E914
S11319809093D902C091B202D091B302209719F07A
S113199085E090E020C05093B3024093B20287E107
S11319A08093CE02809100028823A1F0209300024C
S11319B02AE0892F0E94D3009927282F882339F001
S11319C081E080930002D093B302C093B202822FCD
S11319D0992701C0CE01882319F481E080939603EE
S11319E080919603882311F40E9490001092D603EC
S11319F080910103882389F4809190039927982F7B
S1131A008827209191033327822B932B019680936F
S1131A109103892F992780939003109201038FB724
S1131A20F894992740910102442321F08FBF81E06B
S1131A3090E044C08FBF52E08FB7F894992720916B
S1131A400F02213051F0222321F48FBF84E090E073
S1131A5034C08FBF85E090E030C050930F028FBF39
S1131A608FB7F894282F33278AE490E09093D50316
S1131A708093D4038FEB93E090937203809371036C
S1131A805093830383E08093B7024093BF02409353
S1131A900E022FBF0E9494038FB7F894282F332788
S1131AA08091B003816E8093B00395E090930F0210
S1131AB08093BC002FBF80E090E09927892B49F0E8
S1131AC00E94900006C00F5F675F7F4F023008F4EA
S1131AD0B4CE81E00E94AE00DF91CF911F910F91AF
S1131AE0FF90EF90DF90CF90BF90AF909F908F903A
S1131AF008952F923F924F925F926F927F928F92AE
S1131B009F92AF92BF92CF92DF92EF92FF920F9388
S1131B101F93CF93DF93CDB7DEB72A970FB6F89410
S1131B20DEBF0FBECDBF99278530910509F458C299
S1131B3086309105ACF48230910509F4B2C083304B
S1131B40910534F4009739F1019709F458C0D8C3CA
S1131B508330910509F415C1049709F486C1D0C3F3
S1131B608830910509F4D4C28930910544F4863053
S1131B70910509F451C2079709F4B5C2C1C38A306B
S1131B80910509F48AC38A3091050CF452C30B976A
S1131B9009F4A9C3B5C34091B102442349F58FB7F1
S1131BA0F894282F3327E090AC03F090AD03009114
S1131BB0AE031091AF038091020390910303A091AF
S1131BC00403B0910503E80EF91E0A1F1B1F2FBF63
S1131BD08091B5039091B603A091B703B091B80377
S1131BE04093B1029C01AD01C801B7010E945104A8
S1131BF00E949E03DC01CB01BC01CD013FC00E94C9
S1131C009E035B016C012FEF3FEF4FEF5FE770E046
S1131C108FB7F8949927709382038FBFEFE9F2E0AE
S1131C2061E0808581FF1CC080819181A281B381A4
S1131C3086017501E81AF90A0A0B1B0BD801C701C2
S1131C40E480F58006811781E81AF90A0A0B1B0B58
S1131C50E216F306040715071CF4A801970171E0C6
S1131C606150399667FFDDCF772309F449C3121613
S1131C701306140615062CF0C601B5010E940C0CBF
S1131C803FC32093B5033093B6034093B7035093F7
S1131C90B80381E08093B102C601B5010E945104EA
S1131CA02FC390918903892F8450823010F41092AD
S1131CB08903943009F024C38FB7F8949927382FF7
S1131CC0209110022223B9F08091B4028F3F89F44D
S1131CD0E0910302EE2369F0809104028F3F19F42E
S1131CE01092040204C0FF27EC54FD4F108210929E
S1131CF003023FBF05C311E01093100220937A033F
S1131D008FBF8FB7F894E82EFF2490910F02992388
S1131D10C9F4589A599A509851989093B90081E40B
S1131D208093B8009093BA009093BC000E949403EF
S1131D308091B00384608E7F8093B0038093BC0055
S1131D4010930F02EFBE8FB7F894082F1127902F2E
S1131D5080910202813099F480911002813021F443
S1131D6089E00E94AE0009C0823049F480917A0370
S1131D708093020283E0809310020FBFC1C29FBF11
S1131D80BFC28FB7F89499271091AB038FBF80918E
S1131D908903823011F4112339F08091DA038F5FC3
S1131DA08093DA03863020F083E08093890343C074
S1131DB08FB7F894282F3327809181038F5F809306
S1131DC081032FBF40917F03509180035093BE0243
S1131DD04093BD0280917E03882351F420E030E0DB
S1131DE08091CB02882311F421E030E0232B19F4F5
S1131DF085E090E00FC05093BA034093B90381E0AB
S1131E0080937E0386EB93E20E9467030E949C0208
S1131E1080E090E09927182F882311F482E007C00E
S1131E208091DA03853011F483E001C081E080936E
S1131E3089030E94F80B80918903833009F060C202
S1131E401092890320917F033091800380910002D6
S1131E50882309F055C26091B2027091B3026217EF
S1131E60730709F04DC2412F49C28FB7F894282F48
S1131E7033278091A503882309F433C28091970303
S1131E80E82FFF27EE0FFF1FE559FC4F608071809C
S1131E902FBFBCE08B2E912C860C971CF3018285FE
S1131EA08F3309F081C0D38487819927182F0027A5
S1131EB086819927082B192BEE24FF240E94A40065
S1131EC00817190719F00F5F1F4F19F4F1E0EF2EEF
S1131ED0F12CEF2809F468C0E3E9EE2EDE1409F0D2
S1131EE063C00E948A03F40180819927582F4427F4
S1131EF081819927482B592B80918A039927982F00
S1131F00882720918B033327822B932B84179507E3
S1131F1060F540938B03852F992780938A038281F0
S1131F209927382F222783819927282B392B20930F
S1131F308D03832F992780938C039927982F8827C3
S1131F403327822B932B5C01CC24DD240E949E0337
S1131F50DC01CB0111E0E12E96018501AC01BD014C
S1131F608E2D0E9489011092D603F401868199274F
S1131F70582F442787819927482B592B8091900308
S1131F809927982F8827209191033327822B932B0D
S1131F908417950748F440939103852F99278093DC
S1131FA0900381E0809301038FB7F894482F55275D
S1131FB080919703E82FFF27EE0FFF1FE559FC4F91
S1131FC0718260828F5F80939703833010F0109248
S1131FD097038091A50381508093A5034FBF45CFFC
S1131FE08091B103813079F40E949E03DC01CB011E
S1131FF0EE2404E610E020E030E0AC01BD018E2DBB
S11320000E9489017DC1823009F07AC18091A702C2
S11320108D7F8093A70274C18FB7F894E82EFF24B4
S1132020FA86E9862090090330900A0340900B0356
S113203050900C0366247EE4A72E63E8B62EC62CCB
S1132040D62CE62CF62C062D162D222D332D442DC0
S1132050552D662D762D862D962D0E94AF1629833B
S11320603A834B835C836D837E838F839887822E30
S1132070932EA42EB52EC62ED72EE82EF92E24018B
S11320803501769467945794479400E2282D392DAE
S11320904A2D5B2D6C2D7D2D8E2D9F2D0E94B91701
S11320A0A22EB32EC42ED52EA6019501240D351DC6
S11320B0461D571D57FF05C05F772F5F3F4F4F4F9A
S11320C05F4F2093090330930A0340930B0350930B
S11320D00C03F984FFBE8FB7F89499273093B403A7
S11320E02093B30313C08FB7F89499271092B602C4
S11320F01092B50210927403109273031092A70306
S11321001092A603109200031092FF028FBFF8C032
S11321108FB7F894282F33278091A2038093050268
S113212082E0809311022FBF80910502882309F079
S1132130E7C0209A289A80919403882309F076C0F6
S11321408EEF91E0019701960197E1F716982F9889
S113215086E090E0019701960197E1F7169A289896
S113216083EC8EBD0DB407FEFDCF8EB51EBC0DB441
S113217007FEFDCF8EB5289A289882EC8EBD0DB44B
S113218007FEFDCF8EB588E08EBD0DB407FEFDCFF2
S11321908EB5289A8EEF91E0019701960197E1F7A9
S11321A028988EEC8EBD0DB407FEFDCF8EB58DE460
S11321B08EBD0DB407FEFDCF8EB5289A289889EC04
S11321C08EBD0DB407FEFDCF8EB587EC8EBD0DB46C
S11321D007FEFDCF8EB5289A289885EC8EBD0DB4E8
S11321E007FEFDCF8EB580E88EBD0DB407FEFDCF92
S11321F08EB5289A109208038BE090E08093D70361
S1132200289888EC8EBD0DB407FEFDCF8EB58BE605
S11322108EBD0DB407FEFDCF8EB5289A2F9A81E0AE
S11322208093940380E00E94BB016AC00E94E40B87
S113223067C08FB7F894282F332780917A0380934F
S1132240020283E0809310022FBF209102028FB715
S1132250F8949927209301028FBF222309F050C0DC
S113226080918C039927982F882720918D033327F9
S1132270822B932B5C01CC24DD240E949E03DC0181
S1132280CB0131E0E32E96018501AC01BD018E2D19
S11322900E9489011092D60333C08091C003882321
S11322A079F111E000E03091C003832F8123A1F084
S11322B0802F9927FC01EE0FFF1FEE54FD4F118272
S11322C01082212F209532233093C003892B21F4CF
S11322D00E94900010929603110F0F5F083018F3BC
S11322E00FC02FBF0DC080910002E82FFF27EE0F13
S11322F0FF1FEE54FD4F41E0608171810E943C015B
S11323002A960FB6F894DEBF0FBECDBFDF91CF91F2
S11323101F910F91FF90EF90DF90CF90BF90AF90FF
S11323209F908F907F906F905F904F903F902F90F1
S113233008958091C1038F3FD1F09091C1038091A2
S1132340C103E82FFF27E953FC4F80818093C10329
S11323508091C1038F3F11F48093D303892F992770
S1132360FC01E953FC4F2FEF20839C0102C02FEFA7
S113237030E02F3F19F480E090E00895822F0E940E
S1132380790D81E090E00895CFEFD1E2DEBFCDBFBB
S11323908FB7F894C82F4CE050E06FEF70E087ECF3
S11323A093E00E945E188FEF8093C1038093D30360
S11323B056985E9854985C9880916F008F7D8093B6
S11323C06F00209A289A279A2F980E9A169A8DE0D1
S11323D093E09093C1028093C002109207038AE5B0
S11323E08093D90381E08093810080E28093B600DA
S11323F083E08093B10020918400309185004AE706
S113240080918400909185008217930708F44150CD
S11324109C014423A9F79091B2008091B2008917DE
S1132420E1F320918400309185009091B200809175
S1132430B2008917E1F38091840090918500821B9A
S1132440930B409625E0969587952A95E1F790930E
S11324508503809384031092B1008091B10080932E
S11324608100809181008093B6001092B200109296
S11324708500109284008FEF87BB87B386BB809161
S1132480B600282F33272571307021153105B9F78F
S11324900A9A099A089A129A119A109A28B98FEFEF
S11324A087B90C9814983093850020938400809108
S11324B06F00816080936F0080918100887F8260CB
S11324C08093810081E085BF0E949911282F3327D2
S11324D02223D1F78FEF8093B4028093D803822F05
S11324E00E94A70480910B0290910C020196AA27E6
S11324F0BB278093090390930A03A0930B03B09323
S11325000C038091B60080628093B6008091B6007F
S113251081FDFCCF82E08093B0008091B60080FD05
S1132520FCCF83E08093B1008091B60083FDFCCFA3
S113253086EE8093B3008091700082608093700077
S11325400E94C6032FEF3FEF84E0E8E9F3E0219314
S11325503193815087FFFBCF80910B028295807F5E
S11325608093BB0382E192E022E0EBE6F3E0819307
S1132570919321508F9627FFFACF0E9499118823B7
S1132580E1F7CFBF789410928D0388E290E08093B6
S11325908C0380910B0290910C0280938F03892FFE
S11325A0992780938E038FE88093BF038FB7F894A5
S11325B0282F3327809181038F5F809381032FBF5E
S11325C080918903882311F0C5E02BC081E08093BA
S11325D0B10380917B03882371F48091940381304B
S11325E069F420E030E08091CB02882311F421E0EB
S11325F030E0232B41F485E090E00CC0853019F4E1
S113260089E090E007C083E080937B030E94E40BA1
S113261080E090E09927C82F882319F484E0809300
S113262089030E94F80BCC2311F00E9490008FB70D
S1132630F894482F69C080916E0099278670907035
S1132640892B81F480916F0099278E729070892B69
S113265049F480917100282F33272E723070211590
S1132660310519F080E090E01AC00CB407FC0CC0EE
S11326708091C100807C41F48091C900807C21F468
S11326808091BC0082FF02C0C90109C080917A0018
S113269087FF03C081E090E002C085E090E0282F2E
S11326A080917000992783709070892BC1F080917C
S11326B0B60099278A719070892BC9F78091B3006D
S11326C09091B200891B8C3020F08091B200853F3C
S11326D018F082E090E005C083E090E002C085E05D
S11326E090E0E82F281708F4E22F83B7807FFF27B4
S11326F0E453FF4F9491892B816083BF789488952C
S1132700F89483B78E7F83BF8091C1038F3FC9F054
S11327109091C1038091C103E82FFF27E953FC4F37
S113272080818093C1038091C1038F3F11F4809312
S1132730D303892F9927FC01E953FC4F2FEF208302
S113274002C08FEF90E08F3F09F475CF4FBF0E9416
S1132750790D6DCF78941F920F920FB60F921124BA
S11327602F933F934F935F936F937F938F939F9395
S1132770AF93BF93EF93FF9380916F008D7F80930E
S11327806F0078948FB7F894282F33278091CB0269
S1132790813019F482E08093CB022FBF0E94E40BB6
S11327A0FF91EF91BF91AF919F918F917F916F9125
S11327B05F914F913F912F910F900FBE0F901F90FB
S11327C0189578941F920F920FB60F9211240F90C0
S11327D00FBE0F901F90189578941F920F920FB60A
S11327E00F9211240F900FBE0F901F90189578949C
S11327F01F920F920FB60F9211242F933F934F9372
S11328005F936F937F938F939F93AF93BF93EF9354
S1132810FF9380918400909185008091860090912F
S113282087002FB7F89433279093CD028093CC027E
S113283081E08093FD022FBF0E94E40BFF91EF9192
S1132840BF91AF919F918F917F916F915F914F91C4
S11328503F912F910F900FBE0F901F901895789471
S11328601F920F920FB60F9211242F933F938F93C1
S11328709F93AF93BF938FB7F894282F33278091FA
S1132880C6029091C702A091C802B091C9020196F4
S1132890A11DB11D8093C6029093C702A093C802E4
S11328A0B093C9022FBFBF91AF919F918F913F9178
S11328B02F910F900FBE0F901F9018951F920F929B
S11328C00FB60F9211242F933F934F935F936F93FF
S11328D07F938F939F93AF93BF93EF93FF938091D5
S11328E0B0008093B0008091B60081FDFCCF809150
S11328F0B300992701969C01442755278091C20271
S11329009091C302A091C402B091C502820F931F9B
S1132910A41FB51F8093C2029093C302A093C40264
S1132920B093C50278940E94C603FF91EF91BF91C2
S1132930AF919F918F917F916F915F914F913F9153
S11329402F910F900FBE0F901F9018951F920F920A
S11329500FB60F9211248F938091B0008093B00032
S11329608091B60081FDFCCF8F910F900FBE0F9028
S11329701F9018951F920F920FB60F9211248F92E9
S11329809F92AF92BF92CF92DF92EF92FF920F93FA
S11329901F932F933F934F935F936F937F938F93E3
S11329A09F93AF93BF93CF93DF93EF93FF938EB532
S11329B0282F3327E091B502F091B602309739F011
S11329C08091FF0290910003E80FF91F208380910A
S11329D0FF02909100030196909300038093FF02FD
S11329E080E00E9476048091FF0290910003209180
S11329F0A6033091A7038217930708F045C0E0901F
S1132A007303F09074038090B5029090B6026C0149
S1132A10AC01465F5F4F2417350708F09A0159014E
S1132A200894A108B1088A159B05E0F48C01080DEF
S1132A30191DEC01CE0DDF1DE114F10411F08881A4
S1132A4001C080E00E9484068114910411F0F80111
S1132A5080830894C11CD11C21960F5F1F4FCA1498
S1132A60DB0450F381E00E947604E114F10431F0B8
S1132A70EC0CFD1CF70180818EBD01C01EBCD09200
S1132A800003C092FF0211C01092B6021092B50268
S1132A9010927403109273031092A7031092A6036A
S1132AA0109200031092FF028EB5FF91EF91DF9117
S1132AB0CF91BF91AF919F918F917F916F915F91D2
S1132AC04F913F912F911F910F91FF90EF90DF90C5
S1132AD0CF90BF90AF909F908F900F900FBE0F90AC
S1132AE01F9018951F920F920FB60F9211242F93D7
S1132AF03F934F935F936F937F938F939F93AF9382
S1132B00BF93CF93EF93FF930E94940380910F029E
S1132B10843009F09AC080910E029091BF024091D6
S1132B208303813009F050C09417F0F4E0917103ED
S1132B30F0917203E90FF11D8091BB0080834091F5
S1132B40BF02242F332780918303992701972817E5
S1132B503907B1F58091B70282FD32C08091B0038C
S1132B608F7B8093B0032CC02091B003822F8E7F83
S1132B708093B0039091B702382F91FF09C09D7FD5
S1132B809093B70230613093B0038091B90003C0D1
S1132B902E772093B0038091B0038093BC0081E032
S1132BA080930F026091D4037091D5032091710337
S1132BB03091720380910102882309F0BEC086C05F
S1132BC04F5F4093BF02B5C03091B003941778F4BF
S1132BD0E0917103F0917203E90FF11D80818093FC
S1132BE0BB009F5F9093BF023093BC008FC0832FC4
S1132BF08E7F8093B0039091B70291FF05C09D7FB3
S1132C009093B702806101C08F778093B003809165
S1132C10B0038093BC0081E080930F028091010295
S1132C20882309F08AC0882319F081E090E009C064
S1132C302CEB33E043E06AE470E0842F0E949106B9
S1132C409927813009F079C056C0853009F05EC0FB
S1132C508091B7028E7F8093B7028091B0038F7DFD
S1132C608093B0038091B900887F883009F446C00E
S1132C708091B900887F803109F440C0C1E00E948E
S1132C8094038091B0038A7F8093B0038093BC0047
S1132C900E9494038091B00384608093B003809376
S1132CA0BC00C0930F0280910E0290910102882310
S1132CB081F06091D4037091D503409183032091F6
S1132CC07103309172039923C1F58C2F0E94E90698
S1132CD034C0992391F5992319F081E090E009C05B
S1132CE02CEB33E043E06AE470E0842F0E94910609
S1132CF09927813011F50E9490001FC083E08093D2
S1132D000F028091B00380648093B00380910F021E
S1132D10833099F480910E029091D403813019F498
S1132D20990F916001C0990F9093BB0084E0809348
S1132D300F028091B0038093BC00FF91EF91CF917B
S1132D40BF91AF919F918F917F916F915F914F91BF
S1132D503F912F910F900FBE0F901F901895A0E3F5
S1132D60B0E0E5EBF6E10C949818222E332E442EB5
S1132D70552E662E772E882E992E2A2D3B2DA8E0CF
S1132D80FE013196AA2E1192AA94E9F729823A8279
S1132D904B825C826D827E828F829886FE01399698
S1132DA0BA2E1192BA94E9F729873A87CB86DC8642
S1132DB0ED86FE860F87188BFE0171961192AA95F7
S1132DC0E9F7C980DA80EB80FC80C9A6DAA6EBA615
S1132DD0FCA6870176018FEF9FEFA0E0B0E0E82228
S1132DE0F9220A231B23A9A4BAA4CBA4DCA41601A8
S1132DF04424552489859A85AB85BC858DA79EA7D7
S1132E00AFA7B8AB5C016D018FEF9FEFA0E0B0E01E
S1132E10A822B922CA22DB228DA59EA5AFA5B8A9F6
S1132E203D0188249924C801B701A60195010E9497
S1132E30791869A37AA38BA39CA3C801B701A40141
S1132E4093010E9479186DA37EA38FA398A7C20152
S1132E50B101A60195010E9479187B018C01C20180
S1132E60B101A40193010E9479189B01AC01A9A0AE
S1132E70BAA0CBA0DCA0C601AA27BB27ADA0BEA0E8
S1132E80CFA0D8A4A80EB91ECA1EDB1EAE0CBF1C50
S1132E90C01ED11EADA2BEA2CFA2D8A6AE14BF043E
S1132EA0C006D10620F4205030404F4F5F4FCDA0D4
S1132EB0DEA0EFA0F8A4C701AA27BB27820F931FA7
S1132EC0A41FB51F8D8F9E8FAF8FB8A3A601332784
S1132ED0222789A19AA1ABA1BCA1A070B070280F30
S1132EE0391F4A1F5B1F298F3A8F4B8F5C8FA98C28
S1132EF0BA8CCB8CDC8CED8CFE8C0F8D18A1ED8AFA
S1132F00FE8A0F8B188F2D853E854F85588969A5BC
S1132F107AA58BA59CA50E9479183B014C018D8153
S1132F209E81AF81B885BC01CD012DA53EA54FA5DD
S1132F3058A90E947918DC01CB01680E791E8A1EFB
S1132F409B1E8D899E89AF89B88D860D971DA81DFE
S1132F50B91D8D8B9E8BAF8BB88F6D897E898F89C0
S1132F60988D2A2D3B2D4C2D5D2DE2E1E0960C949D
S1132F70B4188F929F92AF92BF92CF92DF92EF924A
S1132F80FF920F93CF93DF93CDB7DEB768970FB659
S1132F90F894DEBF0FBECDBFE82E002349F4298B81
S1132FA03A8B4B8B5C8B6D8B7E8B8F8B988F6CC02D
S1132FB088E0FE01319611928A95E9F729833A83D4
S1132FC04B835C836D837E83EF82988740E2401B52
S1132FD014160CF041C08D819E81AF81B8856C01BF
S1132FE07D0104C0CC0CDD1CEE1CFF1C4A95D2F7FD
S1132FF0202F332727FD3095022E04C0B695A795C0
S1133000979587950A94D2F78D879E87AF87B88B5B
S113301089819A81AB81BC8104C0B695A7959795A7
S113302087952A95D2F78C299D29AE29BF298987AE
S11330309A87AB87BC8729853A854B855C856D85E6
S11330407E858F859889298B3A8B4B8B5C8B6D8B16
S11330507E8B8F8B988F18C01D861E861F86188ABC
S1133060842F992787FD909522273327281B390B16
S11330708D819E81AF81B88504C0B695A79597953B
S113308087952A95D2F7D3CF29893A894B895C89C8
S11330906D897E898F89988D68960FB6F894DEBF06
S11330A00FBECDBFDF91CF910F91FF90EF90DF90D6
S11330B0CF90BF90AF909F908F900895DC0101C096
S11330C06D9341505040E0F70895AA1BBB1B51E19A
S11330D007C0AA1FBB1FA617B70710F0A61BB70B84
S11330E0881F991F5A95A9F780959095BC01CD0129
S11330F00895629FD001739FF001829FE00DF11D3E
S1133100649FE00DF11D929FF00D839FF00D749F5D
S1133110F00D659FF00D9927729FB00DE11DF91F09
S1133120639FB00DE11DF91FBD01CF011124089566
S11331302F923F924F925F926F927F928F929F92C3
S1133140AF92BF92CF92DF92EF92FF920F931F93B1
S1133150CF93DF93CDB7DEB7CA1BDB0B0FB6F89462
S1133160DEBF0FBECDBF09942A88398848885F84A2
S11331706E847D848C849B84AA84B984C884DF8013
S1133180EE80FD800C811B81AA81B981CE0FD11DF7
S11331900FB6F894DEBF0FBECDBFED010895FFCF8B
S11131A001FF01FFFFFFFFFF220100010000FD
S9030000FC
