S01700006275696C642F697269732F6D61696E2E7372656343
S11300000C9469000C9488000C9488000C9488006B
S11300100C9488000C9488000C9488000C9488003C
S11300200C9488000C9488000C9488000C9488002C
S11300300C9488000C9490050C9488000C94D805BA
S11300400C9488000C9488000C9488000C9488000C
S11300500C9488000C9488000C9488000C948800FC
S11300600C9488000C9488000C9488000C948800EC
S11300700C9488000C94EC050C9488000C94880073
S11300800C9488000C9488000C9488000C948800CC
S11300900C9488000C9488000C9488000C948800BC
S11300A00C9488000C9488000C9488000C948800AC
S11300B00C9488000C9488000C9488000C9488009C
S11300C00C9488000C9488000C94880000020E069E
S11300D00C0411241FBECFEFD1E2DEBFCDBF12E06E
S11300E0A0E0B2E0E8EBFCE000E00BBF02C0079048
S11300F00D92A230B107D9F712E0A2E0B2E001C03C
S11301001D92AF32B107E1F70E941A040C945B060A
S11301100C9400008FB7F894992708958FBF089521
S1130120282F869586958695E82FFF27EC5EFD4F50
S1130130277081E090E002C0880F991F2A95E2F7AA
S113014020812823822F99270895982F8FB7F89418
S1130150282FE92FFF27E85DFD4F80818F3FB1F401
S113016080912D02891791F0809127028F3F19F415
S11301709093270207C080912D02E82FFF27E85DA6
S1130180FD4F908390932D0280E001C085E02FBF46
S11301909927089550911E02552311F48EE101C050
S11301A08FE1982F20E030E0E22F552309F428E076
S11301B033278FB7F894582F80912C028E7F809329
S11301C02C02322F20917C0060E070E0822F829517
S11301D0869586958370E81749F4892F885086316F
S11301E018F42F71921711F461E070E0862F880FD4
S11301F020912C022D7F282B9F71892F880F880F27
S11302002378282B20932C02892F992780937C0014
S1130210406C21702295220F207E4F7D422B486135
S1130220383059F580911B0290911C0221E08638E8
S1130230920718F087E090E01FC0833C910518F006
S113024086E090E019C08136910518F085E090E0D1
S113025013C08033910518F084E090E00DC088311C
S1130260910518F083E090E007C00C9718F082E045
S113027090E002C080E090E0382F3770487F432B35
S1130280842F992780937A005FBF0895CF93DF93DB
S1130290E0910C02E1FF6CC0209104023091050250
S11302A04091060250910702621B730B840B950B5D
S11302B0A0910802B0910902C0910A02D0910B02E8
S11302C06A177B078C079D0708F452C0E0FF04C03F
S11302D0ED7FE0930C020CC02A0F3B1F4C1F5D1FE7
S11302E020930402309305024093060250930702C0
S11302F08FB7F894C82FDD2790910202992359F003
S113030080E00E949000882381F58091140281602E
S1130310809314022AC081E0809302029093190210
S1130320CFBF8FB7F894282F332780917A00806845
S113033080937A002FBF8FB7F894C82FDD279C2FA6
S113034080910002813099F480910202813021F47D
S113035082E00E94A50009C0823049F4809119020C
S11303608093000283E080930202CFBF01C09FBF4D
S113037081E00E94A500DF91CF9108958FB7F89492
S1130380282F3327809119028093000283E0809301
S113039002022FBF80910002882339F481E0809308
S11303A01D0210921E020E94CA000895EF92FF924D
S11303B00F931F93CF93DF9310921D0280911E021F
S11303C000910E0210910F02282F332721153105B9
S11303D009F06CC08FB7F894E82E80910202833044
S11303E009F054C080910002882309F04FC0809125
S11303F01402882309F03EC081E090E0892BE1F5E6
S1130400F0900302CF2DDD272196C130D10511F4E0
S1130410C0E0D0E08C2F0E949000882381F48F2DBF
S11304209927C817D90781F78FEF90E080931902B5
S113043081E08093020282E00E94A50027C08C2FF5
S1130440869586958695E82FFF27EC5EFD4F2C2F29
S1130450277081E090E002C0880F991F2A95E2F787
S1130460982F9095808189238083C09303028C2FD9
S11304709927DCCFC901C2CF81E08093000210929A
S1130480020280917A008F7780937A00EFBE02FF98
S113049002C0109801C0109A01FF02C0119801C057
S11304A0119A00FF02C0129801C0129ADF91CF91F5
S11304B01F910F91FF90EF9008958FB7F894982FA4
S11304C08091B200209110023091110240911202E9
S11304D050911302B99B11C08091B300280F311DB4
S11304E0411D511D8091B200280F311D411D511D28
S11304F02F5F3F4F4F4F5F4F04C0280F311D411DE9
S1130500511D9FBFCA01B90108950F931F93CF9343
S1130510DF9310E08FB7F894482F5527042F2091CC
S1130520B3009091B20087B3291711F081FF02C084
S11305304FBF71C080911A028823B1F10E945D02FD
S1130540DC01CB01C0911F02D0912002E091210275
S1130550F09122028C1B9D0BAE0BBF0B2091150258
S11305603091160240911702509118028217930796
S1130570A407B50720F010931A0211E015C02C0F40
S11305803D1F4E1F5F1F8091100290911102A09198
S11305901202B0911302281B390B4A0B5B0B273E46
S11305A031054105510510F086EE05C0223010F4E6
S11305B082E001C0822F682F61508091B60083FDD4
S11305C0FCCF8091B200861709F46F5F209110026E
S11305D0309111024091120250911302DA01C901C3
S11305E0860F911DA11DB11D0196A11DB11D82177C
S11305F09307A407B50718F46091100260958091E1
S1130600B60083FDFCCF6093B3000FBF112319F034
S113061080E00E94A500DF91CF911F910F91089572
S1130620EF92FF920F931F937B018C018FB7F89485
S1130630682F772781E080931A02E0921F02F092DC
S1130640200200932102109322022093150230937A
S1130650160240931702509318026FBF0E9485023E
S11306601F910F91FF90EF900895EF92FF920F93D7
S11306701F9340910D02442349F58FB7F894282F16
S11306803327E0901F02F090200200912102109184
S113069022028091150290911602A0911702B09146
S11306A01802E80EF91E0A1F1B1F2FBF8091230298
S11306B090912402A0912502B091260240930D024C
S11306C09C01AD01C801B7010E9410030E945D02A4
S11306D0DC01CB01BC01CD010E9446011F910F91A9
S11306E0FF90EF900895EF92FF920F931F93CF9393
S11306F0DF930E945D02FC01EB018FEFE82E8FEF88
S1130700F82E8FEF082F8FE7182F60E08FB7F8943B
S1130710992760931A028FBF80910C0281FF24C035
S11307208091040290910502A0910602B091070203
S11307309E01AF01281B390B4A0B5B0BDA01C9017F
S1130740209108023091090240910A0250910B0253
S1130750281B390B4A0B5B0B2E153F05400751072D
S11307601CF479018A0161E06623D9F01E141F0488
S1130770100611062CF0BE01CF010E94460111C0E3
S1130780E0922302F09224020093250210932602A1
S113079081E080930D02A8019701BE01CF010E9460
S11307A01003DF91CF911F910F91FF90EF90089567
S11307B0809127028F3FC9F09091270280912702F0
S11307C0E82FFF27E85DFD4F808180932702809109
S11307D027028F3F11F480932D02892F9927FC0162
S11307E0E85DFD4F2FEF208302C08FEF90E08F3F35
S11307F019F480E090E0089599278130910579F00B
S1130800823091051CF4892B39F011C08230910596
S113081049F0039751F00BC00E94350308C00E94B1
S1130820730305C00E94BE0102C00E94D60181E08C
S113083090E00895CFEFD1E2DEBFCDBF8FB7F8943B
S1130840C82F8FEF9FEFAFEFBFEF809328029093F5
S11308502902A0932A02B0932B028FEF80932702E0
S113086080932D0281E08093810080E28093B60022
S113087083E08093B10020918400309185004AE7A1
S113088080918400909185008217930708F4415069
S11308909C014423A9F79091B2008091B20089177A
S11308A0E1F320918400309185009091B200809111
S11308B0B2008917E1F38091840090918500821B36
S11308C0930B409625E0969587952A95E1F79093AA
S11308D01C0280931B021092B1008091B10080939E
S11308E08100809181008093B6001092B200109232
S11308F08500109284008FEF87BB87B386BB8091FD
S1130900B6009927857190700097C9F70A9A099AD9
S1130910089A129A119A109A88B98FEF87B90C988D
S1130920149810927A0081E085BF0E94D803992719
S11309308823D9F7809314028091B6008062809353
S1130940B6008091B60081FDFCCF82E08093B000B8
S11309508091B60080FDFCCF83E08093B10080914C
S1130960B60083FDFCCF86EE8093B30080917000C7
S11309708260809370000E9485020E94D8038823BD
S1130980E1F7CFBF78940E945D02DC01CB01809334
S1130990040290930502A0930602B093070284E632
S11309A090E0A0E0B0E08093080290930902A09345
S11309B00A02B0930B0280910C028E7F82608093B6
S11309C00C0281E00E94A5008FB7F894482F69C0FB
S11309D080916E00992786709070892B81F48091A4
S11309E06F0099278E729070892B49F48091710061
S11309F0282F33272E7230702115310519F080E02D
S1130A0090E01AC00CB407FC0CC08091C100807C3B
S1130A1041F48091C900807C21F48091BC0082FF64
S1130A2002C0C90109C080917A0087FF03C081E038
S1130A3090E002C085E090E0282F80917000992713
S1130A4083709070892BC1F08091B60099278A71C8
S1130A509070892BC9F78091B3009091B200891BE3
S1130A608C3020F08091B200853F18F082E090E055
S1130A7005C083E090E002C085E090E0E82F2817ED
S1130A8008F4E22F83B7807FFF27E453FF4F94914C
S1130A90892B816083BF78948895F89483B78E7F7F
S1130AA083BF809127028F3FC9F0909127028091E4
S1130AB02702E82FFF27E85DFD4F808180932702FE
S1130AC0809127028F3F11F480932D02892F99275B
S1130AD0FC01E85DFD4F2FEF208302C08FEF90E013
S1130AE08F3F09F475CF4FBF99278130910579F075
S1130AF0823091051CF4892B39F066CF8230910540
S1130B0049F0039751F060CF0E9435035DCF0E94F6
S1130B1073035ACF0E94BE0157CF0E94D60154CF0F
S1130B201F920F920FB60F9211242F933F934F935E
S1130B305F936F937F938F939F93AF93BF93EF9341
S1130B40FF938091B0008093B0008091B60081FD46
S1130B50FCCF8091B300992701969C014427552727
S1130B608091100290911102A0911202B09113028F
S1130B70820F931FA41FB51F80931002909311023C
S1130B80A0931202B093130278940E948502FF91FD
S1130B90EF91BF91AF919F918F917F916F915F91F1
S1130BA04F913F912F910F900FBE0F901F9018956A
S1130BB01F920F920FB60F9211248F938091B00061
S1130BC08093B0008091B60081FDFCCF8F910F908F
S1130BD00FBE0F901F9018951F920F920FB60F9291
S1130BE011242F933F934F935F936F937F938F932E
S1130BF09F93AF93BF93EF93FF93609178007091AD
S1130C00790078948FB7F894282F332780912C0299
S1130C10482F46954170582F51702FBF552301F529
S1130C2080917A00877F80937A0080911D029927B2
S1130C308130910519F0029759F02CC0442351F0EA
S1130C4070930F0260930E0283E00E94A50022C0FD
S1130C50442319F40E94CA001DC050931D021AC0F7
S1130C608FB7F89499278FBF8FB7F894482F5527DB
S1130C7080917A0080618777282F332720937A0028
S1130C808F7B282F332720937A00806899278093BD
S1130C907A004FBFFF91EF91BF91AF919F918F91D8
S1130CA07F916F915F914F913F912F910F900FBE64
S10B0CB00F901F901895FFCF6F
S1050CB8010035
S9030000FC
