:020000040800F2
:100000001C150020250100088D0100088D01000845
:100010008D0100088D0100088D010008000000001E
:100020000000000000000000000000008D0100083A
:100030008D010008000000008D0100088D010008FE
:100040008D0100088D0100088D0100088D01000858
:100050008D0100088D0100088D0100088D01000848
:100060008D0100088D0100088D0100088D01000838
:100070008D0100088D0100088D0100088D01000828
:100080008D0100088D0100088D01000800000000AE
:100090000000000000000000000000008D010008CA
:1000A0008D0100088D0100088D0100088D010008F8
:1000B0008D0100088D0100088D0100088D010008E8
:1000C0008D0100088D0100088D010008E51A000867
:1000D000F11A00088D0100088D0100088D0100084B
:1000E0008D0100088D0100088D010008000000004E
:1000F0000000000000000000000000000000000000
:1001000000000000000000000000000000000000EF
:1001100000000000000000008D0100088D010008B3
:100120005FF808F180B582B000AF134B7B60134BD2
:100130003B600BE07B681A683B681A603B6803F120
:1001400004033B607B6803F104037B603A680C4B5B
:100150009A42EFD30B480C494FF000028842B8BFD7
:1001600040F8042BFADB00F02BFA01F02BFB07F12F
:100170000807BD4680BD00BFCC5B00080000002022
:1001800000010020000100201C01002080B400AF0D
:10019000FEE700BF80B485B000AF0346FB714FF0AF
:1001A0000003FB60FB79062B25D801A252F823F04F
:1001B000CD010008D3010008D9010008DF010008C3
:1001C000E5010008EB010008F10100080E4BFB609F
:1001D00012E00E4BFB600FE00D4BFB600CE00D4B93
:1001E000FB6009E00C4BFB6006E00C4BFB6003E09E
:1001F0000B4BFB6000E000BFFB68184607F11407DB
:10020000BD4680BC704700BF00080140000C0140A3
:10021000001001400014014000180140001C014082
:100220000020014080B584B000AF0346FB804FF052
:100230000003FB60FB884FEA13239BB2FB72FB8831
:10024000BB72FB7A1846FFF7A5FFF860FB7A062B16
:1002500002D8BB7A0F2B02D94FF0010336E0FB7AAC
:10026000042B30D801A252F823F000BF810200080D
:100270008F0200089D020008AB020008B9020008C6
:10028000154B154A926942F005029A611CE0124B27
:10029000114A926942F009029A6115E00E4B0E4A2A
:1002A000926942F011029A610EE00B4B0A4A926980
:1002B00042F021029A6107E0074B074A926942F037
:1002C00041029A6100E000BF4FF00003184607F1B9
:1002D0001007BD4680BD00BF0010024080B584B04D
:1002E00000AF02460B46FA807B714FF00003FB60C3
:1002F000FB884FEA13239BB2FB72FB88BB72FB7A2D
:100300001846FFF747FFF8607B79002B58D1BB7A7E
:10031000072B2CD9BB7AA3F10803BB72FB685A6880
:10032000BB7A4FEA83034FF0030101FA03F36FEA4C
:1003300003031A40FB685A60FB685A68BB7A4FEAAD
:1003400083034FF0080101FA03F36FEA03031A4035
:10035000FB685A60FB685A68BB7A4FEA83034FF028
:10036000040101FA03F31A43FB685A6064E0FB6876
:100370001A68BB7A4FEA83034FF0030101FA03F3D3
:100380006FEA03031A40FB681A60FB681A68BB7ABD
:100390004FEA83034FF0080101FA03F36FEA030306
:1003A0001A40FB681A60FB681A68BB7A4FEA83033D
:1003B0004FF0040101FA03F31A43FB681A603BE0B3
:1003C000BB7A072B1ED9BB7AA3F10803BB72FB686B
:1003D0005A68BB7A4FEA83034FF0030101FA03F333
:1003E0001A43FB685A60FB685A68BB7A4FEA83037A
:1003F0004FF00C0101FA03F36FEA03031A40FB68A4
:100400005A6019E0FB681A68BB7A4FEA83034FF021
:10041000030101FA03F31A43FB681A60FB681A68C8
:10042000BB7A4FEA83034FF00C0101FA03F36FEA42
:1004300003031A40FB681A604FF00003184607F1E7
:100440001007BD4680BD00BF80B586B000AF034633
:10045000FB804FF000033B61FB884FEA13239BB204
:10046000FB73FB88BB73FB7B1846FFF793FE386179
:10047000BB7B072B2AD93B695A68BB7BA3F10803D6
:100480004FEA830322FA03F303F00303002B0ED198
:100490003B699A68BB7B22FA03F3002B03D14FF030
:1004A0000003FB753AE04FF00103FB7536E03B6952
:1004B000DA68BB7B22FA03F3002B03D14FF0000371
:1004C000FB752BE04FF00103FB7527E03B691A68D1
:1004D000BB7B4FEA830322FA03F303F00303002BF1
:1004E0000ED13B699A68BB7B22FA03F3002B03D140
:1004F0004FF00003FB7511E04FF00103FB750DE0B9
:100500003B69DA68BB7B22FA03F3002B03D14FF07F
:100510000003FB7502E04FF00103FB75FB7D1846FD
:1005200007F11807BD4680BD80B584B000AF024614
:100530000B46FA807B714FF00003FB60FB884FEAAB
:1005400013239BB2FB72FB88BB72FB7A1846FFF742
:1005500021FEF860FB881846FFF776FF03467B72A2
:100560007B79002B0AD1FB681A69BB7A4FF0010135
:1005700001FA03F31A43FB681A6109E0FB685A6940
:10058000BB7A4FF0010101FA03F31A43FB685A6189
:100590007B7A184607F11007BD4680BD80B485B050
:1005A00000AFBA607B600346FB810B467B734FF064
:1005B0000103184607F11407BD4680BC704700BF11
:1005C00080B500AF174B174A126842F001021A605B
:1005D000144A144B5968144B01EA03035360114A3F
:1005E000104B1B6823F0847323F4803313600D4B8E
:1005F0000C4A126822F480221A600A4B094A526897
:1006000022F4FE025A60074B4FF41F029A60054B1A
:100610004FF00002DA6200F00BF8044B4FF000627A
:100620009A6080BD001002400000FFF800ED00E07D
:1006300080B500AF00F002F880BD00BF80B483B089
:1006400000AF4FF000037B604FF000033B60314B85
:10065000304A126842F480321A602E4B1B6803F451
:1006600000333B607B6803F101037B603B68002B38
:1006700003D17B68B3F5A06FEFD1264B1B6803F461
:100680000033002B03D04FF001033B6002E04FF03A
:1006900000033B603B68012B37D11E4B1D4A52685B
:1006A0005A601C4B1B4A52685A601A4B194A5268CE
:1006B0005A60184B174A526822F47C125A60154B44
:1006C000144A526842F498125A60124B114A126846
:1006D00042F080721A6000BF0E4B1B6803F000737B
:1006E000002BF9D00B4B0B4A526822F003025A60E0
:1006F000084B084A526842F002025A6000BF054B9C
:100700005B6803F00C03082BF9D107F10C07BD4619
:1007100080BC70470010024080B489B000AF7860A0
:1007200039604FF00003FB614FF000033B614FF075
:100730000003BB614FF00003FB604FF000037B61DF
:100740004FF00003BB603B68DB7803F00F03FB61F5
:100750003B68DB7803F01003002B05D03B689B78E7
:10076000FA6942EA0303FB613B681B8803F0FF035D
:10077000002B53D07B681B687B614FF00003BB618B
:1007800043E0BB694FF0010202FA03F3FB603B68F0
:100790001B881A46FB6802EA03033B613A69FB685F
:1007A0009A422ED1BB694FEA8303FB60FB684FF08E
:1007B0000F0202FA03F3BB60BB686FEA03037A69B6
:1007C00002EA03037B61FB68FA6902FA03F37A69C0
:1007D00042EA03037B613B68DB78282B06D1BB69C7
:1007E0004FF0010202FA03F27B685A613B68DB7842
:1007F000482B06D1BB694FF0010202FA03F27B6875
:100800001A61BB6903F10103BB61BB69072BB8D94E
:100810007B687A691A604FF000037B613B681B8834
:10082000FF2B56D97B685B687B614FF00003BB618F
:1008300049E0BB6903F108034FF0010202FA03F338
:10084000FB603B681B881A46FB6802EA03033B61B6
:100850003A69FB689A4232D1BB694FEA8303FB6075
:10086000FB684FF00F0202FA03F3BB60BB686FEA4C
:1008700003037A6902EA03037B61FB68FA6902FAFF
:1008800003F37A6942EA03037B613B68DB78282B38
:1008900008D1BB6903F108034FF0010202FA03F229
:1008A0007B685A613B68DB78482B08D1BB6903F150
:1008B00008034FF0010202FA03F27B681A61BB6978
:1008C00003F10103BB61BB69072BB2D97B687A696D
:1008D0005A6007F12407BD4680BC704780B487B0DA
:1008E00000AF78604FF000037B614FF000033B6185
:1008F0004FF00003FB604FF00003BB604F4B5B68A1
:1009000003F00C037B617B69042B07D0082B09D013
:10091000002B35D17B684A4A1A6035E07B68484A2B
:100920001A6031E0454B5B6803F470133B613B692F
:100930004FEA934303F102033B61404B5B6803F4CE
:100940008033FB60FB68002B06D13B693D4A02FB0C
:1009500003F27B681A6017E0384B5B6803F40033DE
:10096000002B06D03B69374A02FB03F27B681A6012
:100970000AE03B69324A02FB03F27B681A6003E03B
:100980007B682F4A1A6000BF2C4B5B6803F0F003B2
:100990007B617B694FEA13137B612B4A7B69D31818
:1009A0001B78BB607B681A68BB6822FA03F27B681D
:1009B0005A60224B5B6803F4E0637B617B694FEA1A
:1009C00013237B61204A7B69D3181B78BB607B684B
:1009D0005A68BB6822FA03F27B689A60174B5B681F
:1009E00003F460537B617B694FEAD3237B61164A32
:1009F0007B69D3181B78BB607B685A68BB6822FA96
:100A000003F27B68DA600D4B5B6803F440437B6163
:100A10007B694FEA93337B610C4A7B69D3181B785F
:100A2000BB607B68DA68BB68B2FBF3F27B681A6173
:100A300007F11C07BD4680BC704700BF0010024094
:100A400000127A0000093D00A4580008B4580008BC
:100A500080B590B000AF786039604FF00003BB63A1
:100A60004FF00003FB634FF000037B634FF0000384
:100A70003B637A688F4B9A4206D144F204004FF0F0
:100A8000010102F0A5F820E07A688B4B9A420CD164
:100A90004FF004004FF0010102F09AF84FF40030DB
:100AA0004FF0010102F0B6F80FE07A68834B9A42EA
:100AB0000BD14FF008004FF0010102F089F84FF41C
:100AC00080204FF0010102F0A5F87A68794B9A4234
:100AD00023D17B4A7A4B9B6943F4804343F0040360
:100AE00093614FF400733B814FF01803FB724FF09A
:100AF0000303BB7207F1080372481946FFF70CFEA7
:100B00004FF480633B814FF00403FB7207F108034D
:100B10006C481946FFF700FE4EE07A68664B9A4231
:100B200023D1674A664BDB6943F4003343F0040387
:100B3000D3614FF004033B814FF01803FB724FF079
:100B40000303BB7207F108035E481946FFF7E4FD93
:100B50004FF008033B814FF00403FB7207F10803D9
:100B600058481946FFF7D8FD26E07A68534B9A4259
:100B700022D1534A524BDB6943F4802343F00803EC
:100B8000D3614FF480633B814FF01803FB724FF049
:100B90000303BB7207F108034B481946FFF7BCFD7E
:100BA0004FF400633B814FF00403FB7207F108032D
:100BB00045481946FFF7B0FD3B68FB604FF0000366
:100BC000BB824FF00C03BB754FF00003FB754FF079
:100BD00000033B764FF001037B764FF00003BB76BA
:100BE0003B7E002B07D07B687A68128A92B242F46F
:100BF000806292B21A82FB7D002B07D07B687A68F4
:100C0000128A92B242F4006292B21A82BB7E002B28
:100C100007D07B687A68128A92B242F4807292B2EC
:100C20001A827B7E002B07D07B687A68128A92B288
:100C300042F4007292B21A82BB7D042B08D17B6809
:100C40007A68928992B242F0040292B29A810AE0E2
:100C5000BB7D082B07D17B687A68928992B242F0FB
:100C6000080292B29A814FF00003BB637B689B8AB3
:100C70009BB2BB63BA6B4FF6FF4302EA0303BB634D
:100C8000BB8ABA6B42EA0303BB637B68BA6B92B25E
:100C90009A824FF00003BB6307F11C031846FFF76D
:100CA0001DFE07F104031A68024B9A420ED1BB6A7B
:100CB000FB630DE000380140004400400048004064
:100CC0000010024000080140000C01407B6AFB63F9
:100CD000FA6B13464FEA83039B184FEA83029A1874
:100CE000FB684FEA8303B2FBF3F37B637A6B1E4B23
:100CF000A3FB02134FEA53134FEA0313BB63BB6B0F
:100D00004FEA13134FF0640202FB03F37A6BD31A1A
:100D10003B633B6B4FEA031303F13202124BA3FB1D
:100D200002134FEA531303F00F03BA6B42EA0303B3
:100D3000BB637B68BA6B92B21A817B687A689289CE
:100D400092B242F4005292B29A817B687A68928998
:100D500092B242F00C0292B29A814FF00003184610
:100D600007F14007BD4680BD1F85EB5180B487B0B9
:100D700000AFF860B9607A60BB683B614FF0000378
:100D80007B6112E03A697B69D3181B781A46FB68CD
:100D90009A8000BFFB681B889BB203F08003002B86
:100DA000F8D07B6903F101037B617A697B689A4221
:100DB000E8D37B68184607F11C07BD4680BC704726
:100DC00080B487B000AFF860B9607A60BB683B61FF
:100DD0004FF000037B6111E07B694FEA43033A69FE
:100DE000D218FB689B889BB24FEAC3534FEAD35398
:100DF0009BB213807B6903F101037B617A697B6895
:100E00009A42E9D37B68184607F11C07BD4680BCAF
:100E1000704700BF80B58CB000AF786039604FF08C
:100E20000003BB624FF00003FB624FF000037B62E4
:100E30004FF000033B624FF00003BB6207F10C036D
:100E40001846FFF74BFD07F104031A68214B9A423D
:100E500002D1BB69FB6201E07B69FB62FA6A13465F
:100E60004FEA83039B184FEA83029A183B684FEAC4
:100E70008303B2FBF3F37B627A6A174BA3FB021383
:100E80004FEA53134FEA0313BB62BB6A4FEA1313D3
:100E90004FF0640202FB03F37A6AD31A3B623B6AA7
:100EA0004FEA031303F132020B4BA3FB02134FEA89
:100EB000531303F00F03BA6A42EA0303BB627B6871
:100EC000BA6A92B21A814FF00003184607F1300750
:100ED000BD4680BD003801401F85EB5180B586B00E
:100EE00000AFF8607A603B600B46FB724FF0010385
:100EF000FB75FB7A032B00F2248101A252F823F048
:100F0000110F0008230F0008850F00088B10000840
:100F1000F8687968FFF77EFF38614FF00003FB75D2
:100F200012E1FB689B899BB203F48053002B02D033
:100F3000012B04D007E04FF008033B6103E04FF0C2
:100F400009033B6100BF7B68082B02D0092B0CD042
:100F500017E0FB689B899BB223F480539AB2FB682D
:100F60009A814FF00003FB750BE0FB689B899BB2F5
:100F700043F480539AB2FB689A814FF00003FB75EB
:100F800000BFE1E0FB681B8A9BB203F44053032BD4
:100F90001AD801A252F823F0A90F0008B10F0008D7
:100FA000B90F0008C10F00084FF000033B610CE0CF
:100FB0004FF003033B6108E04FF002033B6104E0A4
:100FC0004FF001033B6100E000BF7B68032B00F2A0
:100FD000BA8001A252F823F011100008391000085D
:100FE00061100008E90F0008FB681B8A9BB243F4FC
:100FF00080539AB2FB681A82FB681B8A9BB223F467
:1010000000539AB2FB681A824FF00003FB753BE075
:10101000FB681B8A9BB223F480539AB2FB681A8246
:10102000FB681B8A9BB223F400539AB2FB681A82B6
:101030004FF00003FB7527E0FB681B8A9BB243F46B
:1010400080539AB2FB681A82FB681B8A9BB243F4F6
:1010500000539AB2FB681A824FF00003FB7513E04D
:10106000FB681B8A9BB223F480539AB2FB681A82F6
:10107000FB681B8A9BB243F400539AB2FB681A8246
:101080004FF00003FB7500BF5EE0FB689B899BB2DD
:1010900003F48063002B02D0012B04D012E04FF048
:1010A00000033B610EE0FB689B899BB203F4007375
:1010B000002B03D04FF001033B6103E04FF002032C
:1010C0003B6100BF7B68012B10D0012B02D3022BA8
:1010D00020D035E0FB689B899BB223F480639AB2F1
:1010E000FB689A814FF00003FB7529E0FB689B8940
:1010F0009BB243F480639AB2FB689A81FB689B8938
:101100009BB243F400739AB2FB689A814FF00003DC
:10111000FB7515E0FB689B899BB243F480639AB230
:10112000FB689A81FB689B899AB240F6FF5302EAFA
:1011300003039AB2FB689A814FF00003FB7500BF6E
:1011400002E000BF00E000BFFB7D002B05D13B6843
:10115000002B02D03B683A691A60FB7D184607F104
:101160001807BD4680BD00BF80B582B000AF786073
:1011700004487968FFF76CFC0346184607F1080736
:10118000BD4680BD0038014080B582B000AF7860B8
:1011900004487968FFF75CFC0346184607F1080726
:1011A000BD4680BD0044004080B582B000AF78608D
:1011B00004487968FFF74CFC0346184607F1080716
:1011C000BD4680BD0048004080B582B000AF786069
:1011D0003960054879683A68FFF7C8FD0346184644
:1011E00007F10807BD4680BD0038014080B582B0D8
:1011F00000AF78603960054879683A68FFF7B6FD56
:101200000346184607F10807BD4680BD004400406C
:1012100080B582B000AF78603960054879683A6877
:10122000FFF7A4FD0346184607F10807BD4680BD39
:101230000048004080B582B000AF78603960054852
:1012400079683A68FFF7BCFD0346184607F10807BE
:10125000BD4680BD0038014080B582B000AF7860E7
:101260003960054879683A68FFF7AAFD03461846D1
:1012700007F10807BD4680BD0044004080B582B03C
:1012800000AF78603960054879683A68FFF798FDE3
:101290000346184607F10807BD4680BD00480040D8
:1012A00080B584B000AF0346B9607A60FB73FB7B06
:1012B00005481946BA687B68FFF710FE03461846D2
:1012C00007F11007BD4680BD0038014080B584B0ED
:1012D00000AF0346B9607A60FB73FB7B0548194693
:1012E000BA687B68FFF7FAFD0346184607F1100756
:1012F000BD4680BD0044004080B584B000AF0346C9
:10130000B9607A60FB73FB7B05481946BA687B6855
:10131000FFF7E4FD0346184607F11007BD4680BD00
:101320000048004080B500AF024B1B68184603F030
:101330001BFE80BD0800002080B584B000AF0346CE
:10134000FB71244B1B78FB73FB79002B03D04FF010
:101350000303FB7334E0FB7B23F00203FB73FB7B93
:1013600023F00403FB73FB7B03F00103002B27D165
:10137000194B1B6818464FF03A014FF000024FF02E
:10138000FF0304F00FF8144B1B6818464FF00001E0
:1013900004F0B6F80346002B03D0FB7B43F00103B7
:1013A000FB730D4B1B689B689B6807F10802104696
:1013B0004FF004019847084B1B68184603F0D4FD12
:1013C000044BFA7B1A70FB7B184607F11007BD46E9
:1013D00080BD00BF000000200800002080B584B060
:1013E00000AF0346FB71FB791846FFF7A5FF0346E4
:1013F000FB73FB7B03F00203002B01D0FB7B16E0A9
:101400000D4B1B68184603F0C1FD0346FB73FB7BC5
:10141000002B04D1FB7B23F00103FB7303E0FB7B78
:1014200043F00103FB73054BFA7B1A70FB7B1846F4
:1014300007F11007BD4680BD080000200000002015
:1014400080B586B000AFB9607A600246FA73FB706F
:10145000FB7B1846FFF770FF0346FB75FB7D03F02F
:101460000103DBB2002B02D04FF0030339E0FB781D
:10147000002B02D14FF0040333E01C4B1B7803F028
:101480000803002B03D17B684FEA43237B60FB7882
:10149000012B0FD1164B1B6818467968BA684FF4B8
:1014A000007303F00FFE0346002B14D14FF000032E
:1014B000FB7010E00E4B1A68FB7810467968BA682A
:1014C00003F0D6FE0346002B02D14FF0010308E0E3
:1014D0004FF0000305E0FB78002B0CBF0023012335
:1014E000DBB2184607F11807BD4680BD0C0100208D
:1014F0000800002080B586B000AFB9607A6002466F
:10150000FA73FB70FB7B1846FFF716FF0346FB756B
:10151000FB7D03F00103DBB2002B02D04FF003038D
:101520003EE0FB7D03F00403002B02D04FF00203EA
:1015300036E0FB78002B02D14FF0040330E01B4B68
:101540001B7803F00803002B03D17B684FEA432389
:101550007B60FB78012B0FD1154B1B68184679680F
:10156000BA684FF4007303F045FD0346002B11D118
:101570004FF00003FB700DE00D4B1A68FB7810462E
:101580007968BA6803F0FEFD0346002B02D14FF0E4
:101590000003FB70FB78002B0CBF00230123DBB2A0
:1015A000184607F11807BD4680BD00BF0C0100209A
:1015B0000800002080B588B000AF0B463A600246B4
:1015C000FA71BB71FB791846FFF7B6FE034603F0CC
:1015D0000103DBB2002B02D04FF00303ADE04FF06C
:1015E0000103FB77BB79012B0BD0032B00F0958017
:1015F000002B40F09A80FFF795FE4FF00003FB7739
:1016000098E0504B1B68184603F09CFC4D4B1B6840
:1016100018464FF009014FF000024FF0FF0303F0AE
:10162000C1FE484B1B6818464FF0000103F068FFED
:101630000346002B7DD1434B1B6818464FF0FE013B
:1016400003F05EFF0346002B09D13E4B1B689B68ED
:101650009B6807F1080210464FF010019847394B7C
:101660001B689B68DB684FF0FF009847354B1B6891
:101670009B68DB684FF0FF0098473B7A4FEA931373
:10168000DBB2012B10D17B7C1A463B7C4FEA032353
:101690009BB2D3189BB203F10103BB833B68BA8BA7
:1016A0004FEA82221A6034E07B7B03F00F03DAB248
:1016B000BB7C4FEAD313DBB2D318DAB27B7C03F0E6
:1016C0000303DBB24FEA4303DBB2D318DBB203F10F
:1016D0000203FB763B7C4FEA9313DBB21A46FB7B9B
:1016E0004FEA83039BB2D3189AB2BB7B03F0030388
:1016F0009BB24FEA83239BB2D3189BB203F1010341
:10170000BB833B68B98BFA7EA2F1090201FA02F2AF
:101710001A604FF00003FB770CE03B684FF080024B
:101720001A604FF00003FB7704E04FF00403FB77EF
:1017300000E000BFFFF7F6FDFB7F184607F120072A
:10174000BD4680BD0800002080B582B000AF0346D2
:10175000FB71FB790448194601F0C6F9034B1B687D
:10176000184603F001FCFEE7E858000808000020D6
:1017700080B400AF024B1846BD4680BC704700BF26
:101780000000213C80B483B000AF4FF000037B60C9
:101790000EE04FF000033B6003E03B6803F1010300
:1017A0003B603B68092BF8DD7B6803F101037B603C
:1017B0007A6840F2E7339A42EBDD07F10C07BD4649
:1017C00080BC7047B0B5ADF59A6D00AF40F207230D
:1017D000A7F8CE34A94BC7F8C834A94BC7F8C4340E
:1017E000A84B1B681B684FF4E130984707F11803BA
:1017F000A54A92E8030083E8030007F11803A34811
:10180000194601F071F9A24B1B68B7F8CE241A8073
:101810009F4B1B68D7F8C4245A609D4B1B68D7F8B0
:10182000C8249A609A4B1B685B681B68984A1268C8
:10183000128810469847964B1B685B685B68944A11
:101840001268128810464FF001019847904B1B68B0
:101850009B681B694FF000004FF000014FF0000241
:1018600098478B4B1B689B681B694FF001004FF03A
:1018700006014FF000029847854B1B689B681B6967
:101880004FF002004FF008014FF000029847804BE4
:101890001B689B681B694FF003004FF000014FF07D
:1018A000000298477A4B1B689B681B684FF000004A
:1018B0004FF080019847034687F8C33497F8C33444
:1018C000002B02D1734801F00FF9714B1B681846C9
:1018D00003F05CFB034687F8C33407F523734FF02E
:1018E0000000194602F098FC6B4801F013F907F16B
:1018F0006803184669494FF0010202F0BBFC034639
:1019000087F8C23497F8C234002B04D097F8C23459
:101910001846FFF719FF624801F0FCF807F168016B
:1019200007F1200207F13003A3F104030846114632
:101930004FF00C0202F0D0FD034687F8C23497F84E
:10194000C234002B14D107F13003A3F104031B6848
:10195000002B0DD007F120035248194601F0C4F8BE
:1019600007F168039A6807F16803DB689A42D5D1EA
:1019700007F11003A3F10C034B4A1C4615460FCD8B
:101980000FC42B68236007F11003A3F10C033F4839
:10199000194601F0A9F807F16803184603F04AF95F
:1019A000034687F8C23497F8C234002B04D097F866
:1019B000C2341846FFF7C8FE3C4801F0ABF807F107
:1019C000680318463A494FF0020202F053FC0346FE
:1019D00087F8C23497F8C234002B04D097F8C23489
:1019E0001846FFF7B1FE07F16803DB689BB2314888
:1019F000194601F079F807F16803DB6807F168021E
:101A00001046194603F02CF9034687F8C1342A48DA
:101A100001F080F807F1680207F13003104627490A
:101A20004FF00E0202F0D0FE034687F8C23497F85A
:101A3000C234002B04D097F8C2341846FFF784FE56
:101A400097F8C134002B07D107F16803DB689BB21C
:101A50001B48194601F048F807F16803184603F0DF
:101A6000E9F8034687F8C23497F8C234002B29D02E
:101A700097F8C2341846FFF767FE23E00C5A0008B7
:101A80009058000804000020F0590008FC58000895
:101A900008000020005900081059000820590008CB
:101AA0003459000850590008F859000858590008DE
:101AB0007C590008905900089C590008C459000836
:101AC000D459000897F8C234002B04D097F8C234D8
:101AD0001846FFF739FE024801F01CF8FEE700BF88
:101AE000E059000880B400AFBD4680BC704700BF1D
:101AF00080B400AFBD4680BC704700BF80B485B0E5
:101B000000AF786039607A68624B9A420FD1614BBE
:101B10001B889BB203F038034FEAE303BB60BB684A
:101B200003F101035C4A22FA03F3FB6012E07A68D6
:101B30005A4B9A420ED1594B1B889BB203F0380383
:101B40004FEAE303BB60BB6803F10103544A22FA86
:101B500003F3FB603B68072B00F2948001A252F86C
:101B600023F000BF851B0008971B0008B91B000865
:101B7000DB1B0008FD1B00081F1C0008411C00089F
:101B8000631C00087B681B889BB223F038039AB261
:101B90007B681A8077E07B681B889BB223F0300358
:101BA0009AB27B681A807B681B889BB243F008035B
:101BB0009AB27B681A8066E07B681B889BB223F030
:101BC00038039AB27B681A807B681B889BB243F00B
:101BD00010039AB27B681A8055E07B681B889BB221
:101BE00023F038039AB27B681A807B681B889BB20B
:101BF00043F018039AB27B681A8044E07B681B8824
:101C00009BB223F038039AB27B681A807B681B88EA
:101C10009BB243F020039AB27B681A8033E07B6862
:101C20001B889BB223F038039AB27B681A807B68CA
:101C30001B889BB243F028039AB27B681A8022E08B
:101C40007B681B889BB223F038039AB27B681A80AA
:101C50007B681B889BB243F030039AB27B681A8082
:101C600011E07B681B889BB223F038039AB27B6833
:101C70001A807B681B889BB243F038039AB27B685A
:101C80001A8000E000BFFB68184607F11407BD4644
:101C900080BC70470030014000A24A040038004078
:101CA0000051250280B586B000AFF8600B467A601F
:101CB000FB72FA68884B9A4220D1884A874B9B690D
:101CC00043F4805343F004039361854A844B1B68BB
:101CD00043F04C5343F440131360814A804B1B681C
:101CE00023F04C4323F4400313607D4A7C4B1B6874
:101CF00043F0084343F40003136050E0FA68794B63
:101D00009A4224D1754B754AD26942F48042DA6115
:101D1000724B724A926942F008029A61724A724B9F
:101D20005B6843F04C5343F4401353606E4A6E4B70
:101D30005B6823F04C4323F4400353606A4A6A4BC8
:101D40005B6843F0084343F40003536027E0FA68FC
:101D5000664B9A4223D1614B604AD26942F40042F9
:101D6000DA615E4B5D4A926942F008029A615E4A0E
:101D70005D4B1B6843F44C1343F4405313605A4AC1
:101D8000594B1B6823F44C0323F440431360564A19
:101D9000554B1B6843F4080343F400431360F86891
:101DA0007968FFF7ABFEFB681B889BB223F040030A
:101DB0009AB2FB681A80FB7A002B10D1FB681B8853
:101DC0009BB223F001039AB2FB681A80FB681B8860
:101DD0009BB223F002039AB2FB681A8037E0FB7AC9
:101DE000012B10D1FB681B889BB243F001039AB210
:101DF000FB681A80FB681B889BB223F002039AB22F
:101E0000FB681A8023E0FB7A022B10D1FB681B8849
:101E10009BB223F001039AB2FB681A80FB681B880F
:101E20009BB243F002039AB2FB681A800FE0FB6892
:101E30001B889BB243F001039AB2FB681A80FB68CF
:101E40001B889BB243F002039AB2FB681A80FA68BF
:101E5000214B9A4210D1204B1F4A928892B242F0F5
:101E6000040292B29A801C4B1B4A128892B242F032
:101E7000040292B21A800BE0FA681A4B9A4207D118
:101E8000184B184A128892B222F0040292B21A80B9
:101E9000FB681B889BB243F040039AB2FB681A8030
:101EA0004FF480337B6109E07B6903F1FF337B6191
:101EB0007B69002B02D14FF0010308E0FB681B890E
:101EC0009BB203F08003002BEED14FF000031846C5
:101ED00007F11807BD4680BD0030014000100240E8
:101EE0000008014000380040000C0140003C004068
:101EF00080B485B000AF7860396000BF7B681B8913
:101F00009BB203F08003002BF8D100BF7B681B89D4
:101F10009BB203F00203002BF8D03B689AB27B68B7
:101F20009A8100BF7B681B899BB203F08003002B62
:101F3000F8D100BF7B681B899BB203F00103002B23
:101F4000F8D07B689B899BB2FB60FB68184607F161
:101F50001407BD4680BC704780B586B000AFF860FE
:101F6000B9607A60FB681B889BB203F40063002BA6
:101F700003D14FF00803FB7402E04FF01003FB7431
:101F80004FF000037B6119E0FB7C082B08D1BA6895
:101F90007B69D3181B78F8681946FFF7A9FF09E099
:101FA000BA687B694FEA4303D3181B88F86819465F
:101FB000FFF79EFF7B6903F101037B617A697B6810
:101FC0009A42E1D37B68184607F11807BD4680BDE9
:101FD00090B587B000AFF860B9607A60FB681B8885
:101FE0009BB203F40063002B03D14FF00803FB7492
:101FF00002E04FF01003FB744FF000037B611FE021
:10200000FB7C082B0BD1BA687B69D418F8684FF0B9
:10201000FF01FFF76DFF0346DBB223700CE0BA68E7
:102020007B694FEA4303D418F8684FF6FF71FFF756
:102030005FFF03469BB223807B6903F101037B6151
:102040007A697B689A42DBD37B68184607F11C07E4
:10205000BD4690BD80B586B000AFF8607A603B6049
:102060000B46FB724FF00103FB75FB7A032B00F26A
:10207000A88001A252F823F0892000084921000815
:102080005D21000893210008FB681B889BB223F0A8
:1020900040039AB2FB681A807B68002B10D1FB6862
:1020A0001B889BB223F001039AB2FB681A80FB687D
:1020B0001B889BB223F002039AB2FB681A8037E0B8
:1020C0007B68012B10D1FB681B889BB243F0010396
:1020D0009AB2FB681A80FB681B889BB223F002034C
:1020E0009AB2FB681A8023E07B68022B10D1FB6850
:1020F0001B889BB223F001039AB2FB681A80FB682D
:102100001B889BB243F002039AB2FB681A800FE06F
:10211000FB681B889BB243F001039AB2FB681A80EC
:10212000FB681B889BB243F002039AB2FB681A80DB
:10213000FB681B889BB243F040039AB2FB681A808D
:102140004FF00003FB753DE0F8687968FFF7D6FCB7
:1021500003463B614FF00003FB7533E07B68082BBF
:1021600008D1FB681B889BB223F400639AB2FB681A
:102170001A800AE07B68102B07D1FB681B889BB292
:1021800043F400639AB2FB681A804FF00003FB75BA
:1021900018E07B68002B08D1FB681B889BB223F0FA
:1021A00080039AB2FB681A8007E0FB681B889BB229
:1021B00043F080039AB2FB681A804FF00003FB756E
:1021C00000E000BFFB7D002B05D13B68002B02D057
:1021D00007F110033B60FB7D184607F11807BD4669
:1021E00080BD00BF80B582B000AF03463960FB718F
:1021F000FB79054819463A68FFF754FD034618462F
:1022000007F10807BD4680BD0030014080B582B0AF
:1022100000AF03463960FB71FB79054819463A68FF
:10222000FFF740FD0346184607F10807BD4680BD8D
:102230000038004080B582B000AF03463960FB71C2
:10224000FB79054819463A68FFF72CFD0346184606
:1022500007F10807BD4680BD003C004080B582B054
:1022600000AF786004487968FFF742FE03461846DD
:1022700007F10807BD4680BD0030014080B582B03F
:1022800000AF786004487968FFF732FE03461846CD
:1022900007F10807BD4680BD0038004080B582B018
:1022A00000AF786004487968FFF722FE03461846BD
:1022B00007F10807BD4680BD003C004080B582B0F4
:1022C00000AF78603960054879683A68FFF744FEE6
:1022D0000346184607F10807BD4680BD003001409F
:1022E00080B582B000AF78603960054879683A6897
:1022F000FFF732FE0346184607F10807BD4680BDCA
:102300000038004080B582B000AF78603960054881
:1023100079683A68FFF720FE0346184607F1080778
:10232000BD4680BD003C004080B582B000AF786003
:102330003960054879683A68FFF74AFE034618464F
:1023400007F10807BD4680BD0030014080B582B06E
:1023500000AF78603960054879683A68FFF738FE61
:102360000346184607F10807BD4680BD0038004007
:1023700080B582B000AF78603960054879683A6806
:10238000FFF726FE0346184607F10807BD4680BD45
:10239000003C004080B584B000AF0346B9607A606D
:1023A000FB73FB7B05481946BA687B68FFF752FE52
:1023B0000346184607F11007BD4680BD00300140B6
:1023C00080B584B000AF0346B9607A60FB73FB7BD5
:1023D00005481946BA687B68FFF73CFE0346184675
:1023E00007F11007BD4680BD0038004080B584B0BD
:1023F00000AF0346B9607A60FB73FB7B0548194662
:10240000BA687B68FFF726FE0346184607F11007F7
:10241000BD4680BD003C004080B584B000AF03469F
:10242000FB71FB79FB73064B1B685B6807F10F02BE
:1024300010464FF00101984707F11007BD4680BDD7
:102440000400002080B483B000AF78600B46FB70BE
:102450007B68FA781A704FF00103184607F10C07F1
:10246000BD4680BC704700BF80B485B000AF7860C7
:1024700039604FF00003FB600FE03B681A787B681F
:102480001A707B6803F101037B603B6803F1010371
:102490003B60FB6803F10103FB603B681B78002B8A
:1024A000EBD1FB68184607F11407BD4680BC7047A6
:1024B00080B586B000AFF8607A603B600B46FB7277
:1024C0004FF000037B617B6803F1FF337B603B6867
:1024D000092B22D93A68224BA3FB02134FEAD303FC
:1024E000FA7AF86811467A68FFF7E2FF78617B694B
:1024F000FA68D318FB6013E0FB7AF8681946FFF717
:10250000A1FFFB6803F10103FB607B6903F1010399
:102510007B617B6803F1FF337B607B68002BEBDC26
:1025200039680F4BA3FB01234FEAD30213464FEA4E
:1025300083039B184FEA4303CA1AD3B203F1300353
:10254000DBB2F8681946FFF77DFF03467A69D318B6
:102550007B617B69184607F11807BD4680BD00BF47
:10256000CDCCCCCC80B586B000AFF8607A603B6053
:102570000B46FB724FF000037B613B68002B04DAD3
:102580003B68C3F100033B6101E03B683B617B6852
:1025900003F1FF337B603B69092B24D93B68002B97
:1025A0000FDA3A69354BA3FB02134FEAD303C3F1A9
:1025B0000003FA7AF86811467A68FFF7D3FF78616A
:1025C0000CE03A692D4BA3FB02134FEAD303FA7ACE
:1025D000F86811467A68FFF7C5FF78617B69FA6889
:1025E000D318FB602BE03B68002B15DA7B6803F106
:1025F000FF337B6010E0FB7AF8681946FFF722FF93
:10260000FB6803F10103FB607B6903F101037B615C
:102610007B6803F1FF337B607B68002BEBDC3B685E
:10262000002B0CDAF8684FF02D01FFF70BFF034683
:102630007A69D3187B61FB6803F10103FB60396998
:102640000E4BA3FB01234FEAD30213464FEA830349
:102650009B184FEA4303CA1AD3B203F13003DBB22B
:10266000F8681946FFF7EEFE03467A69D3187B61D6
:102670007B69184607F11807BD4680BDCDCCCCCC90
:1026800080B588B002AFF8607A600A46FA72FB70D3
:102690004FF000037B617B6803F1FF337B603B6A93
:1026A0004FEA1313002B24D03B6A4FEA1311FA7A36
:1026B000FB780091F86811467A68FFF7E1FF03465E
:1026C0007A69D3187B617B69FA68D318FB6013E0E1
:1026D000FB7AF8681946FFF7B5FEFB6803F10103C2
:1026E000FB607B6903F101037B617B6803F1FF33CE
:1026F0007B607B68002BEBDC3B6A03F00F03092B4C
:102700000CD83B6ADBB203F00F03DBB203F13003FA
:10271000DBB2F8681946FFF795FE1BE0FB78002B4B
:102720000CD03B6ADBB203F00F03DBB203F13703DB
:10273000DBB2F8681946FFF785FE0BE03B6ADBB2B7
:1027400003F00F03DBB203F15703DBB2F86819465D
:10275000FFF778FE7B6903F101037B617B69184613
:1027600007F11807BD4680BD80B58AB002AFF8609A
:10277000B9607A603B604FF00003BB614FF000032B
:102780007B61FB68002B00F01C81FB684FF00002AE
:102790001A7017E17B681B78252B10D07B681A789C
:1027A000FB681A70FB6803F10103FB607B6803F1AF
:1027B00001037B607B6903F101037B6102E17B68BC
:1027C00003F101031B78252B10D1FB684FF0250284
:1027D0001A70FB6803F10103FB607B6803F10203DD
:1027E0007B607B6903F101037B61EBE04FF0200329
:1027F000FB774FF00003BB777B6803F101037B603D
:102800007B681B78302B1BD14FF03003FB777B6844
:1028100003F101037B6014E0BB7F1A464FEA82029A
:10282000D3184FEA4303DAB27B681B78D318DBB2C4
:10283000A3F13003BB777B6803F101037B6000E009
:1028400000BF7B681B782F2B03D97B681B78392B43
:10285000E2D9BA7F7B69D3181A46BB689A4205D978
:10286000BB68DAB27B69DBB2D31ABB777B681B78B3
:10287000A3F15803202B00F2948001A252F823F018
:1028800055290008A3290008A3290008A329000846
:10289000A3290008A3290008A3290008A3290008E8
:1028A000A3290008A3290008A32900088B290008F0
:1028B00005290008A3290008A3290008A329000866
:1028C000A329000805290008A3290008A329000856
:1028D000A3290008A3290008A3290008A3290008A8
:1028E000A3290008A3290008A329000875290008C6
:1028F000A32900081D290008A3290008A32900080E
:1029000035290008BA7F3B6803F1040139601B6870
:10291000F97FF868FFF726FEB86145E0BA7F3B68AB
:1029200003F1040139601B68F97FF868FFF7C0FD07
:10293000B86139E0BA7F3B6803F104013960196876
:10294000FB7F0091F86819464FF00003FFF798FEEF
:10295000B86129E0BA7F3B6803F104013960196866
:10296000FB7F0091F86819464FF00103FFF788FEDE
:10297000B86119E03B6803F104023A601B68F8682B
:102980001946FFF771FDB8610EE03B6803F10402E0
:102990003A601B68DBB2F8681946FFF753FDB8616F
:1029A00002E04FF0FF332CE07B6803F101037B6012
:1029B000BB69FA68D318FB607A69BB69D3187B617D
:1029C00000E000BF7B681B78002B04D07A69BB68ED
:1029D0009A42FFF4DFAE7A69BB689A4204D2FB6880
:1029E0004FF000021A700BE0FB6803F1FF33FB604D
:1029F000FB684FF000021A707B6903F1FF337B61C3
:102A00007B69184607F12007BD4680BD80B584B0BC
:102A100000AFF860B9607A60F8684FF42F71BA6857
:102A20007B68FFF7A1FE0346184607F11007BD4675
:102A300080BD00BFB0B5ADF53C7D00AF07F10C0324
:102A4000186007F10803196007F104031A6007F121
:102A50001002184B14461D460FCD0FC40FCD0FC4E6
:102A60002B68236007F1340107F1080207F1040322
:102A7000084611681A68FFF7C9FF024640F2BB23F7
:102A80009A4209DD0C4B1B68DB6807F11002104607
:102A9000194600F075F8FEE707F1340207F10C0360
:102AA0001046196800F06CF80346184607F53C77A5
:102AB000BD46B0BD485A0008FC00002080B582B079
:102AC00000AF78603960074B1B689B6818467968CF
:102AD0003A68FFF7AFFF0346184607F10807BD46FF
:102AE00080BD00BFFC0000200FB480B582B000AFF5
:102AF00007F114033B6038693968FFF7DFFF78603E
:102B00007B68184607F10807BD46BDE8804004B061
:102B1000704700BF80B582B000AF7860064B1B687D
:102B20009B687868194600F02BF80346184607F1B1
:102B30000807BD4680BD00BFFC00002080B582B004
:102B400000AF786039600D4B1B689A683B689A4209
:102B500005D00A4B1B68DA683B689A4206D17B684D
:102B6000DBB21846FFF758FC7B6801E04FF0FF33FB
:102B7000184607F10807BD4680BD00BFFC000020D5
:102B800080B584B000AF786039604FF00003FB601F
:102B900014E07B681B7818463968FFF7CFFF0346BF
:102BA000B3F1FF3F02D14FF0FF330CE0FB6803F1BC
:102BB0000103FB607B6803F101037B607B681B788A
:102BC000002BE6D1FB68184607F11007BD4680BD13
:102BD00080B483B000AF78600B46FB70FB78002BAD
:102BE00007D00B4B0A4A91697A6841EA02029A615E
:102BF00008E0074B064A91697A686FEA020201EA27
:102C000002029A6107F10C07BD4680BC704700BF05
:102C10000010024080B483B000AF78600B46FB70B8
:102C2000FB78002B07D00B4B0A4AD1697A6841EA3E
:102C30000202DA6108E0074B064AD1697A686FEA56
:102C4000020201EA0202DA6107F10C07BD4680BC0C
:102C5000704700BF0010024080B487B000AFF8603A
:102C6000B9607A60FB687B61BB683B610FE07B69A0
:102C70003A6912681A607B6903F104037B613B695E
:102C800003F104033B617B68A3F104037B607B6871
:102C9000032BECD80BE03B691A787B691A707B69CF
:102CA00003F101037B613B6903F101033B617B6835
:102CB000002B0CBF00230123DBB27A6802F1FF3244
:102CC0007A60002BE7D107F11C07BD4680BC704736
:102CD00080B487B000AFF860B9607A60FB687B6150
:102CE00007E0BB68DAB27B691A707B6903F1010304
:102CF0007B617B68002B0CBF00230123DBB27A6869
:102D000002F1FF327A60002BEBD107F11C07BD46C0
:102D100080BC704780B489B000AFF860B9607A6059
:102D2000FB68FB61BB68BB614FF000037B6100BFC8
:102D30007B68002B0CBF00230123DBB27A6802F111
:102D4000FF327A60002B16D0FB691B781A46BB69EC
:102D50001B78D31A7B617B69002B14BF00230123EE
:102D6000DBB2FA6902F10102FA61BA6902F1010209
:102D7000BA61002BDCD17B69184607F12407BD46F8
:102D800080BC704780B483B000AF7860396003E0E6
:102D90007B6803F101037B607B681B78002B05D007
:102DA0007B681B781A463B689A42F1D17B681B7896
:102DB000184607F10C07BD4680BC704780B584B04B
:102DC00000AF786039607B681B6BFB60FA683B681A
:102DD0009A4255D07B681B79002B39D07B685A7892
:102DE0007B6803F1340310461946FA684FF001037B
:102DF000FEF780FB0346002B02D04FF0010341E0B9
:102E00007B684FF000021A717B685A6A7B681B6A04
:102E1000D218FB689A421BD97B68DB78FB7214E0FE
:102E20007B681B6AFA68D318FB607B685A787B68FA
:102E300003F1340310461946FA684FF00103FEF718
:102E400059FBFB7A03F1FF33FB72FB7A012BE7D8C6
:102E50003B68002B14D07B685A787B6803F13403FD
:102E6000104619463A684FF00103FEF7E9FA0346A7
:102E7000002B02D04FF0010304E07B683A681A632C
:102E80004FF00003184607F11007BD4680BD00BF94
:102E900080B584B000AF786078684FF00001FFF72C
:102EA0008DFF0346FB73FB7B002B5AD17B681B789D
:102EB000032B47D17B685B79002B43D07B684FF0B5
:102EC00000021A637B6803F1340318464FF00001D7
:102ED0004FF40072FFF7FCFE7B6803F1340303F547
:102EE000FF734AF655221A807B6803F13403204AA7
:102EF0001A607B6803F1340303F5F2731D4A1A600C
:102F00007B6803F1340303F5F4737A6812691A607D
:102F10007B6803F1340303F5F6737A68D2681A60AC
:102F20007B6859787B6803F134027B685B690846EB
:102F300011461A464FF00103FEF7DCFA7B684FF0AA
:102F400000025A717B685B7818464FF000014FF021
:102F50000002FEF72FFB0346002B02D04FF00103C7
:102F6000FB73FB7B184607F11007BD4680BD00BF11
:102F7000525261417272416180B483B000AF786097
:102F800039603B68A3F102033B607B68DB69A3F116
:102F900002023B689A4202D84FF0000307E07B68C8
:102FA0009B783A6802FB03F27B68DB6AD318184609
:102FB00007F10C07BD4680BC704700BF80B586B0E6
:102FC00000AF786039603B68012B04D97B68DA690F
:102FD0003B689A4202D84FF001039AE07B681B7865
:102FE000022B53D0032B6DD0012B40F090803B6817
:102FF0007B617B694FEA53037A69D3187B617B68F5
:103000005A6A7B694FEA5323D31878681946FFF749
:10301000D5FE0346002B73D17B694FEAC3534FEAB9
:10302000D3537A68D31893F834303B617B6903F14A
:1030300001037B617B685A6A7B694FEA5323D3188B
:1030400078681946FFF7BAFE0346002B5AD17B6910
:103050004FEAC3534FEAD3537A68D31893F8343006
:103060004FEA03233A6942EA03033B613B6803F0FA
:103070000103DBB2002B03D03B694FEA131304E0DA
:103080003B694FEA03534FEA135342E07B685A6AA5
:103090003B684FEA1323D31878681946FFF78EFE72
:1030A0000346002B30D17B6803F134023B684FEAC2
:1030B00043034FEAC3534FEAD353D318FB60FB6873
:1030C0001B8826E07B685A6A3B684FEAD313D31803
:1030D00078681946FFF772FE0346002B16D17B680D
:1030E00003F134023B684FEA83034FEAC3534FEACC
:1030F000D353D318FB60FB681B6823F0704308E0D0
:1031000000BF04E000BF02E000BF00E000BF4FF0DE
:10311000FF33184607F11807BD4680BD80B588B05B
:1031200000AFF860B9607A60BB68012B04D9FB6816
:10313000DA69BB689A4203D84FF00203FB77DCE000
:10314000FB681B78022B00F08280032B00F09F802D
:10315000012B40F0C380BB68BB61BB694FEA5303DE
:10316000BA69D318BB61FB685A6ABB694FEA53233B
:10317000D318F8681946FFF721FE0346FB77FB7F5B
:10318000002B40F0AF80FB6803F13402BB694FEACB
:10319000C3534FEAD353D3187B61BB6803F00103D9
:1031A000DBB2002B0FD07B691B78DBB203F00F037F
:1031B000DAB27B68DBB24FEA0313DBB242EA030305
:1031C000DBB2DBB201E07B68DBB27A691370BB690A
:1031D00003F10103BB61FB684FF001021A71FB6848
:1031E0005A6ABB694FEA5323D318F8681946FFF7A8
:1031F000E5FD0346FB77FB7F002B75D1FB6803F1F0
:103200003402BB694FEAC3534FEAD353D3187B61EF
:10321000BB6803F00103DBB2002B04D07B684FEAEC
:103220001313DBB210E07B691B78DBB223F00F03D2
:10323000DAB27B684FEA1323DBB203F00F03DBB291
:1032400042EA0303DBB2DBB27A69137051E0FB6838
:103250005A6ABB684FEA1323D318F8681946FFF778
:10326000ADFD0346FB77FB7F002B3FD1FB6803F1ED
:103270003402BB684FEA43034FEAC3534FEAD353C8
:10328000D3187B617B697A6892B21A8031E0FB685F
:103290005A6ABB684FEAD313D318F8681946FFF788
:1032A0008DFD0346FB77FB7F002B21D1FB6803F1EB
:1032B0003402BB684FEA83034FEAC3534FEAD35348
:1032C000D3187B617B691B6803F070437A6842EA1C
:1032D00003037B607B697A681A600AE04FF002039F
:1032E000FB7706E000BF04E000BF02E000BF00E0A3
:1032F00000BFFB684FF001021A71FB7F184607F10F
:103300002007BD4680BD00BF80B584B000AF7860A7
:1033100039603B68012B04D97B68DA693B689A42C3
:1033200003D84FF00203FB733FE04FF00003FB7341
:1033300032E078683968FFF741FEB860BB68002B5F
:1033400030D0BB68012B03D14FF00203FB732CE09C
:10335000BB68B3F1FF3F03D14FF00103FB7324E0DF
:10336000786839684FF00002FFF7D8FE0346FB7318
:10337000FB7B002B18D17B681B69B3F1FF3F09D0A1
:103380007B681B6903F101027B681A617B684FF05F
:1033900001025A71BB683B607B68DA693B689A42FC
:1033A000C7D802E000BF00E000BFFB7B184607F172
:1033B0001007BD4680BD00BF80B586B000AF786005
:1033C00039603B68002B0ED17B68DB683B613B6951
:1033D000002B04D07B68DA693B699A4217D84FF01A
:1033E00001033B6113E078683968FFF7E7FDB860D7
:1033F000BB68012B02D84FF001036DE07B68DA69EE
:10340000BB689A4201D9BB6866E03B683B613B6997
:103410007B6100E000BF7B6903F101037B617B6896
:10342000DA697B699A4209D84FF002037B617A69B5
:103430003B699A4202D94FF000034DE07868796900
:10344000FFF7BCFDB860BB68002B0BD178687969C9
:103450006FF07042FFF762FE0346FB73FB7B002BAD
:1034600010D019E0BB68B3F1FF3F02D0BB68012B5D
:1034700001D1BB6830E07A693B699A42CAD14FF00A
:10348000000329E03B68002B06D0786839687A6928
:10349000FFF744FE0346FB73FB7B002B12D17B68D6
:1034A0007A69DA607B681B69B3F1FF3F13D07B68F0
:1034B0001B6903F1FF327B681A617B684FF00102E0
:1034C0005A7108E0FB7B012B02D14FF0FF3301E082
:1034D0004FF001037B617B69184607F11807BD4671
:1034E00080BD00BF80B584B000AF78600B467B80A4
:1034F0007B687A88DA807B689B68FB60FB68012BBD
:1035000005D07B681B68DA69FB689A4202D84FF0E5
:1035100002036DE0FB68002B08D17B681B681B78F9
:10352000032B03D17B681B689B6AFB60FB68002B45
:1035300016D17B68FA68DA607B681B681B897A8819
:103540009A4202D34FF0020352E07B681B689A6AEA
:103550007B884FEA13139BB2D2187B681A6139E05B
:103560007B681B689B784FEA03137B811DE07B68B7
:103570001B681846F968FFF721FDF860FB68B3F196
:10358000FF3F02D14FF0010332E0FB68012B05D968
:103590007B681B68DA69FB689A4202D84FF0020325
:1035A00026E07A887B89D31A7B807A887B899A4245
:1035B000DDD27B68FA68DA607B681B681846F968B8
:1035C000FFF7DAFC02467B884FEA13139BB2D2184E
:1035D0007B681A617B681B6803F134027B8803F007
:1035E0000F034FEA4313D2187B685A614FF0000370
:1035F000184607F11007BD4680BD00BF90B585B0E5
:1036000000AF786039607B68DB8803F101033B81A0
:103610003B89002B03D07B681B69002B02D14FF044
:103620000403D4E03B8903F00F039BB2002B40F06E
:10363000BD807B681B6903F101027B681A617B68AE
:10364000DB68002B09D17B681B681B893A899A4289
:10365000C0F0AC804FF00403B9E03B894FEA13138C
:103660009BB21A467B681B689B7803F1FF3302EA22
:103670000303002B40F09A807B681A687B68DB6844
:1036800010461946FFF79AFCF860FB68012B02D838
:103690004FF002039BE0FB68B3F1FF3F02D14FF014
:1036A000010394E07B681B68DA69FB689A4271D871
:1036B0003B68002B02D14FF0040388E07B681A6856
:1036C0007B68DB6810461946FFF776FEF860FB68FA
:1036D000002B02D14FF0070379E0FB68012B02D1E8
:1036E0004FF0020373E0FB68B3F1FF3F02D14FF0EC
:1036F00001036CE07B681B6818464FF00001FFF780
:103700005DFB0346002B02D04FF001035FE07B68B6
:103710001B6803F1340318464FF000014FF40072A8
:10372000FFF7D6FA7B681C687B681B681846F96847
:10373000FFF722FC034623634FF00003FB721BE0FC
:103740007B681B684FF001021A717B681B68184682
:103750004FF00001FFF732FB0346002B02D04FF081
:10376000010334E07B681B681A6B02F101021A63E3
:10377000FB7A03F10103FB727B681B689B78FA7A82
:103780009A42DDD37B681B687A681268116BFA7AFB
:103790008A1A1A637B68FA68DA607B681B681846C5
:1037A000F968FFF7E9FB02467B681A617B683A8992
:1037B000DA807B681B6803F134023B8903F00F0356
:1037C0004FEA4313D2187B685A614FF00003184642
:1037D00007F11407BD4690BD80B586B000AF786094
:1037E00078684FF00001FFF77DFE0346FB75FB7D17
:1037F000002B01D0FB7D3BE07B681A687B681B696E
:1038000010461946FFF7DAFA0346FB75FB7D002BDD
:103810002AD17B685B693B613B691B78FB73FB7B4F
:10382000002B03D14FF00403FB7520E03B6903F14B
:103830000B031B7803F00803002B0AD17B689B69FC
:10384000386919464FF00B02FFF764FA0346002B64
:103850000CD078684FF00001FFF7D0FE0346FB75EF
:10386000FB7D002BC8D002E000BF00E000BFFB7D65
:10387000184607F11807BD4680BD00BF80B584B06B
:1038800000AF786078684FF00001FFF72BFE034629
:10389000FB73FB7B002B22D17B681A687B681B695A
:1038A00010461946FFF78AFA0346FB73FB7B002B91
:1038B00014D17B685B691B78BB73BB7BE52B0ED097
:1038C000BB7B002B0BD078684FF00101FFF796FE11
:1038D0000346FB73FB7B002BDED000E000BFFB7BCD
:1038E000002B23D17B681A687B681B691046194638
:1038F000FFF764FA0346FB73FB7B002B16D17B6852
:103900005B69BB60B8684FF000014FF02002FFF721
:10391000DFF97B689B69B86819464FF00B02FFF727
:103920009BF97B681B684FF001021A71FB7B1846FC
:1039300007F11007BD4680BD80B588B000AF786044
:1039400039603B681B68FB6003E0FB6803F101031F
:10395000FB60FB681B782F2BF7D0FB681B785C2B78
:10396000F3D07B689B69BB60B8684FF020014FF0D3
:103970000B02FFF7ADF94FF00003FB774FF00003A8
:103980003B613B697B614FF00803BB61FA687B696F
:10399000D3181B782E2B38D1FA687B69D3181B7883
:1039A000BB777B6903F101037B61BB7F2E2B0CD1BD
:1039B0007B69022B09D8BA683B69D318BA7F1A70A1
:1039C0003B6903F101033B61E6E7BB7F2F2B08D086
:1039D000BB7F5C2B05D0BB7F202B02D94FF00603A9
:1039E000B6E0FA687B69D2183B681A60BB6803F1DD
:1039F0000B02BB7F202B02D84FF0240301E04FF0D5
:103A0000200313704FF00003A2E0FA687B69D3181B
:103A10001B78BB777B6903F101037B61BB7F202BA4
:103A20005AD9BB7F2F2B57D0BB7F5C2B54D0BB7F89
:103A30002E2B03D03A69BB699A4214D3BB69082B79
:103A400002D1BB7F2E2B02D04FF0060380E04FF057
:103A500008033B614FF00B03BB61FB7F4FEA83031D
:103A6000FB7700BFD1E7BB7F5BB2002B06DAFB7FA1
:103A700043F00303FB774FF0060369E0BB7F374851
:103A80001946FFF77FF90346002B02D04FF00603DB
:103A90005EE0BB7F402B07D9BB7F5A2B04D8FB7F4E
:103AA00043F00203FB770DE0BB7F602B0AD9BB7F9D
:103AB0007A2B07D8FB7F43F00103FB77BB7FA3F191
:103AC0002003BB77BA683B69D318BA7F1A703B6989
:103AD00003F101033B6198E7FA687B69D2183B6800
:103AE0001A60BB7F202B02D84FF0040301E04FF097
:103AF0000003BB773B69002B02D14FF0060327E0A0
:103B0000BB681B78E52B03D1BB684FF005021A7028
:103B1000BB69082B03D1FB7F4FEA8303FB77FB7F55
:103B200003F00303012B03D1BB7F43F01003BB77EA
:103B3000FB7F03F00C03042B03D1BB7F43F008038E
:103B4000BB77BB6803F10B03BA7F1A704FF0000319
:103B5000184607F12007BD4680BD00BF6C5A00081B
:103B600080B584B000AF786039603B681B782F2B3C
:103B700003D03B681B785C2B08D13B6803F1010341
:103B80003B607B684FF000029A6004E07B681B6832
:103B90009A697B689A603B681B781F2B0BD8786802
:103BA0004FF00001FFF79EFC0346FB737B684FF06C
:103BB00000025A6165E03B4678681946FFF7BCFE93
:103BC0000346FB73FB7B002B52D17868FFF704FEA2
:103BD0000346FB737B689B6903F10B031B78BB7384
:103BE000FB7B002B22D0FB7B042B43D1BB7B03F060
:103BF0002003002B11D07B684FF000029A607B6895
:103C00004FF000025A614FF00003FB73BB7B03F0DF
:103C10000403002B30D100BFCDE7BB7B03F00403CE
:103C2000002B2BD14FF00503FB732AE0BB7B03F085
:103C30000403002B24D17B685B69BB60BB6803F184
:103C40000B031B7803F01003002B03D14FF0050387
:103C5000FB7316E0BB6803F114031B884FEA0342B1
:103C6000BB6803F11A031B881A437B689A60A2E7BA
:103C700000BF06E000BF04E000BF02E000BF00E0BC
:103C800000BFFB7B184607F11007BD4680BD00BF93
:103C900080B582B000AF786039607B685A787B6805
:103CA00003F13403104619463A684FF00103FDF75B
:103CB000C7FB0346002B02D04FF003032AE07B68CA
:103CC00003F1340303F5FF731A884AF655239A4229
:103CD00002D04FF002031DE07B6803F1340303F1CF
:103CE00036031B6823F07F420D4B9A4202D14FF0FE
:103CF00000030FE07B6803F1340303F152031B68F8
:103D000023F07F42064B9A4202D14FF0000301E0BC
:103D10004FF00103184607F10807BD4680BD00BFFC
:103D20004641540080B592B000AFF860B9601346C8
:103D3000FB71FB681B68FB62FB6A1B78A3F1300315
:103D40003B643B6C092B0DD8FB6A03F101031B7824
:103D50003A2B07D1FB6A03F10203FB62FB68FA6AA4
:103D60001A6002E0974B1B783B643B6C012B02D935
:103D70004FF00B031BE2944B3A6C53F82230BB62BA
:103D8000BB68BA6A1A60BB6A002B02D14FF00C0301
:103D90000DE2BB6A1B78002B1CD0BB6A5B7818460F
:103DA000FDF7CAFA034687F8273097F8273003F063
:103DB0000103002B0ED1FB79002B08D097F8273098
:103DC00003F00403002B02D04FF00A03EFE14FF0A1
:103DD0000003ECE1BB6A4FF000021A703B6CDAB2F0
:103DE000BB6A5A70BB6A5B781846FDF7F7FA034660
:103DF00087F8273097F8273003F00103DBB2002B58
:103E000002D04FF00303D2E1FB79002B08D097F8E2
:103E1000273003F00403002B02D04FF00A03C6E161
:103E20004FF00003FB63B86AF96BFFF731FF0346FD
:103E300087F8473097F84730012B2AD14FF000031D
:103E400087F8463097F84630002B05D097F8463073
:103E500003F1FF3387F84630BB6A03F1340297F869
:103E600046304FEA031303F5DF73D3183B623B6A16
:103E700003F104031B78002B0BD03B6A03F108030A
:103E80001B68FB63B86AF96BFFF702FF034687F80C
:103E9000473097F84730032B02D14FF0010386E1FA
:103EA00097F84730002B02D04FF00D037FE1BB6A3B
:103EB00003F1340303F10B031B88B3F5007F02D039
:103EC0004FF00D0373E1BB6A03F1340303F11603F2
:103ED0001B88BB63BB6B002B06D1BB6A03F13403A9
:103EE00003F124031B68BB63BB6ABA6B1A62BB6A2B
:103EF00093F84430FB77BB6AFA7FDA70FB7F012BC3
:103F000005D0FB7F022B02D04FF00D034FE1FA7F6B
:103F1000BB6B02FB03F3BB63BB6A93F84130FB77D7
:103F2000BB6AFA7F9A70FB7F002B07D0FA7FFB7F7A
:103F300003F1FF3302EA0303002B02D04FF00D031D
:103F400035E1BB6A03F1340303F111031A88BB6A3C
:103F50001A81BB6A1B8903F00F039BB2002B02D0AE
:103F60004FF00D0323E1BB6A03F1340303F11303A4
:103F70001B887B637B6B002B06D1BB6A03F1340388
:103F800003F120031B687B63BB6A03F1340303F175
:103F90000E031B88BB83BB8B002B02D14FF00D039C
:103FA00005E1BA8BBB6BD218BB6A1B894FEA1313AE
:103FB0009BB2D318BB617A6BBB699A4206D24FF0B1
:103FC0000D03F4E00A010020000100207A6BBB69B8
:103FD000D21ABB6A9B78B2FBF3F37B617B69002B3F
:103FE00002D14FF00D03E2E04FF0010387F84730B4
:103FF0007A6940F6F5739A4203D94FF0020387F8C5
:1040000047307A694FF6F5739A4203D94FF00303AC
:1040100087F847307B6903F10202BB6ADA61FA6B09
:10402000BB69D218BB6ADA62BA8BFB6BD218BB6A67
:104030005A6297F84730032B14D1BB6A1B89002BB7
:1040400002D04FF00D03B2E0BB6A03F1340303F179
:104050002C031A68BB6A9A62BB6ADB694FEA830366
:104060003B6323E0BB6A1B89002B02D14FF00D0399
:104070009DE0BB6A5A6ABB6BD218BB6A9A6297F81A
:104080004730022B04D1BB6ADB694FEA43030CE0E3
:10409000BB6ADA6913464FEA43039B184FEA53029F
:1040A000BB6ADB6903F00103D3183B63BB6A1A6A7E
:1040B0003B6B03F5FE7303F103034FEA53239A426C
:1040C00002D24FF00D0372E0BB6A4FF0FF321A616B
:1040D000BB6A4FF00002DA6097F84730032B49D1F2
:1040E000BB6A4FF000025A71BB6A03F1340303F15B
:1040F00030031B881A46FB6BD218BB6A5A61BB6A35
:104100005978BB6A03F13402BB6A5B690846114601
:104110001A464FF00103FDF793F90346002B29D10E
:10412000BB6A03F1340303F5FF731A884AF655237B
:104130009A421FD1BB6A03F134031A681E4B9A429C
:1041400018D1BB6A03F1340303F5F2731A681B4BF1
:104150009A420FD1BB6A03F1340303F5F6731A6870
:10416000BB6ADA60BB6A03F1340303F5F4731A68BF
:10417000BB6A1A61BB6A97F847201A70104B1B88FC
:1041800003F101039AB20E4B1A800D4B1A88BB6AD9
:10419000DA80BB6A4FF000021A63BB6A4FF000027C
:1041A0001A71BB6A4FF000029A614FF00003184683
:1041B00007F14807BD4680BD5252614172724161AC
:1041C0000801002080B582B000AF78600B467B808C
:1041D0007B68002B08D07B681B78002B04D07B68A1
:1041E000DB887A889A4202D04FF009030FE07B689F
:1041F0005B781846FDF7A0F8034603F00103DBB235
:10420000002B02D04FF0030301E04FF000031846EB
:1042100007F10807BD4680BD80B485B000AF0346F6
:104220003960FB71FB79012B02D94FF00B0319E0C8
:10423000FA790F4B53F82230FB60FB68002B03D058
:10424000FB684FF000021A703B68002B03D03B68FC
:104250004FF000021A70FA79054B396843F82210C2
:104260004FF00003184607F11407BD4680BC7047A5
:104270000001002080B592B000AFF860B96013462D
:10428000FB71FB684FF000021A60FB7903F01F031B
:10429000FB71FB7923F00103DBB207F1080107F1A1
:1042A0001C02084611461A46FFF73CFD034687F8F4
:1042B000473007F110037B6397F84730002B09D193
:1042C000BB6807F11C0210461946FFF749FC03467C
:1042D00087F847303B6B3B6497F84730002B06D19B
:1042E0003B6C002B03D14FF0060387F84730FB7976
:1042F00003F01C03002B00F0878097F84730002B59
:1043000012D097F84730042B07D107F11C03184649
:10431000FFF7B4FA034687F84730FB7943F0080308
:10432000FB713B6B3B6415E03B6C03F10B031B78AB
:1043300003F01103002B04D04FF0070387F8473038
:1043400008E0FB7903F00403002B03D04FF00803CF
:1043500087F8473097F84730002B78D1FB7903F086
:104360000803002B73D0FDF703FAF8633B6C03F1ED
:104370000E03FA6B1A603B6C03F10B034FF0000263
:104380001A703B6C03F11C034FF000021A603B6C87
:1043900003F114031B884FEA03423B6C03F11A0339
:1043A0001B8842EA0303BB633B6C03F11A034FF023
:1043B00000021A803B6C03F114034FF000021A80D4
:1043C000FB694FF001021A71BB6B002B3FD0FB69F8
:1043D0001B6BFB63FB691846B96BFEF795FF034641
:1043E00087F8473097F84730002B30D1FB69BA6B1C
:1043F00002F1FF32DA60FB691846F96BFEF7DEFC6A
:10440000034687F8473022E097F84730002B1ED14B
:104410003B6C03F10B031B7803F01003002B04D05B
:104420004FF0040387F8473011E0FB7903F00203F3
:10443000002B0CD03B6C03F10B031B7803F0010342
:10444000DBB2002B03D04FF0070387F8473097F813
:104450004730002B0FD1FB7903F00803002B03D06A
:10446000FB7943F02003FB71FB691A6BFB68DA618F
:10447000FB683A6C1A6297F84730002B24D1FB682E
:10448000FA799A713B6C03F114031B884FEA0342DB
:104490003B6C03F11A031B881A43FB681A613B6CDF
:1044A00003F11C031A68FB68DA60FB684FF0000236
:1044B0009A60FB684FF000029A61FA69FB681A6023
:1044C000FB69DA88FB689A8097F84730184607F14D
:1044D0004807BD4680BD00BF80B58CB000AFF86016
:1044E000B9607A603B60BB683B623B684FF000029A
:1044F0001A60FB681A68FB689B8810461946FFF72C
:1045000061FE0346FB77FB7F002B01D0FB7F55E16B
:10451000FB689B79DBB25BB2002B02DA4FF002033F
:104520004CE1FB689B7903F00103002B02D14FF0B3
:10453000070343E1FB68DA68FB689B68D31ABB6139
:104540007A68BB699A4240F23381BB697B602FE194
:10455000FB689B684FEAC3534FEAD353002B40F0EC
:10456000F580FB689B684FEA5323DAB2FB681B684F
:104570009B7803F1FF33DBB202EA0303FB75FB7D9B
:10458000002B2ED1FB689B68002B03D1FB681B69B5
:10459000FB6208E0FB681A68FB685B691046194615
:1045A000FEF70CFDF862FB6A012B09D8FB689B79CA
:1045B00063F07F03DAB2FB689A714FF00203FDE00B
:1045C000FB6AB3F1FF3F09D1FB689B7963F07F037E
:1045D000DAB2FB689A714FF00103EFE0FB68FA6A08
:1045E0005A61FB681A68FB685B6910461946FEF75A
:1045F000C3FC38613B69002B09D1FB689B7963F0F0
:104600007F03DAB2FB689A714FF00203D6E0FB7DBC
:104610003A69D3183B617B684FEA53237B627B6A1C
:10462000002B48D0FA7D7B6AD218FB681B689B7808
:104630009A4206D9FB681B689B781A46FB7DD31A01
:104640007B62FB681B685A787B6ADBB21046396A6A
:104650003A69FCF7F5FE0346002B09D0FB689B790D
:1046600063F07F03DAB2FB689A714FF00103A5E0B3
:10467000FB689B7903F04003002B17D0FB689A6915
:104680003B69D21A7B6A9A4210D2FB689A693B69ED
:10469000D31A4FEA43233A6AD218FB6803F1240382
:1046A000104619464FF40072FEF7D6FA7B6A4FEABD
:1046B0004323BB6268E0FB689A693B699A4242D037
:1046C000FB689B7903F04003002B22D0FB681B683A
:1046D0005978FB6803F12402FB689B690846114680
:1046E0001A464FF00103FCF705FF0346002B09D0E3
:1046F000FB689B7963F07F03DAB2FB689A714FF035
:1047000001035BE0FB689B7923F04003DAB2FB68AE
:104710009A71FB681B685A78FB6803F12403104602
:1047200019463A694FF00103FCF78AFE0346002B55
:1047300009D0FB689B7963F07F03DAB2FB689A715A
:104740004FF001033AE0FB683A699A61FB689B68A5
:104750004FEAC3534FEAD353C3F50073BB62BA6A3F
:104760007B689A4201D97B68BB62FB6803F1240233
:10477000FB689B684FEAC3534FEAD353D318386A98
:104780001946BA6AFEF768FA3A6ABB6AD3183B62FE
:10479000FB689A68BB6AD218FB689A603B681A6823
:1047A000BB6AD2183B681A607A68BB6AD31A7B600E
:1047B0007B68002B7FF4CCAE4FF00003184607F166
:1047C0003007BD4680BD00BF80B58AB000AFF8603D
:1047D000B9607A603B60BB68BB613B684FF0000228
:1047E0001A60FB681A68FB689B8810461946FFF739
:1047F000E9FC0346FB75FB7D002B01D0FB7D87E1C7
:10480000FB689B79DBB25BB2002B02DA4FF002034C
:104810007EE1FB689B7903F00203002B02D14FF08D
:10482000070375E1FB68DA687B68D218FB68DB6810
:104830009A4280F054814FF000037B604FE1FB68A7
:104840009B684FEAC3534FEAD353002B40F00E81CD
:10485000FB689B684FEA5323DAB2FB681B689B78BE
:1048600003F1FF33DBB202EA0303BB75BB7D002B10
:1048700040D1FB689B68002B11D1FB681B697B62F0
:104880007B6A002B14D1FB681B6818464FF00001AF
:10489000FEF792FD7862FB687A6A1A6108E0FB68AD
:1048A0001A68FB685B6910461946FEF785FD786259
:1048B0007B6A002B00F018817B6A012B09D1FB6811
:1048C0009B7963F07F03DAB2FB689A714FF00203C1
:1048D0001EE17B6AB3F1FF3F09D1FB689B7963F06E
:1048E0007F03DAB2FB689A714FF0010310E1FB68B5
:1048F0007A6A5A61FB689B7903F04003002B22D04F
:10490000FB681B685978FB6803F12402FB689B690C
:10491000084611461A464FF00103FCF7EBFD03462B
:10492000002B09D0FB689B7963F07F03DAB2FB6848
:104930009A714FF00103EBE0FB689B7923F0400391
:10494000DAB2FB689A71FB681A68FB685B6910460B
:104950001946FEF711FB38613B69002B09D1FB6852
:104960009B7963F07F03DAB2FB689A714FF0020320
:10497000CEE0BB7D3A69D3183B617B684FEA532395
:10498000FB61FB69002B49D0BA7DFB69D218FB683B
:104990001B689B789A4206D9FB681B689B781A466D
:1049A000BB7DD31AFB61FB681B685A78FB69DBB2DD
:1049B0001046B9693A69FCF79DFD0346002B09D002
:1049C000FB689B7963F07F03DAB2FB689A714FF062
:1049D00001039DE0FB689A693B69D21AFB699A4220
:1049E00017D2FB6803F12402FB6899693B69CB1A73
:1049F0004FEA4323B969CB18104619464FF40072A9
:104A0000FEF72AF9FB689B7923F04003DAB2FB68D2
:104A10009A71FB694FEA43233B624CE0FB689A6959
:104A20003B699A421FD0FB689A68FB68DB689A4230
:104A300019D2FB681B685A78FB6803F124031046FF
:104A400019463A694FF00103FCF7FAFC0346002BC4
:104A500009D0FB689B7963F07F03DAB2FB689A7137
:104A60004FF0010354E0FB683A699A61FB689B6868
:104A70004FEAC3534FEAD353C3F500733B623A6A1C
:104A80007B689A4201D97B683B62FB6803F1240290
:104A9000FB689B684FEAC3534FEAD353D3181846B9
:104AA000B9693A6AFEF7D8F8FB689B7943F040038E
:104AB000DAB2FB689A71BA693B6AD318BB61FB68CA
:104AC0009A683B6AD218FB689A603B681A683B6A2E
:104AD000D2183B681A607A683B6AD31A7B607B689D
:104AE000002B7FF4ACAE00E000BFFB689A68FB6867
:104AF000DB689A4203D9FB689A68FB68DA60FB6856
:104B00009B7943F02003DAB2FB689A714FF00003FF
:104B1000184607F12807BD4680BD00BF80B586B0A6
:104B200000AF78607B681A687B689B8810461946DE
:104B3000FFF748FB0346FB75FB7D002B73D17B68B9
:104B40009B7903F02003002B6DD07B689B7903F0E9
:104B50004003002B1BD07B681B6859787B6803F1EE
:104B600024027B689B69084611461A464FF00103F0
:104B7000FCF7C0FC0346002B02D04FF0010353E0CA
:104B80007B689B7923F04003DAB27B689A717B687B
:104B90001A687B68DB6910461946FEF70FF9034671
:104BA000FB75FB7D002B3ED17B681B6A3B613B693B
:104BB00003F10B033A6902F10B02127842F0200272
:104BC000D2B21A703B6903F11C037A68D2681A608A
:104BD0003B6903F11A037A68126992B21A803B6941
:104BE00003F114037A6812694FEA124292B21A80F2
:104BF000FCF7BEFDF8603B6903F11603FA681A6022
:104C00007B689B7923F02003DAB27B689A717B681A
:104C10001B684FF001021A717B681B681846FEF78B
:104C200037F90346FB75FB7D184607F11807BD46AB
:104C300080BD00BF80B584B000AF78607868FFF7B2
:104C40006DFF0346FB73FB7B002B03D17B684FF0AA
:104C500000021A60FB7B184607F11007BD4680BDB5
:104C600080B588B000AF786039607B681A687B686F
:104C70009B8810461946FFF7A5FA0346FB75FB7D96
:104C8000002B01D0FB7D57E17B689B79DBB25BB2E7
:104C9000002B02DA4FF002034EE17B68DA683B68D2
:104CA0009A4208D27B689B7903F00203002B02D161
:104CB0007B68DB683B607B689B683B614FF000036F
:104CC000BB617B68BA699A603B68002B00F0CF80BB
:104CD0007B681B689B784FEA4323FB603B69002B92
:104CE0001FD03B6803F1FF32FB68B2FBF3F23B6974
:104CF00003F1FF31FB68B1FBF3F39A4211D33B6937
:104D000003F1FF32FB68C3F100031A407B689A602D
:104D10007B689B683A68D31A3B607B685B69FB6180
:104D20002EE07B681B69FB61FB69002B25D17B684A
:104D30001B6818464FF00001FEF73EFBF861FB6967
:104D4000012B09D17B689B7963F07F03DAB27B6822
:104D50009A714FF00203EFE0FB69B3F1FF3F09D115
:104D60007B689B7963F07F03DAB27B689A714FF0BE
:104D70000103E1E07B68FA691A617B68FA695A61AC
:104D8000FB69002B73D047E07B689B7903F002033B
:104D9000002B0CD07B681B681846F969FEF70CFBEA
:104DA000F861FB69002B09D1FB683B6038E07B6848
:104DB0001B681846F969FEF701F9F861FB69B3F160
:104DC000FF3F09D17B689B7963F07F03DAB27B6890
:104DD0009A714FF00103AFE0FB69012B05D97B68A5
:104DE0001B68DA69FB699A4209D87B689B7963F092
:104DF0007F03DAB27B689A714FF002039CE07B6814
:104E0000FA695A617B689A68FB68D2187B689A6075
:104E10003A68FB68D31A3B603A68FB689A42B3D899
:104E20007B689A683B68D2187B689A603B684FEA57
:104E3000C3534FEAD353002B19D07B681B68184625
:104E4000F969FEF799F8B861BB69002B09D17B6855
:104E50009B7963F07F03DAB27B689A714FF00203AB
:104E60006AE03B684FEA5323BA69D318BB617B6899
:104E70009B684FEAC3534FEAD353002B4AD07B6859
:104E80009A69BB699A4245D07B689B7903F04003DD
:104E9000002B22D07B681B6859787B6803F12402C1
:104EA0007B689B69084611461A464FF00103FCF7E0
:104EB00021FB0346002B09D07B689B7963F07F03BD
:104EC000DAB27B689A714FF0010335E07B689B7919
:104ED00023F04003DAB27B689A717B681B685A78CA
:104EE0007B6803F1240310461946BA694FF00103A9
:104EF000FCF7A6FA0346002B09D07B689B7963F088
:104F00007F03DAB27B689A714FF0010314E07B688B
:104F1000BA699A617B689A687B68DB689A420AD9A9
:104F20007B689A687B68DA607B689B7943F0200332
:104F3000DAB27B689A71FB7D184607F12007BD46FF
:104F400080BD00BF80B582B000AF78607B685B68D1
:104F50009B687A68128810464FF00101984707F164
:104F60000807BD4680BD00BF80B582B000AF786045
:104F70007B685B689B687A68128810464FF0000176
:104F8000984707F10807BD4680BD00BF80B584B0D3
:104F900000AF78604FF00003FB607B685B681B68C4
:104FA0007A681288104698477B685B685B687A6805
:104FB000128810464FF0010198477868FFF7D4FF38
:104FC0004FF00003FB6009E07B689B68DB684FF0F3
:104FD000FF009847FB6803F10103FB60FB68092BA6
:104FE000F2D9786800F0BCFA0346184607F11007BA
:104FF000BD4680BD80B586B000AFF860B9607A600C
:105000003B604FF00103FB75F868FFF79BFFF86802
:105010004FF01801BA684FF0FF0300F0C3F9BB7DF1
:1050200003F1FF33BB75F8684FF0000100F068FA38
:105030000346002B02D0BB7D002BE8D1BB7D002BAB
:105040002DD01E483968FDF74FFDFB689B68DB6873
:105050004FF0FF009847FB689B68DB684FF0FE004D
:105060009847FB689B685B68786839689847FB6875
:105070009B68DB684FF0FF009847FB689B68DB6824
:105080004FF0FF009847F86800F0EEF90346052B53
:1050900005D10B48FDF728FD4FF00003FB75F868BC
:1050A000FFF762FFFB689B68DB684FF0FF009847E3
:1050B000FB7D184607F11807BD4680BDE05A000881
:1050C000F05A000880B586B000AFF860B9607A6029
:1050D0003B604FF00103FB75F868FFF733FF4FF0BB
:1050E0001003BB75F8684FF01101BA684FF0FF0369
:1050F00000F058F9BB7D03F1FF33BB75F8684FF042
:10510000000100F0FDF90346002B02D0BB7D002B0F
:10511000E8D1BB7D002B22D01848FDF7E5FCF868EC
:105120004FF0FE0100F0ECF90346002B17D11448B4
:10513000FDF7DAFCFB689B689B68786839689847DC
:10514000FB689B68DB684FF0FF009847FB689B6833
:10515000DB684FF0FF0098474FF00003FB75F868DD
:10516000FFF702FFFB689B68DB684FF0FF00984782
:10517000FB7D184607F11807BD4680BDF85A0008A8
:10518000045B000880B586B000AFF860B9607A6053
:105190003B604FF000037B614FF00103FB74F86844
:1051A000FFF7D0FE49E0BA687B69D318F8684FF082
:1051B00018011A464FF0FF0300F0F4F8F8684FF0BA
:1051C000000100F09DF90346002B02D04FF00103CF
:1051D00049E0FB689B68DB684FF0FF009847FB687D
:1051E0009B68DB684FF0FE009847FB689B685B6834
:1051F00078684FF4007198477B6803F500737B6013
:105200007B6903F500737B61FB689B68DB684FF08B
:10521000FF009847FB689B68DB684FF0FF009847EA
:10522000F86800F021F90346052B03D14FF0000385
:10523000FB7402E04FF00103FB743B68002B0CBFD2
:1052400000230123DBB23A6802F1FF323A60002BFF
:10525000A9D1F868FFF788FEFB689B68DB684FF010
:10526000FF009847FB7C184607F11807BD4680BD34
:1052700080B584B000AFF860B9607A603B60F868D0
:10528000FFF760FEF8684FF01201BA684FF0FF03B5
:1052900000F088F8F8684FF0000100F031F903469B
:1052A000002B02D04FF0010339E0FB689B689B683C
:1052B00078684FF4007198477B6803F500737B6052
:1052C0003B68002B0CBF00230123DBB23A6802F1DC
:1052D000FF323A60002BE8D1F8684FF00C014FF034
:1052E00000024FF0FF0300F05DF8F8684FF0000196
:1052F00000F006F90346002B02D04FF001030EE048
:10530000F868FFF731FEFB689B68DB684FF0FF0031
:1053100098473B68002B0CBF00230123DBB21846E3
:1053200007F11007BD4680BD80B485B000AF0246CE
:105330000B46FA71BB71BB797B734FF08003FB7333
:105340001FE0FB7903F04003BB737A7BFB7B02EA2F
:105350000303DBB2002B05D0BB7B002B14BF002363
:105360000123BB73FB794FEA4303FB71BB7B002B2B
:1053700003D0FB7983F00903FB71FB7B4FEA5303F6
:10538000FB73FB7B002BDCD1FB7903F07F03FB710C
:10539000FB7903F07F03DBB2184607F11407BD4623
:1053A00080BC704780B586B000AFF8607A600A466E
:1053B000FA72FB70FB7A43F04003DBB23B747B680C
:1053C0004FEA1363DBB27B747B684FEA1343DBB2B3
:1053D000BB747B684FEA1323DBB2FB747B68DBB2E0
:1053E0003B753B7C4FF000001946FFF79DFF0346DD
:1053F000FB757B7CFA7D10461946FFF795FF034647
:10540000FB75BB7CFA7D10461946FFF78DFF0346FE
:10541000FB75FB7CFA7D10461946FFF785FF0346B6
:10542000FB753B7DFA7D10461946FFF77DFF03466D
:10543000FB75FB7D4FEA4303DBB243F00103DBB2B4
:10544000FB75FB7D7B75F868FFF77CFDFB689B684F
:105450005B6807F1100210464FF00601984707F10C
:105460001807BD4680BD00BF80B584B000AF78602E
:105470004FF00003FB602EE07B689B68DB684FF019
:10548000FF0098470346FB72FB7A1C481946FDF75C
:105490002BFBFB7A03F01F03FB72FB7A0B2B07D06D
:1054A0000D2B08D0052B09D14FF00503BB7209E085
:1054B0004FF00B031DE04FF00D031AE04FF0FF0318
:1054C000BB7200BFBB7A052B01D100BF07E0FB68B0
:1054D00003F10103FB60FB68402BCDD900BF7B6863
:1054E0009B68DB684FF0FF0098470346002BF6D01F
:1054F000FB7A184607F11007BD4680BD0C5B00081B
:1055000080B584B000AF78600B46FB704FF0F003BD
:10551000FB6008E0FB78FE2B01D1FCF733F9FB6858
:1055200003F1FF33FB607B689B68DB684FF0FF0093
:1055300098470346FB72FA7AFB789A4202D0FB68DE
:10554000002BE7D1FB68002B02D14FF0010301E0F3
:105550004FF00003184607F11007BD4680BD00BF9D
:1055600080B584B000AF78604FF00003FB734FF05C
:105570000103BB738648FDF7B7FA7868FFF7E2FCD2
:105580004FF01003FB7378684FF000014FF00002FA
:105590004FF09503FFF706FFFB7B03F1FF33FB732F
:1055A00078684FF00101FFF7ABFF0346002B02D0F4
:1055B000FB7B002BE7D1FB7B002B08D17548FDF767
:1055C00093FA7868FFF7D0FC4FF0010353E14FF0F6
:1055D0001003FB737868FFF7C7FC7B689B68DB6888
:1055E0004FF0FF0098477868FFF7ACFC78684FF001
:1055F00008014FF4D5724FF0FF03FFF7D3FE786830
:105600004FF00001FFF77CFF0346002B0BD0FB7B24
:10561000002B0CBF00230123DBB2FA7B02F1FF3227
:10562000FA73002BD6D1FB7B002B08D15A48FDF72B
:105630005BFA7868FFF798FC4FF001031BE14FF02D
:105640001003FB7378684FF037014FF000024FF002
:10565000FF03FFF7A7FEFB7B03F1FF33FB737868C3
:105660004FF00101FFF74CFF0346002B02D0FB7BFC
:10567000002BE7D1FB7B002B05D1FB7B474819466C
:10568000FDF732FA02E04648FDF72EFA4FF001032B
:10569000FB737868FFF768FC7B689B68DB684FF0FA
:1056A000FF0098477868FFF74DFC78684FF00101DC
:1056B0004FF080424FF0FF03FFF774FEFB7B03F1D6
:1056C000FF33FB7378684FF00001FFF719FF0346C3
:1056D000002B02D0FB7B002BDBD1FB7B002B06D108
:1056E0004FF00003BB732F48FDF7FEF906E02E4B89
:1056F0004FF004021A702D48FDF7F6F9BB7B002B22
:1057000061D14FF01003FB7378684FF037014FF011
:1057100000024FF0FF03FFF745FEFB7B03F1FF3371
:10572000FB7378684FF00101FFF7EAFE0346002B98
:1057300002D0FB7B002BE7D1FB7B002B02D01C4867
:10574000FDF7D2F94FF01003FB7378684FF00101B9
:105750004FF000024FF0FF03FFF724FEFB7B03F145
:10576000FF33FB7378684FF00001FFF7C9FE034673
:10577000002B02D0FB7B002BE7D1FB7B002B1BD146
:105780000C48FDF7B1F94FF00103BB731BE000BFFC
:10579000185B00082C5B00083C5B00084C5B0008B1
:1057A0005C5B0008745B00080C010020845B00084F
:1057B000945B0008A45B00083148FDF795F9314B74
:1057C0004FF002021A70BB7B012B25D14FF0010371
:1057D000FB7378684FF001014FF000024FF0FF03B8
:1057E000FFF7E0FDFB7B03F1FF33FB7378684FF0BD
:1057F0000001FFF785FE0346002B02D0FB7B002B48
:10580000E7D1FB7B002B03D11F48FDF76DF903E0C7
:105810001C4B4FF001021A704FF00103FB737868C4
:105820004FF010014FF400724FF00103FFF7BAFD83
:1058300000BF78684FF00001FFF762FE0346002BBF
:1058400002D0FB7B002BF4D1FB7B002B0ED00F484A
:10585000FDF74AF97868FFF787FB7B689B68DB6890
:105860004FF0FF0098474FF0000304E07868FFF71F
:105870007BFB4FF0FF03184607F11007BD4680BDC4
:10588000B45B00080C010020A45B0008C05B0008AA
:1058900025020008DD020008290500084904000867
:1058A0009D0500080000000001020304010203043A
:1058B000060708090204060869110008C911000852
:1058C00035120008A112000889110008ED11000826
:1058D00059120008CD120008A91100081112000881
:1058E0007D120008F91200084661696C6564207732
:1058F0006974682072633D25640D0A0025730000F9
:1059000053706920494E697420646F6E650A0D00FA
:105910004F70656E20612066696C65200D00000087
:105920002E2F726F6F742F48454C4C4F2E54585485
:10593000000000000D0A54797065207468652066C7
:10594000696C6520636F6E74656E742E0D000000C7
:1059500025730A0D000000000D0A4372656174652D
:105960002061206E65772066696C65202868656C0B
:105970006C6F2E747874292E0D0000002E2F726F1C
:105980006F742F68656C6C6F2E7478740000000063
:105990004F53697A653D25640A0D00000D0A577260
:1059A0006974652061207465787420646174612E67
:1059B000202848656C6C6F20776F726C6421290D0C
:1059C0000000000048656C6C6F20776F726C64217A
:1059D0000D0A00004E53697A653D25640A0D0000EA
:1059E0000D0A636F6D706C657465642E0D000000A8
:1059F00073746172740A0D000D0A436C6F73652035
:105A00007468652066696C652E0D0A00E521000842
:105A1000BD220008292300085D2200089523000804
:105A20000D220008E12200084D2300087D22000815
:105A3000C12300083522000805230008712300084F
:105A40009D220008ED230008737464696F2E633A89
:105A500020696E637265617365204D41585F5354D0
:105A600052494E475F53495A450A0D00222A2B2CB2
:105A70003A3B3C3D3E3F5B5D7C7F0000EBFE904D42
:105A800053444F53352E30004E4F204E414D45204C
:105A90002020204641543332202020004E4F204EFB
:105AA000414D452020202046415420202020200028
:105AB00000040002000180004000200010000800E7
:105AC00004000200000000000080004000200010E0
:105AD0000008004000200010000800040002000040
