S01700006275696C642F697269732F6D61696E2E7372656343
S11300000C9469000C9488000C9488000C9488006B
S11300100C9488000C9488000C9488000C9488003C
S11300200C9488000C9488000C9488000C9488002C
S11300300C9488000C942D030C9488000C94780381
S11300400C9488000C9488000C9488000C9488000C
S11300500C9488000C9488000C9488000C948800FC
S11300600C9488000C9488000C9488000C948800EC
S11300700C9488000C9488000C9488000C948800DC
S11300800C9488000C9488000C9488000C948800CC
S11300900C9488000C9488000C9488000C948800BC
S11300A00C9488000C9488000C9488000C948800AC
S11300B00C9488000C9488000C9488000C9488009C
S11300C00C9488000C9488000C94880000020E069E
S11300D00C0411241FBECFEFD1E2DEBFCDBF12E06E
S11300E0A0E0B2E0E6EDF9E000E00BBF02C007904B
S11300F00D92A030B107D9F712E0A0E0B2E001C040
S11301001D92A333B107E1F70E948C030C94E90418
S11301100C9400008FB7F89408958FBF0895AF92A0
S1130120BF92CF92DF92EF92FF920F931F935B01E6
S11301306C01ECE0F2E070E0608561FF39C0E080C2
S1130140F180028113812481358146815781D60152
S1130150C5018E199F09A00BB10B82179307A40741
S1130160B50730F160FF03C06D7F608708C02E0DB6
S11301703F1D401F511F20833183428353837130BD
S113018051F0713018F07230C1F40AC08FB7F8948E
S113019092B124E009C08FB7F89492B122E004C070
S11301A08FB7F89492B121E0922792B98FBF05C01E
S11301B07F5F3996733009F0BFCF9FB7F894809171
S11301C009028F3FA9F480913202813089F0809135
S11301D02B028F3F21F481E080932B0207C0E09132
S11301E03202F0E0E85FFD4F81E0808380933202C9
S11301F09FBF1F910F91FF90EF90DF90CF90BF9022
S1130200AF900895EF92FF920F931F93EFB7F89476
S11302109091B3008091B20027B3981711F021FF99
S113022002C0EFBFACC080910B02882309F460C008
S11302306FB7F8948091B2002091040230910502C6
S11302404091060250910702B99B11C08091B300FE
S11302509091B2002F5F3F4F4F4F5F4F280F311DDA
S1130260411D511D290F311D411D511D04C0280F71
S1130270311D411D511D6FBFE0900002F09001023D
S1130280009102021091030280912E0290912F029C
S1130290A0913002B09131022E193F09400B510B4D
S11302A0281739074A075B0720F010920B0271E008
S11302B020C09C01AD012E0D3F1D401F511F809198
S11302C0040290910502A0910602B0910702281B36
S11302D0390B4A0B5B0B273E31054105510540F4B0
S11302E0622F223010F070E005C070E062E002C0BE
S11302F070E066EE962F91508091B60083FDFCCF9E
S11303008091B2009813692F209104023091050264
S11303104091060250910702DA01C9010196A11D1C
S1130320B11D860F911DA11DB11D82179307A4074E
S1130330B50710F4622F60958091B60083FDFCCF61
S11303406093B300EFBF7723D1F09FB7F894809107
S113035008028F3F99F480913202882379F08091CA
S11303602B028F3F19F410922B0206C0E091320247
S1130370F0E0E85FFD4F1082109232029FBF1F91A0
S11303800F91FF90EF900895AF92BF92CF92DF92BA
S1130390EF92FF920F931F93882321F0813009F08D
S11303A0F5C065C080910A02882309F039C06FB78F
S11303B0F89420912E0230912F02409130025091F6
S11303C031028091000290910102A0910202B09149
S11303D00302280F391F4A1F5B1F6FBFE0902702DB
S11303E0F09028020091290210912A0210920A0228
S11303F09FB7F89481E080930B022093000230931E
S113040001024093020250930302E0922E02F09202
S11304102F0200933002109331029FBF0E94020109
S11304207FB7F8946091B2002091040230910502E4
S11304304091060250910702B99B11C08091B3000C
S11304409091B2002F5F3F4F4F4F5F4F280F311DE8
S1130450411D511D290F311D411D511D04C0260F81
S1130460311D411D511D7FBFCA01B9016AC07FB74B
S1130470F8946091B20020910402309105024091F9
S1130480060250910702B99B14C08091B300909169
S1130490B20059016A010894A11CB11CC11CD11CF1
S11304A0A80EB11CC11CD11CA90EB11CC11CD11CAD
S11304B006C059016A01A60EB11CC11CD11C7FBF24
S11304C08FB7F89410920B028FBFECE0F2E08FEF3D
S11304D0E82E8FEFF82E8FEF082F8FE7182F60E0AC
S11304E0808581FF1BC080819181A281B381A60197
S11304F09501281B390B4A0B5B0BDA01C9012481D6
S1130500358146815781281B390B4A0B5B0B2E150D
S11305103F054007510714F461E002C0A8019701A8
S1130520399682E0E732F80719F079018A01D8CFC9
S1130530662361F112161306140615062CF0C60183
S1130540B5010E948F0022C0209327023093280215
S11305504093290250932A0281E080930A029FB7B4
S1130560F89480930B02A0920002B0920102C09210
S11305700202D092030220932E0230932F02409362
S11305803002509331029FBF0E9402011F910F91CC
S1130590FF90EF90DF90CF90BF90AF900895EF92CF
S11305A0FF920F931F93F82F7A018B016FB7F89482
S11305B08091B2002091040230910502409106021C
S11305C050910702B99B11C08091B3009091B20081
S11305D02F5F3F4F4F4F5F4F280F311D411D511D5E
S11305E0290F311D411D511D04C0280F311D411D0E
S11305F0511D6FBFE9E0FE9FF0011124E45FFD4F40
S11306002083318342835383E482F58206831783F4
S113061080858E7F826080879FB7F89480910902DD
S11306208F3FA9F480913202813089F080912B02AE
S11306308F3F21F481E080932B0207C0E0913202C6
S1130640F0E0E85FFD4F81E08083809332029FBF3A
S11306501F910F91FF90EF9008951F920F920FB684
S11306600F920BB60F9211242F933F934F935F93E6
S11306706F937F938F939F93AF93BF93EF93FF9366
S11306808091B0008093B0008091B60081FDFCCFD2
S11306908091B30090E00196A0E0B0E020910402C4
S11306A0309105024091060250910702280F391F2C
S11306B04A1F5B1F209304023093050240930602F5
S11306C05093070278940E940201FF91EF91BF9129
S11306D0AF919F918F917F916F915F914F913F91D6
S11306E02F910F900BBE0F900FBE0F901F90189577
S11306F01F920F920FB60F9211248F938091B00026
S11307008093B0008091B60081FDFCCF8F910F9053
S11307100FBE0F901F9018950F931F930FB7F89467
S11307208FEF9FEF90930902809308028FEF8093DD
S11307302B028093320281E08093810080E28093D7
S1130740B60083E08093B10080918400909185008D
S11307504AE720918400309185002817390708F46E
S11307604150442311F0C901F4CF9091B20080911B
S1130770B2008917E1F320918400309185009091B3
S1130780B2008091B2008917E1F3809184009091C6
S113079085004096821B930B25E0969587952A95B4
S11307A0E1F790932D0280932C021092B100809176
S11307B0B10080938100809181008093B6001092F3
S11307C0B20010928500109284008FEF87BB87B32C
S11307D086BB8091B6008571E1F70A9A099A089A56
S11307E0129A119A109A18B88FEF87B90C98149826
S11307F081E085BF1FEF80912B028F3FD9F090914C
S11308002B02E0912B02F0E0E85FFD4F80818093A2
S11308102B0280912B028F3F11F480933202E92F37
S1130820F0E0E85FFD4F10839F3F21F0892F0E9485
S1130830C401E1CF8091B60080628093B6008091BC
S1130840B60081FDFCCF82E08093B0008091B600B9
S113085080FDFCCF83E08093B1008091B60083FDDE
S1130860FCCF86EE8093B300809170008260809309
S113087070000E9402011FEF80912B028F3FD9F07C
S113088090912B02E0912B02F0E0E85FFD4F808114
S113089080932B0280912B028F3F11F480933202BC
S11308A0E92FF0E0E85FFD4F10839F3F21F0892F8F
S11308B00E94C401E1CF0FBF789480E04AEF50E07A
S11308C060E070E00E94CF0281E044EF51E060E01C
S11308D070E00E94CF0282E048EE53E060E070E0F6
S11308E00E94CF021FEF3FB7F89451C080916E0071
S11308F08670F9F480916F008E72D9F48091710042
S11309008E72B9F40CB407FC14C08091C100807CD1
S113091081F48091C900807C61F48091BC0082FDE7
S113092008C080917A0087FD02C025E003C021E061
S113093001C020E08091700090E083709070892B5A
S113094011F4E5E012C08091B6008A71E1F780915C
S1130950B3009091B200891B8C3030F08091B200CA
S1130960853F10F4E3E001C0E2E083B72E1708F4FA
S1130970E22FF0E0E453FF4FE491807F81608E2BFF
S113098083BF78948895F89483B78E7F83BF8091D2
S11309902B028F3F09F4AACF90912B02E0912B02F6
S11309A0F0E0E85FFD4F808180932B0280912B0261
S11309B08F3F11F480933202E92FF0E0E85FFD4F9E
S11309C010839F3F09F492CF3FBF892F0E94C40137
S10909D08ACFF894FFCF6A
S9030000FC
