:10000000FC050020390B0000A10B0000A10B000033
:10001000A10B0000A10B0000A10B000000000000DC
:10002000000000000000000000000000A10B000024
:10003000A10B000000000000A10B0000A10B0000BC
:10004000A10B0000A10B0000A10B0000A10B000000
:10005000A10B0000A10B0000A10B0000A10B0000F0
:10006000A10B0000A10B0000A10B0000A10B0000E0
:10007000A10B0000A10B0000A10B0000A10B0000D0
:10008000A10B0000A10B0000A10B0000A10B0000C0
:10009000A10B0000A10B0000A10B0000A10B0000B0
:1000A000A10B0000A10B0000A10B0000A10B0000A0
:1000B000A10B0000A10B000080B485B000AF7860F8
:1000C000104B1B69DBB203F03F03DAB27B681A7096
:1000D0000C4B9B69DBB223F00F03FB73094BDB690D
:1000E00003F0F0034FEA1313DAB2FB7B42EA030397
:1000F000FB737B68FA7B5A7007F11407BD4680BC1E
:10010000704700BFD0FF0FE080B400AF034BDB6A45
:100110009AB2034B1A80BD4680BC704700800C40E9
:10012000F801002080B483B000AF0346FB71FB7977
:10013000002B04D0064B4FF001021A6603E0044B7B
:100140004FF000021A6607F10C07BD4680BC7047ED
:1001500000A0084080B483B000AF786000BF064BB9
:100160005A6E7B6802EA0303002BF8D107F10C07F3
:10017000BD4680BC704700BF00A0084080B483B07B
:1001800000AF7860064B064A916A7A686FEA02020D
:1001900001EA02029A6207F10C07BD4680BC704773
:1001A00000A0084080B584B000AF584B1B68FB60CE
:1001B000FB684FEA1363002B15D1554BBB60BB683E
:1001C0001B6823F07002BB681A60524BBB60BB68AF
:1001D0001B6823F06042BB681A60BB681B6863F051
:1001E0006062BB681A60FB684FEA1363032B25D873
:1001F000484BBB60BB681B6823F4FC52BB681A60A9
:10020000454BBB60BB684FF000021A60434BBB60BC
:10021000BB684FF000021A60414BBB60BB684FF0F7
:1002200000021A603F4BBB60BB684FF000021A60CF
:100230003D4BBB60BB684FF000021A603B4618465E
:10024000FFF73AFF3B78012B15D17B78002B07D1C4
:10025000314BBB60BB681B6843F00202BB681A608D
:100260007B78012B07D82D4BBB60BB681B6843F024
:100270000102BB681A602D4B1B68FB60FA682C4BAF
:100280009A423FD8254BBB60BB681B6843F4904241
:10029000BB681A60274B1B6803F4FE434FEA132325
:1002A0004FEA03637B60234B1B6803F07F034FEA35
:1002B00003437A6842EA03037B601E4B1B6803F426
:1002C000FE437A6842EA03037B601A4B1B6803F023
:1002D0007F037A6842EA03037B60174BBB60BB680D
:1002E0007A681A60154BBB60154B1B687B60BB6856
:1002F0007A681A60094BBB60BB681B6823F49042A4
:10030000BB681A6007F11007BD4680BDFC81E00F95
:100310000CA00C4020600C4040800C4044800C40FD
:1003200058800C4060800C4078800C40F081E00FD9
:10033000FFB98A4CB481E00F342000402C400040CB
:10034000C881E00F80B500AFFFF72CFF4FF0000031
:1003500000F0F2F848F210104FF0010100F054FAEA
:10036000014800F027F8FBE79811000080B500AFC6
:100370004FF000000D494FF0000200F057FD4FF024
:1003800001000B494FF0000200F050FD4FF0020059
:1003900007494FF0000200F049FD4FF00300044907
:1003A0004FF0000200F042FD80BD00BF00CCCC7ECB
:1003B000FCFEFF7F80B58AB000AF7860786800F0FF
:1003C000BBFE0346BB614FF000033B624FF0FF30C2
:1003D000FFF7C0FE4FF00100FFF7A4FEFFF7C6FFD6
:1003E0004FF000033B6253E03A6ABB699A4203DA7A
:1003F0007B681B787B6202E04FF020037B627B6AA4
:10040000A3F120037B62284B7A6A33F81230FB8217
:100410004FF00003FB6130E024493A6A13464FEA8B
:10042000C3039B1A4FEA8303CA18FB69D31803F16D
:1004300008039B793B611D493A6A13464FEAC3039F
:100440009B1A4FEA8303FA699B18CB181B78FB6051
:10045000FA8AFB6942FA03F303F00103DBB2002BD3
:1004600007D0FA683B69104619464FF0010200F0C8
:1004700055FCFB6903F10103FB61FB690D2BCBDD2F
:100480007B6803F101037B603B6A03F101033B627C
:100490003B6A062BA8DD4FF00000FFF743FE07F193
:1004A0002807BD4680BD00BF2001002000000020BD
:1004B00080B500AF4FF000004FF0FF314FF0000269
:1004C00000F0B4FC4FF001004FF0FF314FF000029C
:1004D00000F0ACFC4FF002004FF0FF314FF0000293
:1004E00000F0A4FC4FF003004FF0FF314FF000028A
:1004F00000F09CFC4FF000004FF0FF014FF00002B5
:1005000000F008FD4FF001004FF0FF014FF0000236
:1005100000F000FD4FF002004FF0FF014FF000022D
:1005200000F0F8FC4FF003004FF0FF014FF0000225
:1005300000F0F0FC80BD00BF80B586B000AF034680
:10054000FB71244A07F10C0307CA83E807004FF444
:100550000C504FF0010100F057F94FF002004FF03E
:10056000030100F0B3F94FF410504FF0010100F017
:100570004BF94FF030004FF0070100F09BF84FF0BF
:10058000FF30FFF7FBFD07F10C03184600F040FBBE
:1005900040F2FF304FF0010100F09EFBFB79002B91
:1005A0000DD04FF0000000F029FD4FF4803000F036
:1005B0006FFB094B084AD26F42F00802DA67FFF777
:1005C00077FF4FF0FF30FFF7C5FD07F11807BD4675
:1005D00080BD00BFA011000000800C4080B487B037
:1005E00000AFF860B9607A60FB6803F104734FEA0A
:1005F000C302BB68D3184FEA83037B617B697A68C7
:100600001A6007F11C07BD4680BC704780B485B0F6
:1006100000AF78607A68174B9A4211D9164B5B6825
:1006200003F00703002B02D0022B04D01CE04FF094
:100630000103FB6015E04FF00303FB6000BF10E017
:100640000D4B5B6803F00703012B02D0032B04D092
:100650000AE04FF00003FB6003E04FF00203FB6091
:1006600000BF054BFA685A6007F11407BD4680BC0D
:10067000704700BF0024F40000000C4080B483B039
:1006800000AF78600A4B5B6D03F00103DBB2002B17
:1006900008D100BF064B1A6D7B6802EA0303002BEA
:1006A000F8D100E000BF07F10C07BD4680BC7047E1
:1006B00000800C4080B584B000AF02460B46FA8043
:1006C0007B71FB884FEA13139BB203F00F03FB60AF
:1006D000FB6803F1FF33032B00F28C8001A252F878
:1006E00023F000BFF5060000090700002F070000F7
:1006F000A7070000424B424A926822F00F017A7924
:1007000041EA02029A6076E03E48FFF77FFF3C4BE9
:100710003B4A526822F00F017A7941EA02025A609C
:1007200000F080FCB860B868FFF770FF63E0FB88FA
:10073000B3F5866F06D041F23042934210D0302B91
:100740001ED02FE04FF00400FFF798FF2C4B2C4AEF
:10075000926E22F00F017A7941EA02029A6621E054
:100760004FF00400FFF78AFF254B254A926E22F0D6
:10077000F0017A794FEA021241EA02029A6611E028
:100780004FF00400FFF77AFF1D4B1D4A926E22F4D2
:1007900040717A79A2F104024FEA022241EA020290
:1007A0009A6600BF27E0FB88B3F5A86F03D0B3F5C6
:1007B000AA5F0ED01DE04FF04000FFF75FFF104B27
:1007C0000F4A126F22F003017A7941EA02021A6796
:1007D0000FE04FF04000FFF751FF094B084A126F3E
:1007E00022F030017A794FEA021241EA02021A67D6
:1007F00000BF00E000BF07F11007BD4680BD00BF8D
:1008000000800C400124F40080B586B000AF0246A1
:100810000B46FA807B714FF000033B61FB884FEA87
:1008200013239BB203F00F0303F1FF33052B3BD8D7
:1008300001A252F823F000BF510800005708000041
:100840005D080000630800006F0800007B080000DE
:10085000184B7B6114E0184B7B6111E0174B7B61F7
:100860000EE0174B7B614FF001033B6108E0154B35
:100870007B614FF010033B6102E0134B7B6100BFD3
:10088000FB884FEA13339BB203F01F03FB603B6905
:10089000002B02D03869FFF7F1FE7B797869F9689F
:1008A0001A46FFF79BFE00E000BF07F11807BD46A0
:1008B00080BD00BF08800C4044800C4040800C404C
:1008C00058800C4060800C4078800C4080B588B027
:1008D00000AF02460B46FA807B71FB8803F00F03E2
:1008E000FB60FB68012B06D0012BC0F0A180032B1D
:1008F00000F2A08043E07B79A3F10203032B00F216
:100900009B8001A252F823F019090000270900007A
:1009100035090000430900004FF00403FB614FF06C
:100920000003FB7614E04FF00303FB614FF001037B
:10093000FB760DE04FF00203FB614FF00203FB7604
:1009400006E04FF00103FB614FF00303FB7600BFAD
:10095000FB7E18464FF001014FF0010200F07AF8DB
:100960003948FFF753FE394BFA695A62FFF7CCFB5F
:1009700000F058FBB860B868FFF748FE5FE0FB681E
:10098000022B03D14FF000037B6102E04FF0020322
:100990007B617B7903F1FF33052B4FD801A252F81D
:1009A00023F000BFBD090000C5090000DD090000FB
:1009B0003D0A00003D0A0000F50900004FF0000369
:1009C0003B6122E04FF000004FF001014FF00102C7
:1009D00000F040F84FF002033B6116E04FF00100D9
:1009E0004FF001014FF0010200F034F84FF0010325
:1009F0003B610AE016484FF002014FF00102FFF799
:100A0000EDFD4FF003033B6100BF104B0F4A916AAD
:100A10007A694FF0030000FA02F26FEA0202114015
:100A20007A69386900FA02F241EA02029A6206E043
:100A300000BF04E000BF02E000BF00E000BF07F11C
:100A40002007BD4680BD00BF0124F40000800C409B
:100A500040800C4080B586B000AF13460246FA7164
:100A60000A46BA717B71FB79042B57D801A252F860
:100A700023F000BFD90A0000C50A00009D0A00004B
:100A8000890A0000B10A00004FF001033B614FF0FA
:100A90000203FB604FF002037B6127E04FF0040389
:100AA0003B614FF00803FB604FF008037B611DE0E2
:100AB0004FF010033B614FF02003FB604FF0200329
:100AC0007B6113E04FF040033B614FF08003FB601C
:100AD0004FF080037B6109E04FF480733B614FF47A
:100AE0000073FB604FF400737B6100BFBB79002B88
:100AF0000ED00D4B3A691A627B79002B0BD000BFE8
:100B0000094BDA6A7B6902EA0303002BF8D002E0A2
:100B1000054BFA681A62FFF7F7FA00E000BF07F129
:100B20001807BD4680BD00BF00800C4080B500AFF7
:100B3000FFF708FCFEE700BF80B582B000AF134BA3
:100B40007B60134B3B600BE07B681A683B681A6064
:100B50003B6803F104033B607B6803F104037B60A3
:100B60003A680C4B9A42EFD30B480C494FF0000205
:100B70008842B8BF40F8042BFADB00F0D7FAFFF741
:100B8000D5FF07F10807BD4680BD00BFAC110000CE
:100B900000000020F8010020F801002000020020E1
:100BA00080B400AFFEE700BF80B483B000AF03465F
:100BB000FB71FB79002B06D0084B084A126842F003
:100BC00001021A6005E0054B044A126822F0010296
:100BD0001A6007F10C07BD4680BC704700A00840B2
:100BE00080B487B000AFF860B9607A60FB6803F149
:100BF00004734FEAC302BB68D3184FEA83037B61D7
:100C00007B697A681A6007F11C07BD4680BC704793
:100C100080B584B000AF78601C4B5B68FB604FF020
:100C20000000FFF7C1FFFB6823F4C03323F01F036C
:100C3000FB607B685B78FA6842EA0303FB607B68D1
:100C40009B78FA6842EA0303FB607B68DB78FA680A
:100C500042EA0303FB607B685B68FA6842EA0303CD
:100C6000FB607B681B89FA6842EA0303FB60074B61
:100C7000FA685A607B681B78002B03D04FF00100A4
:100C8000FFF792FF07F11007BD4680BD00A00840A6
:100C900080B485B000AF78600E4B5B68FB60FB688A
:100CA00023F48033FB607B68002B07D0B3F5803FD3
:100CB00006D1FB6843F48033FB6002E000BF00E034
:100CC00000BF044BFA685A6007F11407BD4680BCA8
:100CD000704700BF00A0084080B483B000AF024658
:100CE0000B46FA807B717B79002B07D00A4B0A4AAE
:100CF0009168FA8841EA02029A6008E0064B064AC7
:100D00009168FA886FEA020201EA02029A6007F12A
:100D10000C07BD4680BC704700A0084080B584B079
:100D200000AFF860B9601346FB71FB68032B67D80E
:100D300001A252F823F000BF490D0000770D00001A
:100D4000A50D0000D30D0000BB681F2B07DCBA689F
:100D5000FB792E4811461A46FFF742FF51E0BB6867
:100D6000A3F12003BB60BA68FB79294811461A46F3
:100D7000FFF736FF45E0BB681F2B07DCBA68FB793D
:100D8000244811461A46FFF72BFF3AE0BB68A3F14F
:100D90002003BB60BA68FB791F4811461A46FFF76B
:100DA0001FFF2EE0BB681F2B07DCBA68FB791B48CE
:100DB00011461A46FFF714FF23E0BB68A3F1200396
:100DC000BB60BA68FB79164811461A46FFF708FF60
:100DD00017E0BB681F2B07DCBA68FB791148114686
:100DE0001A46FFF7FDFE0CE0BB68A3F12003BB60D1
:100DF000BA68FB790C4811461A46FFF7F1FE00E08D
:100E000000BF07F11007BD4680BD00BF40A00840ED
:100E100050A0084044A0084054A0084048A0084002
:100E200058A008404CA008405CA0084080B487B09F
:100E300000AFF860B9607A60FB68032B62D801A24A
:100E400052F823F0550E0000810E0000AD0E000098
:100E5000D90E00002E4B1B6C7B61BB686FEA03034D
:100E60007A6902EA03037B61BA687B6802EA0303DA
:100E70007A6942EA03037B61254B7A691A6442E08E
:100E8000234B5B6C7B61BB686FEA03037A6902EA00
:100E900003037B61BA687B6802EA03037A6942EA6A
:100EA00003037B611A4B7A695A642CE0184B9B6CE4
:100EB0007B61BB686FEA03037A6902EA03037B6123
:100EC000BA687B6802EA03037A6942EA03037B613A
:100ED0000F4B7A699A6416E00D4BDB6C7B61BB6843
:100EE0006FEA03037A6902EA03037B61BA687B68ED
:100EF00002EA03037A6942EA03037B61044B7A69DD
:100F0000DA6400E000BF07F11C07BD4680BC7047F3
:100F100000A0084080B487B000AFF860B9607A6084
:100F2000FB68032B62D801A252F823F03D0F0000AA
:100F3000690F0000950F0000C10F00002E4B1B6DC4
:100F40007B61BB686FEA03037A6902EA03037B6192
:100F5000BA687B6802EA03037A6942EA03037B61A9
:100F6000254B7A691A6542E0234B5B6D7B61BB6858
:100F70006FEA03037A6902EA03037B61BA687B685C
:100F800002EA03037A6942EA03037B611A4B7A6936
:100F90005A652CE0184B9B6D7B61BB686FEA0303BD
:100FA0007A6902EA03037B61BA687B6802EA030399
:100FB0007A6942EA03037B610F4B7A699A6516E00E
:100FC0000D4BDB6D7B61BB686FEA03037A6902EA54
:100FD00003037B61BA687B6802EA03037A6942EA29
:100FE00003037B61044B7A69DA6500E000BF07F117
:100FF0001C07BD4680BC704700A0084080B483B089
:1010000000AF7860064B064A526822F4E0117A6815
:1010100041EA02025A6007F10C07BD4680BC7047E6
:1010200000A0084080B582B000AF00F017F87860EB
:10103000084B5B6803F00F037A6822FA03F37B60C6
:10104000054B7A681A607B68184607F10807BD46A9
:1010500080BD00BF00800C40FC01002080B483B044
:1010600000AF294BDB6A03F47053B3F5805F0AD0FD
:10107000B3F5005F03D0B3F5006F08D00BE0234B4E
:101080001B687B6038E04FF400437B6034E0204B0A
:101090001B687B6030E01C4BDB6803F4E063B3F556
:1010A000007F1BD0B3F5007F05D8002B1CD0B3F513
:1010B000807F16D01BE0B3F5806F09D0B3F5A06F29
:1010C00003D0B3F5407F06D011E0124B7B6012E0F5
:1010D000114B7B600FE0114B7B600CE0104B7B6091
:1010E00009E0104B7B6006E00F4B7B6003E04FF0A4
:1010F00000037B6000BF00BF7B68184607F10C0748
:10110000BD4680BC704700BF00800C40F401002049
:10111000F0010020003FAB01406F4001809FD500EF
:10112000C0D8A700C0CF6A0040420F0080B400AF13
:10113000BD4680BC704700BF20F0030110F00300E3
:10114000C0F1000051F8043B00F1040C4FEACC0C54
:101150006FF000021CBF22FA0CF213434FF0010C97
:101160004CEA0C2C4CEA0C4CA3EB0C0222EA0302D6
:1011700012EACC1204BF51F8043B0430F4D013F04F
:10118000FF0F1FBF013013F47F4F013013F47F0FA7
:1011900018BF0130704700BF48454C4C4F0000005D
:0C11A00001030800000000000000000037
:1011AC0003030100010302020203020001010A0C05
:1011BC000C0A0909090A0B0B0C0B0B0A030301009F
:1011CC00010302020203020001010E10100E0D0DAC
:1011DC000D0E0F0F100F0F0E03030100010302027F
:1011EC000203020001011214141211111112131333
:1011FC001413131203030100010302020203020081
:10120C000101161818161515151617171817171695
:10121C00030301000103020202030200010119068B
:10122C000619070707191A1A061A1A1903030100D7
:10123C00010302020203020001011B04041B050549
:10124C00051B1C1C041C1C1B0303010001030202D4
:10125C000203020001011D02021D0303031D1E1ED9
:10126C00021E1E1D030201000103021F1F1F1F206F
:10127C002020030201000103022121212123232329
:10128C000302010001030224242424252525030242
:10129C000100010302262626262727270102010228
:1012AC00030101000000000000000000000000012C
:1012BC00020304050607000000000C11140D0000C9
:1012CC000000001180020000000002060000000077
:1012DC0039000F00000040150020400400100022CF
:1012EC003F0006005B044F0466046D047D04070098
:1012FC007F046F0400000000000A00008020000042
:10130C00FFFF7704790A3900B020790071007D0461
:10131C00760406000E00700A3800B602B6083F00CC
:10132C0073043F08730C6D0401113E003022362803
:10133C00802A6E040922390080080F000100080081
:10134C00000158107C0458005E04582071040C0CE9
:10135C00740404000E00700C3800541454045C0423
:10136C00730467045004080C78001C001020142827
:10137C00802A0C08482000003F0006005B004F004C
:10138C0066006D007D0007007F006F0040000000CC
:08139C000048E8010080000098
:00000001FF
