S01700006275696C642F697269732F6D61696E2E7372656343
S11300000C947A000C9498170C94A2170C94AC17C7
S11300100C94B6170C94C0170C94E9170C94F317AE
S11300200C94FD170C9499000C9499000C9499006D
S11300300C9499000C9484160C9499000C94CC168E
S11300400C941D160C94D0150C9407160C941216CF
S11300500C9455160C9499000C9499000C949900E6
S11300600C94E0160C9499000C9499000C9499004B
S11300700C9499000C9499000C9499000C94990098
S11300800C9499000C9499000C9499000C94990088
S11300900C9499000C9499000C9499000C940718F2
S11300A00C9499000C9499000C9499000C94990068
S11300B00C9499000C9499000C9499000C94990058
S11300C00C9499000C9499000C949900B40EE80EC9
S11300D03A0F580FCC0F7C109810F3100811991197
S11300E000124F129F1205131C1336135C130002E7
S11300F00E060C0411241FBECFEFD1E2DEBFCDBF2C
S113010012E0A0E0B2E0E6E9F6E300E00BBF02C0D3
S113011007900D92AE30B107D9F714E0AEE0B2E02B
S113012001C01D92A530B107E1F70E94AD130C94F4
S11301304A1B0C9400008FB7F894992708958FBF39
S113014008958FB7F894282F332782B194E0892734
S113015082B92FBF08958FB7F894282F332782B11F
S113016092E0892782B92FBF08958FB7F894992711
S11301702091090230910A028FBFC9010895982F76
S11301808FB7F894282FE92FFF27EC5CFD4F80816F
S11301908F3FB1F48091F603891791F08091CD03DC
S11301A08F3F19F49093CD0307C08091F603E82F95
S11301B0FF27EC5CFD4F90839093F60380E001C031
S11301C085E02FBF99270895EF92FF920F931F9315
S11301D0CF93DF93082F7B01EA01122F40E050E018
S11301E0FE01319681819927982F88272981332709
S11301F0822B932B87749C7C8154984811F441E0A2
S113020050E0242F3327222339F481E498E88983AA
S113021088E890E0818328A70E94B5008887892F09
S1130220992789878FB7F8949927209108028FBF5F
S1130230822F99278C831D820B87EE828F2D99271D
S11302408F838FE38A87809172028F5F809372021B
S11302508B831D3118F086E090E017C09091130253
S1130260992319F085E090E010C0135F1883D093B0
S11302707903C093780381E0809313029093080379
S113028083E00E94BF0080E090E09927DF91CF9146
S11302901F910F91FF90EF9008951F93CF93DF93D9
S11302A0142FC82FDD27FE01EC0FFD1FEC5EFD4F60
S11302B0118210821092000220E080911402909129
S11302C01502892B19F08091120280FD21E0109211
S11302D00002222319F081E0809300028091000241
S11302E08823C9F4E0911402F091150287819927BB
S11302F0782F662786819927682B792B80818D50EA
S11303009927282FAF0183850E94E400882319F0E0
S113031080E10E94BF00CD2B49F4112319F40E94FF
S1130320AB0002C00E94A10010926D03DF91CF9137
S11303301F9108958FB7F894282F33278091BC001C
S1130340809371032FBF0895FF920F931F93CF9350
S1130350982FF62EC22F8FB7F894282F3327809129
S11303600102891721F02FBF81E090E062C02FBF06
S11303708FB7F894282F332760910F02613051F022
S1130380662321F42FBF84E090E052C02FBF85E0A4
S113039090E04EC082E080930F022FBF8FB7F89495
S11303A0992750934802409347021093BE03009349
S11303B0BD03C093D103F0926E0310925102609377
S11303C00E028FBF0E949A018FB7F894982F8091E4
S11303D0710381688F7B809371036F2D772760FF92
S11303E005C080628093710385E00DC0C23020F4A3
S11303F0CC2331F062FF04C080648093710302C097
S1130400C13021F484E080930F020BC061FF09C066
S113041086E080930F02809171038F7B80618093CB
S11304207103809171038093BC009FBF80E090E0D2
S11304309927CF911F910F91FF900895EF92FF920A
S11304400F931F93CF93DF93982FF62EE22EE8019C
S11304508FB7F894282F332780910102891721F050
S11304602FBF81E090E068C02FBF8FB7F894282F8A
S1130470332710910F02113051F0112321F42FBFB3
S113048084E090E058C02FBF85E090E054C082E043
S113049080930F022FBF8FB7F89499275093480287
S11304A040934702D093BE03C093BD03E092D103AF
S11304B060936E031092510210920E028FBF0E943D
S11304C09A018FB7F894482F5527342F90917103D0
S11304D0292F216C209371036F2D772760FF07C0AC
S11304E0916E9093710385E080930F021DC0EE20FE
S11304F059F084E080930F0280915102C80FD11DFE
S113050088818093BB0010C061FF08C086E080939F
S11305100F022F7B20612093710306C010930F02FA
S11305204FBF81E090E007C0809171038093BC00CD
S11305303FBF80E090E09927DF91CF911F910F9109
S1130540FF90EF9008950F931F93CF93DF93FC01D7
S1130550C0E0D0E082819927382F22278181992712
S1130560282B392B822F9927807290708823A1F031
S113057027743C7C2154384879F487819927182FB3
S1130580002786819927082B192B0E94B50008178C
S1130590190711F4C1E0D0E0CE01DF91CF911F9192
S11305A00F910895FC019A01AB0180A5826080A798
S11305B023A734A745A756A708958091110288233D
S11305C019F480E090E0089581E090E008958FB7F9
S11305D0F894682F77278091540290915502A09146
S11305E05602B09157022091840030918500B09B4F
S11305F007C00196A11DB11D209184003091850092
S113060044275527DC0199278827822B932BA42B79
S1130610B52B6FBFBC01CD010895AC018FB7F89421
S1130620E82F2091840030918500C901841B950B2B
S113063003968617970720F0B9016D5F7F4F02C0BC
S1130640640F751F6115710511F461E070E061506C
S11306507040709389006093880082E086BB80912B
S11306606F00826080936F00EFBF08959C0181E06A
S113067080938D0380930003809184009091850082
S1130680B9010E940D030895FC0190A5662311F0A1
S1130690916001C09E7F90A70895DC01FC018191C7
S11306A0FD019181282F332795FF03C0C9018B9643
S11306B00895C90140960895CF93C82F882381F4E3
S11306C080910103909102030E944D032091CA037B
S11306D03091CB03280F391F3093CB032093CA03E7
S11306E08FB7F8949927C0934D028FBF83E00E947F
S11306F0BF00CF9108951F93CF93BC018091320224
S1130700282F3327F901E20FF31FE054FC4F8081B7
S113071091818617970799F4F901EF50FC4F808176
S113072090917203891711F4C90168C0892F8F5FF2
S1130730809372038083C0E846C0CA015FC0C0E0F2
S11307401C2F3C2FA1EFB3E040E050E0FA01E40F8E
S1130750F51FE054FC4F808191812091720386172C
S1130760970761F4309332028C91821731F3822F10
S11307708F5F809372038C93C0E80CC08C91281B0C
S1130780C21710F4C22F132F3F5F4F5F5F4F1196B4
S11307903530E0F23530B9F410933202A12FBB2783
S11307A0FD01EA0FFB1FE054FC4F71836083FD01E0
S11307B0EF50FC4F809172038F5F809372038083AC
S11307C0A450BC4F1C9220917203822F99278F77DB
S11307D090708F37910579F4CF3768F0922F907825
S11307E0E1EFF3E034E080818F678213908331502E
S11307F0319637FFF8CF809132029927CF911F911C
S11308000895882319F08CB5806402C08CB58F7B61
S11308108CBD08951F93CF93DF93982F40E08FB73B
S1130820F894C82F80911102823089F580910502D5
S1130830891769F520E030E0809107028F3F11F4B9
S113084021E030E0232BE9F48F3F81F0282F332778
S1130850F901EC5FFC4F8081809307028F3F11F414
S1130860809306028FEF8083C90102C08FEF90E06E
S11308708093D00381E08093110288E00E94BF003E
S113088005C08FEF809305024093110241E0CFBF72
S1130890413019F480E090E002C081E090E0182F2C
S11308A08FB7F894C82FDD270E94DD02992788238B
S11308B011F40E940104CFBF812F9927DF91CF91BA
S11308C01F910895EF92FF920F931F937C018FB7AE
S11308D0F894992700914F02109150020F5E1E4F19
S11308E01093500200934F02015111408FBF86E0D4
S11308F00E94BF00C801B7010E94E01A8A5D9E4FA2
S11309001F910F91FF90EF900895EF920F931F9313
S1130910AE2D99E0899FF0011124EB52FC4F4083E6
S11309205183628373830483158326833783A17081
S113093080858E7F8A2B8260808781E00E94BF0041
S11309401F910F91EF9008958FB7F894282F3327B4
S113095082B191E0892782B92FBF08959C018091CB
S11309606C02E82FFF27EE0FFF1FE557FC4F8F5F48
S113097080936C022183832F992780830E94A4048F
S113098008958FB7F894982F8091B200209149026E
S113099030914A0240914B0250914C02B99B11C0D4
S11309A08091B300280F311D411D511D8091B2006B
S11309B0280F311D411D511D2F5F3F4F4F4F5F4F7A
S11309C004C0280F311D411D511D9FBFCA01B9012B
S11309D008950F931F93CF93DF9310E08FB7F8948C
S11309E0482F5527042F2091B3009091B20087B36C
S11309F0291711F081FF02C04FBF71C080913803E5
S1130A008823B1F10E94C104DC01CB01C0915A02D8
S1130A10D0915B02E0915C02F0915D028C1B9D0B16
S1130A20AE0BBF0B209101043091020440910304EA
S1130A305091040482179307A407B50720F010937C
S1130A40380311E015C02C0F3D1F4E1F5F1F80910E
S1130A50490290914A02A0914B02B0914C02281B8A
S1130A60390B4A0B5B0B273E31054105510510F04C
S1130A7086EE05C0223010F482E001C0822F682F78
S1130A8061508091B60083FDFCCF8091B20086173F
S1130A9009F46F5F2091490230914A0240914B0260
S1130AA050914C02DA01C901860F911DA11DB11D9F
S1130AB00196A11DB11D82179307A407B50718F469
S1130AC06091490260958091B60083FDFCCF6093EC
S1130AD0B3000FBF112319F080E00E94BF00DF9123
S1130AE0CF911F910F910895EF92FF920F931F934F
S1130AF07B018C018FB7F894682F772781E080936E
S1130B003803E0925A02F0925B0200935C02109365
S1130B105D02209301043093020440930304509334
S1130B2004046FBF0E94E9041F910F91FF90EF909E
S1130B300895AF92BF92CF92DF92EF920F931F93DB
S1130B405B016C010E94C104DC01CB01EE2496011F
S1130B508501AC01BD0181E00E9485041F910F91C4
S1130B60EF90DF90CF90BF90AF900895882319F055
S1130B708CB5806802C08CB58F778CBD0895EF92D8
S1130B80FF921F9310E0812F0E9401048FB7F89405
S1130B90E82EFF24229A2398219A8CB580618CBD7B
S1130BA0812F0E94B6058DB581608DBD8CB5877F80
S1130BB08CBD8CB58B7F8CBD8CB58E7F8CBD81E05C
S1130BC00E940104EFBE1F91FF90EF9008951F93C0
S1130BD0CF93DF93182F8FB7F894C82FDD270E9487
S1130BE0DD02882311F40E94BF05CFBF8FB7F894AC
S1130BF0C82FDD272C2F80911102882361F481E016
S1130C00809311021093D00388E00E94BF00CFBFED
S1130C1080E090E01FC0E12FFF27EC5FFC4F808154
S1130C208F3FA1F4E0910602E11781F08091070261
S1130C308F3F19F41093070204C0FF27EC5FFC4FA9
S1130C4010831093060280E090E002C085E090E0FB
S1130C502FBF99279927DF91CF911F910895CF93A3
S1130C608FB7F894282F3327922F80910502882379
S1130C7041F480911102823021F42FBF81E090E091
S1130C8003C09FBF80E090E0892BF1F48FB7F89404
S1130C90282F332790911102992349F482E08093FD
S1130CA01102909305022FBF80E090E003C02FBF94
S1130CB081E090E09927C82F882311F40E94BF0592
S1130CC0CC2329F4209A289A81E090E005C080E0A2
S1130CD00E94E70580E090E0CF910895CF92DF92E3
S1130CE0EF92FF920F931F93CF93DF936C01809148
S1130CF00303882309F098C080913302853009F0FA
S1130D0093C00E942F06882309F48EC08091730338
S1130D10882309F089C0F601B896E60188A5847095
S1130D209927882311F082818F70682F8091750331
S1130D30681789F060937503962F9068289885EC5E
S1130D408EBD0DB407FEFDCF8EB59EBD0DB407FE5E
S1130D50FDCF8EB5289A40E050E0E60121968981C6
S1130D609927982F8827F60121813327822B932BEB
S1130D7087749C7C8154984811F441E050E0452BE1
S1130D8001F1289886E88EBD0DB407FEFDCF8EB51F
S1130D901EBC0DB407FEFDCF8EB5289A282F33272D
S1130DA02F7130709091F70380911E02890F912D5D
S1130DB0911D53E0959587955A95E1F7821793070E
S1130DC09CF1289882EC8EBD0DB407FEFDCF8EB544
S1130DD089E08EBD0DB407FEFDCF8EB5289A0E9422
S1130DE0E7027B018C01F60180A584FF06C08081A7
S1130DF08151E80FF11D3C9602C0E0E0F0E0289834
S1130E0081E88EBD0DB407FEFDCF8EB51EBC0DB4BA
S1130E1007FEFDCF8EB5289A99278F719070099798
S1130E2031F087E08093330285E090E0A4C08FB76F
S1130E30F89499272F9A20918400309185002E559B
S1130E403F4F8FBF2F98289880E68EBDD6018C9196
S1130E509927682F982F0DB407FEFDCF8EB59EBD40
S1130E60625097E0691708F4962F691B49910DB4F5
S1130E7007FEFDCF8EB54EBD9150C1F72E193F0927
S1130E80C901AA2797FDA095BA2FE80EF91E0A1FDB
S1130E901B1F3097B9F080819181A281B3818E1993
S1130EA09F09A00BB10B8383292F3A2F4B2F552772
S1130EB022839D014427552721838B2F9927AA2715
S1130EC0BB27808399910DB407FEFDCF8EB59EBDDF
S1130ED06150C1F70DB407FEFDCF8EB5289A28984E
S1130EE082EC8EBD0DB407FEFDCF8EB586E08EBDBF
S1130EF00DB407FEFDCF8EB5289A309779F1808125
S1130F009927AA27BB27B82FAA27992788272181A1
S1130F10332744275527A90133272227822B932BD4
S1130F20A42BB52B2281332744275527542F432F35
S1130F30322F2227822B932BA42BB52B23813327EB
S1130F4044275527822B932BA42BB52B8E0D9F1D45
S1130F50A01FB11F80839183A283B383B801A7012B
S1130F60C6010E94D20286E08093330284E080931B
S1130F70030380E090E0DF91CF911F910F91FF90E8
S1130F80EF90DF90CF9008951F93182F81E00E9477
S1130F9001041EBD0DB407FEFDCF8EB599271F9128
S1130FA00895882341F48091F9038150833018F423
S1130FB085E08093F9030895CF92DF92FF920F9317
S1130FC01F93CF93DF93F901E081E0935302413003
S1130FD029F085E08093F903EC9A93C08091F9039A
S1130FE0863031F4E0936B0285E08093F903EC9A48
S1130FF08091F903882309F084C0FE2EF094809137
S11310006B02F82280958E23F82AC0E0D0E00FE12D
S113101012E07EE5C72E72E0D72EF6018081282FDC
S1131020332726FD5CC08F2D99270C2E02C0959581
S113103087950A94E2F780FF52C020FF25C0809173
S11310406B0299270C2E02C0959587950A94E2F7B6
S113105080FD1AC08091530299270C2E02C09595E9
S113106087950A94E2F780FF0FC022FF07C0F801BA
S113107080819181CC2311F40E94AE04F801808117
S11310809181019691838083F6018081282F3327F3
S113109021FF25C080916B0299270C2E02C09595E3
S11310A087950A94E2F780FF1AC08091530299272A
S11310B00C2E02C0959587950A94E2F780FD0FC027
S11310C022FF07C0F80180819181CC2311F40E9492
S11310D0AE04F801808191810196918380832196E9
S11310E00894C11CD11C0E5F1F4FC830D1050CF4ED
S11310F094CF8091530280936B02EC9A85E08093A5
S1131100F903DF91CF911F910F91FF90DF90CF9062
S11311100895CF92DF92EF92FF920F931F93CF9394
S1131120DF9380917303882309F417C10E942F066B
S1131130882309F412C18FB7F8949927C0913B030F
S1131140D0913C038FBF1092730328988FE88EBD13
S11311500DB407FEFDCF8EB51EBC0DB407FEFDCF4A
S11311608EB5289A982F082F112700FF0CC0809164
S11311700303833011F0873031F485E08093330228
S113118088E08093030302FF58C0809103038630F4
S113119011F41092030380910303882309F04DC0D6
S11311A09430D1F5289886E88EBD0DB407FEFDCFA6
S11311B08EB51EBC0DB407FEFDCF2EB5289A2F7137
S11311C080911E02982F96959695322F391B830F86
S11311D080931E02E0914502F091460280A58B7F28
S11311E0886080A722A70E94E7029B01AC01C61B6E
S11311F0D70B2797CE01AA2797FDA095BA2F820F68
S1131200931FA41FB51FAC01BD01809145029091AD
S113121046020E94D2020EC0E0914502F0914602BD
S113122080A5877F80A7E0914502F091460280A5C2
S11312308D7F80A785E08093030303FF8EC0809198
S11312400303843009F057C085E080933302109281
S1131250030380916D02833019F410926D027DC0F6
S1131260E0910503F091060340E050E08281992764
S1131270382F222781819927282B392B822F9927D0
S113128080729070882391F027743C7C21543848F4
S113129069F487819927982F882726813327822B01
S11312A0932B8F5F9F4F11F041E050E0452BD9F015
S11312B020E030E080910003882311F421E030E045
S11312C0232B89F012E010938D0381E080930003B7
S11312D0809184009091850061EE72E00E940D037C
S11312E010936D023AC010926D021092F00380E0E8
S11312F00E945C0332C0853081F5809133028730CF
S113130091F4289882EC8EBD0DB407FEFDCF8EB506
S113131086E08EBD0DB407FEFDCF8EB5289A85E01C
S11313208093330217C0289886E88EBD0DB407FE5B
S1131330FDCF8EB51EBC0DB407FEFDCF8EB5289A29
S11313408F719091F703292F26952695821B980F6C
S11313509093F70389E08093030390910303992307
S113136009F493C2993009F0D2C1289880E28EBD65
S11313700DB407FEFDCF8EB51EBC0DB407FEFDCF28
S11313808EB59927A82F833008F4CFC08A3208F08D
S1131390CCC01EBCE0914502F0914602808360916E
S11313A04502709146026F5F7F4FEE24FF24A250E6
S11313B027E0A21708F42A2FA21BFB016F5F7F4FBF
S11313C00DB407FEFDCF8EB51EBC99278083A701FF
S11313D04827042E4295407F4025052E542F4295E0
S11313E04F700426469554274527440F440F440F55
S11313F040257A01215009F70091450210914602D7
S113140040E050E0F8018181282F332727703070A5
S11314102230310511F441E050E055274423E1F036
S113142040E050E080916D028230A1F4C090050349
S1131430D0900603EA01F8019381F60183818917AC
S113144029F42230310511F4C1E0D0E0CD2B11F0A4
S113145041E050E0CA010DC08FB7F894282F33271C
S1131460942F80916C03833008F491E02FBF892F6F
S11314709927882309F459C0A150AF3FF1F0FB012B
S11314806F5F7F4F0DB407FEFDCF8EB51EBC99274D
S1131490808397012827022E2295207F2025032E62
S11314A0322F22952F700226269532272327220FCA
S11314B0220F220F20257901DFCF0DB407FEFDCFC7
S11314C08EB51EBC97012827022E2295207F202549
S11314D0032E322F22952F7002262695322723279A
S11314E0220F220F220F20250DB407FEFDCF8EB54B
S11314F01EBC2827022E2295207F2025032E322F62
S113150022952F700226269532272327220F220F99
S1131510220F20257901E0914502F09146020DB495
S113152007FEFDCF8EB581A703C0C1E0EC2EF12CE0
S1131530289AB5E0DB2ED092330210920303E11413
S1131540F10409F096C100914502109146029701F9
S1131550F8018181992787709070029711F421E036
S113156030E0C22FDD2780916D028230A9F4809192
S11315706F008D7F80936F00109200036C2F809119
S11315800503909106030E94440310926D02109289
S1131590F00380E00E945C03CC2309F08CC0C801F6
S11315A00E94A3028823A9F0D092090382E090E06C
S11315B080930A03E0920B03F801838180930C0368
S11315C089E093E00E946E06882319F483E08093F7
S11315D06D02C0918400D0918500C8010E94A302CD
S11315E0882311F0C45EDC4FD0935902C093580293
S11315F08091840090918500C81BD90BCE011C16E4
S11316001D066CF42091F003222331F40E9436036A
S113161080E88093F00303C020682093F003C8019E
S11316200E944D032091660230916702280F391FF2
S11316303093670220936602E801289689819927EE
S1131640382F2227F80180859927822B932B0E941B
S11316507B03E82FFF27E450FC4F908191FD09C0E4
S113166080916802803128F48F5F809368029260D1
S1131670908389819927382F2227F801808599271B
S1131680822B932B0E947B03F8019381A82FBB2705
S1131690FD01E450FC4F808180FF0FC0FD01E25842
S11316A0FC4F8081981759F4809174038F3F19F08F
S11316B08F5F80937403C80125C081608083A25822
S11316C0BC4F9C938FB7F894F82E80916C038330B1
S11316D010F0E80115C0E0913002E80FE33008F0A3
S11316E0E350FF27EE0FFF1FE85EFD4FC081D1815D
S11316F0118300838F5F80936C0384E00E94BF009A
S1131700FFBECE019093460280934502B2C0892F5A
S11317108150833008F08CC081508230F0F44091C5
S113172033024130D1F420E030E08091000388237B
S113173011F421E030E0232B81F02F9883E0809393
S11317408D034093000380918400909185006BE2A7
S113175073E00E940D0382E056C0933089F58091B6
S11317603302833069F50E942F06882349F12898B3
S11317708FE88EBD0DB407FEFDCF8EB51EBC0DB433
S113178007FEFDCF8EB5289A8091810080648093F6
S1131790810080E286BB80916F00806280936F003D
S11317A0289882EC8EBD0DB407FEFDCF8EB586E081
S11317B08EBD0DB407FEFDCF8EB5289A84E023C0FC
S11317C0809103038150823000F58091330285308B
S11317D0E1F40E942F068823C1F0289882EC8EBD84
S11317E00DB407FEFDCF8EB583E08EBD0DB407FEAC
S11317F0FDCF8EB5289A80916F008F7D80936F0006
S11318001092730383E08093330290910303913029
S113181041F480913302833061F52F9A909333021F
S113182025C0923031F580913302833011F51EC00A
S11318309730F9F40E942F068823D9F09091D203AF
S11318409066289888EC8EBD0DB407FEFDCF8EB54A
S11318509EBD0DB407FEFDCF8EB5289A809133024C
S1131860853021F484E08093330203C088E08093C0
S1131870030380910303883041F41092030385E04D
S11318800E94BF0082E00E94BF008091030388236E
S113189009F5809133028530E9F48091730388233C
S11318A0C9F480916D028823A9F48091F003882300
S11318B089F420E030E080910003882311F421E0D2
S11318C030E0232B39F080911302813019F483E046
S11318D00E94BF0080910303882311F40E940A042C
S11318E080910003823009F0A8C010920003809117
S11318F08D0399278130910561F0823091050CF4B4
S11319009CC08230910509F46CC0039709F478C037
S113191094C08091840090918500009158021091A8
S11319205902081B190B8091F003803859F4109266
S1131930F00380911302813009F07FC083E00E949C
S1131940BF007BC087FF05C01016110614F4C5E064
S113195022C0C0916902D0916A0280916D028823ED
S113196099F4CE010E946E06682F7727F62E66231F
S113197069F4CE010E94440381E080936D02D09308
S11319800603C093050302C0E5E0FE2E8F2D9927C0
S1131990C82F882311F12091F003822F99278F7784
S11319A0019759F4207822602093F00380E198E0B5
S11319B00E9462040E94360340C027FF0AC010162A
S11319C011063CF480E88093F003C8010E943603BA
S11319D002C01092F0038C2F10C083E08093F003B8
S11319E02CC0809174038F3F19F08F5F8093740330
S11319F010926D021092F00380E00E945C031DC0FF
S1131A0080913302823021F483E08093330213C047
S1131A1080910303863079F410920303289881E8B7
S1131A208EBD0DB407FEFDCF8EB51EBC0DB407FEF2
S1131A30FDCF8EB5289A0E94370D8FB7F894282FC2
S1131A40332780914E02813021F410924E022FBF31
S1131A5005C081E080934E022FBF63CBDF91CF910D
S1131A601F910F91FF90EF90DF90CF9008958FB763
S1131A70F894282F332780914E02882329F0806818
S1131A8080934E022FBF089581E080934E022FBFB2
S1131A900E94890808958FB7F894282F33278091DE
S1131AA04E02815080934E02803811F02FBF08956A
S1131AB081E080934E022FBF0E94890808958F927F
S1131AC09F92AF92BF92CF92DF92EF92FF920F93C9
S1131AD01F93CF93DF936B017C0100E065ED73E00E
S1131AE0FB01108511FF01C12081318142815381A5
S1131AF0D701C601821B930BA40BB50B8480958080
S1131B00A680B78088159905AA05BB0508F4EDC021
S1131B1010FF03C01D7F108709C0280D391D4A1D01
S1131B205B1DFB012083318342835383802F9927DC
S1131B30009721F0019709F458C0DDC08FB7F894DD
S1131B40282F332780914E028F5F80934E022FBF40
S1131B508091CA039091CB039C0153E0369527955D
S1131B605A95E1F7821B930B9093CB038093CA039E
S1131B7080916602909167029C0143E03695279517
S1131B804A95E1F7821B930B909367028093660258
S1131B9080917403982F969596959695891B8093BA
S1131BA0740320915202422F4695469546953091F2
S1131BB06802431741F4822F992787709070892B0C
S1131BC011F0215002C0341B230F20935202ECEF7A
S1131BD0F3E094E080818D7F8193915097FFFACF59
S1131BE0109268020E944B0D86C080916C02813075
S1131BF009F068C080916D03882309F044C0AAE904
S1131C00B3E0E3E8F3E02AE001900D922150E1F71C
S1131C106FEF7FEF4EE853E0609394038FEF90E013
S1131C208093950393E990939903C0911402D09102
S1131C301502209719F085E090E020C0509315021A
S1131C404093140287E180938E03809100028823DD
S1131C50A1F0209300022AE0892F0E94E400992732
S1131C60282F882339F081E080930002D093150255
S1131C70C0931402822F992701C0CE01882319F43E
S1131C8081E080936D0380916D03882311F40E9499
S1131C90A10010926C028091FA03882389F4809148
S1131CA089039927982F882720918A033327822B29
S1131CB0932B019680938A03892F99278093890314
S1131CC01092FA0320911F023091200280915E024B
S1131CD0992780739070892B21F010922002109222
S1131CE01F02C9010E94AE0406C00F5F675F7F4FE9
S1131CF0033008F4F5CE81E00E94BF00DF91CF915C
S1131D001F910F91FF90EF90DF90CF90BF90AF9015
S1131D109F908F9008952F923F924F925F926F926F
S1131D207F928F929F92AF92BF92CF92DF92EF9267
S1131D30FF920F931F93CF93DF93CDB7DEB72A970C
S1131D400FB6F894DEBF0FBECDBF9927AA27BB27D5
S1131D50FC01419708F0BDC4EA59FF4FEE0FFF1F85
S1131D600590F491E02D099440912F02442349F504
S1131D708FB7F894282F3327E0905A02F0905B0233
S1131D8000915C0210915D02809101049091020423
S1131D90A0910304B0910404E80EF91E0A1F1B1F4E
S1131DA02FBF80917A0390917B03A0917C03B09123
S1131DB07D0340932F029C01AD01C801B7010E942D
S1131DC074050E94C104DC01CB01BC01CD013FC0FC
S1131DD00E94C1045B016C012FEF3FEF4FEF5FE7FF
S1131DE070E08FB7F8949927709338038FBFE5EDAF
S1131DF0F3E062E0808581FF1CC080819181A28133
S1131E00B38186017501E81AF90A0A0B1B0BD80184
S1131E10C701E480F58006811781E81AF90A0A0BE4
S1131E201B0BE216F306040715071CF4A80197011F
S1131E3071E06150399667FFDDCF772309F449C417
S1131E4012161306140615062CF0C601B5010E94DD
S1131E505F0D3FC420937A0330937B0340937C034C
S1131E6050937D0381E080932F02C601B5010E9447
S1131E7074052FC490911302892F8450823010F47A
S1131E8010921302943009F024C480918503992799
S1131E90982F8827209186033327822B932BAA27F8
S1131EA0BB27BC01CD010E94990510926C0211C49C
S1131EB08FB7F894992710914D028FBF8091130228
S1131EC0823011F4112339F0809108038F5F8093DD
S1131ED00803863020F083E08093130243C08FB759
S1131EE0F894282F332780914E028F5F80934E02FF
S1131EF02FBF40917803509179035093020340938C
S1131F0001038091F003882351F420E030E08091B4
S1131F100003882311F421E030E0232B19F485E039
S1131F2090E00FC050936A024093690281E080936D
S1131F30F00386EB93E20E9462040E94360380E081
S1131F4090E09927182F882311F482E007C080912C
S1131F500803853011F483E001C081E0809313020B
S1131F600E944B0D80911302833009F0B2C310928A
S1131F701302209178033091790380910002882321
S1131F8009F0A7C3609114027091150262177307D8
S1131F9009F09FC3412F9BC38FB7F894282F332791
S1131FA080916C03882309F485C380913002E82F63
S1131FB0FF27EE0FFF1FE85EFD4F808091802FBF4B
S1131FC00CE0E02EF12CE80CF91CF40182858F332F
S1131FD009F076C0B38487819927182F002786815A
S1131FE09927082B192BCC24DD240E94B50008174F
S1131FF0190719F00F5F1F4F19F4B1E0CB2ED12C44
S1132000CD2809F45DC003E9B01609F059C00E9457
S1132010A404F70180819927582F442781819927A7
S1132020482B592B809183039927982F8827209137
S113203084033327822B932B8417950710F5409341
S11320408403852F99278093830382819927382FCE
S1132050222783819927282B392B20938603832FCA
S11320609927809385039927982F88273327822BD4
S1132070932BAA27BB27BC01CD010E94990510927E
S11320806C02F70186819927582F44278781992765
S1132090482B592B809189039927982F88272091C1
S11320A08A033327822B932B8417950748F4409394
S11320B08A03852F99278093890381E08093FA030B
S11320C08FB7F894482F552780913002E82FFF27C7
S11320D0EE0FFF1FE85EFD4F918280828F5F809339
S11320E03002833010F01092300280916C038150E2
S11320F080936C034FBF50CF8091BF03813079F43C
S11321000E94C104DC01CB01EE2404E610E020E0CF
S113211030E0AC01BD018E2D0E948504DAC282300C
S113212009F0D7C28091DD038D7F8093DD03D1C296
S11321308FB7F894E82EFF24FA86E98620906E0281
S113214030906F0240907002509071026624BEE499
S1132150AB2EA3E8BA2EC62CD62CE62CF62C062DD4
S1132160162D222D332D442D552D662D762D862D9D
S1132170962D0E942A1929833A834B835C836D83AD
S11321807E838F839887822E932EA42EB52E2401CE
S11321903501769467945794479400E20E94341A68
S11321A0A22EB32EC42ED52EA6019501240D351DC5
S11321B0461D571D57FF05C05F772F5F3F4F4F4F99
S11321C05F4F20936E0230936F02409370025093DE
S11321D07102F984FFBE8FB7F894992730935002A7
S11321E020934F0213C08FB7F8949927109270036D
S11321F010926F031092D4031092D303109217021B
S11322001092160210923A03109239038FBF61C2E2
S11322108FB7F894282F33278091D0038093050239
S113222082E0809311022FBF80910502882309F078
S113223050C2209A289A80913302882309F076C0EC
S11322408EEF91E0019701960197E1F716982F9888
S113225086E090E0019701960197E1F7169A289895
S113226083EC8EBD0DB407FEFDCF8EB51EBC0DB440
S113227007FEFDCF8EB5289A289882EC8EBD0DB44A
S113228007FEFDCF8EB588E08EBD0DB407FEFDCFF1
S11322908EB5289A8EEF91E0019701960197E1F7A8
S11322A028988EEC8EBD0DB407FEFDCF8EB58DE45F
S11322B08EBD0DB407FEFDCF8EB5289A289889EC03
S11322C08EBD0DB407FEFDCF8EB587EC8EBD0DB46B
S11322D007FEFDCF8EB5289A289885EC8EBD0DB4E7
S11322E007FEFDCF8EB580E88EBD0DB407FEFDCF91
S11322F08EB5289A109275038BE090E08093D203F8
S1132300289888EC8EBD0DB407FEFDCF8EB58BE604
S11323108EBD0DB407FEFDCF8EB5289A2F9A81E0AD
S11323208093330280E00E940A04D3C10E94370DD7
S1132330D0C1E1E0FE2E07E013E02F2D4FE350E083
S113234063E080E00E94A4018F1509F48BC14091E1
S1132350770340935E02842F992701E010E09C01EB
S1132360202731279695879580279127282339237D
S113237020FF03C0416040935E020E94A1008FB71A
S1132380F894282F332780914E028F5F80934E025A
S11323902FBF80911302882311F015E029C0F09219
S11323A0BF0380910303882369F480913302813051
S11323B061F420E030E080910003882309F498015F
S11323C0232B41F485E090E00CC0853019F489E0BA
S11323D090E007C083E0809303030E94370D80E000
S11323E090E09927182F882319F484E0809313022E
S11323F00E944B0D112309F46CC10E94A10069C114
S11324008091F903853009F045C081E08093F90398
S113241090916B02909353028091FB03682F77276E
S1132420A1E0B0E0492FEEE5F2E020E030E057E033
S1132430CB01022E02C0959587950A94E2F780FF9E
S113244008C0CD01022E02C0880F991F0A94E2F73A
S1132450482B808186FD08C0CD01022E02C0880F62
S1132460991F0A94E2F7482B51502F5F3F4F319642
S113247057FFDECF4093530203E512E021E04FE320
S113248050E0622F80E00E941E02813029F485E032
S11324908093F9038AE0E7C01092FB031AC180918C
S11324A0F903853009F046C082E08093F9039091E6
S11324B06B029093530280913102682F7727A1E039
S11324C0B0E0492FEEE5F2E020E030E057E0CB0148
S11324D0022E02C0959587950A94E2F780FF09C001
S11324E0CD01022E02C0880F991F0A94E2F780954D
S11324F04823808186FD08C0CD01022E02C0880FCA
S1132500991F0A94E2F7482B51502F5F3F4F3196A1
S113251057FFDDCF4093530203E512E021E04FE380
S113252050E0622F80E00E941E02813029F485E091
S11325308093F9038BE097C010923102CAC0809156
S1132540F903853009F05CC083E08093F90380913E
S11325506B028093530230E042C08091F8039927C4
S1132560432F5527042E02C0959587950A94E2F7C8
S113257080FF22C020915302822F9927042E02C08B
S1132580959587950A94E2F780FF0BC081E090E06F
S1132590042E02C0880F991F0A94E2F7809528231D
S11325A009C081E090E0042E02C0880F991F0A94AC
S11325B0E2F7282B20935302FA01E25AFD4F80815F
S11325C086FD0CC081E090E002C0880F991F4A95F7
S11325D0E2F720915302282B209353023F5F3830B7
S11325E008F4BBCF03E512E021E04FE350E0622F93
S11325F080E00E941E02813029F485E08093F90373
S11326008CE031C01092F80364C0F090F90305E047
S1132610F01681F41092F90307E013E021E04FE390
S113262050E063E080E00E94A401813009F051C0D1
S1132630F092F9038DE017C08FB7F894282F332751
S1132640809176038093020283E0809310022FBF6F
S1132650209102028FB7F8949927209301028FBF2B
S11326602223B9F589E00E94BF0033C08091120291
S1132670882379F111E000E030911202832F812345
S1132680A1F0802F9927FC01EE0FFF1FEC5EFD4F98
S113269011821082212F2095322330931202892B2C
S11326A021F40E94A10010926D03110F0F5F0830F6
S11326B018F30FC02FBF0DC080910002E82FFF2731
S11326C0EE0FFF1FEC5EFD4F41E0608171810E94BF
S11326D04D012A960FB6F894DEBF0FBECDBFDF9131
S11326E0CF911F910F91FF90EF90DF90CF90BF900B
S11326F0AF909F908F907F906F905F904F903F909E
S11327002F9008958091CD038F3FD1F09091CD0308
S11327108091CD03E82FFF27EC5CFD4F80818093EF
S1132720CD038091CD038F3F11F48093F603892F5D
S11327309927FC01EC5CFD4F2FEF20839C0102C024
S11327402FEF30E02F3F19F480E090E00895822FBE
S11327500E948B0E81E090E00895CFEFD1E2DEBFBE
S1132760CDBF8FB7F894C82F41E150E06FEF70E010
S113277084E392E00E94D91A8FEF8093CD03809373
S1132780F60356985E9854985C9880916F008F7DFC
S113279080936F00209A289A279A2F980E9A169A57
S11327A08DE393E090934602809345021092F703E1
S11327B08AE580931E0281E08093810080E2809309
S11327C0B60083E08093B1002091840030918500AD
S11327D04AE780918400909185008217930708F45A
S11327E041509C014423A9F79091B2008091B2001A
S11327F08917E1F320918400309185009091B20013
S11328008091B2008917E1F3809184009091850052
S1132810821B930B409645E0969587954A95E1F780
S11328209093CF038093CE031092B1008091B100B6
S113283080938100809181008093B6001092B20051
S113284010928500109284008FEF87BB87B386BBFC
S11328508091B600282F332725713070211531055A
S1132860B9F70A9A099A089A129A119A109A28B9E9
S11328708FEF87B90C9814983093850020938400C7
S113288080916F00816080936F0080918100887FC8
S113289082608093810081E085BF0E948213282F8B
S11328A033272223D1F78FEF8093CC038093040343
S11328B0822F0E94E70580910B0290910C020196F1
S11328C0AA27BB2780936E0290936F02A093700295
S11328D0B09371028091B60080628093B6008091BB
S11328E0B60081FDFCCF82E08093B0008091B600F9
S11328F080FDFCCF83E08093B1008091B60083FD1E
S1132900FCCF86EE8093B300809170008260809348
S113291070000E94E9042FEF3FEF84E0E0ECF3E065
S113292021933193815087FFFBCF80910B028295D5
S1132930807F8093720283E792E022E0E8E1F2E094
S11329408193919321508F9627FFFACF0E9482138F
S1132950482F55274423D1F7CFBF7894109286038C
S113296088E290E08093850380910B0290910C02A1
S113297080938803892F99278093870381E3809329
S11329807703C1E0C0935E02C0935F02C09360020C
S1132990C0936102C0936202C093630280E4809397
S11329A06402809365028FEF80936B0286E08093CC
S11329B0F9036C988FB7F8949927382F2091100257
S11329C02223B9F08091CC038F3F89F4E091030274
S11329D0EE2369F0809104028F3F19F410920402EF
S11329E004C0FF27E453FC4F4083109203023FBF0F
S11329F044C0C0931002209376038FBF8FB7F8941E
S1132A00082F112790910F029923C9F4589A599AC3
S1132A10509851989093B90081E48093B8009093B2
S1132A20BA009093BC000E949A0180917103846063
S1132A308E7F809371038093BC00C0930F020FBFFD
S1132A408FB7F894C82FDD279C2F80910202813024
S1132A5099F480911002813021F48EE00E94BF002D
S1132A6009C0823049F4809176038093020283E0A6
S1132A7080931002CFBF01C09FBF8FB7F894482F37
S1132A8069C080916E00992786709070892B81F4BB
S1132A9080916F0099278E729070892B49F48091F0
S1132AA07100282F33272E7230702115310519F04B
S1132AB080E090E01AC00CB407FC0CC08091C10007
S1132AC0807C41F48091C900807C21F48091BC0019
S1132AD082FF02C0C90109C080917A0087FF03C048
S1132AE081E090E002C085E090E0282F80917000A2
S1132AF0992783709070892BC1F08091B600992733
S1132B008A719070892BC9F78091B3009091B200BB
S1132B10891B8C3020F08091B200853F18F082E050
S1132B2090E005C083E090E002C085E090E0E82FEB
S1132B30281708F4E22F83B7807FFF27E251FF4F65
S1132B409491892B816083BF78948895F89483B796
S1132B508E7F83BF8091CD038F3FC9F09091CD03C9
S1132B608091CD03E82FFF27EC5CFD4F808180939B
S1132B70CD038091CD038F3F11F48093F603892F09
S1132B809927FC01EC5CFD4F2FEF208302C08FEFEF
S1132B9090E08F3F09F475CF4FBF0E948B0E6DCF2D
S1132BA078941F920F920FB60F9211242F933F9394
S1132BB04F935F936F937F938F939F93AF93BF9341
S1132BC0EF93FF9380916F008D7F80936F007894D3
S1132BD08FB7F894282F332780910003813019F49C
S1132BE082E0809300032FBF0E94370DFF91EF9185
S1132BF0BF91AF919F918F917F916F915F914F9111
S1132C003F912F910F900FBE0F901F9018957894BD
S1132C101F920F920FB60F9211240F900FBE0F90B8
S1132C201F90189578941F920F920FB60F9211244B
S1132C300F900FBE0F901F90189578941F920F92CB
S1132C400FB60F9211242F933F934F935F936F937B
S1132C507F938F939F93AF93BF93EF93FF93809151
S1132C6084009091850080918600909187002FB711
S1132C70F894332790933C0380933B0381E0809343
S1132C8073032FBF0E94370DFF91EF91BF91AF9156
S1132C909F918F917F916F915F914F913F912F9170
S1132CA00F900FBE0F901F90189578941F920F925B
S1132CB00FB60F9211242F933F938F939F93AF934B
S1132CC0BF938FB7F894282F3327809154029091A3
S1132CD05502A0915602B09157020196A11DB11D53
S1132CE08093540290935502A0935602B0935702D6
S1132CF02FBFBF91AF919F918F913F912F910F90D3
S1132D000FBE0F901F9018951F920F920FB60F923F
S1132D1011242F933F934F935F936F937F938F93DC
S1132D209F93AF93BF93EF93FF938091B0008093F1
S1132D30B0008091B60081FDFCCF8091B30099274B
S1132D4001969C01442755278091490290914A029B
S1132D50A0914B02B0914C02820F931FA41FB51F88
S1132D608093490290934A02A0934B02B0934C0281
S1132D7078940E94E904FF91EF91BF91AF919F91E4
S1132D808F917F916F915F914F913F912F910F9010
S1132D900FBE0F901F9018951F920F920FB60F92AF
S1132DA011248F938091B0008093B0008091B6007D
S1132DB081FDFCCF8F910F900FBE0F901F9018953F
S1132DC01F920F920FB60F9211248F929F92AF927F
S1132DD0BF92CF92DF92EF92FF920F931F932F93A4
S1132DE03F934F935F936F937F938F939F93AF938F
S1132DF0BF93CF93DF93EF93FF938EB5282F3327A1
S1132E00E0916F03F0917003309739F080913903AA
S1132E1090913A03E80FF91F208380913903909130
S1132E203A03019690933A038093390380E00E9419
S1132E30B6058091390390913A032091160230919E
S1132E4017028217930708F045C0E090D303F0906F
S1132E50D40380906F03909070036C01AC01465FC3
S1132E605F4F2417350708F09A0159010894A10807
S1132E70B1088A159B05E0F48C01080D191DEC01BD
S1132E80CE0DDF1DE114F10411F0888101C080E052
S1132E900E94C4078114910411F0F80180830894FE
S1132EA0C11CD11C21960F5F1F4FCA14DB0450F3C1
S1132EB081E00E94B605E114F10431F0EC0CFD1C34
S1132EC0F70180818EBD01C01EBCD0923A03C0922E
S1132ED0390311C01092700310926F031092D4033F
S1132EE01092D303109217021092160210923A0312
S1132EF0109239038EB5FF91EF91DF91CF91BF917D
S1132F00AF919F918F917F916F915F914F913F917D
S1132F102F911F910F91FF90EF90DF90CF90BF9072
S1132F20AF909F908F900F900FBE0F901F901895A9
S1132F301F920F920FB60F9211240F900FBE0F9095
S1132F401F9018951F920F920FB60F9211240F9095
S1132F500FBE0F901F9018951F920F920FB60F92ED
S1132F6011240F900FBE0F901F9018951F920F926F
S1132F700FB60F9211240F900FBE0F901F9018954B
S1132F801F920F920FB60F9211242F933F934F93DA
S1132F905F936F937F938F939F93AF93BF93EF93BD
S1132FA0FF93EC988DE00E94BF00882309F4EC9A0B
S1132FB0FF91EF91BF91AF919F918F917F916F910D
S1132FC05F914F913F912F910F900FBE0F901F90E3
S1132FD018951F920F920FB60F9211240F900FBEE7
S1132FE00F901F9018951F920F920FB60F921124F5
S1132FF00F900FBE0F901F9018951F920F920FB64F
S11330000F9211240F900FBE0F901F9018951F92CE
S11330100F920FB60F9211242F933F934F935F9308
S11330206F937F938F939F93AF93BF93CF93EF93BC
S1133030FF930E949A0180910F02843009F091C09D
S113304080910E02909151024091D103813009F098
S113305050C09417F0F4E091BD03F091BE03E90F62
S1133060F11D8091BB00808340915102242F3327AE
S11330708091D1039927019728173907B1F58091D9
S11330806E0382FD32C0809171038F7B8093710344
S11330902CC020917103822F8E7F809371039091B5
S11330A06E03382F91FF09C09D7F90936E033061AA
S11330B0309371038091B90003C02E77209371037C
S11330C0809171038093BC0081E080930F02609132
S11330D04702709148022091BD033091BE03809154
S11330E00102882309F0A4C07BC04F5F40935102C2
S11330F09BC030917103941778F4E091BD03F09173
S1133100BE03E90FF11D80818093BB009F5F909304
S113311051023093BC0075C0832F8E7F809371035E
S113312090916E0391FF05C09D7F90936E03806123
S113313001C08F7780937103809171038093BC00E9
S113314081E080930F0260914702709148022091C0
S1133150BD033091BE0380910102882309F068C049
S113316045C0853009F04DC080916E038E7F8093F9
S11331706E03809171038F7D809371038091B900F8
S1133180887F8830B1F18091B900887F803189F1DE
S1133190C1E00E949A01809171038A7F8093710338
S11331A08093BC000E949A01809171038460809393
S11331B071038093BC00C0930F0280910E02409172
S11331C0D1032091BD033091BE03609147027091F9
S11331D0480290910102882331F0992349F58C2FFC
S11331E00E94DC0725C0992319F58C2F0E94D10772
S11331F01FC083E080930F028091710380648093E9
S1133200710380910F02833099F480910E029091A2
S11332104702813019F4990F916001C0990F90937E
S1133220BB0084E080930F02809171038093BC0003
S1133230FF91EF91CF91BF91AF919F918F917F912A
S11332406F915F914F913F912F910F900FBE0F900F
S11332501F901895A0E3B0E0E0E3F9E10C94131B90
S1133260222E332E442E552E662E772E882E992EFE
S11332702A2D3B2DA8E0FE013196AA2E1192AA9484
S1133280E9F729823A824B825C826D827E828F8248
S11332909886FE013996BA2E1192BA94E9F72987D5
S11332A03A87CB86DC86ED86FE860F87188BFE0177
S11332B071961192AA95E9F7C980DA80EB80FC80B7
S11332C0C9A6DAA6EBA6FCA6870176018FEF9FEFCD
S11332D0A0E0B0E0E822F9220A231B23A9A4BAA49F
S11332E0CBA4DCA416014424552489859A85AB8596
S11332F0BC858DA79EA7AFA7B8AB5C016D018FEF0E
S11333009FEFA0E0B0E0A822B922CA22DB228DA55B
S11333109EA5AFA5B8A93D0188249924C801B70189
S1133320A60195010E94F41A69A37AA38BA39CA316
S1133330C801B701A40193010E94F41A6DA37EA3EE
S11333408FA398A7C201B101A60195010E94F41AA6
S11333507B018C01C201B101A40193010E94F41A02
S11333609B01AC01A9A0BAA0CBA0DCA0C601AA27EE
S1133370BB27ADA0BEA0CFA0D8A4A80EB91ECA1E5C
S1133380DB1EAE0CBF1CC01ED11EADA2BEA2CFA2BE
S1133390D8A6AE14BF04C006D10620F42050304095
S11333A04F4F5F4FCDA0DEA0EFA0F8A4C701AA271E
S11333B0BB27820F931FA41FB51F8D8F9E8FAF8FC6
S11333C0B8A3A6013327222789A19AA1ABA1BCA146
S11333D0A070B070280F391F4A1F5B1F298F3A8FC6
S11333E04B8F5C8FA98CBA8CCB8CDC8CED8CFE8CD7
S11333F00F8D18A1ED8AFE8A0F8B188F2D853E85BF
S11334004F85588969A57AA58BA59CA50E94F41AB5
S11334103B014C018D819E81AF81B885BC01CD01FA
S11334202DA53EA54FA558A90E94F41ADC01CB0195
S1133430680E791E8A1E9B1E8D899E89AF89B88D60
S1133440860D971DA81DB91D8D8B9E8BAF8BB88FD4
S11334506D897E898F89988D2A2D3B2D4C2D5D2D6C
S1133460E2E1E0960C942F1B8F929F92AF92BF9251
S1133470CF92DF92EF92FF920F93CF93DF93CDB76A
S1133480DEB768970FB6F894DEBF0FBECDBFE82E47
S1133490002349F4298B3A8B4B8B5C8B6D8B7E8B91
S11334A08F8B988F6CC088E0FE01319611928A95BB
S11334B0E9F729833A834B835C836D837E83EF82B0
S11334C0988740E2401B14160CF041C08D819E8108
S11334D0AF81B8856C017D0104C0CC0CDD1CEE1CF1
S11334E0FF1C4A95D2F7202F332727FD3095022E53
S11334F004C0B695A795979587950A94D2F78D87BA
S11335009E87AF87B88B89819A81AB81BC8104C0C7
S1133510B695A795979587952A95D2F78C299D29D5
S1133520AE29BF2989879A87AB87BC8729853A85C5
S11335304B855C856D857E858F859889298B3A8B33
S11335404B8B5C8B6D8B7E8B8F8B988F18C01D86FD
S11335501E861F86188A842F992787FD9095222717
S11335603327281B390B8D819E81AF81B88504C018
S1133570B695A795979587952A95D2F7D3CF29899C
S11335803A894B895C896D897E898F89988D689683
S11335900FB6F894DEBF0FBECDBFDF91CF910F9170
S11335A0FF90EF90DF90CF90BF90AF909F908F905F
S11335B00895DC0101C06D9341505040E0F7089537
S11335C0AA1BBB1B51E107C0AA1FBB1FA617B70745
S11335D010F0A61BB70B881F991F5A95A9F7809561
S11335E09095BC01CD010895629FD001739FF001B5
S11335F0829FE00DF11D649FE00DF11D929FF00D7F
S1133600839FF00D749FF00D659FF00D9927729FB5
S1133610B00DE11DF91F639FB00DE11DF91FBD0140
S1133620CF01112408952F923F924F925F926F928F
S11336307F928F929F92AF92BF92CF92DF92EF923E
S1133640FF920F931F93CF93DF93CDB7DEB7CA1BBF
S1133650DB0B0FB6F894DEBF0FBECDBF09942A88EA
S1133660398848885F846E847D848C849B84AA8492
S1133670B984C884DF80EE80FD800C811B81AA811F
S1133680B981CE0FD11D0FB6F894DEBF0FBECDBFEA
S1093690ED010895FFCFD7
S111369601FF01FFFFFFFFFF22010001000002
S9030000FC
