S01800006275696C642F6D6963617A2F6D61696E2E73726563E5
S11300000C9472010C94E30D0C94ED0D0C94F70D0B
S11300100C94010E0C9459150C947E140C948B19A9
S11300200C940B0E0C9491010C9491010C94B52139
S11300300C9420260C94AD0D0C94C30D0C94CC128E
S11300400C949C0D0C9472250C94CC0F0C9491017F
S11300500C9448100C94D1110C9491010C949101BE
S11300600C94B80D0C949E110C947D110C94881171
S11300700C9493110C94B1110C9460110C94910193
S11300800C9472110C94CE1F0C949101B632E1328F
S1130090FE328533D333DC330A340D3414344E3416
S11300A00035233538355E389338AF32BB38C9381C
S11300B0CC38CF38D238D538D838DB388E39913966
S11300C0943997399A39B239053ADE3A423A793A4B
S11300D07C3A7F3A823A853A883A8B3A8E3A0000E3
S11300E02110422063308440A550C660E770088127
S11300F029914AA16BB18CC1ADD1CEE1EFF131129E
S1130100100273325222B5529442F772D662399376
S113011018837BB35AA3BDD39CC3FFF3DEE36224ED
S1130120433420040114E664C774A44485546AA5C6
S11301304BB528850995EEE5CFF5ACC58DD553367D
S1130140722611163006D776F6669556B4465BB716
S11301507AA719973887DFF7FEE79DD7BCC7C4484D
S1130160E5588668A7784008611802282338CCC966
S1130170EDD98EE9AFF9488969990AA92BB9F55ADD
S1130180D44AB77A966A711A500A333A122AFDDBB6
S1130190DCCBBFFB9EEB799B588B3BBB1AABA66CAD
S11301A0877CE44CC55C222C033C600C411CAEED06
S11301B08FFDECCDCDDD2AAD0BBD688D499D977EBD
S11301C0B66ED55EF44E133E322E511E700E9FFF56
S11301D0BEEFDDDFFCCF1BBF3AAF599F788F88910C
S11301E0A981CAB1EBA10CD12DC14EF16FE18010F0
S11301F0A100C230E3200450254046706760B983F3
S11302009893FBA3DAB33DC31CD37FE35EF3B1023F
S11302109012F322D2323542145277625672EAB502
S1130220CBA5A89589856EF54FE52CD50DC5E2348F
S1130230C324A01481046674476424540544DBA7D2
S1130240FAB79987B8975FE77EF71DC73CD7D326DF
S1130250F2369106B01657667676154634564CD962
S11302606DC90EF92FE9C899E9898AB9ABA944582F
S1130270654806782768C018E1088238A3287DCB32
S11302805CDB3FEB1EFBF98BD89BBBAB9ABB754A7F
S1130290545A376A167AF10AD01AB32A923A2EFDC2
S11302A00FED6CDD4DCDAABD8BADE89DC98D267CCF
S11302B0076C645C454CA23C832CE01CC10C1FEF12
S11302C03EFF5DCF7CDF9BAFBABFD98FF89F176E1F
S11302D0367E554E745E932EB23ED10EF01E00084B
S11302E01C18141011241FBECFEFD0E1DEBFCDBF08
S11302F011E0A0E0B1E0EEE5F2E800E00BBF02C0DF
S113030007900D92AA32B107D9F71CE0AAE2B1E036
S113031001C01D92A134B107E1F70E941A3B0C946D
S11303202E410C9400008FB7F894992708958FBF3D
S113033008958FB7F894992720914D0130914E017B
S1130340409137088FBF8FB7F894E42FFF27EE0F43
S1130350FF1FE15FFE4F318320832091400144233E
S113036011F02B7F01C02D7F2093400110924B018F
S113037099278FBF0895623009F409C1633030F4BE
S1130380662371F0613009F039C1C7C0643009F4E3
S1130390A9C0643008F4DEC0653009F02FC112C171
S11303A0833009F487C0843038F4813009F452C0B2
S11303B0823008F067C008C08630A9F1873021F088
S11303C0853009F01BC118C08EE399E09093DB0AD5
S11303D08093DA0A89E080933E0940934209852F8D
S11303E09927809343092FB7F8943327809191027A
S11303F0909192029260FDC080915E0190915F01A4
S1130400019690935F0180935E014150564008F439
S1130410F5C0809166019091670101969093670100
S113042080936601EBC080915C0190915D0101961F
S113043090935D0180935C014631510508F4DEC060
S11304408091640190916501019690936501809378
S11304506401D4C082E399E09093DB0A8093DA0AC2
S113046087E08093320940933609852F992780933A
S113047037092FB7F8943327809191029091920213
S11304808068B7C086E299E09093DB0A8093DA0A29
S113049085E08093260940932A09852F9927809324
S11304A02B092FB7F89433278091910290919202EF
S11304B080629FC080E299E09093DB0A8093DA0A1D
S11304C084E08093200940932409852F9927809301
S11304D025092FB7F89433278091910290919202C5
S11304E0806187C0882309F089C08AE199E09093EC
S11304F0DB0A8093DA0A83E080931A0940931E0989
S1130500852F992780931F092FB7F894332780915B
S113051091029091920288606CC080915B01882363
S113052009F06CC084E199E09093DB0A8093DA0AC5
S113053082E08093140940931809852F99278093AA
S113054019092FB7F8943327809191029091920260
S113055084604FC080915B01882309F04FC08EE016
S113056099E09093DB0A8093DA0A81E080930E0984
S113057040931209852F9927809313092FB7F89474
S113058033278091910290919202826032C08091CF
S11305905B01882399F588E099E09093DB0A8093C6
S11305A0DA0A1092080940930C09852F9927809341
S11305B00D092FB7F89433278091910290919202FC
S11305C0816017C08CE299E09093DB0A8093DA0A89
S11305D086E080932C0940933009852F99278093D6
S11305E031092FB7F89433278091910290919202A8
S11305F0806490939202809391022FBF80E090E0F8
S113060008958FB7F89499274091860B5091870BE2
S11306108FBF65E080E00E94BB0108959FB7F89406
S1130620292F3327422F90912701981741F4809165
S11306306D01833021F42FBF81E090E008954FBF16
S113064080E090E008958FB7F89499272091740082
S11306502093DD0A8FBF0895282F9FB7F894E82FC1
S1130660FF27E156F44F80818F3F91F48091CB0BAB
S1130670821781F40DC02093970B06C0E091CB0B39
S1130680FF27E156F44F20832093CB0B20E007C0D3
S113069025E005C08091970B8F3F81F7ECCF892F20
S11306A099278FBF822F9927089587E00E942C03F2
S11306B09927089588E00E942C03992708958FB7FD
S11306C0F8949927609334018FBF85E00E942C032E
S11306D0089589E00E942C039927089582E00E94DE
S11306E02C039927089580E00E942C0399270895EC
S11306F084E10E942C039927089588E10E942C0329
S11307009927089589E10E942C039927089587E188
S11307100E942C03992708958CE10E942C039927A9
S113072008951F93CF93DF93982F8FB7F894282FB2
S11307303327422F80916D01882309F048C011E0CE
S113074010936D0190937D082FBF8FB7F894C82F35
S1130750DD2780916E018823C9F4909A919A889834
S113076089981092710081E4809370001092720055
S1130770109274000E9423038091DD0A84608E7FAE
S11307808093DD0A8093740010936E01CFBF8FB7FE
S1130790F894C82FDD279C2F80912701843099F489
S11307A080916D01813021F486E20E942C0309C0FE
S11307B0823049F480917D088093270183E08093FF
S11307C06D01CFBF01C09FBF80E090E021C0E92F41
S11307D0FF27EB52F54F80818F3F89F4E09126018A
S11307E0E91789F40CC09093250104C0FF27EB524C
S11307F0F54F90839093260180E090E002C085E05D
S113080090E04FBF05C0809125018F3F79F7EBCF72
S1130810DF91CF911F9108950F931F930FB7F89411
S113082011270E9423038091DD0A8E7F80698093C3
S1130830DD0A809374000FBF1F910F91089520E08B
S113084030E040E0E8E5F8E08081992786FF06C0C3
S113085083FD21E084FD31E085FD41E0319688E0AF
S1130860E636F80789F7222309F4AA98332309F412
S1130870AB98442309F4AD98222329F4332319F4C3
S1130880442309F4A99A08957FB7F89462B7209194
S1130890CF0A3091D00A4091D10A5091D20A06B6BB
S11308A001FE0FC081B792B7280F311D411D511DA4
S11308B02F5F3F4F4F4F5F4F290F311D411D511D7A
S11308C004C0260F311D411D511D872F99278FBF4D
S11308D0CA01B9010895EF92FF920F931F93CF932A
S11308E0DF93F62EE22EE8019FB7F894292F3327E1
S11308F090912801981709F05CC02FBF8FB7F89426
S1130900282F332780916E01813041F582E0809356
S11309106E012FBF8FB7F89499275093CD0B409356
S1130920CC0B1093760800937508E0928B086093C3
S1130930DD021092E20210926F018FBF0E94230326
S11309408FB7F894282F8091DD0A982F916C90939B
S1130950DD0A6F2D772760FD0BC011C0882321F4B9
S11309602FBF84E090E030C02FBF85E090E02CC022
S1130970816E8093DD0A85E080936E011EC0EE20B7
S113098059F084E080936E018091E202C80FD11D7A
S113099088818093730011C061FF08C086E0809352
S11309A06E019F7B90619093DD0A07C081E0809384
S11309B06E012FBF81E090E007C08091DD0A809333
S11309C074002FBF80E090E0DF91CF911F910F91D1
S11309D0FF90EF900895EF92FF920F931F93E62EEE
S11309E0F22E9FB7F894292F332790912801981756
S11309F021F02FBF81E090E061C02FBF8FB7F89442
S1130A00282F332760916E01613039F582E080939D
S1130A106E012FBF8FB7F89499275093CD0B409355
S1130A20CC0B1093760800937508F0928B08E09233
S1130A30DD021092E20260936F018FBF0E942303D4
S1130A409FB7F8942091DD0A21682F7B2093DD0A5B
S1130A506E2D772760FD0BC00FC0662321F42FBFD6
S1130A6084E090E02BC02FBF85E090E027C0206297
S1130A702093DD0A85E00BC081E08F1520F0FF2074
S1130A8061F062FF07C020642093DD0A84E0809354
S1130A906E010BC081E0F816C9F361FF06C086E061
S1130AA080936E0120612093DD0A8091DD0A80939A
S1130AB07400892F99278FBF80E090E01F910F91D8
S1130AC0FF90EF9008952FB7F89499B79F7799BF47
S1130AD090E898BF9AB790689ABF882319F08AB7AC
S1130AE0806402C08AB78F7B8ABF89B7806889BF58
S1130AF0822F99278FBF80E090E008951F93982F4D
S1130B001FB7F89480916C01823079F580912401AB
S1130B10891759F58091220190E08F3F09F491E003
S1130B209923E1F48F3F19F42FEF30E00EC0282F02
S1130B303327F901E157FD4F8081809322018F3FD4
S1130B4011F4809323018FEF80832093360B81E08F
S1130B5080936C0180E20E942C0305C08FEF809388
S1130B60240110926C0121E001C020E0812F99271B
S1130B708FBF90E0213009F491E081E09827892F1C
S1130B8099271F91089580E00E947E059927089572
S1130B9080E020E0A89A0F998160273031F0880F17
S1130BA0A8982F5F283011F0F5CFA898179A1F98AE
S1130BB0A89AA89817981F9A99270895982F9695F8
S1130BC096959695ECEFF7E0E90FF11D877021E01B
S1130BD030E002C0220F331F8A95E2F7808182231E
S1130BE0992708958091D90A882319F02FE170E09C
S1130BF002C078E02EE1622FEFB7F8948091C80B21
S1130C008E7F8093C80B87B1982F9F7182958695AC
S1130C108695837019F080E090E012C0822F88508E
S1130C20863118F081E090E00BC040E050E03327BB
S1130C30892F99272817390711F441E050E0CA0198
S1130C40982F9170990F8091C80B8178262F2F715E
S1130C50422F440F440F892B842B8093C80B3327D6
S1130C6027B9783059F58091CA089091CB0821E0D2
S1130C708638920718F087E090E01FC0833C910506
S1130C8018F086E090E019C08136910518F085E0EF
S1130C9090E013C08033910518F084E090E00DC01B
S1130CA08831910518F083E090E007C00C9718F0A4
S1130CB082E090E002C080E090E0782F7770887D39
S1130CC0872B886D992786B98E2F99278FBF089512
S1130CD01F931FB7F89480916B08882341F481E136
S1130CE00E942C03882319F481E080936B08812FE0
S1130CF099278FBF1F910895FA01422F6683672FAA
S1130D0077276583838721878091440190914501EA
S1130D10892B19F085E090E008952FB7F8943327D4
S1130D2085E08093470110924801F0934301E093DA
S1130D30420182E090E09093450180934401109237
S1130D404A0110924901445F409346012FBF9FB767
S1130D50F8948091CE08882311F020E006C081E049
S1130D608093CE081092CF0821E0892F99278FBF56
S1130D70222329F00E94680680E090E008951092F2
S1130D8045011092440181E090E008958FB7F894F2
S1130D9099272BB334E023272BBB8FBF0895FC0185
S1130DA06683672F772767830895282F9FB7F89462
S1130DB0662349F0E82FFF27E359F74F8081882302
S1130DC011F021E006C0E22FFF27E359F74F6083BB
S1130DD020E0892F99278FBF822F99270895E82F24
S1130DE08FB7F894282F332790E0FF27E359F74F64
S1130DF08081861709F491E02FBF892F99270895E0
S1130E0060E080E00E94EF0699270895682F81E052
S1130E100E94EF0699270895882311F06E9A089589
S1130E206E980895882311F06F9A08956F98089525
S1130E3080E00E940C07BA9ABB98B99A6C9A80E039
S1130E400E941207709A6B986A98689881E00E94D1
S1130E500C0708951F93182F81E00E940C071FB9F7
S1130E60779BFECF8FB199271F9108958F929F9200
S1130E70AF92BF92CF92DF92EF92FF920F931F93A4
S1130E80CF93DF938FB7F8949927C0907708D090C9
S1130E9078088090930290909402C0913308D09186
S1130EA034082091D30A3091D40A4AE0A42EB12CFC
S1130EB0AC0EBD1E2A153B0508F459018FBF740101
S1130EC0EC0EFD1E86010C0F1D1F14C0C114D104AD
S1130ED019F0F801808101C080E00E942A07811482
S1130EE0910411F0F701808321960894E11CF11C10
S1130EF00F5F1F4FC5010197C817D90738F381E069
S1130F000E9412079FB7F894C114D10431F0CC0E9B
S1130F10DD1EF60180818FB901C01FB8D09334085B
S1130F20C0933308892F99278FBF80E090E0DF9129
S1130F30CF911F910F91FF90EF90DF90CF90BF90D2
S1130F40AF909F908F9008952FB7F89433275093C4
S1130F50D40A4093D30A90937808809377087093C7
S1130F6094026093930210923408109233082FBFB6
S1130F70452B29F08FB10E943607992708958AE0FE
S1130F800E942C0380E090E008958FB7F89499278D
S1130F9010926F088FBF08952091C508222319F479
S1130FA040E050E016C08091FB07E82FFF27EE0FCA
S1130FB0FF1FEE56F74F408151811182108221505C
S1130FC02093C5088F5F8093FB07893111F4109239
S1130FD0FB07CA010895AC0120915A01293118F088
S1130FE081E090E0089580915901E82FFF27EE0FEA
S1130FF0FF1FE350F84F518340838F5F8093590163
S1131000893111F4109259012F5F20935A0180E025
S113101090E008952091C508293118F081E090E00E
S11310200895E091FB07E20FE93108F0E951FF2749
S1131030EE0FFF1FEE56F74F918380832F5F2093AF
S1131040C50880E090E008958FB7F8946091F9079F
S11310507091FA072CB53DB506B602FE04C06F5F69
S11310607F4F2CB53DB599278FBF88279927CB0192
S11310707727662744275527622B732B842B952BC0
S11310800895EF92FF920F931F930E9424087B010F
S11310908C0120915208309153084091540850918A
S11310A055088091800B9091810BA091820BB09197
S11310B0830B820F931FA41FB51FE216F3060407C8
S11310C0150730F082179307A407B50758F005C039
S11310D082179307A407B507E0F5E816F9060A078F
S11310E01B07B8F59C01AD012E193F09400B510BAC
S11310F0213060E8360760E0460760E0560768F193
S113110080E090E8A0E0B0E0E80EF91E0A1F1B1F83
S1131110E0925208F0925308009354081093550833
S113112080E090E8AFEFBFEFE80EF91E0A1F1B1F27
S113113020503048404050402093800B3093810B26
S11311404093820B5093830B20E030E840E050E062
S113115014C020E030E040E050E0809352089093C7
S11311605308A0935408B09355081092800B109222
S1131170810B1092820B1092830BA901B7012CB53D
S11311803DB5C9018E199F0903968417950720F070
S1131190B9016D5F7F4F02C0640F751F6115710542
S11311A011F461E070E0615070407BBD6ABD80E184
S11311B086BF87B7806187BF1F910F91FF90EF9023
S11311C008950F931F930FB7F89411276093520853
S11311D07093530880935408909355082093800B80
S11311E03093810B4093820B5093830B0E944108F0
S11311F00FBF1F910F9108959FB7F8948091840BAE
S11312008A3011F020E006C020E080914C0984303F
S113121009F421E0892F99278FBF222349F083E124
S11312200E942C038FB7F894992710923F0106C0AF
S11312308FB7F894992721E020933F018FBF089539
S11312402FB7F89433278CB95E9A2FBF0895FC0109
S11312506115710519F481E090E0089580913F0CC7
S11312609091400C892B19F085E090E008957093DB
S1131270890B6093880BF093400CE0933F0C109221
S113128031021092300281E080934C085E9A569AA3
S1131290808121E030E030933102209330020E94BB
S11312A0200980E090E00895809150018E7F809322
S11312B050018EE78093390B61E070E089E39BE095
S11312C00E942709992708951F938FB7F8941092C5
S11312D06B082091840B40E0283009F441E030E0B1
S11312E0293009F431E0442311F4332351F01092EE
S11312F0840BE091850BFF27EE0FFF1FE453F74F9C
S1131300108299278FBF442311F4332319F180915C
S1131310C6088F5F8093C60880918E0B8334A1F436
S11313209FB7F8942091900B80918F0B821741F016
S1131330822F8F5F8093900B863010F01092900B69
S1131340892F99278FBF0AC0A0E0442309F4A1E0A4
S113135071E006C0222311F010E069C0A0E070E043
S11313608FB7F894992720913F018FBF222341F032
S11313708FB7F89499272AE02093840B8FBF43C03A
S11313808FB7F89499276091CC084091CE088FBF0D
S11313908FB7F894282F332750E090918F0B8091CA
S11313A0900B981709F451E02FBF552349F5662394
S11313B039F55FB7F89482E08093CC088FB7F8943E
S11313C0282F332740E090918F0B8091900B981732
S11313D009F441E02FBF442311F080E006C0E091FE
S11313E0900BFF27E157F44F82818093CD08852F1E
S11313F099278FBF83E480938E0B1092850B0BC0CB
S11314004150423010F010E007C085E480938E0B09
S113141081E08093850B11E0772349F08FB7F8942E
S11314209927A09348018FBF85E10E942C038091E6
S1131430840B8A3019F40E94FC081CC01123D1F0DB
S11314402FB7F894332710928208109281081092D3
S1131450870881E08093840B2FBF0E94540988235E
S113146049F08FB7F894992729E02093840B8FBF14
S11314700E9468061F9108952FB7F89433270196A8
S1131480AA27BB278093480890934908A0934A0849
S1131490B0934B082FBF80E090E008952F923F92C5
S11314A04F925F926F927F928F929F92AF92BF9270
S11314B0CF92DF92EF92FF920F931F93CF93DF931C
S11314C0CDB7DEB729970FB6F894DEBF0FBECDBFF8
S11314D06FB76983F8942090480830904908409089
S11314E04A0850904B086624772488240EE4A02EE2
S11314F013E8B12ECC24DD24EE24FF2400E010E018
S1131500222D332D442D552D662D772D882D90E0D9
S11315100E94F23E2A833B834C835D836E837F83E8
S113152088879987822E932EA42EB52E2401350107
S113153000E20E94F03FA22EB32EC42ED52EA301AA
S1131540920156954795379527952A0D3B1D4C1DBD
S11315505D1D57FF05C05F772F5F3F4F4F4F5F4FB4
S1131560209348083093490840934A0850934B0805
S1131570E9818E2F99278FBFCA01B90129960FB629
S1131580F894DEBF0FBECDBFDF91CF911F910F91B5
S1131590FF90EF90DF90CF90BF90AF909F908F908F
S11315A07F906F905F904F903F902F90089580E8C8
S11315B080939702109230081092890810924E0975
S11315C01092CF0B08951092360110923501DE98D7
S11315D0DD98DE9A80E090E008952FB7F8943327E1
S11315E0E82FFF27E056FD4F60832FBF772760FD6C
S11315F009C061FD07C02FB7F8943327808181604B
S113160080832FBF81E090E00895AB018230A1F088
S1131610833028F4882351F08130E9F40AC08430FF
S113162089F0843060F08530B1F411C064E080E06A
S11316300BC064E081E008C064E082E005C064E0BF
S113164083E002C064E084E00E94BB01089564E08A
S113165085E00E94BB010895282F8FB7F89499273D
S1131660E22FFF27DF01AA0FBB1FA252B54F6D91D6
S11316707C9111978FBFE056FD4F8081807331F0CC
S11316808FB7F89499271D921C928FBF822F0E94C6
S1131690050B80E090E00895E0919A02F0919B029E
S11316A0309711F081E08083E0919C02F0919D02DB
S11316B0309711F081E08083E0919E02F0919F02C7
S11316C0309711F081E080838091D80181FF03C0BD
S11316D08D7F8093D8018091E10181FF03C08D7FCC
S11316E08093E1018091EA0181FF03C08D7F8093A3
S11316F0EA0180E090E00895CF93DF93EC0161303C
S113170049F0613008F458C06F3F09F484C081E0A7
S113171090E0A8C08F3F9105C1F40E944C0BE0916A
S11317209802F09199028FEF8083E0919A02F091F0
S11317309B028083E0919C02F0919D028083E09162
S11317409E02F0919F0280838BC040E050E0A8E9A4
S1131750B2E0ED91FC911197848195818C179D07DE
S113176021F58FEF8083413071F0413030F0423009
S113177081F0433009F074C012C08091CF018D7F95
S11317808093CF016DC08091D8018D7F8093D80163
S113179067C08091E1018D7F8093E10161C08091F8
S11317A0EA018D7F8093EA015BC04F5F5F4F129621
S11317B044305105C9F0CDCF8F3F9105A9F4EFE432
S11317C0FAE08FB7F89499272FEF208311828FBF07
S11317D032968AE0E336F80709F442C0F2CF8FEF7D
S11317E0808311824FBF3CC0EFE4FAE08FB7F894D6
S11317F0482F552781819927982F882720813327BF
S1131800822B932B8C179D0751F34FBF32968AE09E
S1131810E336F80759F70E944C0BE0919802F091D7
S113182099028FEF8083E0919A02F0919B0280836A
S1131830E0919C02F0919D028083E0919E02F091E0
S11318409F028083EFE4FAE08FB7F89499272FEF93
S1131850208311828FBF32968AE0E336F807A1F71E
S113186080E090E0DF91CF910895FC01DB0180914D
S1131870650A9091660A892B19F420816C9103C042
S11318802385FB016385621718F48FEF9FEF08959A
S1131890261719F480E090E0089580E090E0261780
S11318A010F481E090E00895DB01FC0190818C91BB
S11318B081939D934150504014161506BCF308952E
S11318C0EF92FF920F931F93CF93DF937C01EB0171
S11318D08A010E94350C97FF0DC0B801CE010E9409
S11318E0350C97FD17C0B801C7010E94350C992328
S11318F074F40FC0B801CE010E94350C18161906F5
S11319004CF0B801C7010E94350C97FF02C0E701F3
S113191001C0E801CE01DF91CF911F910F91FF909B
S1131920EF9008958F929F92AF92BF92CF92DF92E1
S1131930EF92FF920F931F93CF93DF934C016A01B1
S11319407093660A6093650A5C01A40EB51EEA01F1
S1131950CC0FDD1FCC0DDD1DCC0FDD1FC80FD91F33
S113196015C0A601B701C8010E94540C8701801656
S1131970910650F47801EC18FD08B801C7010E94E3
S1131980350C181619066CF3AC0CBD1CAC16BD0650
S113199010F48501ECCFDF91CF911F910F91FF904F
S11319A0EF90DF90CF90BF90AF909F908F9008956D
S11319B0DF92EF92FF920F931F938FB7F894282F23
S11319C03327D22E91B782B746B7981711F041FF4B
S11319D002C02FBF6AC08091DC0A8823E1F10E9413
S11319E04404E0900409F09005090091060910915F
S11319F007092091230B3091240B4091250B509122
S1131A00260B6E197F09800B910B621773078407ED
S1131A10950720F01092DC0A71E01EC02E0D3F1DC8
S1131A20401F511F8091CF0A9091D00AA091D10AF2
S1131A30B091D20A281B390B4A0B5B0B273E3105A8
S1131A404105510540F4822F223010F070E005C0AA
S1131A5070E082E002C070E086EE682F615000B64C
S1131A6001FCFDCF82B7681709F46F5F2091CF0A9C
S1131A703091D00A4091D10A5091D20ADA01C901B9
S1131A800196A11DB11D860F911DA11DB11D8217C7
S1131A909307A407B50710F4622F609561BFDFBEFA
S1131AA0772319F08DE00E942C031F910F91FF9072
S1131AB0EF90DF900895AFB7F894BB27E1E0E0938F
S1131AC0DC0A6093040970930509809306099093D6
S1131AD007092093230B3093240B4093250B509339
S1131AE0260BAFBF0E94D80C0895CF93DF93FC015F
S1131AF015A6DC019E96ED011B821A82198280E8EC
S1131B0086A7DF91CF91089597B79F7D97BF90E205
S1131B1096BF882319F08EB5806402C08EB58F7B82
S1131B208EBD87B7806287BF80E090E0089581E032
S1131B300E94840D992708951F920F920FB60F9259
S1131B4011248F9383B783BF00B600FCFDCF8F9120
S1131B500F900FBE0F901F90189578941F920F92BC
S1131B600FB60F9211240F900FBE0F901F9018956F
S1131B7078941F920F920FB60F9211240F900FBEFC
S1131B800F901F90189578941F920F920FB60F9292
S1131B9011242F933F938F939F932FB7F894332758
S1131BA08091F9079091FA0701969093FA07809330
S1131BB0F9072FBF9F918F913F912F910F900FBEE7
S1131BC00F901F9018951F920F920FB60F92112429
S1131BD00F900FBE0F901F9018951F920F920FB683
S1131BE00F9211240F900FBE0F901F9018951F9203
S1131BF00F920FB60F9211240F900FBE0F901F90EB
S1131C0018951F920F920FB60F9211240F900FBECA
S1131C100F901F9018951F920F920FB60F921124D8
S1131C202F933F934F935F936F937F938F939F93E0
S1131C30AF93BF93EF93FF9389B78F7789BF8EE1FB
S1131C400E942C03FF91EF91BF91AF919F918F91CF
S1131C507F916F915F914F913F912F910F900FBEA4
S1131C600F901F901895EEEDF0E06927660FF11DB7
S1131C70E60FF11DC895982F802D3196C8959025B3
S1131C800895982F80914B01882381F5992371F54C
S1131C9031E030934B0180910E0180934C012091EF
S1131CA04001822F817080933708809113019091B5
S1131CB0140190934E0180934D01809141018093D2
S1131CC04F0132273170267EE32FFF27EE0FFF1FCF
S1131CD0E15FFE4F80819181909314018093130101
S1131CE0232B2093400186E10E942C0308950F9337
S1131CF01F93082F162F80914C098130D9F0813021
S1131D0038F0823009F44AC0833009F00EC159C05A
S1131D10002309F43EC11092330210923202109251
S1131D20270B10923A0B1092880810922E021092F0
S1131D302D021FC1002309F02CC180912D02909126
S1131D402E020E94330E90932E0280932D0282E085
S1131D5080934C0910933A0B143409F0E6C00BC17C
S1131D60869504C08091400186958695817009F01E
S1131D70DCC080914001992311F0846001C082602D
S1131D808093400180914001877E88608093400168
S1131D90109241018FEF80930E01FBC0002309F0E4
S1131DA0C4C06093880880912D0290912E020E94F5
S1131DB0330E90932E0280932D0283E080934C097E
S1131DC0E8C08091270B8F3F09F4AFC0002309F4CA
S1131DD047C0823008F4A9C0E0913202EE2309F42E
S1131DE0D1C04E2F4150E42FFF27EE5CFD4F82817E
S1131DF09927382F2227442311F4E2E002C0E42F6C
S1131E00E150FF27EE5CFD4F82819927282B392B67
S1131E1080912D0290912E022817390709F085C070
S1131E2080E00E94410E3091880880918F0B2091B0
S1131E30900B982F9F5F963008F090E0921709F46A
S1131E4074C0E82FFF27E157F44F32838F5F8093EC
S1131E508F0B863010F010928F0B0E94680665C0BD
S1131E60823008F44EC0E0913302FF27EE5CFD4F50
S1131E708281482F5527342F20914001822F869547
S1131E8086958695837099278130910519F002977C
S1131E90F9F40EC0277E206120934001442311F4FD
S1131EA085E001C080E08093410130930E0110C0B1
S1131EB080914101843360F4E0911301F0911401A5
S1131EC0E80FF11D4083809141018F5F80934101B0
S1131ED080913302E82FFF27EE5CFD4F62818F5F14
S1131EE080933302833010F010923302772780916D
S1131EF02D0290912E020E94330E90932E02809315
S1131F002D0280913202E82FFF27EE5CFD4F1283F1
S1131F108F5F80933202833010F0109232028091EE
S1131F20270B8F5F8093270B34C0109233021092DB
S1131F30320210924C091092270B10923A0B109215
S1131F40880810922E0210922D02809150018D7FEC
S1131F508093500181E00E94410E80913F018823CB
S1131F6031F084E080934C090E94FC0812C00023E5
S1131F7081F081E023CF80914001982F917080FD02
S1131F80EFCEF0CE809136029927382F222742E0F7
S1131F9036CF1F910F9108951F920F920FB60F9293
S1131FA011242F933F934F935F936F937F938F935A
S1131FB09F93AF93BF93EF93FF935F9B3DC06CB12F
S1131FC0E091730BF091740B3097F9F08091C8088D
S1131FD09091C908E80FF91F608301969093C9088E
S1131FE08093C8082091630A3091640A821793078A
S1131FF018F11092740B1092730B8091E0028330ED
S1132000D9F057981092E00217C06E3719F460E0C7
S113201081E010C0809150016D3721F4826080937B
S113202050010AC081FF05C08D7F8093500180E27A
S1132030682780E00E94770EFF91EF91BF91AF91E6
S11320409F918F917F916F915F914F913F912F91CC
S11320500F900FBE0F901F901895982F8D578230B8
S113206068F48091500181608093500180E2892757
S1132070809374088DE78093390B02C09093390BD9
S113208061E070E089E39BE00E94270999270895A5
S113209078941F920F920FB60F921124FF920F9310
S11320A01F932F933F934F935F936F937F938F93DC
S11320B09F93AF93BF93CF93DF93EF93FF932091BD
S11320C03002309131028091880B9091890B28174E
S11320D0390780F4E0913F0CF091400CE20FF31FBC
S11320E080812F5F3F4F30933102209330020E9452
S11320F02009D0C01092400C10923F0C10924C0852
S113210056988091500180FF0EC08E7F80935001BD
S1132110809174088093390B61E070E089E39BE05F
S11321200E942709B7C08091840B843009F494C0BD
S1132130853040F4823021F18330B8F5813009F0E4
S1132140A4C00DC0863009F495C0863008F48BC055
S1132150873009F496C0883009F097C099C08091FF
S11321608E0B0E942D10182F83E08093840B6091B6
S11321708E0B80918108909182080E94330E10C0CA
S11321808091C6080E942D10182F83E08093840B41
S11321906091C60880918108909182080E94330E54
S11321A090938208809381086EC0FFB6F894E09102
S11321B0850BFF27EE0FFF1FE353F74F80810E942B
S11321C02D10082F1091850BC12FDD27FE01EE0F76
S11321D0FF1FE353F74F608180918108909182083B
S11321E00E94330E9093820880938108209187087F
S11321F02F5F20938708113039F580914701E091D2
S11322004201F0914301E80FF11DE0818F5F80935B
S1132210470190914601981730F482E08093CE08EC
S113222040E050E002C04E2F5527DE01AA0FBB1F2D
S1132230FD01E453F74F8081823031F02F3F21F0CC
S1132240A353B74F4C9303C084E08093840B102FA7
S11322508F2D99278FBF17C0809181080E942D1060
S1132260182F85E00BC0809182080E942D10182F32
S113227086E004C00E945409182F87E08093840BE1
S113228002C088E003C0112329F089E08093840B05
S11322900E946806FF91EF91DF91CF91BF91AF91BA
S11322A09F918F917F916F915F914F913F912F916A
S11322B01F910F91FF900F900FBE0F901F901895D4
S11322C01F920F920FB60F9211248F9380919B004F
S11322D087FF02C080919C008F910F900FBE0F90DA
S11322E01F90189578941F920F920FB60F92112495
S11322F00F900FBE0F901F90189578941F920F9215
S11323000FB60F9211240F900FBE0F901F901895C7
S113231078941F920F920FB60F9211240F900FBE54
S11323200F901F90189578941F920F920FB60F92EA
S113233011240F900FBE0F901F90189578941F9240
S11323400F920FB60F9211248F939F938091880060
S1132350909189009F918F910F900FBE0F901F90C5
S1132360189578941F920F920FB60F9211242F9301
S11323703F938F939F932FB7F8943327809131081D
S113238090913208019690933208809331082FBFC0
S11323909F918F913F912F910F900FBE0F901F909F
S11323A018951F920F920FB60F9211242F933F93FB
S11323B04F935F936F937F938F939F93AF93BF9349
S11323C0EF93FF9344B155B178948FB7F89499275C
S11323D02091C80B322F3695317021708FBF222384
S11323E0D9F433988091490A813021F0823009F080
S11323F039C00AC0332351F05093E4024093E302FE
S11324008DE10E942C032EC0332319F40E94F2059F
S113241029C01092490A26C08FB7F89499278FBF14
S11324202FB7F894332786B1582F5770482F40722E
S1132430987D942B952B8074977B982B90619F7734
S1132440892F992786B9887D842B852B8773806192
S1132450992786B9887D842B852B877B806999276A
S113246086B92FBFFF91EF91BF91AF919F918F914B
S11324707F916F915F914F913F912F910F900FBE7C
S11324800F901F901895AB01863009F451C0873026
S113249080F4823091F1833030F4882301F181306B
S11324A009F079C023C08430B1F1853008F03AC016
S11324B02BC08A3009F454C08B3038F4883009F4C6
S11324C043C0893008F046C039C08C3009F454C088
S11324D08C3008F44BC08D3009F05DC055C06F5F7F
S11324E07F4F09F458C060E080E04BC06F5F7F4FBE
S11324F009F451C060E081E044C06F5F7F4F09F48C
S11325004AC060E082E03DC06F5F7F4F09F443C082
S113251060E083E036C06F5F7F4F09F43CC060E049
S113252084E02FC06F5F7F4FB1F160E085E029C088
S11325306F5F7F4F81F160E086E023C06F5F7F4F64
S113254051F160E087E01DC06F5F7F4F21F160E0D3
S113255088E017C06F5F7F4FF1F060E089E011C041
S11325606F5F7F4FC1F060E08AE00BC06F5F7F4F09
S113257091F060E08BE005C06F5F7F4F61F060E039
S11325808CE00E94BB0108956F5F7F4F21F060E0F3
S11325908DE00E94BB0108951F920F920FB60F9217
S11325A011242F933F934F935F936F937F938F9354
S11325B09F93AF93BF93EF93FF9383B783BF00B60B
S11325C000FCFDCF81B799270196AA27BB2720914C
S11325D0CF0A3091D00A4091D10A5091D20A280FE3
S11325E0391F4A1F5B1F2093CF0A3093D00A4093B0
S11325F0D10A5093D20A78940E94D80CFF91EF919B
S1132600BF91AF919F918F917F916F915F914F9106
S11326103F912F910F900FBE0F901F9018950F931D
S11326201F93CF93DF93182F8FB7F894C82FDD270C
S11326300C2F61E080E00E94D506882321F0CFBFF3
S113264085E090E024C080910A018823A1F4809160
S11326503901823081F409C082E0809339011092FB
S11326600A010E941807B89AC0981093070180E0E5
S11326700FBF99270CC080913901882369F38FB764
S1132680F894992710926D088FBF81E0F1CFDF9104
S1132690CF911F910F910895CF93DF93A0911801CB
S11326A0B09119012C91FD0135968FEF8183ED01D5
S11326B08D8383E386838091950290919602892B82
S11326C041F52D50422F5527B0939602A0939502C1
S11326D0448380911F01882319F186816D817727B6
S11326E0762F662721813327622B732B10921F01CB
S11326F0242FAD010E947C069927282F882381F07E
S113270081E080931F011092960210929502222379
S113271039F00E94C60689E10E942C0310925601EA
S1132720DF91CF9108951F93982F8FB7F894182FA6
S113273080916D01833009F043C08091270189178E
S113274009F03EC08091250190E08F3F09F491E0AB
S11327509923E1F48F3F19F42FEF30E00EC0282FB6
S11327603327F901EB52F54F8081809325018F3F88
S113277011F4809326018FEF808320937D0881E0FC
S113278080936D0186E20E942C0316C084E080933E
S1132790270110926D0180916E01813069F40E94CD
S11327A023038091DD0A8A778093DD0A8093740085
S11327B09098919810926E011FBF80E090E003C042
S11327C01FBF81E090E01F9108950F931F9308EAC3
S11327D012E021E04FE350E063E080E00E94EB046C
S11327E0813021F481E20E942C0303C081E08093B4
S11327F0C7081F910F910895CF93DF93982F8FB738
S1132800F894C82FDD272C2F80916C01882361F464
S113281081E080936C019093360B80E20E942C033C
S1132820CFBF80E090E021C0E92FFF27E157FD4FA3
S113283080818F3F89F4E0912301E91789F40CC06A
S11328409093220104C0FF27E157FD4F908390939A
S1132850230180E090E002C085E090E02FBF05C036
S1132860809122018F3F79F7EBCFDF91CF910895CB
S1132870EF920F931F93AE2D99E0899FF0011124DD
S1132880E857FE4F40835183628373830483158327
S113289026833783A17080858E7F8A2B8260808710
S11328A08EE00E942C031F910F91EF900895EF92F8
S11328B00F931F93E1E0EE2E0E9438141F910F91A5
S11328C0EF9008950F931F938B0181E00E947E0582
S11328D0A80163E080E00E94BB011F910F9108955D
S11328E00F931F938B0180E00E947E05A80162E094
S11328F080E00E94BB011F910F9108951F920F92D7
S11329000FB60F9211242F933F934F935F936F93BE
S11329107F938F939F93AF93BF93EF93FF93809194
S11329207E0B9091770B8823A1F4AC9881E080937F
S11329307E0B292F332721FF21C08091860B909194
S1132940870B01969093870B8093860B22FF16C00A
S113295012C0AC9A10927E0B292F332720FF0EC091
S11329608091860B9091870B01969093870B8093AF
S1132970860B22FF03C088E20E942C03FF91EF9193
S1132980BF91AF919F918F917F916F915F914F9183
S11329903F912F910F900FBE0F901F9018950F939A
S11329A01F93182F0FB7F89461E080E00E94D506BA
S11329B0882371F51093070180910A018823A9F5F2
S11329C080913901823089F589E00CC00E94180792
S11329D080913901882349F481E080933901109270
S11329E04A0A8BE00E942C032AC08091E70B8F3F98
S11329F031F5E0910901EE2311F11CC01092080198
S1132A0004C0FF27E951F44F10821092090117C046
S1132A1081E090E002C0880F991F1A95E2F7209197
S1132A203801282B209338010AC08091390188236A
S1132A30E1F6CCCF809108018F3F19F7DFCF802FCB
S1132A4099278FBF80E090E01F910F9108951F9305
S1132A508FB7F894282F3327122F809135088823B5
S1132A6021F02FBF81E090E013C081E0809335080E
S1132A708091350190913601049721F481E00E9400
S1132A80CF1403C087E00E942C031FBF80E090E0B6
S1132A901F9108951F9383E00E940F139927182F05
S1132AA0882319F083E00E94CF14812F99271F9166
S1132AB008951F920F920FB60F9211242F933F93F4
S1132AC04F935F936F937F938F939F93AF93BF9332
S1132AD0EF93FF9389B78F7E89BF85E20E942C0311
S1132AE0882319F489B7806189BF80E00E940E03AE
S1132AF0882311F40E949103FF91EF91BF91AF914C
S1132B009F918F917F916F915F914F913F912F9101
S1132B100F900FBE0F901F9018958F929F92AF92B7
S1132B20BF92CF92DF92EF92FF920F931F93CF93B6
S1132B30DF93982EC82FDD27DE01AA0FBB1FA856EE
S1132B40BD4FED91FC91119783800FB7F894ED91EF
S1132B50FC9181818F5F889D102D112485852485AA
S1132B609927982F88273327822B932BAA24BB24B9
S1132B7008C00E943C0A0E944E0ACB019170A80E24
S1132B80B91E1150B0F7802F99278FBFFE01EE0FA9
S1132B90FF1FE856FD4FC080D180F601E180FF247D
S1132BA00894E11CF11C0027F7FC0095102F682DF8
S1132BB07727882799272AEF3FEE40E050E00E94CC
S1132BC083409B01AC01C801B7010E9483408B0183
S1132BD09C01C501AA27BB27080F191F2A1F3B1FE9
S1132BE0F6011082F1E09F16D9F09F1640F082E0C2
S1132BF0981639F1E3E09E1609F046C033C080917F
S1132C00CF018D7F8093CF01E0919802F0919902DA
S1132C104681578160857185F1E0EF2E87E032C0EF
S1132C208091D8018D7F8093D801E0919A02F09130
S1132C309B024681578160857185E1E0EE2E88E034
S1132C4021C08091E1018D7F8093E101E0919C029C
S1132C50F0919D02468157816085718591E0E92E4E
S1132C6089E010C08091EA018D7F8093EA01E091B0
S1132C709E02F0919F02468157816085718581E0B3
S1132C80E82E8AE00E943814809115018F3F09F4E0
S1132C903AC0FE01EE0FFF1FE856FD4F0190F08190
S1132CA0E02D8181882379F52481358180912C0B55
S1132CB090912D0B2817390731F5A8E2BBE08EE07F
S1132CC001900D928150E1F74FB7F8945527009188
S1132CD0150182E3089F800111240E5C1F4F2227F7
S1132CE017FD2095322F4FBFCC0FDD1FC856DD4F87
S1132CF0E881F9814681578160857185F1E0EF2E85
S1132D008CE00E943814DF91CF911F910F91FF90B6
S1132D10EF90DF90CF90BF90AF909F908F900895E9
S1132D201F9310E0E12FFF27EE0FFF1FE856FD4F22
S1132D300190F081E02D309749F0E081EF3F31F0D0
S1132D40E13029F5812F0E948D1521C0113069F0E1
S1132D50113028F0123079F01330C9F412C0809188
S1132D60CF018D7F8093CF0116C08091D8018D7FD4
S1132D708093D80110C08091E1018D7F8093E1019F
S1132D800AC08091EA018D7F8093EA0106C01F5F2B
S1132D90143040F202C01F5FC5CF80E090E01F9165
S1132DA008951F9380912F08882319F120E011E0E2
S1132DB090912F08892F8123B9F0E22FFF27EE0F7E
S1132DC0FF1FEB56FD4F11821082812F80959823AF
S1132DD090932F08222341F41092560187E10E9418
S1132DE02C03110F21E0E4CF2F5F283010F4110FD2
S1132DF0DFCF1F9108951F93CF93DF93182FE82FF0
S1132E00FF27EE0FFF1FEB56FD4F11821082109229
S1132E101F01A0919502B0919602109721F0809124
S1132E202F0880FF0FC081E080931F0103C08BE156
S1132E300E942C031123D1F41092560187E10E94C1
S1132E402C0314C0FD01359624813327ED016D81D7
S1132E507727762F662781819927682B792BAD01F7
S1132E6086810E947C06882329F3E1CFDF91CF91EC
S1132E701F91089510924501109244018FB7F89460
S1132E809927409148018FBF80914901811143E006
S1132E90209142013091430180914A01882369F4D1
S1132EA080911F01882349F46091950270919602E4
S1132EB06217730711F40E94FB16089580911F0195
S1132EC0E82FFF27EE0FFF1FEB56FD4F6081718146
S1132ED041E00E94FB1608950F931F938FB7F89457
S1132EE0082F112780913608853011F0882349F482
S1132EF0109236080FBF80E00E940E03882331F041
S1132F0009C085E20E942C030FBF19C080E00E9413
S1132F10910315C008EA12E021E04FE350E063E0BA
S1132F2080E00E94EB04813051F48FB7F894992724
S1132F3025E0209336088FBF85E20E942C031F9161
S1132F400F9108950F931F938FB7F894082F1127AB
S1132F5080913608853011F0823051F482E08093FC
S1132F6036080FBF80E00E940E03882351F405C089
S1132F7083E20E942C030FBF60C080E00E94910393
S1132F805CC08FB7F894992720917D0B2093080C8F
S1132F908FBF60E070E0E0EAF2E08091C408992716
S1132FA0062E02C0959587950A94E2F780FF12C019
S1132FB08FB7F894992721E030E0062E02C0220F43
S1132FC0331F0A94E2F720954091080C4223409362
S1132FD0080C8FBF808186FD11C08FB7F8949927A4
S1132FE021E030E0062E02C0220F331F0A94E2F7DC
S1132FF04091080C422B4093080C8FBF6F5F7F4FAA
S113300031966830710509F0C8CF08E01CE021E072
S11330104FE350E061E080E00E946B04813059F49A
S11330208FB7F894992725E0209336088FBF83E261
S11330300E942C0302C01092C4081F910F9108959E
S11330400F931F938FB7F894082F11278091360898
S1133050853011F0833051F483E0809336080FBF3C
S113306080E00E940E03882351F405C084E20E948C
S11330702C030FBF75C080E00E94910371C08FB70D
S1133080F894992720917D0B2093080C8FBF60E062
S113309070E0E0EAF2E08091750B9927062E02C0F9
S11330A0959587950A94E2F780FF27C03FB7F89477
S11330B02091080C822F9927062E02C0959587959A
S11330C00A94E2F780FF0BC081E090E0062E02C074
S11330D0880F991F0A94E2F78095282309C081E09C
S11330E090E0062E02C0880F991F0A94E2F7282B5D
S11330F02093080C832F99278FBF808186FD11C0F0
S11331008FB7F894992721E030E0062E02C0220FF1
S1133110331F0A94E2F74091080C422B4093080CA9
S11331208FBF6F5F7F4F31966830710509F0B3CF61
S113313008E01CE021E04FE350E061E080E00E9401
S11331406B04813059F48FB7F894992725E02093C4
S113315036088FBF84E20E942C0302C01092750BC4
S11331601F910F9108950F931F938FB7F894082F11
S1133170112780913608853011F0813051F481E0B7
S1133180809336080FBF80E00E940E03882351F419
S113319005C082E20E942C030FBF5FC080E00E9442
S11331A091035BC08FB7F894992720917D0B2093EE
S11331B0080C8FBF60E070E0E0EAF2E080916C08F8
S11331C09927062E02C0959587950A94E2F780FF09
S11331D011C08FB7F894992721E030E0062E02C081
S11331E0220F331F0A94E2F74091080C422B4093BC
S11331F0080C8FBF808186FD11C08FB7F894992782
S113320021E030E0062E02C0220F331F0A94E2F7B9
S11332104091080C422B4093080C8FBF6F5F7F4F87
S113322031966830710509F0C9CF08E01CE021E04F
S11332304FE350E061E080E00E946B04813059F478
S11332408FB7F894992725E0209336088FBF82E240
S11332500E942C0302C010926C081F910F910895D4
S1133260EF92FF920F931F93CF93DF93182F7B015D
S1133270042F8FB7F894C82FDD2760E080E00E9408
S1133280EF06882321F0CFBF80E090E014C0CFBFC9
S11332901064812F992790938D0880938C080E9445
S11332A02A07182F402F5527B70180E090E00E948D
S11332B0A407812F9927DF91CF911F910F91FF9040
S11332C0EF900895C09860917A0170917B0141E07C
S11332D08FE30E943019089582E090E090933A08B9
S11332E08093390881E08093300820E030E08091B9
S11332F00701843011F421E030E0232B29F484E029
S11333000E940F13882319F40E946219089584E01F
S11333100E94CF1408951F920F920FB60F9211249A
S11333202F933F934F935F936F937F938F939F93C9
S1133330AF93BF93EF93FF938091390890913A082C
S1133340019719F40E946C1905C08091CF0B8F5F0F
S11333508093CF0BFF91EF91BF91AF919F918F918C
S11333607F916F915F914F913F912F910F900FBE7D
S11333700F901F9018951F9380913801882309F0AE
S113338046C0109107011F3F09F041C060E00E9450
S1133390EF068823E1F181E080932C02809179018A
S11333A08823C1F110922C0285E090E041C0923054
S11333B049F5C09A8091080190E08F3F09F491E0AB
S11333C09923D9F48F3F19F42FEF30E00DC0282F43
S11333D03327F901E951F44F8081809308018F3F2D
S11333E011F480930901108320934A0A81E08093A9
S11333F039018BE00E942C0305C010930A0110923E
S1133400390111C080913901882369F00FC081E02E
S113341090E00EC080910A0190913901882339F21D
S1133420923021F0EFCF80E00E940C0780E090E022
S11334301F9108951F93CF93DF939FB7F894C92FDB
S1133440DD271C2F90910701981721F0CFBF81E051
S113345090E03AC08FEF8093070130913801332315
S1133460F1F48FB7F894992710926D088FBF0E94DA
S1133470BB19CFBF11C02093070181E090E002C0C7
S1133480880F991F4A95E2F78095382330933801C5
S113349089E00E942C031FBF80E090E015C080E00B
S11334A065E0E32FFF270E94A240292F492F5527CB
S11334B0CF01042E02C0959587950A94E2F780FD0A
S11334C0DACF822F8F5FEFCFDF91CF911F910895D5
S11334D083E00E941A1A992708951F93CF93DF93CC
S11334E08FB7F894C82FDD271C2F8091390890914D
S11334F03A08892B29F484E00E941A1ACFBF1EC00F
S1133500109230088091CF0B882311F0B79904C032
S11335100E9908C0882319F081508093CF0B0E9424
S11335206C190BC081E090E090933A0880933908BD
S11335301092CF0B84E00E941A1A1FBFDF91CF9123
S11335401F910895FF920F931F93CF93DF93F82E4B
S11335508B018FB7F894C82FDD2760E080E00E94CC
S1133560EF06882321F0CFBF80E090E00CC0CFBFEE
S11335708F2D0E942A07812F99270E942A07802FC6
S11335800E942A079927DF91CF911F910F91FF90F5
S113359008951F931FB7F89480913808882319F46D
S11335A060E070E009C060E080918A0B882309F430
S11335B061E081E06827772780914D08882319F41A
S11335C080E090E00AC090E080916A08882309F4C2
S11335D091E081E09827892F9927762F6627770F26
S11335E0770F770FE4E0880F991FEA95E1F7826E71
S11335F09262682B792B81E10E94A21A812F99276C
S11336008FBF1F9108958FB7F894992760917F0B0E
S11336108FBF85E0689FB0011124625D7E4F7064A6
S113362088E10E94A21A0895EF92FF921F93CF930C
S1133630DF93E0906608F0906708F70182A5992768
S1133640182F882309F41FE1C09880918C0B8117EF
S113365049F0612F77276F717070606E706885E133
S11336600E94A21A10938C0BF70110818FB7F89463
S1133670C82FDD2760E080E00E94EF06882311F068
S1133680CFBF12C0CFBF8EE390E090938D0880939C
S11336908C088EE30E942A071150412F552760E0C1
S11336A070E0C7010E94A407DF91CF911F91FF90A2
S11336B0EF900895FF920F931F93CF93DF93EA0146
S11336C0F22E8B876E83672F77276F832FB7F8943B
S11336D0332780917F08909180082FBF8C83892F96
S11336E099278D832FB7F894332780910B019091FC
S11336F00C012FBF8887892F9927898761E082E091
S11337000E94D506882319F085E090E06BC0809173
S11337107C018F5F80937C0181508B838FE38A8748
S11337208FB7F894082F112762E081E00E94EF061A
S1133730882329F40FBF0E94C50781E052C08FB7C8
S1133740F894992724E020936E088FBFD093CA0B76
S1133750C093C90B0FBF8DE0F80EFE01F192898171
S11337609927807290708983118289819927816455
S113377098688983892F992781831CA618A619A67E
S11337801DA619AA18AA1FA680E88EA710928B0B53
S11337904091C90B5091CA0B8FB7F894282F332747
S11337A080913B0190913C018830910511F0019783
S11337B011F02FBF15C082E090E090933C018093FC
S11337C03B01109271085093670840936608109269
S11337D08A082FBF0E944A15882311F40E94141BE3
S11337E080E09927DF91CF911F910F91FF90089569
S11337F0CF93DF93582FFB01823018F081E090E0E3
S113380033C0C82FDD27CC0FDD1FC95CDD4F888195
S11338109981892B19F085E090E026C0798368832B
S1133820435F40834D5080910D01823018F480E055
S113383090E01AC0838567817727762F66272681D3
S11338403327622B732B50930D01242FAF010E9459
S11338505A1B9927282F882329F082E080930D0191
S113386019821882822F9927DF91CF910895FF92B0
S11338700F931F938B01F42EBC01C8010E94CF0645
S113388082E3F80183874F2DB80180E00E94F81B82
S113389099271F910F91FF900895EF92FF920F9334
S11338A01F93E0901601F0901701F70100810D506D
S11338B011276091680870916908C7010E94CF06BA
S11338C083E3F7018387402FB70181E00E94F81B4F
S11338D0882331F00E94C60688E10E942C0303C0AD
S11338E081E0809355011F910F91FF90EF9008950F
S11338F0CF92DF92EF92FF920F931F93CF93DF93B8
S11339008C01F62E6A01E22E8FB7F894C82FDD27BA
S113391060E080E00E94EF06882321F0CFBF80E0C2
S113392090E01EC0CFBF0F0D111D802F80680E9434
S11339302A07F82E16950795802F807C0E942A0767
S11339400E2D0AC0EE2DFF27E01BF109EC0DFD1D25
S113395080810E942A0701500023A1F78F2D992707
S1133960DF91CF911F910F91FF90EF90DF90CF9057
S11339700895CF93DF93CDB7DEB724970FB6F894AD
S1133980DEBF0FBECDBF8FB7F894992720917F0873
S1133990309180082983232F33272A8320919D0B7C
S11339A030919E0B2B83232F33272C838FBF24E04E
S11339B0AE014F5F5F4F60E088E691E00E94781CA3
S11339C024960FB6F894DEBF0FBECDBFDF91CF9122
S11339D008951F93CF93DF93182F8FB7F894C82FB0
S11339E0DD2760E080E00E94EF06882321F0CFBF4E
S11339F080E090E005C0CFBF812F0E942A0799275D
S1133A00DF91CF911F91089583E00E94E91C9927CB
S1133A10089589E00E94E91C992708950E94D70A15
S1133A20C09AC09888E00E94E91C88E00E94E91CC2
S1133A30C09A84E00E941A1A0E946D1A08951F9376
S1133A40182F81E090E090933C0180933B01109209
S1133A5079010E94BB198FB7F89499271093340108
S1133A608FBF85E00E942C031F9108958E3018F0BB
S1133A7081E090E008954FB7F894552721E030E0B5
S1133A8002C0220F331F8A95E2F780917101909151
S1133A907201822B932B90937201809371014FBF1B
S1133AA087E20E942C0380E090E008950F931F9317
S1133AB00FB7F894112710923C0110923B0187B77D
S1133AC08F7E87BF87B78F7D87BF83E00E941A1AD6
S1133AD0C09A0FBF0FB7F894112710923A081092AA
S1133AE039080E94D70AC09A89B78F7B89BF0FBF54
S1133AF080E090E01F910F9108950E94561D0E944E
S1133B00E30A84E00E942C0308950F931F938823F3
S1133B1019F110927001AE9821E030E00090DF02BC
S1133B2002C0220F331F0A94E2F72095309580914A
S1133B307101909172018223932390937201809377
S1133B40710187E20E942C036FEF7FEF8091DF0207
S1133B500E9443120E941F04809170018130A1F4DD
S1133B6082E0809370010AE91BE023E04AE450E01C
S1133B7063E00E94EB04813039F41092700187E213
S1133B800E942C030E941F041F910F9108950F930C
S1133B901F939FB7F8948091700183508230C0F5D1
S1133BA021E0209370018091DF02863021F187307B
S1133BB070F48330D1F0843028F4813091F0823075
S1133BC071F411C0843099F0853049F412C08B30FF
S1133BD0B1F08B3090F08C30A9F08D30B1F088E0EA
S1133BE015C08CE013C089E011C08DE00FC08AE0DD
S1133BF00DC08EE00BC08BE009C08FE007C01092AF
S1133C00760B06C02093760B03C082E08093760B7C
S1133C108091760B8295807F8F608093760B892FBD
S1133C2099278FBF06E71BE021E04AE450E063E0F8
S1133C3082E00E946B04882319F480E090E00DC0B8
S1133C408FB7F8949927109270018FBF87E20E9472
S1133C502C030E941F0481E090E01F910F910895AE
S1133C60F9014330F1F010927001AE9821E030E098
S1133C700090DF0202C0220F331F0A94E2F720955E
S1133C8030958091710190917201822393239093D6
S1133C9072018093710187E20E942C036FEF7FEF22
S1133CA067C080917001823009F06DC022818181EA
S1133CB09927782F662760707F70620F711D80913D
S1133CC0460890914708680F791F709347086093DE
S1133CD0460880917C0B815080937C0B882309F0EB
S1133CE04EC0109270018091DF02282F3327F90112
S1133CF0E85AF74F8081992782FF08C0685F7F4F99
S1133D00A4E076956795AA95E1F713C081FF08C0F2
S1133D106C5F7F4FF3E076956795FA95E1F708C0FD
S1133D2080FF0BC06E5F7F4F76956795769567959C
S1133D307F707093470860934608AE9881E090E0E6
S1133D4002C0880F991F2A95E2F7809590952091DB
S1133D507101309172012823392330937201209329
S1133D60710187E20E942C03609146087091470814
S1133D708091DF020E9443120E941F040895409321
S1133D8070010E94C71D0895EF920F931F93982FFF
S1133D9080917208813021F484E08093720828C0F5
S1133DA0823031F584E080937208992349F41092AB
S1133DB07001AE9887E20E942C030E941F0418C071
S1133DC0E091DF02FF27E85AF74F808187FF0EC09A
S1133DD00E944404AB01BC0111E0E12E02E310E0B7
S1133DE020E030E081E10E94381402C00E94C71D27
S1133DF00E940C0481E00E9493131F910F91EF9095
S1133E00089585E090E0019701960197E1F780918C
S1133E103608853029F40E940C0480E00E94931334
S1133E200895809136088150833018F485E080939A
S1133E3036080E94011F0895CF92DF92FF920F93DC
S1133E401F93CF93DF93F901E081E093080C413095
S1133E5039F085E08093360889B7806189BF94C0C2
S1133E6080913608863049F4E0937D0B85E0809399
S1133E70360889B7806189BF89C0882309F086C064
S1133E8080917D0BFE2EF094F82280958E23F82AE3
S1133E90C0E0D0E000EAC02E02E0D02E0EED1AE021
S1133EA0F6018081282F332726FD5AC08F2D9927AC
S1133EB00C2E02C0959587950A94E2F780FF50C0B6
S1133EC020FF24C080917D0B99270C2E02C095956C
S1133ED087950A94E2F780FD19C08091080C992710
S1133EE00C2E02C0959587950A94E2F780FF0EC0C8
S1133EF022FF06C0F801608171818C2F0E94050B9E
S1133F00F80180819181019691838083F6018081FB
S1133F10282F332721FF24C080917D0B99270C2E55
S1133F2002C0959587950A94E2F780FF19C08091A5
S1133F30080C99270C2E02C0959587950A94E2F7F0
S1133F4080FD0EC022FF06C0F801608171818C2FB4
S1133F500E94050BF80180819181019691838083F1
S1133F6021960894C11CD11C0E5F1F4FC830D10587
S1133F7009F096CF8091080C80937D0B89B78061FE
S1133F8089BF85E0809336080E94011FDF91CF919D
S1133F901F910F91FF90DF90CF9008951F920F9281
S1133FA00FB60F9211242F933F934F935F936F9308
S1133FB07F938F939F93AF93BF93EF93FF930E944D
S1133FC0230380916E01843009F0A2C080916F01B7
S1133FD09091E20240918B08813009F055C094170A
S1133FE0F0F4E0917508F0917608E90FF11D8091E5
S1133FF0730080834091E202242F332780918B0841
S11340009927019728173907D9F58091DD0282FD98
S113401037C08091DD0A8F7B8093DD0A31C0909197
S1134020DD0A292F2E7F2093DD0A8091DD0281FF96
S113403009C08D7F8093DD0220612093DD0A809189
S1134040710003C09E779093DD0A8091DD0A80930E
S1134050740081E080936E01209175083091760898
S11340606091CC0B7091CD0B80912801882321F0B5
S1134070823009F0C7C002C080E08EC080E090C0EA
S11340804F5F4093E202BAC02091DD0A941778F49E
S1134090E0917508F0917608E90FF11D8081809315
S11340A073009F5F9093E20220937400ABC0922F41
S11340B09E7F9093DD0A8091DD0281FF07C08D7F92
S11340C08093DD0290619093DD0A03C02E772093E4
S11340D0DD0A8091DD0A8093740081E080936E0193
S11340E020917508309176086091CC0B7091CD0BBE
S11340F080912801813041F0813020F0823009F034
S113410081C004C080E057C080E059C080E05BC03B
S1134110853009F062C08091DD028E7F8093DD02DC
S11341209091DD0A9F7D9093DD0A80917100887FD4
S1134130883009F44BC080917100887F803109F484
S113414045C00E9423038091DD0A8A7F8093DD0AA3
S1134150809374000E9423038091DD0A846080931D
S1134160DD0A8093740081E080936E0180916F0179
S113417040918B0820917508309176086091CC0BA2
S11341807091CD0B90912801882369F0992319F03F
S11341909230C1F504C081E00E941C1F33C081E04D
S11341A00E94301E2FC0913049F0913018F09230A7
S11341B049F508C081E00E94111F24C081E00E94DB
S11341C0C41E20C081E00E94851D1CC083E0809332
S11341D06E0190649093DD0A02C0833099F480915B
S11341E06F019091CC0B813019F4990F916001C04B
S11341F0990F9093730084E080936E018091DD0A9F
S113420080937400FF91EF91BF91AF919F918F9133
S11342107F916F915F914F913F912F910F900FBEBE
S11342200F901F9018950F931F932FB7F89433276F
S113423080917D088093270183E080936D012FBFD7
S1134240209127018FB7F8949927209328018FBFD5
S1134250213041F1213020F0223009F039C035C03D
S11342601FB7F89480913608823099F0833028F48F
S1134270882349F0813089F40AC0833061F08630A4
S113428061F481E201C085E20E942C0308C082E24D
S1134290FBCF83E2F9CF84E2F7CF0E94011F812F85
S11342A0992711C00CE718E021E04BE450E063E0EB
S11342B081E00E946B04813059F48FB7F8949927F8
S11342C024E0209372088FBF03C087E20E942C036E
S11342D01F910F91089580912A01882309F444C005
S11342E080912C01882309F03FC080912D018823FF
S11342F009F03AC080913101882309F035C08091DA
S11343002F01882321F480913001882369F562E02C
S113431081E00E94EF06882379F08FB7F8949927FB
S113432023E020936E088FBF0E94561D0E94E30A6B
S113433084E00E942C03089560E081E00E94EF066F
S1134340882391F464E081E00E94EF06882341F021
S11343508FB7F894992723E020936E088FBF0895B0
S113436063E081E00E94EF06089578941F920F9213
S11343700FB60F9211242F923F924F925F926F9239
S11343807F928F929F92AF92BF92CF92DF92EF92E1
S1134390FF920F931F932F933F934F935F936F93CA
S11343A07F938F939F93AF93BF93EF93FF93CF9399
S11343B0DF93CDB7DEB72F97F894DEBF7894CDBFE7
S11343C02CB53DB53F872E8780E286BF0E94240826
S11343D09B01AC018E859F857C0100271127DA01A2
S11343E0C901A070B0708E159F05A007B10798F49D
S11343F0212C312C7FEF472E7FEF572E220E331EB8
S1134400441E551E80E090E0AFEFBFEF2822392212
S11344104A225B220AC0212C312C6FEF462E6FEF0B
S1134420562E22223322442255222E283F28402A67
S1134430512A8FB7F894898380913B0190913C0174
S11344408530910521F0069709F0DBC0BAC086E0FB
S113445090E090933C0180933B0191E090934D094F
S113446080E00E94840D2091660830916708F9016C
S113447021AABB27A52D942D832D8A839B83AC83EE
S1134480BD8380ABC201AA27BB278E839F83A887E5
S1134490B98787A7852D9927AA27BB278A879B8752
S11344A0AC87BD8786A7E0916608F091670885A56B
S11344B0882309F464C080813C968550E80FF11D7F
S11344C094EF892E9FEF992E8E0E9F1ED4012C916E
S11344D085EF682E8FEF782E6E0E7F1ED301EC9041
S11344E0BF016A507040DB018C913997A0809927F5
S11344F0AA27BB27BA2FA92F982F88273327442709
S11345005527522F442733272227FF24002711271A
S11345108701FF24EE242E293F29402B512BBB2455
S1134520CC24DD242A293B294C295D29822B932B79
S1134530A42BB52B82199309A409B5098083292FCB
S11345403A2F4B2F5527FB0120839D0144275527E4
S1134550F30120838B2F9927AA27BB27F40180839B
S1134560C098E0916608F0916708608165507727EC
S113457024E0A40180E090E00E94781CC09AE091BD
S11345806608F0916708818185FF03C0F1E0F0932C
S1134590790183E00E941A1A87B78F7E87BFA091A2
S11345A06608B0916708FD0181818770813039F414
S11345B021AA2A8120AB3E8137A78A8586A78499C0
S11345C06DC010924D0981E00E94840DE09166084F
S11345D0F0916708818185FF0FC087E090E0909398
S11345E03C0180933B010E94240820E031E040E03C
S11345F050E00E94E10803C080E00E941F1D849BDC
S11346004DC080913D01882349F511E010934D0977
S11346100E94840D80914E09883098F4E0918908B5
S1134620E80FFF27E770F070EE0FFF1FEE0FFF1F7C
S1134630E851F44F20823182428253828F5F80930B
S11346404E0910933D01AE85BF85B093380BA093FE
S1134650370B849B03C0B981BFBF22C010924D09A0
S113466081E00E94840D10923D018091370B90915E
S1134670380BEE85FF85E81BF90B3A9778F48091A7
S11346804E09882319F0815080934E098091660861
S113469090916708009711F00E94750DF981FFBF92
S11346A02F96F894DEBFCDBFDF91CF91FF91EF91AC
S11346B0BF91AF919F918F917F916F915F914F9136
S11346C03F912F911F910F91FF90EF90DF90CF902A
S11346D0BF90AF909F908F907F906F905F904F901E
S11346E03F902F900F900FBE0F901F901895CF9270
S11346F0DF92EF92FF920F931F930FB7F894112755
S1134700C0907A08D0907B08EE24FF240E942408ED
S1134710A70196010E94E1080FBF1F910F91FF901E
S1134720EF90DF90CF9008951F93CF93DF938FB7CF
S1134730F894C82FDD271C2F80913B0190913C01F8
S11347400897C9F489E00E94E91C83E00E941A1AC0
S1134750C09A81E090E090933C0180933B018FB735
S1134760F894992723E0209334018FBF85E00E94B9
S11347702C03CFBF30C0C09880917108882311F0FA
S113478085E001C084E00E94E91C83FD09C080E04B
S11347900E94E91C83FF04C085E090E020E003C090
S11347A083E090E021E090933C0180933B01C09A28
S11347B01FBF222341F010928A0883E00E941A1A34
S11347C00E94772308C00E94240820E431E040E0DE
S11347D050E00E94E108DF91CF911F910895EF927C
S11347E0FF920F931F93CF93DF938B0180918C08DB
S11347F090918D0886FF2AC18F7B8F3309F06BC19E
S1134800C0917A01D0917B01588150932F028091FD
S1134810390890913A088330910509F443C08430F3
S1134820910509F48AC0029709F009C183E090E078
S113483090933A088093390840919702852F9927DD
S11348400196242F3327281739074CF1B79906C04E
S11348500E9904C0451B41504093970240912F028A
S11348604A32E8F44423A1F0BE016F5F7F4F4D301C
S113487018F047E050E007C084E090E090933A08D5
S113488080933908552780E090E00E94A40723C153
S113489010923008C09A84E00E941A1ACDC00E9477
S11348A00E1D19C184E090E090933A088093390872
S11348B080914D08882309F439C080916A088823BF
S11348C0A9F5898185FF32C08F814E812FB7F89475
S11348D0332760919D0B70919E0B2FBF9927982FC2
S11348E088275527842B952B8617970759F08F8196
S11348F02E819927982F88273327822B932B8F5F1C
S11349009F4FA1F489818770813081F4C09AC09847
S11349108AE00E94E91CC09AC09840912F02475037
S11349202896BE018FE30E943019D5C040912F0212
S1134930475055272896BE01A6CFC09A8091CF0B29
S1134940882319F484E00E941A1A80914E0988235E
S1134950A1F180912F028B30B0F1E0918908FF27FB
S1134960EE0FFF1FEE0FFF1FE851F44F208131813E
S113497042815381E0917A01F0917B0121ABBB2705
S1134980A52F942F832F80ABCA01AA27BB2787A703
S1134990252F33274427552726A78091890899274F
S11349A0019668E070E00E94AE408093890880918F
S11349B04E09815080934E0906C080917A019091EE
S11349C07B010E94750D80912F02FE01E80FF11DFD
S11349D0808187FF31C0012B79F169816770E09193
S11349E07A01F0917B01623019F5A0916608B091CB
S11349F06708109709F180913B0190913C0107975A
S1134A00D9F4ED019B8183819817B1F487B78F7E28
S1134A1087BF908181E08CA7E90FF11D82913196C7
S1134A2088A780818F7789A780E00E941F1D04C01A
S1134A30613011F48CE02AC00E946D1A4CC01092AF
S1134A403008C09A84E00E941A1A45C08E3309F0D7
S1134A5042C0C09A80913B0190913C010897C9F4EF
S1134A60C09889E00E94E91CC09A83E00E941A1A47
S1134A7081E090E090933C0180933B018FB7F894E0
S1134A80992723E0209334018FBF85E00E942C03F3
S1134A9022C080917108882349F484E090E09093C7
S1134AA03C0180933B010E94942315C083E00E9443
S1134AB01A1A83E090E090933C0180933B01E090CC
S1134AC05608F0905708002711270E942408A801CF
S1134AD097010E94E108DF91CF911F910F91FF9000
S1134AE0EF9008951F920F920FB60F9211242F93F7
S1134AF03F934F935F936F937F938F939F93AF9362
S1134B00BF93EF93FF932FB1E0919302F09194023E
S1134B10309739F08091330890913408E80FF91FE9
S1134B20208380913308909134080196909334083F
S1134B308093330880E00E9412074091D30A509179
S1134B40D40A80913308909134088417950718F497
S1134B500E9436071CC06091930270919402809168
S1134B607708909178081092940210929302109210
S1134B707808109277081092D40A1092D30A1092EF
S1134B803408109233082FB120E00E94EF23FF91E4
S1134B90EF91BF91AF919F918F917F916F915F91B1
S1134BA04F913F912F910F900FBE0F901F9018952A
S1134BB080912A01882369F561E081E00E94D5068D
S1134BC08823E9F48FB7F894282F3327809135018F
S1134BD090913601892B11F02FBF089581E090E068
S1134BE090933601809335012FBFDD9A0E942408EB
S1134BF024E130E040E050E00E94E108089562E0E2
S1134C0081E00E94EF06882321F461E081E00E94A4
S1134C10EF060895569857981092E00210924C08A7
S1134C20539A549A579A0E94D82510924C0A81E0BC
S1134C3080932F0180932C0180E00E942C0308951F
S1134C4078941F920F920FB60F9211241F932F93F3
S1134C503F934F935F936F937F938F939F93AF9300
S1134C60BF93EF93FF9387B78F7E87BF78941FB767
S1134C70F8948091800B9091810BA091820BB0915C
S1134C80830B0097A105B10509F051C080913B0148
S1134C9090913C018530910561F18630910530F4A5
S1134CA08330910549F0049781F51AC08730910546
S1134CB0F1F0089751F514C0869B0FC084E090E092
S1134CC090933C0180933B010E94240827E030E04C
S1134CD040E050E00E94E10818C00E94772315C00C
S1134CE00E944A15882389F40E9494230EC080E010
S1134CF00AC089E00E94E91C81E00E94840D83E0DF
S1134D000E941A1A87E00E941F1D8091350190911C
S1134D103601019771F482E090E09093360180931C
S1134D203501DE98DE9A80E00E94CF1402C00E9412
S1134D304108812F99278FBFFF91EF91BF91AF91C8
S1134D409F918F917F916F915F914F913F912F919F
S1134D501F910F900FBE0F901F901895EF920F9315
S1134D601F938FB7F894282F3327809170018823DD
S1134D7011F02FBFC0C02FBF82E00E940E03882312
S1134D8021F482E00E949103B6C02FB7F894332730
S1134D90109247081092460884E080937001409175
S1134DA07101509172012FBF2091DF022F5F2E30CD
S1134DB0A8F020E013C02F5F2E3008F020E03F5F02
S1134DC03E3069F48FB7F8949927109270018FBF21
S1134DD00E940C0482E00E9493138DC030E081E0B5
S1134DE090E0022E02C0880F991F0A94E2F78423F0
S1134DF09523892B01F38FB7F89499272093DF0229
S1134E008FBFA998E091DF02FF27E85AF74F80810E
S1134E10992783FDAA9A84FDAB9A85FDAD9A9FB725
S1134E20F89481E080937C0BE091DF02FF27E85A3D
S1134E30F74F8081282F332720FF03C084E080931D
S1134E407C0B21FF03C088E080937C0B22FF03C00E
S1134E5080E180937C0B892F99278FBFE091DF023B
S1134E608E2F8750843088F5AE9AE93029F0EA30E5
S1134E7029F0E83029F406C09CE005C093E003C0A3
S1134E8090EC01C090E38FB7F894082F112780911C
S1134E907208843061F482E08093720890937C08F5
S1134EA081E00E9491030FBF813029F501C00FBF3B
S1134EB08FB7F8949927109270018FBFAE9887E24C
S1134EC00E942C030E941F0416C0FF27E85AF74FC4
S1134ED0808187FF0EC00E944404AB01BC01E1E065
S1134EE0EE2E02E310E020E030E081E10E9438146D
S1134EF002C00E94C71D1F910F91EF900895AF92B9
S1134F00BF92CF92DF92EF920F931F935B016C01DC
S1134F100E944404AB01BC01F1E0EF2E960185012F
S1134F2086E00E9438141F910F91EF90DF90CF908C
S1134F30BF90AF9008958F929F92AF92BF92CF92FD
S1134F40DF92EF92FF920F931F93CF93DF93109210
S1134F502F018FEF90E090930401809303018FEF72
S1134F60809302018091990181FF04C08D7F809319
S1134F70990128C08091370290913802009711F16D
S1134F80805D9840F9F480910D01882399F48FB7DE
S1134F90F894282F332780913B0190913C0102978C
S1134FA0039730F488E090E090933C0180933B01B8
S1134FB02FBF08C080918D0B816080938D0B8FE093
S1134FC00E942C0380912C01882311F010922C0153
S1134FD08FB7F89499272FEF209315018FBF8FEF88
S1134FE090E090932D0B80932C0BE0919802F0911C
S1134FF0990280818F3F39F08385882321F0828153
S11350008A3009F42083882440E050E0C8E9D2E0E3
S1135010642FA881B981109741F18C918F3F29F1B8
S1135020FD018181882309F58385282F33272223D5
S113503009F4E2C0E82DFF27EE0FFF1FE856FD4FED
S113504000811181F8018385821771F49281FD0139
S11350508281981739F4F8019285FD0182858917B8
S113506020F402C0981708F0862E4F5F5F4F2296F7
S11350704430510569F6C82CDD24F601EE0FFF1FFC
S1135080E856FD4FA080B180D5018C918F3F09F483
S113509091C081E0E5018883E601CC0FDD1FC8568D
S11350A0DD4FE881F98182818F5F8283E881F98114
S11350B0E680F780008511850E944404E616F70611
S11350C00807190778F40E9444047B018C01E881E5
S11350D0F98186819781A085B185E81AF90A0A0BBE
S11350E01B0B16C00E9444047B018C01E881F981EA
S11350F086819781A085B185E81AF90A0A0B1B0BF2
S113510080E090E0A0E0B0E8E80EF91E0A1F1B1F43
S1135110F601EE0FFF1FE856FD4F0190F081E02DE0
S1135120858524859927782F66273327622B732B4F
S1135130C0E0D0E081E0982ECB010E943C0A0E949E
S11351404E0A7170C60FD71FCE01AA27BB27805005
S11351509041AF4FBF4FE816F9060A071B0710F03E
S11351609394EACFD601AA0FBB1FA856BD4FED9169
S1135170FC91119781819381899F802D1124980E30
S11351809382ED91FC9111971182882069F020910E
S11351909802309199028D919C9111979093990264
S11351A0809398022D933C930E949016D5018C9184
S11351B08F3F71F41092330181E0809330010E949B
S11351C0D82560E070EF80E090E00E947F2725C042
S11351D0E501EC81FD8120E030E0AFE3B2E08D91A8
S11351E09C911197E817F90791F02F5F3F4F1E9696
S11351F02630310591F0F3CFC42EDD24F601EE0FF5
S1135200FF1FE856FD4FA080B180842E42CFF0935B
S11352100401E09303012093020180E090E0DF9118
S1135220CF911F910F91FF90EF90DF90CF90BF909F
S1135230AF909F908F900895BF92CF92DF92EF929C
S1135240FF920F931F93CF93DF93EC016B017901CE
S11352508A0160E070E0A8E9B2E09D0140E050E01E
S1135260B62EED91FC911197309709F442C08481D8
S113527095818C179D07E9F5D583C483C114D104A6
S1135280A9F0D901ED91FC91E60188819981AA8167
S1135290BB8182879387A487B587D901ED91FC915F
S11352A0E682F7820087118711821FC0DA01A856AF
S11352B0BD4FED91FC91119781818F5F8183ED91B9
S11352C0FC918181823088F061E0848195810E9423
S11352D07C0B80912C0B90912D0BC817D90711F4DE
S11352E00E949B2780E090E017C08B2D0E948D15B3
S11352F0F9CFEB2DEF5F6F5F7F4F4E5F5F4F2E5FF8
S11353003F4F12966430710509F0AACF80E090E017
S1135310E43011F481E090E0DF91CF911F910F917F
S1135320FF90EF90DF90CF90BF900895823009F402
S11353304DC0833020F4813009F052C03EC0833028
S113534021F0843009F04CC00BC081E080935701F8
S113535070931B0160931A0187E10E942C03089546
S11353601092570180915301882309F439C00E9497
S1135370CC07009719F40E94C6060CC0DC01E0912A
S11353801601F091170124E301900D922150E1F7E9
S11353900E94EB07809154018F5F80935401823007
S11353A0F8F061E080911A0190911B010E947C0B3E
S11353B00E949B271092540108958FB7F89499275F
S11353C070931D0160931C018FBF08952FB7F8944B
S11353D033278FEF90E090931D0180931C012FBF22
S11353E00895AF92BF92CF92DF92EF920F931F93E3
S11353F05B016C010E944404AB01BC01E1E0EE2EB0
S1135400960185018FE00E9438141F910F91EF904F
S1135410DF90CF90BF90AF900895A09AA898179866
S11354201F9A89B78F7789BF179A1F9AA89880E027
S1135430A89AA8988F5F8930D9F7179A1F9AA898C5
S1135440A89A1F98A898A89A1F9AA89880913D0C8A
S113545090913E0C8F71907090933E0C80933D0C14
S1135460282F30E027FF02C01F9A01C01F98A89A76
S1135470A8983F5F383011F0220FF4CF17981F9A85
S1135480A89A0F990AC0A89885309105B1F08E3179
S1135490910541F0039759F01FC010926A0181E011
S11354A090E008956BE070E080E090E013C01798FE
S11354B01F9A80E00E94630509C017981F9A80E034
S11354C00E94630580916B0180FF09C06AEF70E060
S11354D080E090E00E94F12980E090E008956AEF76
S11354E070E080E090E00E94F12980E090E008956F
S11354F080912101882399F080916A01882379F4AD
S113550021E020936A0185E090E090933E0C809323
S11355103D0C2093DE020E940D2A882349F081E08D
S11355200E947E0540E050E063E080E00E94BB0101
S11355300895AF92BF92CF92DF92EF920F931F9391
S11355408B01823009F476C0833030F4882359F01B
S1135550813009F07CC06BC0833009F46EC08430A4
S113556009F075C070C081E080932D010E94D82598
S11355701093060100930501E0E0F0E0AFE3B2E030
S11355802E2F8D919C91119780179107A1F02F5F79
S113559031961E96E630F10599F72630D1F4109233
S11355A02D010E946B2161E080910501909106011B
S11355B00E947C0B4CC08EE090E0AF01489FF0014C
S11355C0499FF00D589FF00D1124E55CFD4F438178
S11355D001C041E0552733278EE090E0289FF00179
S11355E0299FF00D389FF00D1124E55CFD4F81815A
S11355F02CE0829FC00111240C96489F5001499FC2
S1135600B00C589FB00C11240894A11CB11CCC24DC
S1135610B7FCC094DC2C0E944404AB01BC01F1E053
S1135620EF2E9601850182E00E94381410C0809309
S11356302C0106C010922C0108C081E080932D013A
S11356400E94D82504C010922D010E946B211F9145
S11356500F91EF90DF90CF90BF90AF900895AF92ED
S1135660BF92CF92DF92EF92FF920F931F93EFE4DA
S1135670F9E0B6E9EB2EF12C012D112D86819781ED
S1135680A085B1858F5F9F4FAF4FBF4F59F0828187
S11356909381A481B5818E159F05A007B10714F4E9
S11356A07C018D013A968AE0E934F80739F7EFE492
S11356B0F9E086819781A085B1858F5F9F4FAF4FB9
S11356C0BF4F61F082819381A481B5818E199F09B6
S11356D0A00BB10B82839383A483B5833A968AE0AB
S11356E0E934F80731F70E9444045B016C01C801F6
S11356F0B70124E630E040E050E00E948340A1E09E
S1135700EA2E8B019C01B601A5018DE00E9438149C
S11357101F910F91FF90EF90DF90CF90BF90AF90CB
S11357200895AF92BF92CF92DF92EF920F931F939F
S113573080912F01882309F43BC00FB7F8941127F7
S113574080914E0A9927982F882720914D0A332754
S1135750822B932B0E943C0A0E944E0A7170609324
S11357604D0A672F772760934E0A0FBFA0904E0A09
S1135770BB24BA2CAA2480914D0A9927A82AB92AB5
S1135780CC24DD2480914E0890914F08A0915008BC
S1135790B0915108A80EB91ECA1EDB1E0E94440413
S11357A0AB01BC0101E0E02E9601850181E00BC054
S11357B00E944404AB01BC0111E0E12E0AE010E0B8
S11357C020E030E084E00E9438141F910F91EF90A4
S11357D0DF90CF90BF90AF900895EF920F931F93F7
S11357E010922B018091DC089927873969F1883957
S11357F018F4863981F505C0883949F1893959F594
S113580028C00E94912B0E944404AB01BC018FB7B5
S1135810F8949927109283088FBF1092520131E0B7
S1135820E32E0DE210E020E030E08BE00E9438141B
S11358300E944404AB01BC010AE010E020E030E027
S113584083E00E94381407C00E94912B04C0109278
S11358502C010E946B211F910F91EF900895282F26
S1135860CB01222319F0213079F404C0642F0E9463
S1135870ED2B089580911E01882321F0209353017C
S113588010921E01109255010895FF920F931F93D9
S1135890CF93DF93082FEB01F42EE82FFF27EE0FB1
S11358A0FF1FE95CFD4F1182108280910D01992741
S11358B0019662E070E00E94AE40682F80930D0173
S11358C010E0462F5527FA01EE0FFF1FE95CFD4F4C
S11358D0A081B181109799F0E62FE695E695E695BB
S11358E0FF27E357F44F808199279A01277030707E
S11358F002C0959587952A95E2F780FF0DC0CA01ED
S1135900019662E070E00E94AE40682F1F5F123083
S1135910C1F610930D0119C060930D016230A8F413
S11359202C912D503327FD0167817727762F662729
S113593086819927682B792BAD0183850E945A1B98
S1135940882319F080E10E942C03002319F0013010
S113595081F405C06F2DCE010E94ED2B0AC0809109
S11359601E01882321F00093530110921E0110920E
S11359705501DF91CF911F910F91FF900895AF9240
S1135980BF92CF92DF92EF920F931F935B016C0152
S11359900E944404AB01BC01B1E0EB2E96018501E9
S11359A085E00E9438141F910F91EF90DF90CF9003
S11359B0BF90AF900895AF92BF92CF92DF92EF92D3
S11359C00F931F935B016C010E944404AB01BC0163
S11359D011E0E12E960185018BE00E9438141F919D
S11359E00F91EF90DF90CF90BF90AF9008952F92DA
S11359F03F924F925F926F927F928F929F92AF925B
S1135A00BF92CF92DF92EF92FF920F931F93CF93A7
S1135A10DF93CDB7DEB724970FB6F894DEBF0FBE81
S1135A20CDBF4B015C0166247724E8E8F1E0D62C75
S1135A30608561FFE2C42081318142815381E48029
S1135A40F58006811781D501C401821B930BA40B39
S1135A50B50B8E159F05A007B10708F4CEC460FFEF
S1135A6003C06D7F608708C02E0D3F1D401F511F6E
S1135A70208331834283538388E0D81609F464C1B8
S1135A808D15D0F094E0D91609F45DC09D1560F031
S1135A90A2E0DA1609F43FC0AD1508F451C0B1E034
S1135AA0DB1609F0B3C426C0E6E0DE1609F46EC0C6
S1135AB0ED1508F43EC151C0FCE0DF1609F4C2C183
S1135AC0FD1540F08AE0D81609F45EC18D1508F47E
S1135AD066C14FC19EE0D91609F4D6C2D91608F49E
S1135AE0DDC1AFE0DA1609F45AC4B1E1DB1609F0FE
S1135AF08DC480C480912A01882311F40E94D82582
S1135B0080912F01882309F481C4D0922C0180E074
S1135B100E942C037BC410922D010E946B21809162
S1135B202F018823B9F00E9444049B01AC0160E07A
S1135B3070E080910501909106010E941C2966C4C1
S1135B4010922C013BC080912F01882309F05EC480
S1135B500E946B210E949B2759C40E944C0B11E0A8
S1135B6010933001109233010E94D82560E070EF49
S1135B7080E090E00E947F2780912E01882319F015
S1135B8010922E0143C41093310140C4109230018D
S1135B9080912F018823A9F480913301882389F40B
S1135BA081E080932E018091BD018D7F8093BD01A2
S1135BB060E070EE81E090E00E94BF2C0E946B21B7
S1135BC025C44EE050E061E070E08BE392E00E9477
S1135BD0920C40E025E030E06091030170910401F3
S1135BE0A1E8B2E06F3F710551F0FD018481958118
S1135BF08617970721F4443039F443E005C08C91AB
S1135C008F3F41F0443030F4E42FFF27E257F74F41
S1135C1020834F5F215030401E97FFEF2F3F3F07F7
S1135C2009F7442309F46FC080912C0B90912D0B3C
S1135C308F3F910511F420E04FC030E021E0BC011A
S1135C4001E01FE031C0E32EFF248EE898E0E80E67
S1135C50F91ED7018C915EE0859FD0011124A55CCB
S1135C60BD4FFD01848195818617970789F4E091E2
S1135C709802F09199020383D7018C91859FC0010A
S1135C801124855C9D4F90939902809398020BC0D8
S1135C90E22FFF27EE0FFF1FE856FD4FB183A083CD
S1135CA0FD0113832F5F3F5F341769F621C0A22FD4
S1135CB0BB27FD01E257F74FE0818EE0E89FF0013A
S1135CC01124E55CFD4FAA0FBB1FA856BD4FED93F1
S1135CD0FC938FE083832F5F241749F709C0E22FD9
S1135CE0FF27EE0FFF1FE856FD4F118210822F5F32
