:100000000C9469010C9488010C9488010C9488016B
:100010000C9488010C9488010C9488010C9488013C
:100020000C9488010C9488010C9488010C9488012C
:100030000C9488010C9488010C9488010C9488011C
:100040000C9488010C9488010C9488010C9488010C
:100050000C9488010C9488010C9488010C948801FC
:100060000C9488010C942C150C9488010C94941514
:100070000C9488010C9488010C9488010C94E81667
:100080000C94C7160C94D2160C94DD160C94FB1627
:100090000C94AA160C9488010C94BC160C9488013C
:1000A0000C9488010C9488010C9488010C948801AC
:1000B0000C9488010C9488010C9488010C9488019C
:1000C0000C9488010C9488010C94880100020E069F
:1000D0000C0400002110422063308440A550C6600B
:1000E000E770088129914AA16BB18CC1ADD1CEE1F5
:1000F000EFF13112100273325222B5529442F7726C
:10010000D662399318837BB35AA3BDD39CC3FFF344
:10011000DEE36224433420040114E664C774A4447B
:1001200085546AA54BB528850995EEE5CFF5ACC594
:100130008DD55336722611163006D776F66695564B
:10014000B4465BB77AA719973887DFF7FEE79DD7E4
:10015000BCC7C448E5588668A778400861180228DB
:100160002338CCC9EDD98EE9AFF9488969990AA934
:100170002BB9F55AD44AB77A966A711A500A333AAB
:10018000122AFDDBDCCBBFFB9EEB799B588B3BBB84
:100190001AABA66C877CE44CC55C222C033C600C3B
:1001A000411CAEED8FFDECCDCDDD2AAD0BBD688DD4
:1001B000499D977EB66ED55EF44E133E322E511E8B
:1001C000700E9FFFBEEFDDDFFCCF1BBF3AAF599F24
:1001D000788F8891A981CAB1EBA10CD12DC14EF1C4
:1001E0006FE18010A100C230E3200450254046702A
:1001F0006760B9839893FBA3DAB33DC31CD37FE355
:100200005EF3B1029012F322D23235421452776279
:100210005672EAB5CBA5A89589856EF54FE52CD524
:100220000DC5E234C324A0148104667447642454C9
:100230000544DBA7FAB79987B8975FE77EF71DC734
:100240003CD7D326F2369106B01657667676154619
:1002500034564CD96DC90EF92FE9C899E9898AB984
:10026000ABA94458654806782768C018E108823869
:10027000A3287DCB5CDB3FEB1EFBF98BD89BBBAB94
:100280009ABB754A545A376A167AF10AD01AB32AB9
:10029000923A2EFD0FED6CDD4DCDAABD8BADE89DE4
:1002A000C98D267C076C645C454CA23C832CE01C09
:1002B000C10C1FEF3EFF5DCF7CDF9BAFBABFD98F74
:1002C000F89F176E367E554E745E932EB23ED10E59
:1002D000F01E11241FBECFEFD1E2DEBFCDBF12E072
:1002E000A0E0B2E0EEECFEE200E00BBF02C007903F
:1002F0000D92A631B107D9F71AE0A6E1B2E001C02C
:100300001D92A936B107E1F70E948D130C94661770
:100310000C9400008FB7F894992708958FBF089523
:10032000982F8FB7F894282FE92FFF27E75DF54F17
:1003300080818F3FB1F48091340A891791F08091C8
:10034000280A8F3F19F49093280A07C08091340A35
:10035000E82FFF27E75DF54F90839093340A80E004
:1003600001C085E02FBF99270895E82FE695E6950F
:10037000E695282F3327662381F0FF27E55FF54FA9
:100380002770307081E090E002C0880F991F2A9595
:10039000E2F72081282B20830895FF27E55FF54FA2
:1003A0002770307081E090E002C0880F991F2A9575
:1003B000E2F7982F90958081892380830895CF93C9
:1003C0008FB7F894C82F80914D06882341F485E0BB
:1003D0000E949001882319F481E080934D06CFBFDD
:1003E000CF910895CF93DF938093420A61E08FEF1E
:1003F0009FEF80933C0A8FEF90E080933B0A8BE85D
:100400008093410A60933F0AC0912102D091220259
:10041000209719F085E090E040C08FB7F894282F1E
:10042000332745E050E040931F0210921E0286E3FE
:100430009AE0909324028093230282E090E09093CC
:1004400022028093210210921C0210921D02842F1E
:10045000885F809320022FBF90E08FB7F894282FF9
:10046000332780917F09882329F460937F09909333
:100470008009962F2FBF992321F00E94DF01CE0122
:1004800001C0CA01882319F480E090E006C01092F0
:1004900022021092210281E090E0892B09F012984B
:1004A000DF91CF910895CF93C82F882319F0129828
:1004B0000E94F20180E090E0CC2311F481E090E012
:1004C000CF91089520E08FB7F894982F80910E0A6D
:1004D0008A3029F480918109843009F421E09FBF9A
:1004E000222351F087E00E9490018FB7F89499275A
:1004F000109227028FBF08958FB7F894282F3327C3
:1005000081E0809327022FBF0895882319F482E1A8
:1005100090E002C080E090E0969587950895CF9294
:10052000DF92EF92FF920F931F93962FA42F809349
:1005300029029093170AC901880F892F881F990BE8
:1005400091958093180A220F812F9927282B2093A9
:10055000190A00931A0AD0924506C0924406F092F6
:100560008309E0928209A093FA0983E00E94900136
:100570001F910F91FF90EF90DF90CF90089520E0B2
:1005800030E0882311F421E030E09927211531056E
:1005900051F0892B19F482E190E002C080E090E0F4
:1005A0009695879506C0892B19F482E190E001C0E9
:1005B000C901AA27BB27BA2FA92F982F8827BC01CA
:1005C000CD0108954F925F926F927F928F929F928A
:1005D000AF92BF92CF92DF92EF92FF920F931F9351
:1005E000CF93DF93582E49015A013801062F112766
:1005F0008BE090E0089FE001099FD00D189FD00D7F
:100600001124C151D64F4880442019F085E090E074
:100610006AC0862F0E94BF02681579058A059B056E
:1006200058F0DC01CB0188199909AA09BB098C157E
:100630009D05AE05BF0518F486E090E054C05882D1
:100640008B829C82AD82BE82CF82D886E986FA8672
:100650007A8269820115110509F043C08FB7F894B9
:10066000282F3327422F909128029923B9F08091A7
:10067000350A8F3F89F4E0910802EE2369F08091FA
:1006800009028F3F19F40093090204C0FF27EB5CB5
:10069000F54F4082109208024FBF23C081E0809343
:1006A000280290936F092FBF8FB7F894C82FDD27CA
:1006B0009C2F80910702813099F48091280281302B
:1006C00021F484E00E94900109C0823049F48091B5
:1006D0006F098093070283E080932802CFBF01C097
:1006E0009FBF80E090E0DF91CF911F910F91FF902D
:1006F000EF90DF90CF90BF90AF909F908F907F90C2
:100700006F905F904F900895BF92CF92DF92EF92DB
:10071000FF920F931F93B82E0E94BF02DC01CB0102
:100720000297A109B1096C017D0100E010E022E00F
:1007300030E040E050E06B2D85E00E94E2021F9126
:100740000F91FF90EF90DF90CF90BF900895262FEC
:10075000E2EDF0E02927220FF11DE20FF11DC8950F
:10076000982F802D3196C89590250895EF92FF928D
:100770000F931F93CF93DF93DB0160E070E0FC01E8
:1007800053E0EE0FFF1F5A95E1F7E25BF94F43E0AC
:10079000AA0FBB1F4A95E1F7A25BB94FE080F18039
:1007A000028113812D913D914D915C911397E21639
:1007B000F3060407150780F0FD0186819781AA27BB
:1007C000BB27280F391F4A1F5B1FE216F3060407D9
:1007D000150710F461E070E0CB01DF91CF911F911C
:1007E0000F91FF90EF900895CF93C82F882321F4A5
:1007F000129881E00E94F2018C2F9927CF910895E1
:10080000982F882331F480910B0A80FF02C0675F24
:100810007F4F992311F060E070E0CB010895982F8D
:1008200080E02FB7F894422F55272BB1277D2BB9A5
:1008300097FD5B9A5D9A4A9980682BB996FD5B9A01
:100840005D9A4A9980642BB995FD5B9A5D9A4A99A5
:1008500080622BB994FD5B9A5D9A4A9980612BB9AD
:1008600093FD5B9A5D9A4A9988602BB992FD5B9AD9
:100870005D9A4A9984602BB991FD5B9A5D9A4A9979
:1008800082602BB990FD5B9A5D9A4A9981604FBF57
:1008900099270895809142068E7F80934206809129
:1008A0003F068E7F80933F061092EA090895EF92EB
:1008B000FF920F931F93FC010091140210911502F7
:1008C00064E6E62EF12CC801B7010E9430179C01A6
:1008D0002E0F3F1F81E597E3289FA001299F500D10
:1008E000389F500D1124CA018F5A984C9093490695
:1008F0008093480690932D0280932C02C801B70183
:100900000E943017E80FF91F85E89FE0E89F9001EB
:10091000E99F300DF89F300D1124C9018B57904F7E
:1009200090933B0680933A061F910F91FF90EF90B2
:1009300008952091480630914906832F881F882703
:10094000881F220F331F882321F08BE090E1282796
:1009500039272F5F3F4F30934906209348068091F7
:100960003A0690913B06822793270895982F80910D
:100970001B02882399F5992389F531E030931B02F6
:100980008091060280931A0220912602822F8323EF
:100990008093430680910002909101029093190286
:1009A00080931802809125028093170232273170BC
:1009B0002E7F232B822F8170E82FFF27EE0FFF1F42
:1009C000EE5FFD4F80819181909301028093000240
:1009D000277E209326028AE00E94900108951F93AB
:1009E000CF93182FC62F80918109992781309105C7
:1009F00009F1823091051CF4009749F025C182303D
:100A0000910509F454C0039709F464C01DC1112372
:100A100009F441C110923304109232041092EE098D
:100A20001092080A1092770990932F0480932E0455
:100A300081E04DC0112309F02EC180912E049091C8
:100A40002F040E94A70390932F0480932E0482E02A
:100A500080938109C093080AC43409F0F5C0C434F6
:100A600009F0F2C0212F8091260280FF03C0982F49
:100A7000969503C0982F96959695917099F480FF5E
:100A800002C0846001C082608093260280912602A9
:100A9000877E886080932602109225028FEF8093D4
:100AA000060201C025E0222309F4F5C0CDC01123C0
:100AB00009F0CAC06093770980912E0490912F04A9
:100AC0000E94A70390932F0480932E0483E08093C9
:100AD0008109E1C08091EE098F3F09F4B5C011236F
:100AE00009F449C0823008F4AFC0909132049923D0
:100AF00019F0E92FE15001C0E2E09E2FFF27EE5CE4
:100B0000FB4F8281282F3327322F2227992319F078
:100B1000E92FE15001C0E2E0FF27EE5CFB4F82814C
:100B20009927282B392B80912E0490912F04281778
:100B3000390709F089C080E00E94B6043091770936
:100B40008091200A2091210A982F9F5F963008F00B
:100B500090E0921709F478C0E82FFF27E05EF54F88
:100B600032838F5F8093200A863010F01092200A23
:100B70000E94DF0169C0823008F452C080913304C2
:100B8000E82FFF27EE5CFB4F8281482F5527342F3B
:100B900020912602822F86958695869583709927C7
:100BA0008130910519F0029781F01FC0822F877E56
:100BB000806180932602442311F485E001C080E027
:100BC000809325023093060210C0809125028F3257
:100BD00060F4E0910002F0910102E80FF11D408302
:100BE000809125028F5F8093250280913304E82F46
:100BF000FF27EE5CFB4F92818F5F8093330483303D
:100C000010F010923304892F9927682F80912E04B9
:100C100090912F040E94A70390932F0480932E0499
:100C200080913204E82FFF27EE5CFB4FC2838F5F79
:100C300080933204833010F0109232048091EE09D8
:100C40008F5F8093EE0927C0109233041092320414
:100C5000109281091092EE091092080A10927709F9
:100C600010922F0410922E04809116028D7F809393
:100C70001602C1E08C2F0E94B604809127028823BF
:100C800031F084E0809381090E94620204C0112344
:100C900011F0C0938109CF911F910895982F8FB7BC
:100CA000F894282F33279093C6008091C000806469
:100CB0008093C0002FBF0895CF93DF93FC0161158F
:100CC000710519F481E090E028C0C091670AD091C5
:100CD000680A209719F085E090E01FC07093150A0C
:100CE0006093140A9093680A8093670A81E0809366
:100CF0004A068091C00080648093C0008091C1004A
:100D000080648093C1002196D0933104C093300455
:100D1000219780810E944E06CE01DF91CF910895E8
:100D2000982F8D57823068F48091160281608093ED
:100D3000160280E2892780936E098DE78093070A67
:100D400002C09093070A61E070E087E09AE00E9499
:100D50005C0699270895809116028E7F8093160273
:100D60008EE78093070A61E070E087E09AE00E94D6
:100D70005C0699270895CF92DF92EF92FF920F932E
:100D80001F938091EA09882339F085E08093290236
:100D900083E00E9490012FC02091EB09822F9927B8
:100DA000FC01EE0FFF1FE80FF91FE15CF94F808196
:100DB00082FF06C0222311F068E807C069E805C079
:100DC000222311F063E801C066E8822F9927FC0115
:100DD000EE0FFF1FE80FF91FE35CF94F808191814F
:100DE000F1E0CF2ED12CEE24FF2487019C0140E0BE
:100DF00089E00E948F021F910F91FF90EF90DF908A
:100E0000CF900895CF92DF92EF92FF920F931F93AE
:100E1000CF93C82F8091EA09882339F085E0809329
:100E2000290283E00E9490011DC0CC2311F060E6EE
:100E300001C061E68C2F9927FC01EE0FFF1FE80F20
:100E4000F91FE35CF94F8081918111E0C12ED12C13
:100E5000EE24FF2487019C0140E08AE00E948F027B
:100E6000C0938609CF911F910F91FF90EF90DF9073
:100E7000CF9008950F931F93CF93DF931092710932
:100E8000109270090E9457040EE416E00E94990423
:100E9000EC01D7700E9499049C01220F232F221F7E
:100EA000330B3195CE01820F931F8150984020F073
:100EB000C0E0D8E0C21BD30BCE01AA27BB27F801A4
:100EC00080839183A283B383158214823783268320
:100ED0000E949904292F3327F80146815781C901BF
:100EE000840F951F8150924020F020E032E0241BB7
:100EF000350B285C3B4FF80135832483085F1F4F77
:100F0000F9E006361F0709F00CF4C0CFDF91CF914E
:100F10001F910F910895CF92DF92EF92FF920F935E
:100F20001F93E0917009F09171093196F093710966
:100F3000E09370093197E436F10519F40E94A00896
:100F40002AC053E0EE0FFF1F5A95E1F7E25BF94F1D
:100F50002081318142815381868197816C01EE2409
:100F6000FF2460913C066770633018F484E090E0E1
:100F700010C0653019F481E090E00BC02A5F3F4F4C
:100F80004F4F5F4F0EE212E060E084E00E94E20209
:100F900099270E9453021F910F91FF90EF90DF90CD
:100FA000CF900895CF92DF92EF92FF920F931F930D
:100FB000CF938C018130910509F4B2C08230910544
:100FC0001CF4892B29F0B4C0029709F49BC0B0C06F
:100FD00080910C0A90910D0A9093470680934606E3
:100FE00090E080913C068770833018F484E090E0B4
:100FF00086C0833079F4E1E0CE2ED12CE12CF12CA7
:1010000020E030E040E050E0692F85E00E94E202FD
:10101000992775C0692F80910B0A80FF61E0892FA5
:101020000E94B5018091FD099927AA27BB27B82FF7
:10103000AA27992788272091FE0933274427552777
:10104000A90133272227822B932BA42BB52B209188
:10105000FF09332744275527542F432F322F2227A8
:10106000822B932BA42BB52B2091000A33274427E6
:101070005527822B932BA42BB52B0196A11DB11DB7
:101080008093000A292F3A2F4B2F55272093FF09D1
:101090009D01442755272093FE098B2F9927AA27C6
:1010A000BB278093FD096DEFE62E69E0F62EC3E0C5
:1010B000F70161917F01C8010E94A7038C01C15013
:1010C000C7FFF6CF80E00E94BF02DC01CB0106978C
:1010D000A109B1096C017D0126E030E040E050E05B
:1010E00060E085E00E94E2029927282F882329F4F6
:1010F00080913C06886080933C06822F99270E944D
:10110000530216C080910C0A90910D0A019690939B
:101110000D0A80930C0A0E943A070E94F60808C044
:1011200080914606909147060E943A070E948B07DD
:10113000CF911F910F91FF90EF90DF90CF90089586
:10114000809114029091150264E670E00E943017BD
:101150008FB7F894282F332782B191E0892782B97D
:101160002FBFE0918409F0918509662341F4E830AE
:10117000F10538F4E45FFD4F8081992722C0EF2B01
:1011800029F0119880E80E94F2011DC040E0542F20
:101190002091460630914706ECE0F2E081919927D4
:1011A000009721F0029721F45F5F02C0252F3327BB
:1011B0004F5F483098F3309347062093460681E00E
:1011C00090E00E94D2078091840990918509019650
:1011D00090938509809384090895882321F01298BB
:1011E0000E94F20108950E94A0080895CF92DF9214
:1011F000EF92FF920F931F93E0917009F0917109A4
:101200003196F0937109E09370093197E436F10556
:1012100019F40E94A00825C0A3E0EE0FFF1FAA95B5
:10122000E1F7E25BF94F20813181428153810481F2
:101230001581868197816C01EE24FF2480913C0604
:101240008770833018F484E090E009C02A5F3F4F34
:101250004F4F5F4F60E081E00E94E20299270E94B9
:1012600053021F910F91FF90EF90DF90CF90089560
:101270001F93CF93DF93482F162FC82FDD27FE0132
:10128000E45CF94F9081892F877F8083662329F45E
:10129000892F807F836080831BC060E0842F8695C8
:1012A00086958695E82FFF27E55FF54F8081992782
:1012B0009E012770307002C0969587952A95E2F7B7
:1012C00081709070882309F461E0842F0E94B50139
:1012D000CD2B39F4812F0E945302882311F00E94F4
:1012E000A008DF91CF911F9108956F927F928F9206
:1012F0009F92AF92BF92CF92DF92EF92FF920F93A5
:101300001F93CF93DF935B016C01EA013801490120
:101310008E2D0091700910917109015010400E94AA
:101320005302882309F44DC020E0780183E0EE0CDD
:10133000FF1C8A95E1F7F701E25BF94F808191810B
:10134000A281B381A816B906CA06DB0669F48681B4
:101350009781AA27BB27681679068A069B0621F47F
:10136000CE52D24009F421E0822F0E94F403882358
:1013700041F1DD24E8012196C436D1056CF4B801B1
:10138000CE010E94B603892B99F4BE01C8010E94C8
:10139000B603892B69F4EFCFF701E25BF94FA301A4
:1013A0006EE272E0848195810E941C17892B11F4F2
:1013B000B1E0DB2E8D2D0E94F403882311F00E94F2
:1013C0008B07DF91CF911F910F91FF90EF90DF90EE
:1013D000CF90BF90AF909F908F907F906F90089527
:1013E0002F923F925F926F927F928F929F92AF92D5
:1013F000BF92CF92DF92EF92FF920F931F93CF9302
:10140000582E8B01C0910A02AC2EBB248BE090E0D9
:10141000A89EF001A99EF00DB89EF00D1124E15197
:10142000F64FE0804FEF40930A021082A114B104FE
:10143000B1F58FB7F894F82E80912802833071F5BA
:1014400090910702992351F5950180910902841723
:1014500011F421E030E0232BE1F48F3F79F0282FC5
:101460003327F901EB5CF54F8081809309028F3FB0
:1014700011F4409308024083C90102C08FEF90E04D
:1014800080936F0981E08093280284E00E9490019C
:1014900005C081E08093070290932802FFBEEE2DE5
:1014A000FF27E330F10509F448C2E430F10524F4E4
:1014B000319709F4B6C047C2E430F10521F0359701
:1014C00009F423C140C28BE090E0A89EF001A99EE0
:1014D000F00DB89EF00D1124E151F64F6381748137
:1014E000858196814181528100910F0A1091100AE5
:1014F0002091110A3091120ACC2309F024C2A09144
:101500003C06EA2FE770E13009F083C0552029F04E
:10151000A87FA0933C068E2FEBC180910B0A9927E0
:101520008C010170107080FD12C06E2F8C2F0E94F4
:10153000B5010F5F154F66E0C62ED12CE12CF12CC2
:1015400020E030E040E050E06C2F84E0F3C16C2FED
:101550008091030A9927AA27BB27182F0027FF2469
:10156000EE248091040A9927AA27BB27DC0199273A
:101570008827E82AF92A0A2B1B2B8091050A99272C
:10158000AA27BB27BA2FA92F982F8827E82AF92A3C
:101590000A2B1B2B8091060A9927AA27BB27E82A2A
:1015A000F92A0A2B1B2B8091FD099927AA27BB2713
:1015B000B82FAA27992788272091FE093327442787
:1015C0005527A90133272227822B932BA42BB52B38
:1015D0002091FF09332744275527542F432F322FBB
:1015E0002227822B932BA42BB52B2091000A332783
:1015F00044275527822B932BA42BB52B8E159F05A3
:10160000A007B10708F46E2F8C2F0E94B5018C2F14
:1016100059C16650704080409040E52C0E94750989
:1016200092C18BE090E0A89EF001A99EF00DB89EBB
:10163000F00D1124E151F64FE380F480058116810D
:101640002180328060900F0A7090100A8090110AF9
:101650009090120ACC2309F076C180913C0683FF5A
:101660000CC0552009F06BC1CC24DD247601850126
:10167000A70196016C2F83E05DC16C2F80910B0A4E
:1016800080FF61E08C2F0E94B5018AEF9FEFAFEFE2
:10169000BFEF8E0D9F1DA01FB11F6C017D0100913A
:1016A00070091091710901501040852D0E9453025C
:1016B000882309F448C16C2FF80143E0EE0FFF1FA7
:1016C0004A95E1F7E25BF94F80819181A281B38174
:1016D000C816D906EA06FB0679F486819781AA27FF
:1016E000BB27681679068A069B0631F484819581AA
:1016F0002816390609F461E0862F0E94F403882336
:1017000009F421C10E94F6081EC1CC2309F01BC1B7
:1017100080913C068770813009F0EDC080910B0A02
:10172000992781709070782F552009F05FC0882329
:1017300041F08091010A9927982F88272091020A69
:1017400007C08091FB099927982F88272091FC09D1
:101750003327822B932B0817190709F047C07723EB
:10176000F1F18091030A9927AA27BB27582F442714
:10177000332722278091040A9927AA27BB27DC0157
:1017800099278827282B392B4A2B5B2B8091050A18
:101790009927AA27BB27BA2FA92F982F8827282B4C
:1017A000392B4A2B5B2B8091060A9927AA27BB2746
:1017B000282B392B4A2B5B2B2093000ABB27A52F04
:1017C000942F832F8093FF09CA01AA27BB278093F8
:1017D000FE09852F9927AA27BB278093FD098091B1
:1017E0003C06887F836080933C0681C0E0E0F0E0A7
:1017F0008091030A9927AA27BB27182F0027FF24C7
:10180000EE248091040A9927AA27BB27DC01992797
:101810008827E82AF92A0A2B1B2B8091050A992789
:10182000AA27BB27BA2FA92F982F8827E82AF92A99
:101830000A2B1B2B8091060A9927AA27BB27E82A87
:10184000F92A0A2B1B2B8091FD099927AA27BB2770
:10185000B82FAA27992788272091FE0933274427E4
:101860005527A90133272227822B932BA42BB52B95
:101870002091FF09332744275527542F432F322F18
:101880002227822B932BA42BB52B2091000A3327E0
:1018900044275527822B932BA42BB52B8E159F0500
:1018A000A007B10710F4E1E0F0E0872F9927E817CF
:1018B000F90759F460E0772309F461E080E00E94C1
:1018C000B50180E00E9484033EC080913C06887F81
:1018D000856080933C0680E090E0A0E0B0E08093DB
:1018E000000A8093FF098093FE098093FD0980E040
:1018F0000E94ED0828C0833041F4852D0E945302D8
:10190000882309F10E94A0081EC05520C1F400934D
:10191000FC09812F99278093FB0996E0C92ED12CD1
:10192000E12CF12C0BEF19E020E030E040E050E03A
:101930006C2F81E00E94E20206C0CC2321F4652DC9
:101940008C2F0E943809CF911F910F91FF90EF903B
:10195000DF90CF90BF90AF909F908F907F906F90CF
:101960005F903F902F900895962F80930A026623F0
:1019700019F40E94BC0F089560E070E0892F0E9466
:10198000F0090895EF92FF920F931F93CF93682F62
:10199000882339F090910B028FEF80930B02892FEF
:1019A00015C00091EC091091ED09C0910B020115D1
:1019B000110579F4EC2FFF27E45CF94F8081887FD3
:1019C000846080838FEF80930B028C2F0E94B40C75
:1019D00033C08C2F0E9485027C01C801019790932F
:1019E000ED098093EC09BC018C2F0E940004BC011E
:1019F000AC018C2F869586958695E82FFF27E55FAD
:101A0000F54F8081282F33278C2F9927877090706E
:101A100002C0369527958A95E2F72170307022230F
:101A200019F06E197F0902C06E0D7F1D00E010E0F5
:101A3000980185E00E94A00ECF911F910F91FF9019
:101A4000EF900895282F9091E7094093E709892F97
:101A500099278530910591F1863091057CF482308B
:101A6000910579F0833091051CF40197A1F0089558
:101A70008330910581F00497B9F008950897A4F098
:101A8000089580910A028F3F01F1222389F4CB014E
:101A90000E94EA0E089580910A028F3FB1F022233E
:101AA00039F480E090E0F4CF80910A028F3F69F032
:101AB00060E070E0822F0E94F009089580910B028F
:101AC0008F3F19F0822F0E94C20C0895CF92DF92AF
:101AD000EF92FF920F931F934091EB09842F992768
:101AE000FC01EE0FFF1FE80FF91FDF01A35CB94FE8
:101AF00020914B0630914C068D919C91119728179F
:101B0000390709F0E4C05091E709852F99278530FE
:101B1000910509F450C08630910594F48230910506
:101B200009F499C08330910524F4019709F475C034
:101B300000C18330910509F4ACC0049749F0F9C0A5
:101B4000883091050CF446C00A970CF0F2C04DC0E5
:101B500080912A0290912B0281309105C9F0813049
:101B6000910518F0029779F0E4C04091EA09442306
:101B700009F0C9C011E0C12ED12CEE24FF24870149
:101B800061E88BE0D4C0E15CF94F808184608083A0
:101B9000842F9927FC01EE0FFF1FE80FF91FE15C6E
:101BA000F94F80818260808340E060E070E0842FA4
:101BB0000E94220DBEC0E15CF94F808181FF8CC084
:101BC00080912A0290912B028D939C9380818D7F2E
:101BD00080831BC0E15CF94F808181FF06C0869540
:101BE00086958695837009F07FC0842F9927FC0124
:101BF000EE0FFF1FE80FF91FE15CF94F808181FFB5
:101C00006BC0583011F0563011F480E080C0109253
:101C1000E709852F0E94950F8CC0E15CF94F808108
:101C200080FD71C0442311F064ED01C066ED409168
:101C30002A0250912B022091650A3091660A809108
:101C4000E8099091E9096C0179018A0120E030E00E
:101C500042E0842F6CC0E15CF94F808180FD53C06D
:101C6000442311F064ED01C066ED80912A02909149
:101C70002B022091E8093091E9094091650A5091C1
:101C8000660A69017A018C0120E030E042E083E0DD
:101C90004EC0E15CF94F808180FD35C0442311F0D6
:101CA00064E801C067E840912A0250912B0220911C
:101CB000650A3091660A8091E8099091E9096C0102
:101CC00079018A0120E030E040E084E030C0E15C4E
:101CD000F94F808181FD03C00E94BB062AC0869512
:101CE00086958695837021F0842F0E94020721C07B
:101CF0008091E709843019F42D933C93EDCE8091C7
:101D0000EA09882339F085E08093290283E00E9464
:101D100090010FC0442311F063E501C065E571E057
:101D2000C72ED12CEE24FF24870140E088E00E94DA
:101D30008F021F910F91FF90EF90DF90CF90089549
:101D40000F931F938093E7091093E9090093E80923
:101D50003093660A2093650A70934C0660934B0695
:101D600050932B0240932A0280913D0690913E06AB
:101D70006817790719F41092EB0913C08091400697
:101D8000909141066817790721F481E08093EB096F
:101D900008C090E08091EB09882309F491E09093CA
:101DA000EB096050784068F481E04830580748F407
:101DB00081E00930180728F4400F511F4950514065
:101DC00020F081E00E94900102C00E94660D1F91E8
:101DD0000F9108956F927F928F929F92AF92BF92D0
:101DE000CF92DF92EF92FF920F931F93CF93DF93E7
:101DF0003C0140910A02242F33278BE090E0289F7A
:101E0000E001299FD00D389FD00D1124C151D64F2C
:101E1000AF80B884C984DA8480910F0A9091100A47
:101E2000A091110AB091120AA81AB90ACA0ADB0ACB
:101E300089809A80A114B104C104D10429F4B301AA
:101E400080E00E94F00962C0EB80FC800D811E8161
:101E5000E80EF91E0A1F1B1FBB27A12F902F8F2DE5
:101E6000BC01842F0E940004BC01A7015070E12C2A
:101E700081E0F82EE41AF50AC701AA27BB27A816A5
:101E8000B906CA06DB0608F475018881282F3327B6
:101E900024303105A9F02530310524F421303105F5
:101EA00029F01DC025303105A9F019C080910F0A15
:101EB0009091100A880E991E8701940183E00DC04D
:101EC00080910F0A9091100A880E991E8701940143
:101ED00081E003C08701930182E00E94A00E970178
:101EE0004427552780910F0A9091100AA091110A5A
:101EF000B091120A820F931FA41FB51F80930F0A7F
:101F00009093100AA093110AB093120ADF91CF9117
:101F10001F910F91FF90EF90DF90CF90BF90AF9007
:101F20009F908F907F906F9008958093E7098091A4
:101F30003F06982F927081FD03C09093EB090CC06F
:101F40008091420681FD04C081E08093EB0904C0CA
:101F500080E00E94900108958091EB099927FC018F
:101F6000EE0FFF1FE80FF91FE15CF94F8081877EBC
:101F700080830E94660D0895EF92FF920F931F9346
:101F800040910A02242F33278BE090E0289FF00134
:101F9000299FF00D389FF00D1124E151F64F8081FB
:101FA00099278230910519F0039779F012C0EE2439
:101FB000FF24B701842F0E94000487019701A70125
:101FC000BC0184E00E94A00E1DC087E00E94950F16
:101FD00019C0242F33278BE090E0289FF001299F20
:101FE000F00D389FF00D1124E151F64F818192815F
:101FF00010920F0A1092100A1092110A1092120AEF
:102000000E94EA0E1F910F91FF90EF900895CF92DA
:10201000DF92EF92FF920F931F93CF93DF93682F7E
:1020200077276530710509F4DAC166307105B4F4BB
:102030006230710581F1633071053CF46115710501
:1020400031F16130710529F134C36330710509F450
:1020500065C06430710509F482C12BC36830710515
:1020600009F4DFC2693071054CF46630710509F47A
:1020700093C26730710509F4D0C21BC36930710582
:1020800009F4DAC26A30710509F4F3C212C340E000
:1020900062C140E03BC0809129028630D9F55D9A4B
:1020A0005D980000000020E030E089B19927969506
:1020B00087959695879580FD02C021E030E0022F3C
:1020C0001127139A0E944A0480918609002359F02F
:1020D0009927FC01EE0FFF1FE80FF91FE15CF94F94
:1020E0008081877ED3C09927FC01EE0FFF1FE80F88
:1020F000F91FE15CF94F9081892F86958695869529
:102100008370823010F49D7FDEC04AE060E070E0B2
:1021100081E022C1139A0E944A04D6C0809129020C
:1021200099270597029728F55D98139887ED0E94E7
:102130000F045D98E2E0F0E0CF010197019601976E
:10214000E1F789B19927969587959695879580FDB2
:102150000EC027E030E05D9A5D98CF0101970196AF
:102160000197E1F72150304037FFF5CFEACF82E009
:1021700055C260E0C62EE0908209F09083098091FC
:10218000440690914506892B09F43DC0C7E1DAE089
:10219000F1E0DF2E8091FA09082F11270C5F1F4F05
:1021A0005D98139883E0D81629F4C7010E94A7030D
:1021B0007C0116C081E0D81679F4C9900150104016
:1021C000E1F4D0902902C0918209D0918309009155
:1021D00044061091450611C082E0D81629F469938F
:1021E0000150104051F40EC084E0D81659F4011586
:1021F000110541F0C990015010408C2D0E940F0430
:10220000682FD0CF139A8091290210922902A82F0B
:10221000BB27A830B105F9F0A930B10574F4A3309B
:10222000B105B1F0A430B10524F4129709F490C0BF
:1022300040C2149709F47FC03CC2AA30B10509F42A
:1022400046C0AA30B10524F11B9709F459C031C228
:1022500040E0B70180C081E08093EA098091EB09FA
:10226000282F3327C901880F991F820F931FFC0164
:10227000E35CF94F20914B0630914C06318320836B
:10228000FC01E15CF94F808183608B7F80831CC0FF
:1022900081E08093EA098091EB099927FC01EE0F18
:1022A000FF1FE80FF91FE15CF94F90819360892FC0
:1022B00086958695869583708F5F8370880F880FCB
:1022C000880F937E982B90830E94660DF2C181E067
:1022D0008093EA09809186099927FC01EE0FFF1F80
:1022E000E80FF91FE15CF94F8081816080831197CD
:1022F00011961197E1F786E08093290283E08EC161
:1023000081E08093EA098091EB09282F3327C901E6
:10231000880F991F820F931FFC01E35CF94F2091F6
:102320004B0630914C0631832083FC01E15CF94F70
:10233000808186600CC08091EB099927FC01EE0F2B
:10234000FF1FE80FF91FE15CF94F8081857E8083D4
:1023500040E060E070E0842F0E94220DAAC18FB798
:10236000F894282F332780916F098093070283E028
:10237000809328022FBF80910702882309F099C11A
:1023800010920A029091EF09913031F580913C064C
:10239000869586958695C82FC17080FD1DC06C2FCF
:1023A00080910B0A80FF692F8C2F0E94B5018091CC
:1023B0003C068770833081F4C0930B028C2F0E94FF
:1023C00085029093ED098093EC098C2F0E94C20C3A
:1023D0008FEF80930A026DC10E94BC0F6AC1B0E00A
:1023E0001B2FCB2F8FB7F894382FB0934D064B2F60
:1023F00080910E0A882309F441E02C2F883009F4DB
:1024000021E09C2F893009F491E0222311F49923D3
:1024100059F0C0930E0A8091130AE82FFF27EE0FA0
:10242000FF1FE358F64FC0833FBF222311F49923C7
:1024300011F1809178098F5F809378098091160A55
:10244000833499F48FB7F894282F8091200A9091C3
:10245000210A891741F0892F8F5F8093210A8630E6
:1024600010F01092210A2FBF09C0B0E0222309F416
:10247000B1E011E003C0442309F45BC08FB7F894C6
:102480009927509127028FBF552349F08FB7F894B1
:10249000282F33278AE080930E0A2FBF4AC08FB7B8
:1024A000F8949927A0917D0940917F098FBF8FB73C
:1024B000F894282F33279091200A8091210A9817A9
:1024C00009F451E02FBF552351F5AA2341F58FB7E9
:1024D000F894682F772782E080937D094A2F8FB781
:1024E000F894282F33275A2F9091200A8091210A9F
:1024F000981709F451E02FBF552339F48091210A30
:10250000E82FFF27E05EF54F428140937E096FBFC1
:1025100083E48093160AA093130AC1E00AC04150D5
:10252000423038F485E48093160A81E08093130AE0
:10253000C82F112349F08FB7F8949927B0931E0242
:102540008FBF89E00E94900180910E0A8A3019F4B1
:102550000E946202AEC0CC2309F4ABC08FB7F894DE
:10256000282F33271092730910927209109276095E
:1025700081E080930E0A2FBF0E94AB06882309F4E6
:1025800098C08FB7F894282F332789E080930E0ADC
:102590002FBF0E94DF018DC08091C1008F7B80938F
:1025A000C1008091C1008F778093C10010923704E1
:1025B00010924A068091C10088608093C10080918A
:1025C000C10080618093C1008091C10080688093C8
:1025D000C10080913C06C82FC77019F081E090E0DF
:1025E00019C0887F816080933C066C2F8C2F0E94DD
:1025F000B50136E0C32ED12CE12CF12C0BEF19E004
:1026000020E030E040E050E06C2F84E00E94E202E5
:1026100080E090E00E9453024CC088E00E9490014C
:1026200048C08091C100877F8093C1008091C10024
:102630008F7E8093C1003DC0109222021092210231
:102640008FB7F894992720911E028FBF80911D02A9
:10265000811123E080911C02E0912302F091240279
:10266000882339F583858B3821F5222311F11298BF
:1026700020C08FB7F8949927209118023091190241
:10268000409143068FBF8FB7F894E42FFF27EE0FDA
:10269000FF1FEE5FFD4F318320839091260244237C
:1026A00011F09B7F01C09D7F9093260210921B0228
:1026B0008FBFDF91CF911F910F91FF90EF90DF902F
:1026C000CF9008958091280A8F3FD1F09091280AE9
:1026D0008091280AE82FFF27E75DF54F80818093DE
:1026E000280A8091280A8F3F11F48093340A892F99
:1026F0009927FC01E75DF54F2FEF20839C0102C075
:102700002FEF30E02F3F19F480E090E00895822F02
:102710000E94071081E090E00895CFEFD1E2DEBF84
:10272000CDBF8FB7F894F82E4BE050E06FEF70E01C
:1027300089E29AE00E9429178FEF8093280A8093FC
:10274000340A81E08093810080E28093B60083E0C8
:102750008093B10020918400309185004AE78091F8
:102760008400909185008217930708F441509C01E2
:102770004423A9F79091B2008091B2008917E1F348
:1027800020918400309185009091B2008091B20038
:102790008917E1F38091840090918500821B930B4F
:1027A000409655E0969587955A95E1F790937C0968
:1027B00080937B091092B1008091B10080938100D9
:1027C000809181008093B6001092B2001092850033
:1027D000109284008FEF87BB87B386BB8091B600D1
:1027E000282F33272571307021153105B9F70A9A42
:1027F000099A089A129A119A109A28B98FEF87B9F4
:102800000C98149830939500209394008091710057
:1028100081608093710080919100887F82608093B5
:1028200091000B9A139A5D98559A5B9A539A5A980D
:10283000529881E085BF0E946213C82FDD27CC2308
:10284000D1F712E006E080917B0990917C09AA27DC
:10285000BB274CE0880F991FAA1FBB1F4A95D1F7D1
:10286000BC01CD0120E031EE40E050E00E94441771
:10287000DA01C90101978093C400292F33272093DF
:10288000C5001093C0000093C200C093C10040E097
:1028900050E08093CC002093CD001093C8000093AB
:1028A000CA00C093C90084E490E0909375098093B6
:1028B0007409C0937D09C0937F09C0930E0AC09329
:1028C0007609C093160AC093780950937309409310
:1028D0007209C0934D06C093130AC0933304C0938A
:1028E0003204C0938109C093EE09C093080AC093D3
:1028F000770950932F0440932E04C093210AC0936C
:10290000200A8FEF8093350A1092E70981E08093C7
:10291000EA0980E098E09093410680934006909306
:102920003E0680933D068091420690913F06812BA2
:10293000912B827E80934206927E90933F060E9466
:1029400062138823E1F7FFBE789480E090E00E9454
:102950005704C0E0D0E08E01085C1B4F21960E9416
:102960009904892F9927F80180832196F2E0C030DD
:10297000DF0788F386E00E9490018FB7F894482F14
:1029800045C080916E00992786709070892B81F4E4
:1029900080916F0099278E729070892B49F48091F5
:1029A0007100282F33272E7230702115310519F050
:1029B00020E030E018C00CB407FC15C08091C100C5
:1029C000807C89F48091C900807C69F48091BC008E
:1029D00082FD09C080917A0087FF03C021E030E0CA
:1029E00002C025E030E0E5E02E1708F4E22F83B7BF
:1029F000807FFF27E453FF4F9491892B816083BF31
:102A000078948895F89483B78E7F83BF8091280A45
:102A10008F3FC9F09091280A8091280AE82FFF275C
:102A2000E75DF54F80818093280A8091280A8F3FC7
:102A300011F48093340A892F9927FC01E75DF54F43
:102A40002FEF208302C08FEF90E08F3F09F499CFE2
:102A50004FBF0E94071091CF1F920F920FB60F9297
:102A600011242F933F934F935F936F937F938F9393
:102A70009F93AF93BF93EF93FF938091C00087FF25
:102A800042C06091C600E091090AF0910A0A3097AD
:102A900019F18091790990917A09E80FF91F608303
:102AA000019690937A098093790920918709309152
:102AB00088098217930738F110920A0A1092090ABE
:102AC000809137048330F9F08091C1008F77809333
:102AD000C1001092370417C06E3719F460E081E02E
:102AE00010C0809116026D3721F482608093160227
:102AF0000AC081FF05C08D7F8093160280E268279F
:102B000080E00E94EF04FF91EF91BF91AF919F9100
:102B10008F917F916F915F914F913F912F910F9086
:102B20000FBE0F901F90189578941F920F920FB6BA
:102B30000F9211241F932F933F934F935F936F93A3
:102B40007F938F939F93AF93BF93CF93EF93FF9315
:102B500020913004309131048091140A9091150A2B
:102B60002817390780F4E091670AF091680AE20FAC
:102B7000F31F2F5F3F4F3093310420933004808147
:102B80000E944E06D4C01092680A1092670A1092F2
:102B90004A068091C1008F7B8093C100809116020C
:102BA00080FF0EC08E7F8093160280916E09809305
:102BB000070A61E070E087E09AE00E945C06B7C017
:102BC00080910E0A99278430910509F492C08530CE
:102BD00091054CF48230910509F1833091059CF503
:102BE000019789F09FC08630910509F490C0863026
:102BF00091050CF485C08730910509F48FC00897C2
:102C000009F493C08FC08091160A0E949006C82FC5
:102C100083E080930E0A6091160A0AC080917809B9
:102C20000E949006C82F83E080930E0A6091780975
:102C300080917209909173090E94A7039093730980
:102C4000809372096DC08FB7F894182F8091130A82
:102C5000E82FFF27EE0FFF1FE258F64F80810E94FA
:102C60009006C82F8091130AE82FFF27EE0FFF1F51
:102C7000E258F64F608180917209909173090E9429
:102C8000A7039093730980937209809176098F5FEF
:102C9000809376098091130A813031F580911F026B
:102CA000E0912302F0912402E80FF11DE081982FBA
:102CB0009F5F90931F0280912002891730F482E079
:102CC00080937F0980E090E002C08E2F9927E82F43
:102CD000FF2780917F09823039F0809176098F3FFC
:102CE00019F0E093800903C084E080930E0A1FBFAF
:102CF00017C0809172090E949006C82F85E00BC012
:102D0000809173090E949006C82F86E004C00E943B
:102D1000AB06C82F87E080930E0A02C088E003C08C
:102D2000CC2329F089E080930E0A0E94DF01FF91F5
:102D3000EF91CF91BF91AF919F918F917F916F91C3
:102D40005F914F913F912F911F910F900FBE0F9068
:102D50001F9018951F920F920FB60F9211248F9308
:102D60008091C80087FF02C08091CE008F910F90A4
:102D70000FBE0F901F90189578941F920F920FB668
:102D80000F9211240F900FBE0F901F9018957894FA
:102D90001F920F920FB60F9211240F900FBE0F903B
:102DA0001F90189578941F920F920FB60F921124CE
:102DB0000F900FBE0F901F90189578941F920F924E
:102DC0000FB60F9211240F900FBE0F901F90189501
:102DD00078941F920F920FB60F9211248F939F93A6
:102DE00080919400909195009F918F910F900FBECC
:102DF0000F901F90189578941F920F920FB60F9214
:102E000011242F933F938F939F938FB7F894282F7C
:102E100033278091380690913906019690933906B0
:102E2000809338062FBF9F918F913F912F910F90E4
:102E30000FBE0F901F901895FB01DC0104C08D910F
:102E40000190801921F441505040C8F7881B990B1C
:102E50000895DC0101C06D9341505040E0F70895A2
:102E6000AA1BBB1B51E107C0AA1FBB1FA617B707B0
:102E700010F0A61BB70B881F991F5A95A9F78095CC
:102E80009095BC01CD010895A1E21A2EAA1BBB1B8F
:102E9000FD010DC0AA1FBB1FEE1FFF1FA217B30726
:102EA000E407F50720F0A21BB30BE40BF50B661F3C
:102EB000771F881F991F1A9469F760957095809500
:0E2EC00090959B01AC01BD01CF010895FFCF9D
:102ECE0089098909B809FF01FFFFFFFF020001020E
:062EDE00000102010100E9
:00000001FF
