S01700006275696C642F697269732F6D61696E2E7372656343
S11300000C947F000C949E000C949E000C949E0013
S11300100C949E000C949E000C949E000C949E00E4
S11300200C949E000C949E000C949E000C949E00D4
S11300300C949E000C94A1170C949E000C94E91748
S11300400C943A170C94ED160C9424170C942F1757
S11300500C9472170C949E000C949E000C949E00B9
S11300600C94FD170C949E000C949E000C949E001E
S11300700C949E000C94B5180C949E000C949E0055
S11300800C949E000C949E000C949E000C949E0074
S11300900C949E000C949E000C949E000C949E0064
S11300A00C949E000C949E000C949E000C949E0054
S11300B00C949E000C949E000C949E000C949E0044
S11300C00C949E000C949E000C949E00B10FE50FBE
S11300D037105610CA1081119611F111051296129B
S11300E0BF12D012E412E612EA12EE12F412061350
S11300F018134E138D14B31400020E060C041124AD
S11301001FBECFEFD1E2DEBFCDBF12E0A0E0B2E070
S1130110EAE8F6E300E00BBF02C007900D92AE30B0
S1130120B107D9F714E0AEE0B2E001C01D92AB30E4
S1130130B107E1F70E9404150C94441B0C940000D1
S11301408FB7F894992708958FBF08958FB7F894BF
S1130150282F332782B194E0892782B92FBF0895CD
S11301608FB7F894282F332782B192E0892782B978
S11301702FBF08958FB7F8949927209109023091E1
S11301800A028FBFC9010895982F8FB7F894282FBA
S1130190E92FFF27E451FC4F80818F3FB1F4809118
S11301A00404891791F08091E6038F3F19F490932A
S11301B0E60307C080910404E82FFF27E451FC4FB5
S11301C090839093040480E001C085E02FBF9927B9
S11301D00895EF92FF920F931F93CF93DF93082F0D
S11301E07B01EA01122F40E050E0FE01319681814B
S11301F09927982F882729813327822B932B87745B
S11302009C7C8154984811F441E050E0242F33271A
S1130210222339F481E498E8898388E890E0818393
S113022028A70E94BA008887892F992789878FB7C2
S1130230F8949927209108028FBF822F99278C83E5
S11302401D820B87EE828F2D99278F838FE38A87F8
S11302508091E3038F5F8093E3038B831D3118F058
S113026086E090E017C090919C03992319F085E0F3
S113027090E010C0135F1883D0939403C09393034A
S113028081E080939C0390930A0483E00E94C4005D
S113029080E090E09927DF91CF911F910F91FF901B
S11302A0EF9008951F93CF93DF93142FC82FDD276A
S11302B0FE01EC0FFD1FEB53FD4F118210821092D3
S11302C0000220E08091C5029091C602892B19F0AA
S11302D08091E50380FD21E010920002222319F0B1
S11302E081E080930002809100028823C9F4E091A8
S11302F0C502F091C60287819927782F66278681E7
S11303009927682B792B80818D509927282FAF014D
S113031083850E94E900882319F085E10E94C400C6
S1130320CD2B49F4112319F40E94B00002C00E949D
S1130330A6001092BC03DF91CF911F910895282F3E
S1130340869586958695E82FFF27ED5FFB4F2770EE
S113035081E090E002C0880F991F2A95E2F720817E
S11303602823822F99270895982F8FB7F894282F40
S11303703327422F80910402891741F48091180297
S1130380833021F42FBF81E090E008954FBF80E0D7
S113039090E00895282F869586958695E82FFF2767
S11303A0E554FC4F277081E090E002C0880F991F4C
S11303B02A95E2F720812823822F99270895282F50
S11303C0869586958695E82FFF27EC53FD4F277079
S11303D081E090E002C0880F991F2A95E2F72081FE
S11303E02823822F992708955091D303552311F47C
S11303F081E001C08FE1982F20E030E0E22F552307
S113040009F428E033278FB7F894582F8091020419
S11304108E7F80930204322F20917C0060E070E094
S1130420822F8295869586958370E81749F4892FE3
S11304308850863118F42F71921711F461E070E03E
S1130440862F880F209102042D7F282B9F71892FDE
S1130450880F880F2378282B20930204892F99274B
S113046080937C00406C21702295220F207E4F7D6A
S1130470422B4861383059F5809197039091980345
S113048021E08638920718F087E090E01FC0833C93
S1130490910518F086E090E019C08136910518F0B6
S11304A085E090E013C08033910518F084E090E07B
S11304B00DC08831910518F083E090E007C00C97D7
S11304C018F082E090E002C080E090E0382F3770AE
S11304D0487F432B842F992780937A005FBF089528
S11304E0282F869586958695E82FFF27E05FFC4F99
S11304F0277081E090E002C0880F991F2A95E2F7E7
S113050020812823822F992708950F931F93CF9337
S1130510DF93982F8FB7F894082F809118028330B7
S113052009F054C080910402891709F04FC08091EA
S11305301003882309F03EC081E090E0892BE9F59F
S113054010911902C12FDD272196C230D10511F473
S1130550C0E0D0E08C2F0E947002882381F4812FA8
S11305609927C817D90781F78FEF90E080938D03FF
S113057081E08093180289E00E94C40023C08C2F7C
S1130580869586958695E82FFF27E05FFC4F2C2FF4
S1130590277081E090E002C0880F991F2A95E2F746
S11305A0982F9095808189238083C09319028C2F82
S11305B09927DCCF80E090E0C1CF82E080930402F1
S11305C0109218020FBF80E090E003C00FBF81E0DB
S11305D090E0DF91CF911F910F9108951F93CF93D6
S11305E0DF93C82F8FB7F894282F3327122F8091C9
S11305F01802882301F18C2F0E9470028823B1F421
S11306008C2F869586958695E82FFF27E05FFC4F13
S1130610C77081E090E002C0880F991FCA95E2F785
S11306202081282B208380E090E002C085E090E0C8
S11306301FBF992725C081E080931802C0938D03C2
S11306402FBF8FB7F894C82FDD279C2F8091040209
S1130650823099F480911802813021F489E00E945B
S1130660C40009C0823049F480918D038093040250
S113067083E080931802CFBF01C09FBF80E090E069
S1130680DF91CF911F9108951F93CF93DF93C82FCC
S11306908FB7F894282F3327122F80910E028823C6
S11306A001F18C2F0E94DF018823B1F48C2F8695F1
S11306B086958695E82FFF27EC53FD4FC77081E0A0
S11306C090E002C0880F991FCA95E2F72081282B79
S11306D0208380E090E002C085E090E01FBF99276E
S11306E02FC081E080930E02C0931D032FBF8FB7EC
S11306F0F894282F332780917A00806880937A00B9
S11307002FBF8FB7F894C82FDD279C2F809101024B
S1130710813099F480910E02813021F482E10E94AB
S1130720C40009C0823049F480911D038093010202
S113073083E080930E02CFBF01C09FBF80E090E0B2
S1130740DF91CF911F910895EF920F931F93AE2DD8
S113075099E0899FF0011124E855FD4F40835183AE
S1130760628373830483158326833783A170808512
S11307708E7F8A2B8260808781E00E94C4001F9153
S11307800F91EF90089580911A02882319F480E064
S113079090E0089581E090E00895882319F08CB5E5
S11307A0806402C08CB58F7B8CBD08951F93CF935A
S11307B0DF93982F40E08FB7F894C82F80911A02E6
S11307C0823089F580910502891769F520E030E0CF
S11307D0809107028F3F11F421E030E0232BE9F4EC
S11307E08F3F81F0282F3327F901E85FFB4F808189
S11307F0809307028F3F11F4809306028FEF80836A
S1130800C90102C08FEF90E08093C90381E0809317
S11308101A0288E00E94C40005C08FEF809305028D
S113082040931A0241E0CFBF413019F480E090E0D8
S113083002C081E090E0182F8FB7F894C82FDD270D
S11308400E94C3039927882311F40E94CD03CFBFCC
S1130850812F9927DF91CF911F9108950F931F93B3
S1130860CF93DF93FC01C0E0D0E082819927382F39
S1130870222781819927282B392B822F992780724F
S113088090708823A1F027743C7C2154384879F473
S113089087819927182F002786819927082B192BE0
S11308A00E94BA000817190711F4C1E0D0E0CE0184
S11308B0DF91CF911F910F910895FC019A01AB0133
S11308C080A5826080A723A734A745A756A70895CB
S11308D08FB7F894682F77278091D9029091DA0224
S11308E0A091DB02B091DC0220918400309185005C
S11308F0B09B07C00196A11DB11D209184003091C9
S1130900850044275527DC0199278827822B932BC0
S1130910A42BB52B6FBFBC01CD010895AC018FB7DB
S1130920F894E82F2091840030918500C901841B3C
S1130930950B03968617970720F0B9016D5F7F4FDB
S113094002C0640F751F6115710511F461E070E058
S113095061507040709389006093880082E086BB88
S113096080916F00826080936F00EFBF08959C01B7
S113097081E08093D0038093DE0280918400909183
S11309808500B9010E948E040895FC0190A5662398
S113099011F0916001C09E7F90A70895DC01FC01D5
S11309A08191FD019181282F332795FF03C0C9014F
S11309B08B960895C90140960895CF93C82F882334
S11309C081F48091CE029091CF020E94CE042091B6
S11309D0900330919103280F391F30939103209392
S11309E090038FB7F8949927C093D4038FBF83E003
S11309F00E94C400CF9108951F93CF93BC018091AE
S1130A00BA03282F3327F901E20FF31FE154FC4FF7
S1130A10808191818617970799F4F901E753FD4F77
S1130A2080819091DD02891711F4C90168C0892F72
S1130A308F5F8093DD028083C0E846C0CA015FC037
S1130A40C0E01C2F3C2FA9ECB2E040E050E0FA01DA
S1130A50E40FF51FE154FC4F808191812091DD0268
S1130A608617970761F43093BA038C91821731F398
S1130A70822F8F5F8093DD028C93C0E80CC08C9131
S1130A80281BC21710F4C22F132F3F5F4F5F5F4F15
S1130A9011963530E0F23530B9F41093BA03A12F32
S1130AA0BB27FD01EA0FFB1FE154FC4F71836083F8
S1130AB0FD01E753FD4F8091DD028F5F8093DD02DE
S1130AC08083A857BC4F1C922091DD02822F992766
S1130AD08F7790708F37910579F4CF3768F0922F24
S1130AE09078E9ECF2E034E080818F6782139083A0
S1130AF03150319637FFF8CF8091BA039927CF91BF
S1130B001F910895EF92FF920F931F937C018FB76B
S1130B10F89499270091DB031091DC030F5E1E4FBC
S1130B201093DC030093DB03015111408FBF86E077
S1130B300E94C400C801B7010E94DA1A8A5D9E4F60
S1130B401F910F91FF90EF9008958FB7F894982F0D
S1130B508091B2002091D5023091D6024091D70203
S1130B605091D802B99B11C08091B300280F311D58
S1130B70411D511D8091B200280F311D411D511D91
S1130B802F5F3F4F4F4F5F4F04C0280F311D411D52
S1130B90511D9FBFCA01B90108950F931F93CF93AD
S1130BA0DF9310E08FB7F894482F5527042F209136
S1130BB0B3009091B20087B3291711F081FF02C0EE
S1130BC04FBF71C0809196038823B1F10E94A5059F
S1130BD0DC01CB01C091D503D091D603E091D703BA
S1130BE0F091D8038C1B9D0BAE0BBF0B2091160309
S1130BF030911703409118035091190382179307FA
S1130C00A407B50720F01093960311E015C02C0F2C
S1130C103D1F4E1F5F1F8091D5029091D602A09177
S1130C20D702B091D802281B390B4A0B5B0B273E25
S1130C3031054105510510F086EE05C0223010F44F
S1130C4082E001C0822F682F61508091B60083FD3D
S1130C50FCCF8091B200861709F46F5F2091D50212
S1130C603091D6024091D7025091D802DA01C901DD
S1130C70860F911DA11DB11D0196A11DB11D8217E5
S1130C809307A407B50718F46091D5026095809185
S1130C90B60083FDFCCF6093B3000FBF112319F09E
S1130CA080E00E94C400DF91CF911F910F910895BD
S1130CB0EF92FF920F931F937B018C018FB7F894EF
S1130CC0682F772781E080939603E092D503F09212
S1130CD0D6030093D7031093D803209316033093BD
S1130CE0170340931803509319036FBF0E94CD0557
S1130CF01F910F91FF90EF900895AF92BF92CF9202
S1130D00DF92EF92FF920F931F93F82E5A016B011B
S1130D100E94A505DC01CB01EE2496018501AC01FE
S1130D20BD018F2D0E94A4031F910F91FF90EF909E
S1130D30DF90CF90BF90AF900895882319F08CB5C1
S1130D40806802C08CB58F778CBD0895EF92FF92B6
S1130D501F9310E0812F0E94CD038FB7F894E82EE3
S1130D60FF24229A2398219A8CB580618CBD812F0F
S1130D700E949D068DB581608DBD8CB5877F8CBD2D
S1130D808CB58B7F8CBD8CB58E7F8CBD81E00E9431
S1130D90CD03EFBE1F91FF90EF9008951F93CF9363
S1130DA0DF93182F8FB7F894C82FDD270E94C30351
S1130DB0882311F40E94A606CFBF8FB7F894C82FDA
S1130DC0DD272C2F80911A02882361F481E080931F
S1130DD01A021093C90388E00E94C400CFBF80E0C8
S1130DE090E01FC0E12FFF27E85FFB4F80818F3F1A
S1130DF0A1F4E0910602E11781F0809107028F3F90
S1130E0019F41093070204C0FF27E85FFB4F108317
S1130E101093060280E090E002C085E090E02FBFCE
S1130E2099279927DF91CF911F910895CF938FB779
S1130E30F894282F3327922F80910502882341F4B8
S1130E4080911A02823021F42FBF81E090E003C028
S1130E509FBF80E090E0892BF1F48FB7F894282F9E
S1130E60332790911A02992349F482E080931A025D
S1130E70909305022FBF80E090E003C02FBF81E074
S1130E8090E09927C82F882311F40E94A606CC234A
S1130E9029F4209A289A81E090E005C080E00E941D
S1130EA0CE0680E090E0CF910895CF92DF92EF924A
S1130EB0FF920F931F93CF93DF936C0180918E0366
S1130EC0882309F098C08091B903853009F093C054
S1130ED00E941607882309F48EC080911103882389
S1130EE009F089C0F601B896E60188A584709927AF
S1130EF0882311F082818F70682F80911C036817FA
S1130F0089F060931C03962F9068289885EC8EBD19
S1130F100DB407FEFDCF8EB59EBD0DB407FEFDCF0B
S1130F208EB5289A40E050E0E60121968981992700
S1130F30982F8827F60121813327822B932B8774DE
S1130F409C7C8154984811F441E050E0452B01F118
S1130F50289886E88EBD0DB407FEFDCF8EB51EBC65
S1130F600DB407FEFDCF8EB5289A282F33272F7195
S1130F70307090911B0380910904890F912D911D6C
S1130F8053E0959587955A95E1F7821793079CF15D
S1130F90289882EC8EBD0DB407FEFDCF8EB589E096
S1130FA08EBD0DB407FEFDCF8EB5289A0E9468044D
S1130FB07B018C01F60180A584FF06C080818151EC
S1130FC0E80FF11D3C9602C0E0E0F0E0289881E8CB
S1130FD08EBD0DB407FEFDCF8EB51EBC0DB407FE4D
S1130FE0FDCF8EB5289A99278F719070099731F0AB
S1130FF087E08093B90385E090E0A4C08FB7F894AC
S113100099272F9A20918400309185002E553F4FC7
S11310108FBF2F98289880E68EBDD6018C91992792
S1131020682F982F0DB407FEFDCF8EB59EBD62507C
S113103097E0691708F4962F691B49910DB407FED0
S1131040FDCF8EB54EBD9150C1F72E193F09C90190
S1131050AA2797FDA095BA2FE80EF91E0A1F1B1F99
S11310603097B9F080819181A281B3818E199F0953
S1131070A00BB10B8383292F3A2F4B2F55272283A3
S11310809D014427552721838B2F9927AA27BB2706
S1131090808399910DB407FEFDCF8EB59EBD61503E
S11310A0C1F70DB407FEFDCF8EB5289A289882ECBF
S11310B08EBD0DB407FEFDCF8EB586E08EBD0DB49A
S11310C007FEFDCF8EB5289A309779F18081992754
S11310D0AA27BB27B82FAA27992788272181332736
S11310E044275527A90133272227822B932BA42B8E
S11310F0B52B2281332744275527542F432F322FD2
S11311002227822B932BA42BB52B2381332744270F
S11311105527822B932BA42BB52B8E0D9F1DA01F1F
S1131120B11F80839183A283B383B801A701C60151
S11311300E945D0486E08093B90384E080938E036B
S113114080E090E0DF91CF911F910F91FF90EF909D
S1131150DF90CF9008951F93182F81E00E94CD0354
S11311601EBD0DB407FEFDCF8EB599271F910895BE
S1131170CF92DF92EF92FF920F931F93CF93DF935F
S113118080911103882309F417C10E94160788234C
S113119009F412C18FB7F8949927C091DF02D09156
S11311A0E0028FBF1092110328988FE88EBD0DB412
S11311B007FEFDCF8EB51EBC0DB407FEFDCF8EB568
S11311C0289A982F082F112700FF0CC080918E03B6
S11311D0833011F0873031F485E08093B90388E0DF
S11311E080938E0302FF58C080918E03863011F4E1
S11311F010928E0380918E03882309F04DC09430A1
S1131200D1F5289886E88EBD0DB407FEFDCF8EB5C6
S11312101EBC0DB407FEFDCF2EB5289A2F71809108
S11312200904982F96959695322F391B830F809336
S11312300904E091D002F091D10280A58B7F8860EF
S113124080A722A70E9468049B01AC01C61BD70B90
S11312502797CE01AA2797FDA095BA2F820F931F37
S1131260A41FB51FAC01BD018091D0029091D102A1
S11312700E945D040EC0E091D002F091D10280A5DD
S1131280877F80A7E091D002F091D10280A58D7F65
S113129080A785E080938E0303FF8EC080918E0328
S11312A0843009F057C085E08093B90310928E030F
S11312B080911A03833019F410921A037DC0E091CF
S11312C0D103F091D20340E050E082819927382F76
S11312D0222781819927282B392B822F99278072E5
S11312E09070882391F027743C7C2154384869F429
S11312F087819927982F882726813327822B932B40
S11313008F5F9F4F11F041E050E0452BD9F020E072
S113131030E08091DE02882311F421E030E0232BB9
S113132089F012E01093D00381E08093DE02809173
S113133084009091850061EE72E00E948E04109307
S11313401A033AC010921A031092920380E00E948A
S1131350DD0432C0853081F58091B903873091F482
S1131360289882EC8EBD0DB407FEFDCF8EB586E0C5
S11313708EBD0DB407FEFDCF8EB5289A85E080930F
S1131380B90317C0289886E88EBD0DB407FEFDCFBB
S11313908EB51EBC0DB407FEFDCF8EB5289A8F7195
S11313A090911B03292F26952695821B980F9093C5
S11313B01B0389E080938E0390918E03992309F493
S11313C093C2993009F0D2C1289880E28EBD0DB441
S11313D007FEFDCF8EB51EBC0DB407FEFDCF8EB546
S11313E09927A82F833008F4CFC08A3208F0CCC0E4
S11313F01EBCE091D002F091D10280836091D002B2
S11314007091D1026F5F7F4FEE24FF24A25027E03A
S1131410A21708F42A2FA21BFB016F5F7F4F0DB4A4
S113142007FEFDCF8EB51EBC99278083A7014827F0
S1131430042E4295407F4025052E542F42954F702F
S11314400426469554274527440F440F440F40254E
S11314507A01215009F70091D0021091D10240E0A5
S113146050E0F8018181282F332727703070223013
S1131470310511F441E050E055274423E1F040E008
S113148050E080911A038230A1F4C090D103D0902F
S1131490D203EA01F8019381F6018381891729F4C3
S11314A02230310511F4C1E0D0E0CD2B11F041E040
S11314B050E0CA010DC08FB7F894282F3327942F1A
S11314C08091CD03833008F491E02FBF892F9927B1
S11314D0882309F459C0A150AF3FF1F0FB016F5FBD
S11314E07F4F0DB407FEFDCF8EB51EBC99278083B8
S11314F097012827022E2295207F2025032E322FA4
S113150022952F700226269532272327220F220F99
S1131510220F20257901DFCF0DB407FEFDCF8EB554
S11315201EBC97012827022E2295207F2025032EFA
S1131530322F22952F700226269532272327220F39
S1131540220F220F20250DB407FEFDCF8EB51EBC41
S11315502827022E2295207F2025032E322F229524
S11315602F700226269532272327220F220F220FBF
S113157020257901E091D002F091D1020DB407FE4B
S1131580FDCF8EB581A703C0B1E0EB2EF12C289AD4
S1131590A5E0DA2ED092B90310928E03E114F1047F
S11315A009F096C10091D0021091D1029701F8017F
S11315B08181992787709070029711F421E030E0BF
S11315C0C22FDD2780911A038230A9F480916F0025
S11315D08D7F80936F001092DE026C2F8091D10377
S11315E09091D2030E94C50410921A0310929203A0
S11315F080E00E94DD04CC2309F08CC0C8010E9465
S11316002E048823A9F0D092510382E090E08093C5
S11316105203E0925303F80183818093540381E5DC
S113162093E00E945507882319F483E080931A03FA
S1131630C0918400D0918500C8010E942E048823A3
S113164011F0C45EDC4FD093CC03C093CB038091E4
S1131650840090918500C81BD90BCE011C161D0671
S11316606CF420919203222331F40E94B70480E8A1
S11316708093920303C0206820939203C8010E94C0
S1131680CE0420919A0330919B03280F391F309385
S11316909B0320939A03E801289689819927382F80
S11316A02227F80180859927822B932B0E94FC0422
S11316B0E82FFF27E857FC4F908191FD09C08091E6
S11316C09903803128F48F5F80939903926090830B
S11316D089819927382F2227F80180859927822B21
S11316E0932B0E94FC04F8019381A82FBB27FD01D2
S11316F0E857FC4F808180FF0FC0FD01E951FC4F8A
S11317008081981759F48091DA038F3F19F08F5F25
S11317108093DA03C80125C081608083A951BC4F3E
S11317209C938FB7F894F82E8091CD03833010F0FA
S1131730E80115C0E091BD03E80FE33008F0E35081
S1131740FF27EE0FFF1FE058FC4FC081D1811183AA
S113175000838F5F8093CD0384E00E94C400FFBEAA
S1131760CE019093D1028093D002B2C0892F8150D0
S1131770833008F08CC081508230F0F44091B9037A
S11317804130D1F420E030E08091DE02882311F46E
S113179021E030E0232B81F02F9883E08093D00365
S11317A04093DE0280918400909185006BE273E0A7
S11317B00E948E0482E056C0933089F58091B9036B
S11317C0833069F50E941607882349F128988FE829
S11317D08EBD0DB407FEFDCF8EB51EBC0DB407FE45
S11317E0FDCF8EB5289A809181008064809381001A
S11317F080E286BB80916F00806280936F0028989E
S113180082EC8EBD0DB407FEFDCF8EB586E08EBD95
S11318100DB407FEFDCF8EB5289A84E023C08091D5
S11318208E038150823000F58091B9038530E1F454
S11318300E9416078823C1F0289882EC8EBD0DB44F
S113184007FEFDCF8EB583E08EBD0DB407FEFDCF40
S11318508EB5289A80916F008F7D80936F001092CF
S1131860110383E08093B90390918E03913041F486
S11318708091B903833061F52F9A9093B90325C001
S1131880923031F58091B903833011F51EC0973041
S1131890F9F40E9416078823D9F090910704906602
S11318A0289888EC8EBD0DB407FEFDCF8EB59EBD85
S11318B00DB407FEFDCF8EB5289A8091B90385300B
S11318C021F484E08093B90303C088E080938E03FD
S11318D080918E03883041F410928E0385E00E943B
S11318E0C40082E00E94C40080918E03882309F51D
S11318F08091B9038530E9F4809111038823C9F4F8
S113190080911A038823A9F480919203882389F48F
S113191020E030E08091DE02882311F421E030E001
S1131920232B39F080919C03813019F483E00E94C9
S1131930C40080918E03882311F40E94D603809101
S1131940DE02823009F0A8C01092DE028091D0033A
S113195099278130910561F0823091050CF49CC087
S11319608230910509F46CC0039709F478C094C0DF
S113197080918400909185000091CB031091CC0359
S1131980081B190B80919203803859F4109292032A
S113199080919C03813009F07FC083E00E94C400E1
S11319A07BC087FF05C01016110614F4C5E022C0E1
S11319B0C091E103D091E20380911A03882399F442
S11319C0CE010E945507682F7727F62E662369F407
S11319D0CE010E94C50481E080931A03D093D20300
S11319E0C093D10302C075E0F72E8F2D9927C82F1D
S11319F0882311F120919203822F99278F770197E1
S1131A0059F4207822602093920380E198E00E94A8
S1131A1082050E94B70440C027FF0AC010161106B1
S1131A203CF480E880939203C8010E94B70402C08A
S1131A30109292038C2F10C083E0809392032CC0E9
S1131A408091DA038F3F19F08F5F8093DA0310924D
S1131A501A031092920380E00E94DD041DC080915D
S1131A60B903823021F483E08093B90313C08091D9
S1131A708E03863079F410928E03289881E88EBD07
S1131A800DB407FEFDCF8EB51EBC0DB407FEFDCF11
S1131A908EB5289A0E94660D8FB7F894282F3327A5
S1131AA080919503813021F4109295032FBF05C0D6
S1131AB081E0809395032FBF63CBDF91CF911F917A
S1131AC00F91FF90EF90DF90CF9008958FB7F89427
S1131AD0282F332780919503882329F080688093E9
S1131AE095032FBF089581E0809395032FBF0E9433
S1131AF0B80808958FB7F894282F33278091950359
S1131B00815080939503803811F02FBF089581E0B0
S1131B10809395032FBF0E94B80808956F927F9217
S1131B208F929F92AF92BF92CF92DF92EF92FF92E9
S1131B300F931F93CF93DF935B016C0100E0EE24BE
S1131B40FF2468EA72E0FB01108511FFC6C1208101
S1131B50318142815381D601C501821B930BA40BB1
S1131B60B50B648075808680978086159705A805D7
S1131B70B90508F4B2C110FF03C01D7F108709C066
S1131B80260D371D481D591DFB01208331834283D7
S1131B905383F1E0EF16F10409F464C082E0E8161F
S1131BA0F1041CF4EF2839F0A1C1E2E0EE16F104CF
S1131BB009F427C19BC18FB7F894282F332780914C
S1131BC095038F5F809395032FBF8091900390912D
S1131BD091039C0153E0369527955A95E1F7821BB2
S1131BE0930B909391038093900380919A03909127
S1131BF09B039C0143E0369527954A95E1F7821BA8
S1131C00930B90939B0380939A038091DA03982F0C
S1131C10969596959695891B8093DA0320911203E5
S1131C20422F46954695469530919903431741F4C2
S1131C30822F992787709070892B11F0215002C050
S1131C40341B230F20931203E8E8F3E094E080812F
S1131C508D7F8193915097FFFACF109299030E9440
S1131C607A0D44C1809105048A3009F068C08091DE
S1131C70BC03882309F044C0ADEEB2E0EDE9F3E023
S1131C802CE101900D922150E1F76FEF7FEF41EECF
S1131C9052E06093E7028FEF90E08093E80293E9CB
S1131CA09093EC02C091C502D091C602209719F01E
S1131CB085E090E020C05093C6024093C50289E2BB
S1131CC08093E102809100028823A1F02093000216
S1131CD02CE1892F0E94E9009927282F882339F0C5
S1131CE081E080930002D093C602C093C502822F84
S1131CF0992701C0CE01882319F481E08093BC03A5
S1131D008091BC03882311F40E94A600109205045C
S1131D1080911503882389F48091A3039927982F30
S1131D2088272091A4033327822B932B0196809339
S1131D30A403892F99278093A303109215038FB7C7
S1131D40F8949927C82F20911602222391F080E05D
S1131D500E94CA01882341F48091BB03816080936F
S1131D60BB0380E090E002C085E090E0CFBF9927FC
S1131D7012C031E03093160220938F038FBF8091FD
S1131D801302882321F48CE00E94C40002C0309323
S1131D90120280E090E0892B11F00E94A6008FB718
S1131DA0F8949927C82F20911402222391F080E0FF
S1131DB00E949F01882341F48091030481608093F1
S1131DC0030480E090E002C085E090E0CFBF992753
S1131DD012C031E0309314022093CA038FBF809164
S1131DE01102882321F48EE00E94C40002C03093C3
S1131DF0100280E090E0892B09F478C00E94A600CC
S1131E0075C080E00E94B401882381F18FB7F894F3
S1131E10282F30E090911602992339F08091030223
S1131E20813021F49150923008F431E02FBF3323F4
S1131E30E9F08FB7F894C82FDD279C2F8091030217
S1131E40813099F480911602813021F48AE00E9455
S1131E50C40009C0823049F480918F038093030247
S1131E6083E080931602CFBF01C09FBF81E00E9430
S1131E70B401882309F43AC08FB7F894282F30E0CE
S1131E8090911402992339F080910202813021F457
S1131E909150923008F431E02FBF332339F18FB7DA
S1131EA0F894C82FDD279C2F80910202813099F489
S1131EB080911402813021F48BE00E94C40009C097
S1131EC0823049F48091CA038093020283E08093B4
S1131ED01402CFBF0BC09FBF09C00F5F675F7F4F66
S1131EE00894E11CF11C033008F42DCE81E00E941B
S1131EF0C400DF91CF911F910F91FF90EF90DF907D
S1131F00CF90BF90AF909F908F907F906F900895E7
S1131F102F923F924F925F926F927F928F929F92F5
S1131F20AF92BF92CF92DF92EF92FF920F931F93E3
S1131F30CF93DF93CDB7DEB72A970FB6F894DEBF01
S1131F400FBECDBF9927AA27BB27FC01469708F0EF
S1131F5017C5EA59FF4FEE0FFF1F0590F491E02DCE
S1131F6009944091C302442349F58FB7F894282F6C
S1131F703327E090D503F090D6030091D703109156
S1131F80D8038091160390911703A0911803B09180
S1131F901903E80EF91E0A1F1B1F2FBF8091DD03D2
S1131FA09091DE03A091DF03B091E0034093C3025C
S1131FB09C01AD01C801B7010E9458060E94A50505
S1131FC0DC01CB01BC01CD013FC00E94A5055B0132
S1131FD06C012FEF3FEF4FEF5FE770E08FB7F8949E
S1131FE09927709396038FBFE8EAF2E062E0808558
S1131FF081FF1CC080819181A281B381860175011A
S1132000E81AF90A0A0B1B0BD801C701E480F58012
S113201006811781E81AF90A0A0B1B0BE216F3066C
S1132020040715071CF4A801970171E06150399663
S113203067FFDDCF772309F4A3C412161306140631
S113204015062CF0C601B5010E948E0D99C420938B
S1132050DD033093DE034093DF035093E00381E01C
S11320608093C302C601B5010E94580689C49091A9
S11320709C03892F8450823010F410929C03943076
S113208009F07EC480919F039927982F8827209177
S1132090A0033327822B932BAA27BB27AC01BD01B6
S11320A081E00E947D06109205046AC48FB7F894FB
S11320B099271091D4038FBF80919C03823011F42F
S11320C0112339F080910A048F5F80930A048630CB
S11320D020F083E080939C0343C08FB7F894282FAB
S11320E03327809195038F5F809395032FBF409191
S11320F09303509194035093CF024093CE02809166
S11321009203882351F420E030E08091DE0288239A
S113211011F421E030E0232B19F485E090E00FC0A6
S11321205093E2034093E10381E08093920386EBB2
S113213093E20E9482050E94B70480E090E0992710
S1132140182F882311F482E007C080910A04853097
S113215011F483E001C081E080939C030E947A0D16
S113216080919C03833009F00BC410929C0320914E
S113217093033091940380910002882309F000C4F2
S11321806091C5027091C6026217730709F0F8C323
S1132190412FF4C38FB7F894282F33278091CD03B0
S11321A0882309F4DEC38091BD03E82FFF27EE0FD7
S11321B0FF1FE058FC4F808091802FBF3CE0E32E4E
S11321C0F12CE80CF91CF40182858F3309F07DC0F1
S11321D0B38487819927182F002786819927082B94
S11321E0192BCC24DD240E94BA000817190719F012
S11321F00F5F1F4F19F481E0C82ED12CCD2809F4AC
S113220064C003E9B01609F060C08FB7F894282FB2
S1132210332782B111E0812782B92FBFF701808172
S11322209927582F442781819927482B592B80912E
S11322309D039927982F882720919E033327822B6B
S1132240932B8417950718F540939E03852F9927A0
S113225080939D0382819927382F22278381992790
S1132260282B392B2093A003832F992780939F0336
S11322709927982F88273327822B932BAA27BB27AC
S1132280AC01BD01812F0E947D0610920504F70167
S113229086819927582F442787819927482B592BC2
S11322A08091A3039927982F88272091A40333278B
S11322B0822B932B8417950740F44093A403852F16
S11322C099278093A303109315038FB7F894482F8D
S11322D055278091BD03E82FFF27EE0FFF1FE0581D
S11322E0FC4F918280828F5F8093BD03833010F016
S11322F01092BD038091CD0381508093CD034FBFD5
S113230049CF8091D903813041F444E650E060E044
S113231070E080E00E947D0633C3823009F030C350
S11323208091B0028D7F8093B0022AC38FB7F89456
S1132330E82EFF24FA86E98620901E0330901F03BE
S1132340409020035090210366249EE4A92E83E844
S1132350B82EC62CD62CE62CF62C062D162D222DA6
S1132360332D442D552D662D762D862D962D0E94C8
S1132370241929833A834B835C836D837E838F8303
S11323809887822E932EA42EB52E2401350176949F
S113239067945794479400E20E942E1AA22EB32EFB
S11323A0C42ED52EA6019501240D351D461D571D9D
S11323B057FF05C05F772F5F3F4F4F4F5F4F20930D
S11323C01E0330931F034093200350932103F98489
S11323D0FFBE8FB7F89499273093DC032093DB0377
S11323E025C18FB7F89499271092C8021092C7029A
S11323F010928703109286031092CF031092CE039B
S1132400109214031092130311C18FB7F894282F5C
S113241033278091C9038093050282E080931A02D6
S11324202FBF80910502882309F0AAC2209A289A16
S11324308091B903882309F076C08EEF91E001976B
S113244001960197E1F716982F9886E090E001979E
S113245001960197E1F7169A289883EC8EBD0DB486
S113246007FEFDCF8EB51EBC0DB407FEFDCF8EB5A5
S1132470289A289882EC8EBD0DB407FEFDCF8EB548
S113248088E08EBD0DB407FEFDCF8EB5289A8EEF81
S113249091E0019701960197E1F728988EEC8EBDA3
S11324A00DB407FEFDCF8EB58DE48EBD0DB407FED1
S11324B0FDCF8EB5289A289889EC8EBD0DB407FE01
S11324C0FDCF8EB587EC8EBD0DB407FEFDCF8EB566
S11324D0289A289885EC8EBD0DB407FEFDCF8EB5E5
S11324E080E88EBD0DB407FEFDCF8EB5289A1092FC
S11324F01C038BE090E080930704289888EC8EBD41
S11325000DB407FEFDCF8EB58BE68EBD0DB407FE70
S1132510FDCF8EB5289A2F9A81E08093B90380E08D
S11325200E94D6032DC20E94660D2AC28FB7F8946A
S1132530282F332780918D038093040283E08093B6
S113254018022FBF809104029927009719F0019770
S113255021F016C26D9A759A02C06E9A769A0E94FC
S1132560A505DC01CB0111E0E12E0AE010E020E03A
S113257030E0AC01BD0182E00E94A40301C28FB728
S1132580F894282F332780918F038093030283E0EC
S1132590809316022FBF809103028093E40310C03E
S11325A08FB7F894282F33278091CA0380930202AF
S11325B083E0809314022FBF809102028093D4029F
S11325C080E00E944403DCC180E005C075986D98EA
S11325D080E107C081E00E94EE02D2C176986E9835
S11325E081E10E94C400CCC180E00E9485028091F8
S11325F01202813019F480E00E94EE028FB7F89441
S11326009927109212021092130210C081E00E94C6
S1132610850280911002813011F40E94EE028FB77E
S1132620F894992710921002109211028FBFA8C13A
S11326308FB7F894282F332780911D0380930102CC
S113264083E080930E022FBF80910102882309F05A
S113265097C181E08093BE031092D3030E94F401DA
S11326608FC1C9013DC0802F869586958695E82F38
S1132670FF27EC53FD4F202F277081E090E002C02C
S1132680880F991F2A95E2F7982F909580818923C6
S1132690808300930F02802F99273CC01092BE03C1
S11326A08091D303E090D202F090D302282F3327F5
S11326B02115310509F064C18FB7F894D82E8091A3
S11326C00E02833009F058C080910102882309F07A
S11326D053C08091C402882309F0C3CF81E090E005
S11326E0882309F5C0900F020C2D11270F5F1F4F8F
S11326F00130110511F400E010E0802F0E94DF0189
S1132700882309F0B0CF8C2D99270817190771F782
S11327108FEF90E080931D0381E080930E0282E1AD
S11327200E94C40029C081E08093010210920E022D
S113273080917A008F7780937A001EC080E090E0C9
S113274037C0802F869586958695E82FFF27E55418
S1132750FC4F202F277081E090E002C0880F991F62
S11327602A95E2F7982F909580818923808300939E
S11327701702802F992736C0DFBE80E00E94B40183
S1132780882309F471C0C090E4038FB7F894D82E5D
S113279080911602833009F055C0809103028C1594
S11327A009F050C08091BB03882341F681E090E09A
S11327B0892BF9F4B09017020B2D11270F5F1F4FCF
S11327C00130110511F400E010E0802F0E94CA01CD
S11327D0882309F0B6CF8B2D99270817190771F7AD
S11327E08FEF90E080938F0381E0809316028AE05C
S11327F008C081E0809303021092160280931302B2
S11328008DE00E94C4001EC080E090E047C0802F8D
S1132810869586958695E82FFF27ED5FFB4F202F41
S1132820277081E090E002C0880F991F2A95E2F793
S1132830982F909580818923808300931502802F9F
S1132840992746C0DFBECC2079F480910504E82F97
S1132850FF27EE0FFF1FEB55FC4F8F5F809305049E
S1132860E1828F2D9927808381E00E94B40188231F
S113287009F486C0C090D4028FB7F894D82E809102
S113288014028330B1F5809102028C1591F5809188
S11328900304882309F0B8CF81E090E0892BF9F490
S11328A0B09015020B2D11270F5F1F4F013011053A
S11328B011F400E010E0802F0E949F01882309F0AA
S11328C0A6CF8B2D99270817190771F78FEF90E082
S11328D08093CA0381E0809314028BE008C081E0F6
S11328E08093020210921402809311028FE00E94DE
S11328F0C400DFBECC2009F043C080910504E82F5A
S1132900FF27EE0FFF1FEB55FC4F8F5F80930504ED
S1132910E1828F2D9927808333C08091E50388233A
S113292079F111E000E03091E503832F8123A1F0D8
S1132930802F9927FC01EE0FFF1FEB53FD4F1182EF
S11329401082212F209532233093E503892B21F423
S11329500E94A6001092BC03110F0F5F083018F3F9
S11329600FC02FBF0DC080910002E82FFF27EE0F8C
S1132970FF1FEB53FD4F41E0608171810E945201C2
S11329802A960FB6F894DEBF0FBECDBFDF91CF916C
S11329901F910F91FF90EF90DF90CF90BF90AF9079
S11329A09F908F907F906F905F904F903F902F906B
S11329B008958091E6038F3FD1F09091E6038091D2
S11329C0E603E82FFF27E451FC4F80818093E60360
S11329D08091E6038F3F11F480930404892F992793
S11329E0FC01E451FC4F2FEF20839C0102C02FEF28
S11329F030E02F3F19F480E090E00895822F0E9488
S1132A00880F81E090E00895CFEFD1E2DEBFCDBF23
S1132A108FB7F894C82F46E150E06FEF70E08CEE6A
S1132A2093E00E94D31A8FEF8093E603809304040B
S1132A3056985E9854985C9880916F008F7D80932F
S1132A406F00209A289A279A2F980E9A169A82E253
S1132A5093E09093D1028093D00210921B038AE5F5
S1132A608093090481E08093810080E28093B60022
S1132A7083E08093B10020918400309185004AE77F
S1132A8080918400909185008217930708F4415047
S1132A909C014423A9F79091B2008091B200891758
S1132AA0E1F320918400309185009091B2008091EF
S1132AB0B2008917E1F38091840090918500821B14
S1132AC0930B409675E0969587957A95E1F79093E8
S1132AD09803809397031092B1008091B100809382
S1132AE08100809181008093B6001092B200109210
S1132AF08500109284008FEF87BB87B386BB8091DB
S1132B00B600282F33272571307021153105B9F708
S1132B100A9A099A089A129A119A109A28B98FEF68
S1132B2087B90C98149810927A00309385002093FA
S1132B30840080916F00816080936F008091810098
S1132B40887F82608093810081E085BF0E94D914D0
S1132B50282F33272223D1F72093C4022093030480
S1132B602093BB03209310038FEF80930804822FDC
S1132B700E94CE0680910B0290910C020196AA2726
S1132B80BB2780931E0390931F03A0932003B0934D
S1132B9021038091B60080628093B6008091B600D4
S1132BA081FDFCCF82E08093B0008091B60080FD6F
S1132BB0FCCF83E08093B1008091B60083FDFCCF0D
S1132BC086EE8093B30080917000826080937000E1
S1132BD00E94CD052FEF3FEF84E0EFEBF3E021936C
S1132BE03193815087FFFBCF80910B028295807FC8
S1132BF08093E3038BE192E022E0E0E8F3E0819349
S1132C00919321508F9627FFFACF0E94D9148823DD
S1132C10E1F7CFBF78941092A00341E050E04093D5
S1132C209F0380910B0290910C028093A203892F41
S1132C3099278093A1038FB7F894282F3327809185
S1132C4095038F5F809395032FBF80919C03882306
S1132C5011F0C5E029C04093D90380918E038823E5
S1132C6069F48091B903813061F420E030E080910F
S1132C70DE02882309F49A01232B41F485E090E0D5
S1132C800CC0853019F489E090E007C083E080939C
S1132C908E030E94660D80E090E09927C82F882358
S1132CA019F484E080939C030E947A0DCC2311F0E4
S1132CB00E94A6008FB7F894482F69C080916E00D7
S1132CC0992786709070892B81F480916F009927E1
S1132CD08E729070892B49F480917100282F3327CC
S1132CE02E7230702115310519F080E090E01AC081
S1132CF00CB407FC0CC08091C100807C41F480912D
S1132D00C900807C21F48091BC0082FF02C0C9010B
S1132D1009C080917A0087FF03C081E090E002C07F
S1132D2085E090E0282F809170009927837090703F
S1132D30892BC1F08091B60099278A719070892BF4
S1132D40C9F78091B3009091B200891B8C3020F0B8
S1132D508091B200853F18F082E090E005C083E0E6
S1132D6090E002C085E090E0E82F281708F4E22FF5
S1132D7083B7807FFF27E850FF4F9491892B8160B0
S1132D8083BF78948895F89483B78E7F83BF8091AE
S1132D90E6038F3FC9F09091E6038091E603E82FA4
S1132DA0FF27E451FC4F80818093E6038091E60382
S1132DB08F3F11F480930404892F9927FC01E45177
S1132DC0FC4F2FEF208302C08FEF90E08F3F09F478
S1132DD075CF4FBF0E94880F6DCF78941F920F92CA
S1132DE00FB60F9211242F933F934F935F936F93DA
S1132DF07F938F939F93AF93BF93EF93FF938091B0
S1132E006F008D7F80936F0078948FB7F894282F8C
S1132E1033278091DE02813019F482E08093DE0250
S1132E202FBF0E94660DFF91EF91BF91AF919F91CB
S1132E308F917F916F915F914F913F912F910F905F
S1132E400FBE0F901F90189578941F920F920FB693
S1132E500F9211240F900FBE0F901F901895789425
S1132E601F920F920FB60F9211240F900FBE0F9066
S1132E701F90189578941F920F920FB60F921124F9
S1132E802F933F934F935F936F937F938F939F936E
S1132E90AF93BF93EF93FF9380918400909185004B
S1132EA080918600909187002FB7F89433279093F0
S1132EB0E0028093DF0281E0809311032FBF0E9420
S1132EC0660DFF91EF91BF91AF919F918F917F918B
S1132ED06F915F914F913F912F910F900FBE0F9083
S1132EE01F90189578941F920F920FB60F92112489
S1132EF02F933F938F939F93AF93BF938FB7F89480
S1132F00282F33278091D9029091DA02A091DB0215
S1132F10B091DC020196A11DB11D8093D90290935A
S1132F20DA02A093DB02B093DC022FBFBF91AF9112
S1132F309F918F913F912F910F900FBE0F901F90F3
S1132F4018951F920F920FB60F9211242F933F934F
S1132F504F935F936F937F938F939F93AF93BF939D
S1132F60EF93FF938091B0008093B0008091B600FE
S1132F7081FDFCCF8091B300992701969C014427E1
S1132F8055278091D5029091D602A091D702B09195
S1132F90D802820F931FA41FB51F8093D50290936C
S1132FA0D602A093D702B093D80278940E94CD059C
S1132FB0FF91EF91BF91AF919F918F917F916F910D
S1132FC05F914F913F912F910F900FBE0F901F90E3
S1132FD018951F920F920FB60F9211248F93809120
S1132FE0B0008093B0008091B60081FDFCCF8F913A
S1132FF00F900FBE0F901F9018951F920F920FB64F
S11330000F9211248F929F92AF92BF92CF92DF9230
S1133010EF92FF920F931F932F933F934F935F93DE
S11330206F937F938F939F93AF93BF93CF93DF93CC
S1133030EF93FF938EB5282F3327E091C702F091C9
S1133040C802309739F08091130390911403E80F6C
S1133050F91F208380911303909114030196909398
S113306014038093130380E00E949D068091130350
S1133070909114032091CE033091CF0382179307CC
S113308008F045C0E0908603F09087038090C70263
S11330909090C8026C01AC01465F5F4F241735075E
S11330A008F09A0159010894A108B1088A159B05F2
S11330B0E0F48C01080D191DEC01CE0DDF1DE114A7
S11330C0F10411F0888101C080E00E94AB088114F2
S11330D0910411F0F80180830894C11CD11C21963D
S11330E00F5F1F4FCA14DB0450F381E00E949D065A
S11330F0E114F10431F0EC0CFD1CF70180818EBD6C
S113310001C01EBCD0921403C092130311C01092CC
S1133110C8021092C702109287031092860310927D
S1133120CF031092CE0310921403109213038EB5A2
S1133130FF91EF91DF91CF91BF91AF919F918F91CB
S11331407F916F915F914F913F912F911F910F91BB
S1133150FF90EF90DF90CF90BF90AF909F908F90B3
S11331600F900FBE0F901F9018951F920F920FB6DD
S11331700F9211242F933F934F935F936F937F93F9
S11331808F939F93AF93BF93EF93FF9360917800D6
S11331907091790078948FB7F894282F3327809111
S11331A00204482F46954170582F51702FBF552364
S11331B001F580917A00877F80937A008091BE0325
S11331C099278130910519F0029759F02CC04423B6
S11331D051F07093D3026093D20283E10E94C40041
S11331E022C0442319F40E94F4011DC05093BE036D
S11331F01AC08FB7F89499278FBF8FB7F894482FC8
S1133200552780917A0080618777282F3327209370
S11332107A008F7B282F332720937A0080689927A0
S113322080937A004FBFFF91EF91BF91AF919F912F
S11332308F917F916F915F914F913F912F910F905B
S11332400FBE0F901F901895A0E3B0E0EAE2F9E1F9
S11332500C940D1B222E332E442E552E662E772EC3
S1133260882E992E2A2D3B2DA8E0FE013196AA2EF8
S11332701192AA94E9F729823A824B825C826D8288
S11332807E828F829886FE013996BA2E1192BA9464
S1133290E9F729873A87CB86DC86ED86FE860F8799
S11332A0188BFE0171961192AA95E9F7C980DA800C
S11332B0EB80FC80C9A6DAA6EBA6FCA68701760102
S11332C08FEF9FEFA0E0B0E0E822F9220A231B234E
S11332D0A9A4BAA4CBA4DCA416014424552489854A
S11332E09A85AB85BC858DA79EA7AFA7B8AB5C01BB
S11332F06D018FEF9FEFA0E0B0E0A822B922CA22AF
S1133300DB228DA59EA5AFA5B8A93D0188249924EB
S1133310C801B701A60195010E94EE1A69A37AA318
S11333208BA39CA3C801B701A40193010E94EE1AC8
S11333306DA37EA38FA398A7C201B101A601950135
S11333400E94EE1A7B018C01C201B101A401930118
S11333500E94EE1A9B01AC01A9A0BAA0CBA0DCA0EC
S1133360C601AA27BB27ADA0BEA0CFA0D8A4A80E93
S1133370B91ECA1EDB1EAE0CBF1CC01ED11EADA2E0
S1133380BEA2CFA2D8A6AE14BF04C006D10620F4B4
S1133390205030404F4F5F4FCDA0DEA0EFA0F8A4E7
S11333A0C701AA27BB27820F931FA41FB51F8D8FA8
S11333B09E8FAF8FB8A3A6013327222789A19AA194
S11333C0ABA1BCA1A070B070280F391F4A1F5B1FAE
S11333D0298F3A8F4B8F5C8FA98CBA8CCB8CDC8C69
S11333E0ED8CFE8C0F8D18A1ED8AFE8A0F8B188F41
S11333F02D853E854F85588969A57AA58BA59CA501
S11334000E94EE1A3B014C018D819E81AF81B885EB
S1133410BC01CD012DA53EA54FA558A90E94EE1AC9
S1133420DC01CB01680E791E8A1E9B1E8D899E8944
S1133430AF89B88D860D971DA81DB91D8D8B9E8BE8
S1133440AF8BB88F6D897E898F89988D2A2D3B2DFE
S11334504C2D5D2DE2E1E0960C94291B8F929F92F6
S1133460AF92BF92CF92DF92EF92FF920F93CF93DE
S1133470DF93CDB7DEB768970FB6F894DEBF0FBE03
S1133480CDBFE82E002349F4298B3A8B4B8B5C8B00
S11334906D8B7E8B8F8B988F6CC088E0FE0131968C
S11334A011928A95E9F729833A834B835C836D8370
S11334B07E83EF82988740E2401B14160CF041C0D3
S11334C08D819E81AF81B8856C017D0104C0CC0CD7
S11334D0DD1CEE1CFF1C4A95D2F7202F332727FD55
S11334E03095022E04C0B695A795979587950A94B2
S11334F0D2F78D879E87AF87B88B89819A81AB81FC
S1133500BC8104C0B695A795979587952A95D2F75F
S11335108C299D29AE29BF2989879A87AB87BC87C7
S113352029853A854B855C856D857E858F8598894F
S1133530298B3A8B4B8B5C8B6D8B7E8B8F8B988F0F
S113354018C01D861E861F86188A842F992787FD1A
S1133550909522273327281B390B8D819E81AF81BB
S1133560B88504C0B695A795979587952A95D2F7FF
S1133570D3CF29893A894B895C896D897E898F8962
S1133580988D68960FB6F894DEBF0FBECDBFDF915D
S1133590CF910F91FF90EF90DF90CF90BF90AF90BD
S11335A09F908F900895DC0101C06D93415050406D
S11335B0E0F70895AA1BBB1B51E107C0AA1FBB1F5C
S11335C0A617B70710F0A61BB70B881F991F5A95AB
S11335D0A9F780959095BC01CD010895629FD00113
S11335E0739FF001829FE00DF11D649FE00DF11DBA
S11335F0929FF00D839FF00D749FF00D659FF00D69
S11336009927729FB00DE11DF91F639FB00DE11D55
S1133610F91FBD01CF01112408952F923F924F92BB
S11336205F926F927F928F929F92AF92BF92CF924E
S1133630DF92EF92FF920F931F93CF93DF93CDB757
S1133640DEB7CA1BDB0B0FB6F894DEBF0FBECDBFCF
S113365009942A88398848885F846E847D848C84A0
S11336609B84AA84B984C884DF80EE80FD800C81A9
S11336701B81AA81B981CE0FD11D0FB6F894DEBF8C
S10D36800FBECDBFED010895FFCF8A
S111368A0101010102FFFFFF22010001000007
S9030000FC
