:020000040800F2
:10000000F4040020250100088D0100088D0100087E
:100010008D0100088D0100088D010008000000001E
:100020000000000000000000000000008D0100083A
:100030008D010008000000008D0100088D010008FE
:100040008D0100088D0100088D0100088D01000858
:100050008D0100088D0100088D0100088D01000848
:100060008D0100088D0100088D0100088D01000838
:100070008D0100088D0100088D0100088D01000828
:100080008D0100088D0100088D01000800000000AE
:100090000000000000000000000000008D010008CA
:1000A0008D0100088D0100088D0100088D010008F8
:1000B0008D0100088D0100088D0100088D010008E8
:1000C0008D0100088D0100088D010008290F00082E
:1000D000350F00088D0100088D0100088D01000812
:1000E0008D0100088D0100088D010008000000004E
:1000F0000000000000000000000000000000000000
:1001000000000000000000000000000000000000EF
:1001100000000000000000008D0100088D010008B3
:100120005FF808F180B582B000AF134B7B60134BD2
:100130003B600BE07B681A683B681A603B6803F120
:1001400004033B607B6803F104037B603A680C4B5B
:100150009A42EFD30B480C494FF000028842B8BFD7
:1001600040F8042BFADB00F015F800F0C5FE07F1AB
:100170000807BD4680BD00BF202300080000002006
:10018000F8000020F8000020F800002080B400AF44
:10019000FEE700BF80B500AF174B174A126842F068
:1001A00001021A60144A144B5968144B01EA030304
:1001B0005360114A104B1B6823F0847323F480337F
:1001C00013600D4B0C4A126822F480221A600A4B0D
:1001D000094A526822F4FE025A60074B4FF41F028C
:1001E0009A60054B4FF00002DA6200F00BF8044B06
:1001F0004FF000629A6080BD001002400000FFF8DE
:1002000000ED00E080B500AF00F002F880BD00BF57
:1002100080B483B000AF4FF000037B604FF0000369
:100220003B60314B304A126842F480321A602E4BE8
:100230001B6803F400333B607B6803F101037B60C0
:100240003B68002B03D17B68B3F5A06FEFD1264B41
:100250001B6803F40033002B03D04FF001033B6015
:1002600002E04FF000033B603B68012B37D11E4B8F
:100270001D4A52685A601C4B1B4A52685A601A4BFE
:10028000194A52685A60184B174A526822F47C1275
:100290005A60154B144A526842F498125A60124B35
:1002A000114A126842F080721A6000BF0E4B1B6840
:1002B00003F00073002BF9D00B4B0B4A526822F06D
:1002C00003025A60084B084A526842F002025A6020
:1002D00000BF054B5B6803F00C03082BF9D107F155
:1002E0000C07BD4680BC70470010024080B489B046
:1002F00000AF786039604FF00003FB614FF00003FE
:100300003B614FF00003BB614FF00003FB604FF017
:1003100000037B614FF00003BB603B68DB7803F0B8
:100320000F03FB613B68DB7803F01003002B05D063
:100330003B689B78FA6942EA0303FB613B681B88D0
:1003400003F0FF03002B53D07B681B687B614FF0E9
:100350000003BB6143E0BB694FF0010202FA03F303
:10036000FB603B681B881A46FB6802EA03033B619B
:100370003A69FB689A422ED1BB694FEA8303FB605E
:10038000FB684FF00F0202FA03F3BB60BB686FEA31
:1003900003037A6902EA03037B61FB68FA6902FAE4
:1003A00003F37A6942EA03037B613B68DB78282B1D
:1003B00006D1BB694FF0010202FA03F27B685A6171
:1003C0003B68DB78482B06D1BB694FF0010202FA8B
:1003D00003F27B681A61BB6903F10103BB61BB696E
:1003E000072BB8D97B687A691A604FF000037B61EC
:1003F0003B681B88FF2B56D97B685B687B614FF09D
:100400000003BB6149E0BB6903F108034FF001023F
:1004100002FA03F3FB603B681B881A46FB6802EA9A
:1004200003033B613A69FB689A4232D1BB694FEAE8
:100430008303FB60FB684FF00F0202FA03F3BB601B
:10044000BB686FEA03037A6902EA03037B61FB6816
:10045000FA6902FA03F37A6942EA03037B613B68B3
:10046000DB78282B08D1BB6903F108034FF00102A8
:1004700002FA03F27B685A613B68DB78482B08D1AB
:10048000BB6903F108034FF0010202FA03F27B6833
:100490001A61BB6903F10103BB61BB69072BB2D9C8
:1004A0007B687A695A6007F12407BD4680BC7047B3
:1004B00080B487B000AF78604FF000037B614FF0ED
:1004C00000033B614FF00003FB604FF00003BB6093
:1004D0004F4B5B6803F00C037B617B69042B07D0F7
:1004E000082B09D0002B35D17B684A4A1A6035E0C9
:1004F0007B68484A1A6031E0454B5B6803F470132F
:100500003B613B694FEA934303F102033B61404B7C
:100510005B6803F48033FB60FB68002B06D13B690A
:100520003D4A02FB03F27B681A6017E0384B5B68B8
:1005300003F40033002B06D03B69374A02FB03F279
:100540007B681A600AE03B69324A02FB03F27B686F
:100550001A6003E07B682F4A1A6000BF2C4B5B686F
:1005600003F0F0037B617B694FEA13137B612B4A35
:100570007B69D3181B78BB607B681A68BB6822FA5A
:1005800003F27B685A60224B5B6803F4E0637B6193
:100590007B694FEA13237B61204A7B69D3181B7860
:1005A000BB607B685A68BB6822FA03F27B689A607A
:1005B000174B5B6803F460537B617B694FEAD3237D
:1005C0007B61164A7B69D3181B78BB607B685A68CD
:1005D000BB6822FA03F27B68DA600D4B5B6803F4B8
:1005E00040437B617B694FEA93337B610C4A7B69B3
:1005F000D3181B78BB607B68DA68BB68B2FBF3F288
:100600007B681A6107F11C07BD4680BC704700BFBC
:100610000010024000127A0000093D002822000864
:100620003822000880B590B000AF786039604FF094
:100630000003BB634FF00003FB634FF000037B63D9
:100640004FF000033B637A688F4B9A4206D144F225
:1006500004004FF0010101F0D7FC20E07A688B4BD9
:100660009A420CD14FF004004FF0010101F0CCFC94
:100670004FF400304FF0010101F0E8FC0FE07A6820
:10068000834B9A420BD14FF008004FF0010101F06B
:10069000BBFC4FF480204FF0010101F0D7FC7A68D9
:1006A000794B9A4223D17B4A7A4B9B6943F480432E
:1006B00043F0040393614FF400733B814FF0180340
:1006C000FB724FF00303BB7207F10803724819462F
:1006D000FFF70CFE4FF480633B814FF00403FB7285
:1006E00007F108036C481946FFF700FE4EE07A68F0
:1006F000664B9A4223D1674A664BDB6943F4003369
:1007000043F00403D3614FF004033B814FF018031F
:10071000FB724FF00303BB7207F108035E481946F2
:10072000FFF7E4FD4FF008033B814FF00403FB7239
:1007300007F1080358481946FFF7D8FD26E07A6804
:10074000534B9A4222D1534A524BDB6943F48023E4
:1007500043F00803D3614FF480633B814FF01803EB
:10076000FB724FF00303BB7207F108034B481946B5
:10077000FFF7BCFD4FF400633B814FF00403FB72B5
:1007800007F1080345481946FFF7B0FD3B68FB60D9
:100790004FF00003BB824FF00C03BB754FF000031A
:1007A000FB754FF000033B764FF001037B764FF073
:1007B0000003BB763B7E002B07D07B687A68128AE9
:1007C00092B242F4806292B21A82FB7D002B07D073
:1007D0007B687A68128A92B242F4006292B21A82FC
:1007E000BB7E002B07D07B687A68128A92B242F4F3
:1007F000807292B21A827B7E002B07D07B687A6867
:10080000128A92B242F4007292B21A82BB7D042B19
:1008100008D17B687A68928992B242F0040292B25F
:100820009A810AE0BB7D082B07D17B687A689289A0
:1008300092B242F0080292B29A814FF00003BB6379
:100840007B689B8A9BB2BB63BA6B4FF6FF4302EA9D
:100850000303BB63BB8ABA6B42EA0303BB637B68D7
:10086000BA6B92B29A824FF00003BB6307F11C038C
:100870001846FFF71DFE07F104031A68024B9A425F
:100880000ED1BB6AFB630DE000380140004400401C
:10089000004800400010024000080140000C0140E8
:1008A0007B6AFB63FA6B13464FEA83039B184FEA9C
:1008B00083029A18FB684FEA8303B2FBF3F37B636E
:1008C0007A6B1E4BA3FB02134FEA53134FEA031339
:1008D000BB63BB6B4FEA13134FF0640202FB03F3DD
:1008E0007A6BD31A3B633B6B4FEA031303F132027B
:1008F000124BA3FB02134FEA531303F00F03BA6B1F
:1009000042EA0303BB637B68BA6B92B21A817B68CD
:100910007A68928992B242F4005292B29A817B68CC
:100920007A68928992B242F00C0292B29A814FF0A8
:100930000003184607F14007BD4680BD1F85EB51F7
:1009400080B487B000AFF860B9607A60BB683B6183
:100950004FF000037B6112E03A697B69D3181B7882
:100960001A46FB689A8000BFFB681B889BB203F0A5
:100970008003002BF8D07B6903F101037B617A6966
:100980007B689A42E8D37B68184607F11C07BD468E
:1009900080BC704780B487B000AFF860B9607A60FF
:1009A000BB683B614FF000037B6111E07B694FEA5C
:1009B00043033A69D218FB689B889BB24FEAC35342
:1009C0004FEAD3539BB213807B6903F101037B6130
:1009D0007A697B689A42E9D37B68184607F11C075D
:1009E000BD4680BC704700BF80B58CB000AF78605A
:1009F00039604FF00003BB624FF00003FB624FF021
:100A000000037B624FF000033B624FF00003BB62C8
:100A100007F10C031846FFF74BFD07F104031A68B2
:100A2000214B9A4202D1BB69FB6201E07B69FB6208
:100A3000FA6A13464FEA83039B184FEA83029A1817
:100A40003B684FEA8303B2FBF3F37B627A6A174B8E
:100A5000A3FB02134FEA53134FEA0313BB62BB6AB3
:100A60004FEA13134FF0640202FB03F37A6AD31ABE
:100A70003B623B6A4FEA031303F132020B4BA3FBC9
:100A800002134FEA531303F00F03BA6A42EA030357
:100A9000BB627B68BA6A92B21A814FF000031846B3
:100AA00007F13007BD4680BD003801401F85EB517E
:100AB00080B586B000AFF8607A603B600B46FB7291
:100AC0004FF00103FB75FB7A032B00F2248101A296
:100AD00052F823F0E50A0008F70A0008590B00084D
:100AE0005F0C0008F8687968FFF77EFF38614FF007
:100AF0000003FB7512E1FB689B899BB203F48053F2
:100B0000002B02D0012B04D007E04FF008033B611B
:100B100003E04FF009033B6100BF7B68082B02D064
:100B2000092B0CD017E0FB689B899BB223F4805300
:100B30009AB2FB689A814FF00003FB750BE0FB68EB
:100B40009B899BB243F480539AB2FB689A814FF021
:100B50000003FB7500BFE1E0FB681B8A9BB203F456
:100B60004053032B1AD801A252F823F07D0B000842
:100B7000850B00088D0B0008950B00084FF0000353
:100B80003B610CE04FF003033B6108E04FF00203D0
:100B90003B6104E04FF001033B6100E000BF7B6874
:100BA000032B00F2BA8001A252F823F0E50B0008F3
:100BB0000D0C0008350C0008BD0B0008FB681B8AF3
:100BC0009BB243F480539AB2FB681A82FB681B8A7B
:100BD0009BB223F400539AB2FB681A824FF00003D1
:100BE000FB753BE0FB681B8A9BB223F480539AB2EF
:100BF000FB681A82FB681B8A9BB223F400539AB2EB
:100C0000FB681A824FF00003FB7527E0FB681B8A24
:100C10009BB243F480539AB2FB681A82FB681B8A2A
:100C20009BB243F400539AB2FB681A824FF0000360
:100C3000FB7513E0FB681B8A9BB223F480539AB2C6
:100C4000FB681A82FB681B8A9BB243F400539AB27A
:100C5000FB681A824FF00003FB7500BF5EE0FB6883
:100C60009B899BB203F48063002B02D0012B04D03C
:100C700012E04FF000033B610EE0FB689B899BB2E2
:100C800003F40073002B03D04FF001033B6103E03A
:100C90004FF002033B6100BF7B68012B10D0012B9A
:100CA00002D3022B20D035E0FB689B899BB223F452
:100CB00080639AB2FB689A814FF00003FB7529E0CC
:100CC000FB689B899BB243F480639AB2FB689A816C
:100CD000FB689B899BB243F400739AB2FB689A81CC
:100CE0004FF00003FB7515E0FB689B899BB243F452
:100CF00080639AB2FB689A81FB689B899AB240F63E
:100D0000FF5302EA03039AB2FB689A814FF0000393
:100D1000FB7500BF02E000BF00E000BFFB7D002BC1
:100D200005D13B68002B02D03B683A691A60FB7D15
:100D3000184607F11807BD4680BD00BF80B582B0D8
:100D400000AF786004487968FFF76CFC03461846EA
:100D500007F10807BD4680BD0038014080B582B06C
:100D600000AF786004487968FFF75CFC03461846DA
:100D700007F10807BD4680BD0044004080B582B041
:100D800000AF786004487968FFF74CFC03461846CA
:100D900007F10807BD4680BD0048004080B582B01D
:100DA00000AF78603960054879683A68FFF7C8FD98
:100DB0000346184607F10807BD4680BD00380140CC
:100DC00080B582B000AF78603960054879683A68CC
:100DD000FFF7B6FD0346184607F10807BD4680BD7C
:100DE0000044004080B582B000AF786039600548AB
:100DF00079683A68FFF7A4FD0346184607F108072B
:100E0000BD4680BD0048004080B582B000AF78602C
:100E10003960054879683A68FFF7BCFD0346184613
:100E200007F10807BD4680BD0038014080B582B09B
:100E300000AF78603960054879683A68FFF7AAFD25
:100E40000346184607F10807BD4680BD0044004030
:100E500080B582B000AF78603960054879683A683B
:100E6000FFF798FD0346184607F10807BD4680BD09
:100E70000048004080B584B000AF0346B9607A6096
:100E8000FB73FB7B05481946BA687B68FFF710FEC9
:100E90000346184607F11007BD4680BD00380140E3
:100EA00080B584B000AF0346B9607A60FB73FB7B0A
:100EB00005481946BA687B68FFF7FAFD03461846ED
:100EC00007F11007BD4680BD0044004080B584B0E6
:100ED00000AF0346B9607A60FB73FB7B0548194697
:100EE000BA687B68FFF7E4FD0346184607F1100770
:100EF000BD4680BD0048004080B500AF074B1B6871
:100F00001B684FF4E1309847054801F01DF801F0E7
:100F1000BFF8044801F018F8FEE700BF0000002009
:100F20006C2200087422000880B400AFBD4680BC6B
:100F3000704700BF80B400AFBD4680BC704700BFA3
:100F400080B485B000AF786039607A68624B9A42AD
:100F50000FD1614B1B889BB203F038034FEAE303C8
:100F6000BB60BB6803F101035C4A22FA03F3FB6038
:100F700012E07A685A4B9A420ED1594B1B889BB2A9
:100F800003F038034FEAE303BB60BB6803F10103DE
:100F9000544A22FA03F3FB603B68072B00F294806B
:100FA00001A252F823F000BFC90F0008DB0F0008B0
:100FB000FD0F00081F100008411000086310000812
:100FC00085100008A71000087B681B889BB223F0DF
:100FD00038039AB27B681A8077E07B681B889BB2E3
:100FE00023F030039AB27B681A807B681B889BB21F
:100FF00043F008039AB27B681A8066E07B681B881E
:101000009BB223F038039AB27B681A807B681B88F6
:101010009BB243F010039AB27B681A8055E07B685C
:101020001B889BB223F038039AB27B681A807B68D6
:101030001B889BB243F018039AB27B681A8044E085
:101040007B681B889BB223F038039AB27B681A80B6
:101050007B681B889BB243F020039AB27B681A809E
:1010600033E07B681B889BB223F038039AB27B681D
:101070001A807B681B889BB243F028039AB27B6876
:101080001A8022E07B681B889BB223F038039AB257
:101090007B681A807B681B889BB243F030039AB24E
:1010A0007B681A8011E07B681B889BB223F03803B1
:1010B0009AB27B681A807B681B889BB243F0380326
:1010C0009AB27B681A8000E000BFFB68184607F1FF
:1010D0001407BD4680BC70470030014000A24A049E
:1010E000003800400051250280B586B000AFF8609E
:1010F0000B467A60FB72FA68884B9A4220D1884A84
:10110000874B9B6943F4805343F004039361854A02
:10111000844B1B6843F04C5343F440131360814AE3
:10112000804B1B6823F04C4323F4400313607D4A3B
:101130007C4B1B6843F0084343F40003136050E00A
:10114000FA68794B9A4224D1754B754AD26942F4B8
:101150008042DA61724B724A926942F008029A61E7
:10116000724A724B5B6843F04C5343F44013536034
:101170006E4A6E4B5B6823F04C4323F4400353608C
:101180006A4A6A4B5B6843F0084343F400035360C8
:1011900027E0FA68664B9A4223D1614B604AD269D4
:1011A00042F40042DA615E4B5D4A926942F0080205
:1011B0009A615E4A5D4B1B6843F44C1343F4405301
:1011C00013605A4A594B1B6823F44C0323F44043E1
:1011D0001360564A554B1B6843F4080343F400431D
:1011E0001360F8687968FFF7ABFEFB681B889BB259
:1011F00023F040039AB2FB681A80FB7A002B10D1CF
:10120000FB681B889BB223F001039AB2FB681A802B
:10121000FB681B889BB223F002039AB2FB681A801A
:1012200037E0FB7A012B10D1FB681B889BB243F09F
:1012300001039AB2FB681A80FB681B889BB223F0FB
:1012400002039AB2FB681A8023E0FB7A022B10D1CA
:10125000FB681B889BB223F001039AB2FB681A80DB
:10126000FB681B889BB243F002039AB2FB681A80AA
:101270000FE0FB681B889BB243F001039AB2FB6846
:101280001A80FB681B889BB243F002039AB2FB688A
:101290001A80FA68214B9A4218D1204B1F4A1288B3
:1012A00092B242F4007292B21A801C4B1B4A12880E
:1012B00092B242F4807292B21A80184B174A128886
:1012C00092B242F0040292B21A801BE0FA68164B06
:1012D0009A4217D1144B144A128892B242F4007207
:1012E00092B21A800D4B0D4A128892B242F480726B
:1012F00092B21A800C4B0C4A128892B222F004026D
:1013000092B21A80FB681B889BB243F040039AB2EA
:10131000FB681A804FF480337B6115E00030014098
:10132000001002400008014000380040000C01405D
:10133000003C00407B6903F1FF337B617B69002B3C
:1013400002D14FF0010308E0FB681B899BB203F058
:101350008003002BEED14FF00003184607F1180769
:10136000BD4680BD80B584B000AF7860396000BFF5
:101370007B681B899BB203F08003002BF8D100BF70
:101380007B681B899BB203F00203002BF8D03B68FB
:101390009AB27B689A8100BF7B681B899BB203F07D
:1013A0008003002BF8D100BF7B681B899BB203F040
:1013B0000103002BF8D07B689B899BB2FB6005483A
:1013C000F96800F0C1FDFB68184607F11007BD463B
:1013D00080BD00BF7C22000880B586B000AFF860F9
:1013E000B9607A60FB681B889BB203F40063002B32
:1013F00003D14FF00803FB7402E04FF01003FB74BD
:101400004FF000037B6119E0FB7C082B08D1BA6820
:101410007B69D3181B78F8681946FFF7A3FF09E02A
:10142000BA687B694FEA4303D3181B88F8681946EA
:10143000FFF798FF7B6903F101037B617A697B68A1
:101440009A42E1D37B68184607F11807BD4680BD74
:1014500090B587B000AFF860B9607A60FB681B8810
:101460009BB203F40063002B03D14FF00803FB741D
:1014700002E04FF01003FB744FF000037B611FE0AC
:10148000FB7C082B0BD1BA687B69D418F8684FF045
:10149000FF01FFF767FF0346DBB223700CE0BA6879
:1014A0007B694FEA4303D418F8684FF6FF71FFF7E2
:1014B00059FF03469BB223807B6903F101037B61E3
:1014C0007A697B689A42DBD37B68184607F11C0770
:1014D000BD4690BD80B586B000AFF8607A603B60D5
:1014E0000B46FB724FF00103FB75FB7A032B00F2F6
:1014F000A88001A252F823F009150008C9150008B8
:10150000DD15000813160008FB681B889BB223F04A
:1015100040039AB2FB681A807B68002B10D1FB68ED
:101520001B889BB223F001039AB2FB681A80FB6808
:101530001B889BB223F002039AB2FB681A8037E043
:101540007B68012B10D1FB681B889BB243F0010321
:101550009AB2FB681A80FB681B889BB223F00203D7
:101560009AB2FB681A8023E07B68022B10D1FB68DB
:101570001B889BB223F001039AB2FB681A80FB68B8
:101580001B889BB243F002039AB2FB681A800FE0FB
:10159000FB681B889BB243F001039AB2FB681A8078
:1015A000FB681B889BB243F002039AB2FB681A8067
:1015B000FB681B889BB243F040039AB2FB681A8019
:1015C0004FF00003FB753DE0F8687968FFF7B8FC61
:1015D00003463B614FF00003FB7533E07B68082B4B
:1015E00008D1FB681B889BB223F400639AB2FB68A6
:1015F0001A800AE07B68102B07D1FB681B889BB21E
:1016000043F400639AB2FB681A804FF00003FB7545
:1016100018E07B68002B08D1FB681B889BB223F085
:1016200080039AB2FB681A8007E0FB681B889BB2B4
:1016300043F080039AB2FB681A804FF00003FB75F9
:1016400000E000BFFB7D002B05D13B68002B02D0E2
:1016500007F110033B60FB7D184607F11807BD46F4
:1016600080BD00BF80B582B000AF03463960FB711A
:10167000FB79054819463A68FFF736FD03461846D8
:1016800007F10807BD4680BD0030014080B582B03B
:1016900000AF03463960FB71FB79054819463A688B
:1016A000FFF722FD0346184607F10807BD4680BD37
:1016B0000038004080B582B000AF03463960FB714E
:1016C000FB79054819463A68FFF70EFD03461846B0
:1016D00007F10807BD4680BD003C004080B582B0E0
:1016E00000AF786004487968FFF73CFE034618466F
:1016F00007F10807BD4680BD0030014080B582B0CB
:1017000000AF786004487968FFF72CFE034618465E
:1017100007F10807BD4680BD0038004080B582B0A3
:1017200000AF786004487968FFF71CFE034618464E
:1017300007F10807BD4680BD003C004080B582B07F
:1017400000AF78603960054879683A68FFF744FE71
:101750000346184607F10807BD4680BD003001402A
:1017600080B582B000AF78603960054879683A6822
:10177000FFF732FE0346184607F10807BD4680BD55
:101780000038004080B582B000AF7860396005480D
:1017900079683A68FFF720FE0346184607F1080704
:1017A000BD4680BD003C004080B582B000AF78608F
:1017B0003960054879683A68FFF74AFE03461846DB
:1017C00007F10807BD4680BD0030014080B582B0FA
:1017D00000AF78603960054879683A68FFF738FEED
:1017E0000346184607F10807BD4680BD0038004093
:1017F00080B582B000AF78603960054879683A6892
:10180000FFF726FE0346184607F10807BD4680BDD0
:10181000003C004080B584B000AF0346B9607A60F8
:10182000FB73FB7B05481946BA687B68FFF752FEDD
:101830000346184607F11007BD4680BD0030014041
:1018400080B584B000AF0346B9607A60FB73FB7B60
:1018500005481946BA687B68FFF73CFE0346184600
:1018600007F11007BD4680BD0038004080B584B048
:1018700000AF0346B9607A60FB73FB7B05481946ED
:10188000BA687B68FFF726FE0346184607F1100783
:10189000BD4680BD003C004080B584B000AF03462B
:1018A000FB71FB79FB73064B1B685B6807F10F024A
:1018B00010464FF00101984707F11007BD4680BD63
:1018C0000000002080B483B000AF78600B46FB704E
:1018D0007B68FA781A704FF00103184607F10C077D
:1018E000BD4680BC704700BF80B485B000AF786053
:1018F00039604FF00003FB600FE03B681A787B68AB
:101900001A707B6803F101037B603B6803F10103FC
:101910003B60FB6803F10103FB603B681B78002B15
:10192000EBD1FB68184607F11407BD4680BC704731
:1019300080B586B000AFF8607A603B600B46FB7202
:101940004FF000037B617B6803F1FF337B603B68F2
:10195000092B22D93A68224BA3FB02134FEAD30387
:10196000FA7AF86811467A68FFF7E2FF78617B69D6
:10197000FA68D318FB6013E0FB7AF8681946FFF7A2
:10198000A1FFFB6803F10103FB607B6903F1010325
:101990007B617B6803F1FF337B607B68002BEBDCB2
:1019A00039680F4BA3FB01234FEAD30213464FEADA
:1019B00083039B184FEA4303CA1AD3B203F13003DF
:1019C000DBB2F8681946FFF77DFF03467A69D31842
:1019D0007B617B69184607F11807BD4680BD00BFD3
:1019E000CDCCCCCC80B586B000AFF8607A603B60DF
:1019F0000B46FB724FF000037B613B68002B04DA5F
:101A00003B68C3F100033B6101E03B683B617B68DD
:101A100003F1FF337B603B69092B24D93B68002B22
:101A20000FDA3A69354BA3FB02134FEAD303C3F134
:101A30000003FA7AF86811467A68FFF7D3FF7861F5
:101A40000CE03A692D4BA3FB02134FEAD303FA7A59
:101A5000F86811467A68FFF7C5FF78617B69FA6814
:101A6000D318FB602BE03B68002B15DA7B6803F191
:101A7000FF337B6010E0FB7AF8681946FFF722FF1E
:101A8000FB6803F10103FB607B6903F101037B61E8
:101A90007B6803F1FF337B607B68002BEBDC3B68EA
:101AA000002B0CDAF8684FF02D01FFF70BFF03460F
:101AB0007A69D3187B61FB6803F10103FB60396924
:101AC0000E4BA3FB01234FEAD30213464FEA8303D5
:101AD0009B184FEA4303CA1AD3B203F13003DBB2B7
:101AE000F8681946FFF7EEFE03467A69D3187B6162
:101AF0007B69184607F11807BD4680BDCDCCCCCC1C
:101B000080B588B002AFF8607A600A46FA72FB705E
:101B10004FF000037B617B6803F1FF337B603B6A1E
:101B20004FEA1313002B24D03B6A4FEA1311FA7AC1
:101B3000FB780091F86811467A68FFF7E1FF0346E9
:101B40007A69D3187B617B69FA68D318FB6013E06C
:101B5000FB7AF8681946FFF7B5FEFB6803F101034D
:101B6000FB607B6903F101037B617B6803F1FF3359
:101B70007B607B68002BEBDC3B6A03F00F03092BD7
:101B80000CD83B6ADBB203F00F03DBB203F1300386
:101B9000DBB2F8681946FFF795FE1BE0FB78002BD7
:101BA0000CD03B6ADBB203F00F03DBB203F1370367
:101BB000DBB2F8681946FFF785FE0BE03B6ADBB243
:101BC00003F00F03DBB203F15703DBB2F8681946E9
:101BD000FFF778FE7B6903F101037B617B6918469F
:101BE00007F11807BD4680BD80B58AB002AFF86026
:101BF000B9607A603B604FF00003BB614FF00003B7
:101C00007B61FB68002B00F01C81FB684FF0000239
:101C10001A7017E17B681B78252B10D07B681A7827
:101C2000FB681A70FB6803F10103FB607B6803F13A
:101C300001037B607B6903F101037B6102E17B6847
:101C400003F101031B78252B10D1FB684FF025020F
:101C50001A70FB6803F10103FB607B6803F1020368
:101C60007B607B6903F101037B61EBE04FF02003B4
:101C7000FB774FF00003BB777B6803F101037B60C8
:101C80007B681B78302B1BD14FF03003FB777B68D0
:101C900003F101037B6014E0BB7F1A464FEA820226
:101CA000D3184FEA4303DAB27B681B78D318DBB250
:101CB000A3F13003BB777B6803F101037B6000E095
:101CC00000BF7B681B782F2B03D97B681B78392BCF
:101CD000E2D9BA7F7B69D3181A46BB689A4205D904
:101CE000BB68DAB27B69DBB2D31ABB777B681B783F
:101CF000A3F15803202B00F2948001A252F823F0A4
:101D0000D51D0008231E0008231E0008231E0008FE
:101D1000231E0008231E0008231E0008231E00089F
:101D2000231E0008231E0008231E00080B1E0008A7
:101D3000851D0008231E0008231E0008231E00081E
:101D4000231E0008851D0008231E0008231E00080E
:101D5000231E0008231E0008231E0008231E00085F
:101D6000231E0008231E0008231E0008F51D00087E
:101D7000231E00089D1D0008231E0008231E0008C6
:101D8000B51D0008BA7F3B6803F1040139601B6888
:101D9000F97FF868FFF726FEB86145E0BA7F3B6837
:101DA00003F1040139601B68F97FF868FFF7C0FD93
:101DB000B86139E0BA7F3B6803F104013960196802
:101DC000FB7F0091F86819464FF00003FFF798FE7B
:101DD000B86129E0BA7F3B6803F1040139601968F2
:101DE000FB7F0091F86819464FF00103FFF788FE6A
:101DF000B86119E03B6803F104023A601B68F868B7
:101E00001946FFF771FDB8610EE03B6803F104026B
:101E10003A601B68DBB2F8681946FFF753FDB861FA
:101E200002E04FF0FF332CE07B6803F101037B609D
:101E3000BB69FA68D318FB607A69BB69D3187B6108
:101E400000E000BF7B681B78002B04D07A69BB6878
:101E50009A42FFF4DFAE7A69BB689A4204D2FB680B
:101E60004FF000021A700BE0FB6803F1FF33FB60D8
:101E7000FB684FF000021A707B6903F1FF337B614E
:101E80007B69184607F12007BD4680BD80B584B048
:101E900000AFF860B9607A60F8684FF06401BA6822
:101EA0007B68FFF7A1FE0346184607F11007BD4601
:101EB00080BD00BFB0B5A6B000AFF860B9607A6071
:101EC000144B07F110041D460FCD0FC40FCD0FC4E6
:101ED0002B68236007F134031846B9687A68FFF766
:101EE000D5FF0346632B09DD0B4B1B68DB6807F14D
:101EF00010021046194600F05FF8FEE707F13403C0
:101F00001846F96800F058F80346184607F1980794
:101F1000BD46B0BDC4220008F400002080B582B0E8
:101F200000AF78603960074B1B689B68184679687A
:101F30003A68FFF7BFFF0346184607F10807BD469A
:101F400080BD00BFF40000200FB480B582B000AFA8
:101F500007F114033B6038693968FFF7DFFF7860E9
:101F60007B68184607F10807BD46BDE8804004B00D
:101F7000704700BF80B582B000AF786039600D4B0C
:101F80001B689A683B689A4205D00A4B1B68DA685E
:101F90003B689A4206D17B68DBB21846FFF77CFCAF
:101FA0007B6801E04FF0FF33184607F10807BD4694
:101FB00080BD00BFF400002080B584B000AF786021
:101FC00039604FF00003FB6014E07B681B78184613
:101FD0003968FFF7CFFF0346B3F1FF3F02D14FF05F
:101FE000FF330CE0FB6803F10103FB607B6803F146
:101FF00001037B607B681B78002BE6D1FB681846E9
:1020000007F11007BD4680BD80B483B000AF786093
:102010000B46FB70FB78002B07D00B4B0A4A9169EB
:102020007A6841EA02029A6108E0074B064A916920
:102030007A686FEA020201EA02029A6107F10C076C
:10204000BD4680BC704700BF0010024080B483B022
:1020500000AF78600B46FB70FB78002B07D00B4B72
:102060000A4AD1697A6841EA0202DA6108E0074B5C
:10207000064AD1697A686FEA020201EA0202DA616D
:1020800007F10C07BD4680BC704700BF001002403E
:1020900080B584B000AF4FF01003BB734FF0200346
:1020A0007B735B4A3B4607CA03C31A805948FFF754
:1020B0004BFF594B1B684FF001004FF00801984748
:1020C000564B1B684FF001004FF008019847524BE8
:1020D0001B694FF000004FF001014FF000029847DC
:1020E0004D4B1B694FF001004FF001014FF0000212
:1020F0009847494B1B694FF002004FF008014FF021
:1021000000029847444B1B694FF003004FF0010158
:102110004FF000029847414B1B694FF000004FF011
:1021200001014FF0000298473C4B1B694FF0010042
:102130004FF001014FF000029847384B1B694FF0F8
:1021400002004FF008014FF000029847334B1B6923
:102150004FF003004FF001014FF000029847304864
:10216000FFF7F2FE4FF00003FB730AE02A4B5B68B7
:102170003A4610464FF00A019847FB7B03F10103F2
:10218000FB73FB7B092BF1D94FF00003FB7318E0C5
:10219000214BDB68BA7B10469847204BDB684FF039
:1021A000FF00984703467B737B7B1E481946FFF769
:1021B000CBFEBB7B03F10103BB73FB7B03F101038C
:1021C000FB73FB7B092BE3D94FF00003FB7318E093
:1021D000124BDB68BA7B104698470F4BDB684FF019
:1021E000FF00984703467B737B7B0E481946FFF739
:1021F000ABFEBB7B03F10103BB73FB7B03F101036C
:10220000FB73FB7B092BE3D907F11007BD4680BDAB
:1022100014230008E8220008882200089C220008F5
:10222000F422000808230008000000000102030453
:102230000102030406070809020406083D0D000810
:102240009D0D0008090E0008750E00085D0D0008C0
:10225000C10D00082D0E0008A10E00087D0D00081C
:10226000E50D0008510E0008CD0E00085374617290
:10227000740A0D00446F6E650A0D000052656164BA
:102280002025640900000000651600083D170008BD
:10229000A9170008DD160008151800088D1600089B
:1022A00061170008CD170008FD1600084118000846
:1022B000B516000885170008F11700081D1700085B
:1022C0006D180008737464696F2E633A20696E6339
:1022D0007265617365204D41585F535452494E47B2
:1022E0005F53495A450A0D00696E205350490A0D43
:1022F0000000000041667465722073706920696E89
:102300006974200A0D000000646174613D25640A4F
:102310000D000000111213141516171819200000D3
:102320004C22000800000000000000000100000036
:10233000000000000000000000000000000000009D
:10234000000000000000000000000000000000008D
:10235000000000000000000000000000000000007D
:10236000000000000000000000000000000000006D
:10237000000000000000000000000000000000005D
:10238000000000000000000000000000000000004D
:10239000000000000000000000000000000000003D
:1023A000000000000000000000000000000000002D
:1023B000000000000000000000000000000000001D
:1023C000000000000000000000000000000000000D
:1023D00000000000000000000000000000000000FD
:1023E00000000000000000000000000000000000ED
:1023F00000000000000000000000000000000000DD
:1024000000000000000000000000000000000000CC
:082410000000000004000020A0
:0400000508000000EF
:00000001FF
