:020000040800F2
:100000000404002089020008F1020008F10200083F
:10001000F1020008F1020008F102000800000000EF
:10002000000000000000000000000000F1020008D5
:10003000F102000800000000F1020008F1020008CF
:10004000F1020008F1020008F1020008F1020008C4
:10005000F1020008F1020008F1020008F1020008B4
:10006000F1020008F1020008F1020008F1020008A4
:10007000F1020008F1020008F1020008F102000894
:10008000F1020008F1020008F1020008F102000884
:10009000F1020008F1020008F1020008F102000874
:1000A000F1020008F1020008F1020008F102000864
:1000B000F1020008F1020008F1020008F102000854
:1000C000F1020008F1020008F1020008F102000844
:1000D000F1020008F1020008F1020008F102000834
:1000E000F1020008F1020008F1020008000000001F
:1000F0000000000000000000000000000000000000
:1001000000000000000000005FF808F180B500AFBB
:10011000154B154A126842F001021A60124A124B3E
:100120005968124B01EA030353600F4A0E4B1B68D8
:1001300023F0847323F4803313600B4B0A4A126854
:1001400022F480221A60084B074A526822F4FE0209
:100150005A60054B4FF41F029A6000F00BF8044BF5
:100160004FF000629A6080BD001002400000FFF86E
:1001700000ED00E080B500AF00F002F880BD00BFE8
:1001800080B483B000AF4FF000037B604FF00003FA
:100190003B603B4B3A4A126842F480321A60384B5B
:1001A0001B6803F400333B607B6803F101037B6051
:1001B0003B68002B03D17B68B3F5A06FEFD1304BC8
:1001C0001B6803F40033002B03D04FF001033B60A6
:1001D00002E04FF000033B603B68012B4BD1294B01
:1001E000284A126842F010021A60264B254A12680B
:1001F00022F003021A60234B224A126842F00202E4
:100200001A601F4B1E4A52685A601D4B1C4A5268A6
:100210005A601B4B1A4A526842F480625A60184B6B
:10022000174A526822F47C125A60154B144A5268DD
:1002300042F4E8125A60124B114A126842F080727E
:100240001A6000BF0E4B1B6803F00073002BF9D03F
:100250000B4B0B4A526822F003025A60084B084AC3
:10026000526842F002025A6000BF054B5B6803F01F
:100270000C03082BF9D107F10C07BD4680BC704771
:10028000001002400020024080B582B000AF134B46
:100290007B60134B3B600BE07B681A683B681A601D
:1002A0003B6803F104033B607B6803F104037B605C
:1002B0003A680C4B9A42EFD30B480C494FF00002BE
:1002C0008842B8BF40F8042BFADBFFF71FFF00F0AD
:1002D0000BF907F10807BD4680BD00BFC405000843
:1002E000000000200000002000000020040000208A
:1002F00080B400AFFEE700BF80B489B000AF786083
:1003000039604FF00003FB614FF000033B614FF099
:100310000003BB614FF00003FB604FF000037B6103
:100320004FF00003BB603B68DB7803F00F03FB6119
:100330003B68DB7803F01003002B05D03B689B780B
:10034000FA6942EA0303FB613B681B8803F0FF0381
:10035000002B51D07B681B687B614FF00003BB61B1
:1003600044E0BB694FF0010202FA03F3FB603B6813
:100370001B881A46FB6802EA03033B613A69FB6883
:100380009A422FD1BB694FEA8303FB60FB684FF0B1
:100390000F0202FA03F3BB60BB686FEA03037A69DA
:1003A00002EA03037B61FB68FA6902FA03F37A69E4
:1003B00042EA03037B613B68DB78282B07D1BB69EA
:1003C0004FF0010202FA03F27B685A610AE03B68CF
:1003D000DB78482B06D1BB694FF0010202FA03F229
:1003E0007B681A61BB6903F10103BB61BB69072B21
:1003F000B7D97B687A691A603B681B88FF2B56D98E
:100400007B685B687B614FF00003BB6149E0BB69BF
:1004100003F108034FF0010202FA03F3FB603B68AB
:100420001B881A46FB6802EA03033B613A69FB68D2
:100430009A4232D1BB694FEA8303FB60FB684FF0FD
:100440000F0202FA03F3BB60BB686FEA03037A6929
:1004500002EA03037B61FB68FA6902FA03F37A6933
:1004600042EA03037B613B68DB78282B08D1BB6938
:1004700003F108034FF0010202FA03F27B685A61AC
:100480003B68DB78482B08D1BB6903F108034FF0C8
:10049000010202FA03F27B681A61BB6903F10103EE
:1004A000BB61BB69072BB2D97B687A695A6007F1D7
:1004B0002407BD4680BC704780B483B000AF78602D
:1004C00013460A467A807B707B78002B03D07A88AB
:1004D0007B681A6102E07A887B685A6107F10C0731
:1004E000BD4680BC704700BF80B500AF00F024F867
:1004F000FEE700BF80B483B000AF78600B46FB70AE
:10050000FB78002B07D00B4B0A4A91697A6841EAC5
:1005100002029A6108E0074B064A91697A686FEA1D
:10052000020201EA02029A6107F10C07BD4680BC93
:10053000704700BF0010024080B500AF4FF00800C8
:100540004FF00101FFF7D6FF124B4FF003029A70F4
:10055000104B4FF01002DA700E4B4FF6FF721A80FC
:100560000D480C49FFF7C8FE0C4800F019F80A487E
:100570004FF480714FF00102FFF79EFF074800F033
:100580000FF805484FF480714FF00002FFF794FF19
:10059000EAE700BF00000020000C0140FFFF0F0051
:1005A00080B483B000AF786003E07B6803F1FF3371
:1005B0007B607B68002BF8D107F10C07BD4680BC3F
:0405C000704700BFC1
:0400000508000000EF
:00000001FF
