S01700006275696C642F697269732F6D61696E2E7372656343
S11300000C9469000C9488000C9488000C9488006B
S11300100C9488000C9488000C9488000C9488003C
S11300200C9488000C9488000C9488000C9488002C
S11300300C9488000C9468160C9488000C94B016E8
S11300400C9401160C94B4150C94EB150C94F61541
S11300500C9439160C9488000C9488000C94880035
S11300600C94C4160C9488000C9488000C9488009A
S11300700C9488000C947C170C9488000C948800D1
S11300800C9488000C9488000C9488000C948800CC
S11300900C9488000C9488000C9488000C948800BC
S11300A00C9488000C9488000C9488000C948800AC
S11300B00C9488000C9488000C9488000C9488009C
S11300C00C9488000C9488000C94880000020E069E
S11300D00C0411241FBECFEFD1E2DEBFCDBF12E06E
S11300E0A0E0B2E0E8E1F4E300E00BBF02C0079057
S11300F00D92AA30B107D9F714E0AAE0B2E001C02A
S11301001D92A130B107E1F70E94F9130C940B1A68
S11301100C9400008FB7F894992708958FBF089521
S11301208FB7F894282F332782B194E0892782B9B6
S11301302FBF08958FB7F894282F332782B192E008
S1130140892782B92FBF08958FB7F89499272091F2
S11301500502309106028FBFC9010895982F8FB709
S1130160F894282FE92FFF27E851FC4F80818F3F17
S1130170B1F48091F703891791F08091E2038F3FE6
S113018019F49093E20307C08091F703E82FFF2747
S1130190E851FC4F90839093F70380E001C085E021
S11301A02FBF99270895BF92CF92DF92EF92FF92CB
S11301B00F931F93CF93DF93D82E7B01EA01B22EC6
S11301C040E050E08E010F5F1F4FF80181819927B5
S11301D0982F882729813327822B932B87749C7C23
S11301E08154984811F441E050E0242F332722230E
S11301F041F481E498E8898388E890E0F8018183F8
S113020028A70E94A4008887892F992789878FB7F8
S1130210F894992720910D028FBF822F99278C8300
S11302201D82DB8666E0C62ED12CCC0EDD1EEE824E
S11302308F2D9927F60181838FE38A878091E003CC
S11302408F5F8093E0038B838091F903883011F0F2
S11302508C3041F48091A9028D7F8093A90282E0C1
S11302600E94AE008091F903853021F08B3011F0AB
S11302708C3011F48DE00FC0863011F48EE00BC089
S1130280873021F0893011F0883011F48FE003C0F9
S113029085E090E027C08093F903F60181819927D6
S11302A0982F88272E813327822B932B8F5F9F4F84
S11302B071F0F80181819927982F882729813327A4
S11302C0822B932B80628983892F99278183D093F2
S11302D0B903C093B803B0920A0381E08093820308
S11302E080E090E09927DF91CF911F910F91FF90CB
S11302F0EF90DF90CF90BF9008951F93CF93DF933B
S1130300142FC82FDD27FE01EC0FFD1FE354FD4F12
S1130310118210821092000220E08091BD0290911F
S1130320BE02892B19F08091E10380FD21E0109237
S11303300002222319F081E08093000280910002E0
S11303408823C9F4E091BD02F091BE028781992708
S1130350782F662786819927682B792B80818D5089
S11303609927282FAF0183850E94D300882319F091
S11303708DE00E94AE00CD2B49F4112319F40E94A4
S11303809A0002C00E9490001092D103DF91CF9195
S11303901F910895282F869586958695E82FFF2727
S11303A0E75FFC4F277081E090E002C0880F991F3F
S11303B02A95E2F720812823822F992708955091C6
S11303C0CF03552311F48EE101C08FE1982F20E073
S11303D030E0E22F552309F428E033278FB7F8944F
S11303E0582F8091F6038E7F8093F603322F20914D
S11303F07C0060E070E0822F8295869586958370FC
S1130400E81749F4892F8850863118F42F71921710
S113041011F461E070E0862F880F2091F6032D7FA0
S1130420282B9F71892F880F880F2378282B2093DE
S1130430F603892F992780937C00406C21702295C4
S1130440220F207E4F7D422B4861383059F5809130
S113045093039091940321E08638920718F087E083
S113046090E01FC0833C910518F086E090E019C02D
S11304708136910518F085E090E013C08033910532
S113048018F084E090E00DC08831910518F083E005
S113049090E007C00C9718F082E090E002C080E082
S11304A090E0382F3770487F432B842F992780930F
S11304B07A005FBF089580910C02882319F480E0CC
S11304C090E0089581E090E00895882319F08CB5B8
S11304D0806402C08CB58F7B8CBD08951F93CF932D
S11304E0DF93982F40E08FB7F894C82F80910C02C7
S11304F0823089F580910202891769F520E030E0A5
S1130500809104028F3F11F421E030E0232BE9F4C1
S11305108F3F81F0282F3327F901E450FC4F80816D
S1130520809304028F3F11F4809303028FEF808342
S1130530C90102C08FEF90E08093C60381E08093ED
S11305400C0289E00E94AE0005C08FEF8093020286
S113055040930C0241E0CFBF413019F480E090E0B9
S113056002C081E090E0182F8FB7F894C82FDD27E0
S11305700E945B029927882311F40E946502CFBF71
S1130580812F9927DF91CF911F9108950F931F9386
S1130590CF93DF93FC01C0E0D0E082819927382F0C
S11305A0222781819927282B392B822F9927807222
S11305B090708823A1F027743C7C2154384879F446
S11305C087819927182F002786819927082B192BB3
S11305D00E94A4000817190711F4C1E0D0E0CE016D
S11305E0DF91CF911F910F910895FC019A01AB0106
S11305F080A5826080A725A736A747A750AB08959A
S11306008FB7F894682F77278091010390910203A4
S1130610A0910303B09104032091840030918500DC
S1130620B09B07C00196A11DB11D2091840030919B
S1130630850044275527DC0199278827822B932B93
S1130640A42BB52B6FBFBC01CD010895AC018FB7AE
S1130650F894E82F2091840030918500C901841B0F
S1130660950B03968617970720F0B9016D5F7F4FAE
S113067002C0640F751F6115710511F461E070E02B
S113068061507040709389006093880082E086BB5B
S113069080916F00826080936F00EFBF08959C018A
S11306A081E08093CC038093060380918400909131
S11306B08500B9010E9426030895FC0190A56623D4
S11306C011F0916001C09E7F90A70895DC01FC01A8
S11306D08191FD019181282F332795FF03C0C90122
S11306E08B960895C90140960895CF93C82F882307
S11306F081F48091C6029091C7020E946603209102
S11307008C0330918D03280F391F30938D03209370
S11307108C038FB7F8949927C093D0038FBF84E0DC
S11307200E94AE00CF9108951F93CF93BC01809196
S1130730B703282F3327F901E20FF31FE454FC4FCA
S1130740808191818617970799F4F901EF53FD4F42
S1130750808190910503891711F4C90168C0892F1C
S11307608F5F809305038083C0E846C0CA015FC0E1
S1130770C0E01C2F3C2FA1ECB2E040E050E0FA01B5
S1130780E40FF51FE454FC4F80819181209105030F
S11307908617970761F43093B7038C91821731F36E
S11307A0822F8F5F809305038C93C0E80CC08C91DB
S11307B0281BC21710F4C22F132F3F5F4F5F5F4FE8
S11307C011963530E0F23530B9F41093B703A12F08
S11307D0BB27FD01EA0FFB1FE454FC4F71836083C8
S11307E0FD01EF53FD4F809105038F5F8093050357
S11307F08083AB57BC4F1C9220910503822F99270D
S11308008F7790708F37910579F4CF3768F0922FF6
S11308109078E1ECF2E034E080818F67821390837A
S11308203150319637FFF8CF8091B7039927CF9194
S11308301F910895EF92FF920F931F937C018FB73E
S1130840F89499270091D8031091D9030F5E1E4F95
S11308501093D9030093D803015111408FBF87E04F
S11308600E94AE00C801B7010E94A1198A5D9E4F83
S11308701F910F91FF90EF900895EF920F931F93A4
S1130880AE2D99E0899FF0011124EF55FD4F40836F
S11308905183628373830483158326833783A17012
S11308A080858E7F8A2B8260808781E00E94AE00E3
S11308B01F910F91EF900895FC01DC01989680A59B
S11308C085FD05C08091FE039091FF030895FD010D
S11308D0838194810895BC0187E26031780718F020
S11308E060E070E00CC06330710518F460E375E7F4
S11308F006C080E69AEE0E94A11966507040CB01B2
S113090008958FB7F894982F8091B2002091CC026B
S11309103091CD024091CE025091CF02B99B11C0CB
S11309208091B300280F311D411D511D8091B200EB
S1130930280F311D411D511D2F5F3F4F4F4F5F4FFA
S113094004C0280F311D411D511D9FBFCA01B901AB
S113095008950F931F93CF93DF9310E08FB7F8940C
S1130960482F5527042F2091B3009091B20087B3EC
S1130970291711F081FF02C04FBF71C0809192030B
S11309808823B1F10E948104DC01CB01C091D20320
S1130990D091D303E091D403F091D5038C1B9D0B2C
S11309A0AE0BBF0B20910F03309110034091110344
S11309B05091120382179307A407B50720F01093F0
S11309C0920311E015C02C0F3D1F4E1F5F1F809135
S11309D0CC029091CD02A091CE02B091CF02281BFF
S11309E0390B4A0B5B0B273E31054105510510F0CD
S11309F086EE05C0223010F482E001C0822F682FF9
S1130A0061508091B60083FDFCCF8091B2008617BF
S1130A1009F46F5F2091CC023091CD024091CE0257
S1130A205091CF02DA01C901860F911DA11DB11D9C
S1130A300196A11DB11D82179307A407B50718F4E9
S1130A406091CC0260958091B60083FDFCCF6093E9
S1130A50B3000FBF112319F080E00E94AE00DF91B4
S1130A60CF911F910F910895EF92FF920F931F93CF
S1130A707B018C018FB7F894682F772781E08093EE
S1130A809203E092D203F092D3030093D403109321
S1130A90D50320930F033093100340931103509315
S1130AA012036FBF0E94A9041F910F91FF90EF9052
S1130AB00895AF92BF92CF92DF92EF920F931F935C
S1130AC05B016C010E948104DC01CB01EE249601E0
S1130AD08501AC01BD0182E00E943D041F910F918C
S1130AE0EF90DF90CF90BF90AF900895AF92BF92F8
S1130AF0CF92DF92EF92FF920F931F93F82E5A0139
S1130B006B010E948104DC01CB01E1E0EE2E960131
S1130B108501AC01BD018F2D0E943D041F910F91F1
S1130B20FF90EF90DF90CF90BF90AF90089588230F
S1130B3019F08CB5806802C08CB58F778CBD089590
S1130B40EF92FF921F9310E0812F0E9465028FB7EE
S1130B50F894E82EFF24229A2398219A8CB5806178
S1130B608CBD812F0E9497058DB581608DBD8CB59C
S1130B70877F8CBD8CB58B7F8CBD8CB58E7F8CBDF7
S1130B8081E00E946502EFBE1F91FF90EF900895EF
S1130B901F93CF93DF93182F8FB7F894C82FDD27B7
S1130BA00E945B02882311F40E94A005CFBF8FB777
S1130BB0F894C82FDD272C2F80910C02882361F430
S1130BC081E080930C021093C60389E00E94AE007A
S1130BD0CFBF80E090E01FC0E12FFF27E450FC4F1F
S1130BE080818F3FA1F4E0910302E11781F08091AD
S1130BF004028F3F19F41093040204C0FF27E45049
S1130C00FC4F10831093030280E090E002C085E063
S1130C1090E02FBF99279927DF91CF911F910895D5
S1130C20CF938FB7F894282F3327922F8091020205
S1130C30882341F480910C02823021F42FBF81E09B
S1130C4090E003C09FBF80E090E0892BF1F48FB760
S1130C50F894282F332790910C02992349F482E0C9
S1130C6080930C02909302022FBF80E090E003C0B7
S1130C702FBF81E090E09927C82F882311F40E94A8
S1130C80A005CC2329F4209A289A81E090E005C09D
S1130C9080E00E94C80580E090E0CF910895CF9253
S1130CA0DF92EF92FF920F931F93CF93DF936C0128
S1130CB080918B03882309F098C08091B603853016
S1130CC009F093C00E941006882309F48EC0809115
S1130CD00B03882309F089C0F601B896E60188A5BC
S1130CE084709927882311F082818F70682F8091F6
S1130CF01503681789F060931503962F9068289858
S1130D0085EC8EBD0DB407FEFDCF8EB59EBD0DB432
S1130D1007FEFDCF8EB5289A40E050E0E60121960B
S1130D2089819927982F8827F60121813327822BDF
S1130D30932B87749C7C8154984811F441E050E0D3
S1130D40452B01F1289886E88EBD0DB407FEFDCF32
S1130D508EB51EBC0DB407FEFDCF8EB5289A282F84
S1130D6033272F713070909114038091FD03890F04
S1130D70912D911D53E0959587955A95E1F782172A
S1130D8093079CF1289882EC8EBD0DB407FEFDCF2D
S1130D908EB589E08EBD0DB407FEFDCF8EB5289AC1
S1130DA00E9400037B018C01F60180A584FF06C02C
S1130DB080818151E80FF11D3C9602C0E0E0F0E033
S1130DC0289881E88EBD0DB407FEFDCF8EB51EBCFC
S1130DD00DB407FEFDCF8EB5289A99278F719070B8
S1130DE0099731F087E08093B60385E090E0A4C0D2
S1130DF08FB7F89499272F9A209184003091850019
S1130E002E553F4F8FBF2F98289880E68EBDD60170
S1130E108C919927682F982F0DB407FEFDCF8EB5BE
S1130E209EBD625097E0691708F4962F691B49919B
S1130E300DB407FEFDCF8EB54EBD9150C1F72E19EE
S1130E403F09C901AA2797FDA095BA2FE80EF91EFC
S1130E500A1F1B1F3097B9F080819181A281B38151
S1130E608E199F09A00BB10B8383292F3A2F4B2F87
S1130E70552722839D014427552721838B2F9927AA
S1130E80AA27BB27808399910DB407FEFDCF8EB5A9
S1130E909EBD6150C1F70DB407FEFDCF8EB5289AF3
S1130EA0289882EC8EBD0DB407FEFDCF8EB586E08A
S1130EB08EBD0DB407FEFDCF8EB5289A309779F11B
S1130EC080819927AA27BB27B82FAA279927882783
S1130ED02181332744275527A90133272227822B31
S1130EE0932BA42BB52B2281332744275527542F2A
S1130EF0432F322F2227822B932BA42BB52B238114
S1130F00332744275527822B932BA42BB52B8E0DE7
S1130F109F1DA01FB11F80839183A283B383B80157
S1130F20A701C6010E94F50286E08093B60384E01F
S1130F3080938B0380E090E0DF91CF911F910F911C
S1130F40FF90EF90DF90CF9008951F93182F81E0CA
S1130F500E9465021EBD0DB407FEFDCF8EB5992714
S1130F601F910895CF92DF92EF92FF920F931F93F8
S1130F70CF93DF9380910B03882309F417C10E9458
S1130F801006882309F412C18FB7F8949927C091E9
S1130F900703D09108038FBF10920B0328988FE8A2
S1130FA08EBD0DB407FEFDCF8EB51EBC0DB407FE7D
S1130FB0FDCF8EB5289A982F082F112700FF0CC05B
S1130FC080918B03833011F0873031F485E0809376
S1130FD0B60388E080938B0302FF58C080918B0393
S1130FE0863011F410928B0380918B03882309F0CF
S1130FF04DC09430D1F5289886E88EBD0DB407FE17
S1131000FDCF8EB51EBC0DB407FEFDCF2EB5289ABC
S11310102F718091FD03982F96959695322F391B49
S1131020830F8093FD03E091C802F091C90280A56B
S11310308B7F886080A722A70E9400039B01AC01DC
S1131040C61BD70B2797CE01AA2797FDA095BA2FC9
S1131050820F931FA41FB51FAC01BD018091C8026C
S11310609091C9020E94F5020EC0E091C802F0916D
S1131070C90280A5877F80A7E091C802F091C902C8
S113108080A58D7F80A785E080938B0303FF8EC0AE
S113109080918B03843009F057C085E08093B603B8
S11310A010928B0380911303833019F4109213036D
S11310B07DC0E091CD03F091CE0340E050E0828109
S11310C09927382F222781819927282B392B822F82
S11310D0992780729070882391F027743C7C215466
S11310E0384869F487819927982F882726813327E0
S11310F0822B932B8F5F9F4F11F041E050E0452BE3
S1131100D9F020E030E080910603882311F421E037
S113111030E0232B89F012E01093CC0381E080931C
S11311200603809184009091850061EE72E00E9434
S11311302603109313033AC01092130310928E03E4
S113114080E00E94750332C0853081F58091B6033A
S1131150873091F4289882EC8EBD0DB407FEFDCF44
S11311608EB586E08EBD0DB407FEFDCF8EB5289AF0
S113117085E08093B60317C0289886E88EBD0DB429
S113118007FEFDCF8EB51EBC0DB407FEFDCF8EB598
S1131190289A8F7190911403292F26952695821BE6
S11311A0980F9093140389E080938B0390918B03A1
S11311B0992309F493C2993009F0D2C1289880E2A6
S11311C08EBD0DB407FEFDCF8EB51EBC0DB407FE5B
S11311D0FDCF8EB59927A82F833008F4CFC08A326B
S11311E008F0CCC01EBCE091C802F091C902808313
S11311F06091C8027091C9026F5F7F4FEE24FF2493
S1131200A25027E0A21708F42A2FA21BFB016F5F4C
S11312107F4F0DB407FEFDCF8EB51EBC992780838A
S1131220A7014827042E4295407F4025052E542FC0
S113123042954F700426469554274527440F440F82
S1131240440F40257A01215009F70091C8021091FA
S1131250C90240E050E0F8018181282F332727702C
S113126030702230310511F441E050E05527442319
S1131270E1F040E050E0809113038230A1F4C0908B
S1131280CD03D090CE03EA01F8019381F601838166
S1131290891729F42230310511F4C1E0D0E0CD2BB7
S11312A011F041E050E0CA010DC08FB7F894282F27
S11312B03327942F8091C903833008F491E02FBF22
S11312C0892F9927882309F459C0A150AF3FF1F021
S11312D0FB016F5F7F4F0DB407FEFDCF8EB51EBCC3
S11312E09927808397012827022E2295207F202585
S11312F0032E322F22952F7002262695322723277C
S1131300220F220F220F20257901DFCF0DB407FE13
S1131310FDCF8EB51EBC97012827022E2295207F73
S11313202025032E322F22952F7002262695322750
S11313302327220F220F220F20250DB407FEFDCFF5
S11313408EB51EBC2827022E2295207F2025032E31
S1131350322F22952F700226269532272327220F1B
S1131360220F220F20257901E091C802F091C902D1
S11313700DB407FEFDCF8EB581A703C0B1E0EB2EFF
S1131380F12C289AA5E0DA2ED092B60310928B03A2
S1131390E114F10409F096C10091C8021091C90248
S11313A09701F8018181992787709070029711F451
S11313B021E030E0C22FDD27809113038230A9F4AD
S11313C080916F008D7F80936F00109206036C2FC5
S11313D08091CD039091CE030E945D03109213037C
S11313E010928E0380E00E947503CC2309F08CC018
S11313F0C8010E94C6028823A9F0D0924B0382E060
S113140090E080934C03E0924D03F8018381809334
S11314104E038BE493E00E944F06882319F483E083
S113142080931303C0918400D0918500C8010E9469
S1131430C602882311F0C45EDC4FD093C803C09366
S1131440C7038091840090918500C81BD90BCE01FD
S11314501C161D066CF420918E03222331F40E9485
S11314604F0380E880938E0303C0206820938E038B
S1131470C8010E9466032091960330919703280FB8
S1131480391F3093970320939603E80128968981A6
S11314909927382F2227F80180859927822B932BAF
S11314A00E949403E82FFF27EB57FC4F908191FD96
S11314B009C080919503803128F48F5F8093950350
S11314C09260908389819927382F2227F80180859B
S11314D09927822B932B0E949403F8019381A82FC0
S11314E0BB27FD01EB57FC4F808180FF0FC0FD013E
S11314F0ED51FC4F8081981759F48091D7038F3FA9
S113150019F08F5F8093D703C80125C08160808361
S1131510AD51BC4F9C938FB7F894F82E8091C903BA
S1131520833010F0E80115C0E091BA03E80FE3300E
S113153008F0E350FF27EE0FFF1FE458FC4FC08173
S1131540D181118300838F5F8093C90385E00E945A
S1131550AE00FFBECE019093C9028093C802B2C010
S1131560892F8150833008F08CC081508230F0F490
S11315704091B6034130D1F420E030E0809106037D
S1131580882311F421E030E0232B81F02F9883E0AD
S11315908093CC034093060380918400909185004E
S11315A06BE273E00E94260382E056C0933089F513
S11315B08091B603833069F50E941006882349F1AF
S11315C028988FE88EBD0DB407FEFDCF8EB51EBCE6
S11315D00DB407FEFDCF8EB5289A809181008064FA
S11315E08093810080E286BB80916F00806280934B
S11315F06F00289882EC8EBD0DB407FEFDCF8EB52A
S113160086E08EBD0DB407FEFDCF8EB5289A84E02A
S113161023C080918B038150823000F58091B60302
S11316208530E1F40E9410068823C1F0289882ECEA
S11316308EBD0DB407FEFDCF8EB583E08EBD0DB417
S113164007FEFDCF8EB5289A80916F008F7D809321
S11316506F0010920B0383E08093B60390918B0389
S1131660913041F48091B603833061F52F9A9093C1
S1131670B60325C0923031F58091B603833011F55D
S11316801EC09730F9F40E9410068823D9F0909177
S1131690FB039066289888EC8EBD0DB407FEFDCF41
S11316A08EB59EBD0DB407FEFDCF8EB5289A8091F0
S11316B0B603853021F484E08093B60303C088E048
S11316C080938B0380918B03883041F410928B03B9
S11316D086E00E94AE0083E00E94AE0080918B03FE
S11316E0882309F58091B6038530E9F480910B03D2
S11316F08823C9F4809113038823A9F480918E036D
S1131700882389F420E030E080910603882311F4D3
S113171021E030E0232B39F080919903813019F4D2
S113172084E00E94AE0080918B03882311F40E9410
S11317306E0280910603823009F0A8C0109206035D
S11317408091CC0399278130910561F08230910515
S11317500CF49CC08230910509F46CC0039709F421
S113176078C094C080918400909185000091C70353
S11317701091C803081B190B80918E03803859F40B
S113178010928E0380919903813009F07FC084E028
S11317900E94AE007BC087FF05C01016110614F42A
S11317A0C5E022C0C091DE03D091DF038091130312
S11317B0882399F4CE010E944F06682F7727F62ECE
S11317C0662369F4CE010E945D0381E080931303D4
S11317D0D093CE03C093CD0302C075E0F72E8F2DB6
S11317E09927C82F882311F120918E03822F9927DE
S11317F08F77019759F42078226020938E0380E13B
S113180098E00E941A040E944F0340C027FF0AC0B8
S1131810101611063CF480E880938E03C8010E94E0
S11318204F0302C010928E038C2F10C083E080936C
S11318308E032CC08091D7038F3F19F08F5F809364
S1131840D7031092130310928E0380E00E94750355
S11318501DC08091B603823021F483E08093B603E7
S113186013C080918B03863079F410928B032898EF
S113187081E88EBD0DB407FEFDCF8EB51EBC0DB440
S113188007FEFDCF8EB5289A0E94600C8FB7F8949E
S1131890282F332780919103813021F410929103F2
S11318A02FBF05C081E0809391032FBF63CBDF91ED
S11318B0CF911F910F91FF90EF90DF90CF900895FB
S11318C08FB7F894282F332780919103882329F028
S11318D08068809391032FBF089581E080939103E2
S11318E02FBF0E94B20708958FB7F894282F33278B
S11318F080919103815080939103803811F02FBF20
S1131900089581E0809391032FBF0E94B207089548
S11319106F927F928F929F92AF92BF92CF92DF92FB
S1131920EF92FF920F931F93CF93DF935B016C01B0
S113193000E0EE24FF2461EA72E0FB01108511FF50
S113194076C12081318142815381D601C501821B38
S1131950930BA40BB50B64807580868097808615E5
S11319609705A805B90508F462C110FF03C01D7FDF
S1131970108709C0260D371D481D591DFB01208302
S1131980318342835383F1E0EF16F10421F182E0C5
S1131990E816F1041CF4EF2839F052C1E2E0EE1627
S11319A0F10409F46FC04CC18091F903883011F43B
S11319B089E00BC08C3011F485E007C0813111F44B
S11319C082E103C0803119F483E18093F90382E05A
S11319D00E94AE0035C18FB7F894282F3327809129
S11319E091038F5F809391032FBF80918C0390911B
S11319F08D039C0153E0369527955A95E1F7821B98
S1131A00930B90938D0380938C0380919603909114
S1131A1097039C0143E0369527954A95E1F7821B8D
S1131A20930B90939703809396038091D703982FF9
S1131A30969596959695891B8093D70320910C03D0
S1131A40422F46954695469530919503431741F4A8
S1131A50822F992787709070892B11F0215002C032
S1131A60341B230F20930C03E5E8F3E094E080811A
S1131A708D7F8193915097FFFACF109295030E9426
S1131A80740CDEC08091F8038A3009F081C0809123
S1131A90D103882309F05DC0ACEDB2E0EAE9F3E0DC
S1131AA08CE101900D928150E1F784E690E00E9470
S1131AB06B049C018230910518F420E030E005C0ED
S1131AC08153954710F020E335E78091F802806256
S1131AD0E0EDF2E080A73093FC022093FB026FEF6D
S1131AE07FEFAF016093D6028FEF90E08093D7022F
S1131AF093E99093DB02C091BD02D091BE0220977E
S1131B0019F085E090E020C0F093BE02E093BD029E
S1131B1089E28093D002809100028823A1F0109280
S1131B2000022CE1892F0E94D3009927282F8823B3
S1131B3039F081E080930002D093BE02C093BD02CD
S1131B40822F992701C0CE01882319F481E0809364
S1131B50D1038091D103882311F40E949000109244
S1131B60F80380919803882389F48091A00399272E
S1131B70982F88272091A1033327822B932B01963A
S1131B808093A103892F99278093A003109298032F
S1131B908FB7F894282F3327C22F90910A029923E4
S1131BA091F080E00E94CA01882341F480910903E6
S1131BB081608093090380E090E002C085E090E0BA
S1131BC0CFBF99272FC081E080930A0290938A03A4
S1131BD02FBF8FB7F894282F332780917A0080681D
S1131BE080937A002FBF8FB7F894C82FDD279C2FDE
S1131BF080910102813099F480910A02813021F4AC
S1131C008AE00E94AE0009C0823049F480918A03C0
S1131C108093010283E080930A02CFBF01C09FBF7B
S1131C2080E090E0892B61F00E94900009C00F5F72
S1131C30675F7F4F0894E11CF11C033008F47DCEEC
S1131C4081E00E94AE00DF91CF911F910F91FF9030
S1131C50EF90DF90CF90BF90AF909F908F907F9048
S1131C606F9008952F923F924F925F926F927F925E
S1131C708F929F92AF92BF92CF92DF92EF92FF9298
S1131C800F931F93CF93DF93CDB7DEB72A970FB689
S1131C90F894DEBF0FBECDBF99278630910509F4B5
S1131CA07EC387309105ACF48230910509F4B6C047
S1131CB08330910534F4009739F1019709F458C041
S1131CC054C58430910509F411C205970CF098C2EB
S1131CD001C28A30910509F482C48B30910544F421
S1131CE08830910509F4D5C309970CF0E7C376C38E
S1131CF08C30910509F406C58C3091050CF4A5C40B
S1131D000D9709F425C531C54091BC02442349F51A
S1131D108FB7F894282F3327E090D203F090D303A1
S1131D200091D4031091D50380910F039091100377
S1131D30A0911103B0911203E80EF91E0A1F1B1F94
S1131D402FBF8091DA039091DB03A091DC03B09163
S1131D50DD034093BC029C01AD01C801B7010E94A0
S1131D6034050E948104DC01CB01BC01CD0143C0D8
S1131D700E9481044B015C012FEF3FEF4FEF5FE7BF
S1131D80CC248FB7F8949927C09292038FBF61EA4D
S1131D9072E0F2E0DF2EFB01808581FF1DC08081AF
S1131DA09181A281B38185017401E81AF90A0A0BB1
S1131DB01B0BD801C701E480F58006811781E81A5E
S1131DC0F90A0A0B1B0BE216F3060407150724F4A1
S1131DD0A8019701E1E0CE2EDA94675F7F4FD7FE2A
S1131DE0DACFCC2009F4C1C4121613061406150662
S1131DF02CF0C501B4010E94880CB7C42093DA0307
S1131E003093DB034093DC035093DD0381E0809344
S1131E10BC02C501B4010E943405A7C48091F90332
S1131E20853011F08D30C9F58FB7F894282F3327FA
S1131E30809191038F5F809391032FBF80919903C9
S1131E40882309F03CC081E08093D60380918B0302
S1131E50882371F48091B603813069F420E030E086
S1131E6080910603882311F421E030E0232B41F410
S1131E7085E090E00CC0853019F489E090E007C05B
S1131E8083E080938B030E94600C80E090E09927AC
S1131E90182F8823A9F584E031C0893011F08130EE
S1131EA0C1F58FB7F894282F3327809191038F5F62
S1131EB0809391032FBF80919903882311F015E03B
S1131EC01FC082E08093D60380918B03882319F08E
S1131ED085E090E00EC08091B603813019F489E06A
S1131EE090E007C081E080938B030E94600C80E047
S1131EF090E09927182F882319F485E0809399039B
S1131F000E94740C112309F077C18091F9038F5F4B
S1131F10B7C0843009F048C085E08093F90382E0BB
S1131F200E94AE0084E690E00E946B04823091052A
S1131F3018F480E090E006C005E78133900710F0C4
S1131F4080E395E79093FF038093FE032091F903C8
S1131F50283019F4892B19F00DC02C3059F48091D4
S1131F60A9028D7F8093A90221502093F90382E076
S1131F700E94AE008091070290910802892B09F417
S1131F80F4C380919C039927982F882720919D035F
S1131F903327822B932BAA27BB27BC01CD010E9498
S1131FA059051092F803E1C3833019F41092F90330
S1131FB0DCC3873079F488E08093F9038091FE03D1
S1131FC09091FF03892B09F4D0C346E050E060E010
S1131FD070E011C08B30A9F42091FE033091FF030F
S1131FE02115310561F08CE08093F903C901AA271A
S1131FF0BB27AC01BD0180E00E947605B6C385E035
S1132000F9C08F3091F48091B8039091B9030E9484
S11320105C04009709F4EDC04496AA27BB27AC01E1
S1132020BD0180E00E947605E4C0803161F5E09155
S1132030B803F091B90380910A038D3118F086E05A
S113204090E017C090919903992319F085E090E0EE
S113205010C0835F8083F0939003E0938F0381E04B
S1132060809399039093000484E00E94AE0080E082
S113207090E0992780938203882309F0B8C081E116
S11320808093F90372C3833109F06FC388E08093AE
S1132090F9038091FE039091FF03892B39F04AE004
S11320A050E060E070E080E00E9476052091B80383
S11320B03091B9034091820380910002882309F092
S11320C054C36091BD027091BE026217730709F098
S11320D04CC349C390919903892F8450823010F4E2
S11320E0109299038091F9038F5F84C08FB7F8949D
S11320F099271091D0038FBF80919903823011F4F6
S1132100112339F0809100048F5F8093000486309E
S113211020F083E08093990343C08FB7F894282F6D
S11321203327809191038F5F809391032FBF409158
S11321308F03509190035093C7024093C60280913D
S11321408E03882351F420E030E080910603882335
S113215011F421E030E0232B19F485E090E00FC066
S11321605093DF034093DE0381E080938E0386EB7C
S113217093E20E941A040E944F0380E090E09927A2
S1132180182F882311F482E007C080910004853061
S113219011F483E001C081E0809399030E94740CE0
S11321A080919903833009F0E0C210929903E09082
S11321B08F03F090900310938203112389F4C701D5
S11321C00E945C04892B71F08091F903823151F0F3
S11321D0F701818185FF0DC080A580FF0AC002C080
S11321E00E9490008091A9028D7F8093A90283E1CF
S11321F001C080E18093F90382E00E94AE00B5C281
S11322008FB7F894282F33278091C903882309F4C2
S11322109DC28091BA03E82FFF27EE0FFF1FE458F9
S1132220FC4F808091802FBF3CE0C32ED12CC80C82
S1132230D91C8091F903893019F488E08093F9035B
S11322408091F903883069F48091FE039091FF0333
S1132250892B39F04AE050E060E070E080E00E94B1
S11322607605F40182858F3309F07DC0B3848781BC
S11322709927182F002786819927082B192BEE24DC
S1132280FF240E94A4000817190719F00F5F1F4FBD
S113229019F401E0E02EF12CEF2809F464C013E9ED
S11322A0E12EBE1409F05FC08FB7F894282F3327AE
S11322B082B111E0812782B92FBFF601808199276D
S11322C0582F442781819927482B592B80919A03B1
S11322D09927982F882720919B033327822B932BB0
S11322E08417950710F540939B03852F99278093B6
S11322F09A0382819927382F222783819927282BB3
S1132300392B20939D03832F992780939C0399272E
S1132310982F88273327822B932BAA27BB27BC010E
S1132320CD010E9459051092F803F6018681992780
S1132330582F442787819927482B592B8091A00334
S11323409927982F88272091A1033327822B932B39
S11323508417950740F44093A103852F9927809310
S1132360A003109398038FB7F894482F55278091B2
S1132370BA03E82FFF27EE0FFF1FE458FC4F9182AA
S113238080828F5F8093BA03833010F01092BA0377
S11323908091C90381508093C9034FBF31CFF0901E
S11323A0D603F1E0FF1679F40E948104DC01CB012D
S11323B0EE2404E610E020E030E0AC01BD018F2DF6
S11323C00E943D04D2C1B2E0EB2EFE1409F0CDC14F
S11323D08091B2028D7F8093B202C7C18FB7F89407
S11323E0082F11271A8709872090160330901703A6
S11323F040901803509019036624AEE4AA2EF3E823
S1132400BF2EC62CD62CE62CF62C062D162D222DEE
S1132410332D442D552D662D762D862D962D0E9417
S1132420EB1729833A834B835C836D837E838F838D
S11324309887822E932EA42EB52E240135017694EE
S113244067945794479400E20E94F518A22EB32E85
S1132450C42ED52EA6019501240D351D461D571DEC
S113246057FF05C05F772F5F3F4F4F4F5F4F20935C
S113247016033093170340931803509319031985D7
S11324801FBF8FB7F89499273093D9032093D803AB
S113249013C08FB7F89499271092C0021092BF020C
S11324A010928403109283031092CB031092CA03F8
S11324B010920E0310920D038FBF57C18FB7F8947B
S11324C0282F33278091C6038093020282E08093F1
S11324D00C022FBF80910202882309F046C1209A82
S11324E0289A8091B603882309F076C08EEF91E094
S11324F0019701960197E1F716982F9886E090E0EE
S1132500019701960197E1F7169A289883EC8EBDFE
S11325100DB407FEFDCF8EB51EBC0DB407FEFDCF76
S11325208EB5289A289882EC8EBD0DB407FEFDCF97
S11325308EB588E08EBD0DB407FEFDCF8EB5289A0A
S11325408EEF91E0019701960197E1F728988EECC0
S11325508EBD0DB407FEFDCF8EB58DE48EBD0DB4DA
S113256007FEFDCF8EB5289A289889EC8EBD0DB450
S113257007FEFDCF8EB587EC8EBD0DB407FEFDCFF3
S11325808EB5289A289885EC8EBD0DB407FEFDCF34
S11325908EB580E88EBD0DB407FEFDCF8EB5289AAA
S11325A01092150384E190E08093FB03289888EC53
S11325B08EBD0DB407FEFDCF8EB584E78EBD0DB480
S11325C007FEFDCF8EB5289A2F9A81E08093B6033B
S11325D080E00E946E02C9C00E94600CC6C08FB722
S11325E0F894282F332780918A038093010283E093
S11325F080930A022FBF80910102882309F0B5C09D
S113260081E08093BB031092CF030E94DF01ADC031
S1132610C9013AC0802F869586958695E82FFF27B5
S1132620E75FFC4F202F277081E090E002C0880F05
S1132630991F2A95E2F7982F9095808189238083AA
S113264000930B02802F992739C01092BB0380910D
S1132650CF03E090CA02F090CB02282F3327211534
S1132660310509F082C08FB7F894D82E80910A0200
S11326708330B9F580910102882399F5809109038B
S1132680882331F681E090E0882309F5C0900B029D
S11326900C2D11270F5F1F4F0130110511F400E0BD
S11326A010E0802F0E94CA01882309F0B3CF8C2D3B
S11326B099270817190771F78FEF90E080938A0321
S11326C081E080930A028AE00E94AE000AC081E0A1
S11326D08093010210920A0280917A008F7780938E
S11326E07A00DFBE8091F803E82FFF27EE0FFF1F6B
S11326F0EE55FC4F8F5F8093F803E1828F2D99276D
S1132700808333C08091E103882379F111E000E0F4
S11327103091E103832F8123A1F0802F9927FC01BD
S1132720EE0FFF1FE354FD4F11821082212F2095DD
S113273032233093E103892B21F40E9490001092FC
S1132740D103110F0F5F083018F30FC02FBF0DC056
S113275080910002E82FFF27EE0FFF1FE354FD4F87
S113276041E0608171810E947D012A960FB6F89440
S1132770DEBF0FBECDBFDF91CF911F910F91FF90B0
S1132780EF90DF90CF90BF90AF909F908F907F900D
S11327906F905F904F903F902F9008958091E20347
S11327A08F3FD1F09091E2038091E203E82FFF275D
S11327B0E851FC4F80818093E2038091E2038F3FD4
S11327C011F48093F703892F9927FC01E851FC4FFA
S11327D02FEF20839C0102C02FEF30E02F3F19F42C
S11327E080E090E00895822F0E94320E81E090E014
S11327F00895CFEFD1E2DEBFCDBF8FB7F894C82FD5
S11328004EE050E06FEF70E088EE93E00E949A197A
S11328108FEF8093E2038093F70356985E98549861
S11328205C9880916F008F7D80936F00209A289A26
S1132830279A2F980E9A169A8AE193E09093C902E8
S11328408093C802109214038AE58093FD0381E00B
S11328508093810080E28093B60083E08093B1008E
S113286020918400309185004AE780918400909102
S113287085008217930708F441509C014423A9F76B
S11328809091B2008091B2008917E1F32091840005
S1132890309185009091B2008091B2008917E1F3E4
S11328A08091840090918500821B930B4096B5E043
S11328B096958795BA95E1F7909394038093930343
S11328C01092B1008091B1008093810080918100C9
S11328D08093B6001092B20010928500109284008A
S11328E08FEF87BB87B386BB8091B600282F332731
S11328F02571307021153105B9F70A9A099A089A99
S1132900129A119A109A28B98FEF87B90C981498D3
S113291010927A00309385002093840080916F0098
S1132920816080936F0080918100887F82608093B2
S1132930810081E085BF0E94CE13282F33272223F4
S1132940D1F7209309038FEF8093FC03822F0E9419
S1132950C80580910702909108020196AA27BB2717
S11329608093160390931703A0931803B09319034D
S11329702FEF3FEF84E0ECEBF3E0219331938150B0
S113298087FFFBCF809107028295807F8093E003CD
S11329908EE092E022E0ECE7F3E081939193215002
S11329A0C19627FFFACF8091B60080628093B6006B
S11329B08091B60081FDFCCF82E08093B0008091CD
S11329C0B60080FDFCCF83E08093B1008091B60017
S11329D083FDFCCF86EE8093B3008091700082600B
S11329E0809370000E94A9040E94CE138823E1F70B
S11329F0CFBF789410929D0324E030E020939C0391
S1132A00809107029091080280939F03892F992750
S1132A1080939E038091F903843019F485E090E05B
S1132A200CC0882319F089E090E007C02093F903D3
S1132A3082E00E94AE0080E090E0892B11F00E94B9
S1132A4090008FB7F894482F69C080916E00992741
S1132A5086709070892B81F480916F0099278E7213
S1132A609070892B49F480917100282F33272E729E
S1132A7030702115310519F080E090E01AC00CB4D3
S1132A8007FC0CC08091C100807C41F48091C90096
S1132A90807C21F48091BC0082FF02C0C90109C07E
S1132AA080917A0087FF03C081E090E002C085E056
S1132AB090E0282F80917000992783709070892B63
S1132AC0C1F08091B60099278A719070892BC9F75B
S1132AD08091B3009091B200891B8C3020F08091DA
S1132AE0B200853F18F082E090E005C083E090E0FA
S1132AF002C085E090E0E82F281708F4E22F83B79E
S1132B00807FFF27E453FF4F9491892B816083BF1B
S1132B1078948895F89483B78E7F83BF8091E2037D
S1132B208F3FC9F09091E2038091E203E82FFF27E1
S1132B30E851FC4F80818093E2038091E2038F3F50
S1132B4011F48093F703892F9927FC01E851FC4F76
S1132B502FEF208302C08FEF90E08F3F09F475CFF1
S1132B604FBF0E94320E6DCF78941F920F920FB612
S1132B700F9211242F933F934F935F936F937F93FF
S1132B808F939F93AF93BF93EF93FF9380916F00C5
S1132B908D7F80936F0078948FB7F894282F332714
S1132BA080910603813019F482E0809306032FBFDD
S1132BB00E94600CFF91EF91BF91AF919F918F9113
S1132BC07F916F915F914F913F912F910F900FBE25
S1132BD00F901F90189578941F920F920FB60F9232
S1132BE011240F900FBE0F901F90189578941F9288
S1132BF00F920FB60F9211240F900FBE0F901F90DB
S1132C00189578941F920F920FB60F9211242F9358
S1132C103F934F935F936F937F938F939F93AF9360
S1132C20BF93EF93FF9380918400909185008091EE
S1132C308600909187002FB7F89433279093080368
S1132C408093070381E080930B032FBF0E94600CE5
S1132C50FF91EF91BF91AF919F918F917F916F9170
S1132C605F914F913F912F910F900FBE0F901F9046
S1132C70189578941F920F920FB60F9211242F93E8
S1132C803F938F939F93AF93BF938FB7F894282F5D
S1132C9033278091010390910203A0910303B09123
S1132CA004030196A11DB11D8093010390930203B7
S1132CB0A0930303B09304032FBFBF91AF919F91DF
S1132CC08F913F912F910F900FBE0F901F901895E9
S1132CD01F920F920FB60F9211242F933F934F938D
S1132CE05F936F937F938F939F93AF93BF93EF9370
S1132CF0FF938091B0008093B0008091B60081FD75
S1132D00FCCF8091B300992701969C014427552755
S1132D108091CC029091CD02A091CE02B091CF02CD
S1132D20820F931FA41FB51F8093CC029093CD02F2
S1132D30A093CE02B093CF0278940E94A904FF918D
S1132D40EF91BF91AF919F918F917F916F915F911F
S1132D504F913F912F910F900FBE0F901F90189598
S1132D601F920F920FB60F9211248F938091B0008F
S1132D708093B0008091B60081FDFCCF8F910F90BD
S1132D800FBE0F901F9018951F920F920FB60F92BF
S1132D9011248F929F92AF92BF92CF92DF92EF92C3
S1132DA0FF920F931F932F933F934F935F936F93D0
S1132DB07F938F939F93AF93BF93CF93DF93EF93BF
S1132DC0FF938EB5282F3327E091BF02F091C00204
S1132DD0309739F080910D0390910E03E80FF91F9D
S1132DE0208380910D0390910E03019690930E031E
S1132DF080930D0380E00E94970580910D039091CC
S1132E000E032091CA033091CB038217930708F075
S1132E1045C0E0908303F09084038090BF029090BB
S1132E20C0026C01AC01465F5F4F2417350708F000
S1132E309A0159010894A108B1088A159B05E0F488
S1132E408C01080D191DEC01CE0DDF1DE114F104F8
S1132E5011F0888101C080E00E94A50781149104CB
S1132E6011F0F80180830894C11CD11C21960F5FD6
S1132E701F4FCA14DB0450F381E00E949705E1144C
S1132E80F10431F0EC0CFD1CF70180818EBD01C012
S1132E901EBCD0920E03C0920D0311C01092C0024A
S1132EA01092BF0210928403109283031092CB03FA
S1132EB01092CA0310920E0310920D038EB5FF9167
S1132EC0EF91DF91CF91BF91AF919F918F917F91BE
S1132ED06F915F914F913F912F911F910F91FF90AF
S1132EE0EF90DF90CF90BF90AF909F908F900F9016
S1132EF00FBE0F901F9018951F920F920FB60F924E
S1132F0011242F933F934F935F936F937F938F93EA
S1132F109F93AF93BF93EF93FF9360917800709169
S1132F20790078948FB7F894282F33278091F6038B
S1132F30482F46954170582F51702FBF552301F5E6
S1132F4080917A00877F80937A008091BB039927D0
S1132F508130910519F0029759F02CC0442351F0A7
S1132F607093CB026093CA028BE00E94AE0022C031
S1132F70442319F40E94DF011DC05093BB031AC0FF
S1132F808FB7F89499278FBF8FB7F894482F552798
S1132F9080917A0080618777282F332720937A00E5
S1132FA08F7B282F332720937A008068992780937A
S1132FB07A004FBFFF91EF91BF91AF919F918F9195
S1132FC07F916F915F914F913F912F910F900FBE21
S1132FD00F901F901895A0E3B0E0E1EFF7E10C9497
S1132FE0D419222E332E442E552E662E772E882E5B
S1132FF0992E2A2D3B2DA8E0FE013196AA2E11927E
S1133000AA94E9F729823A824B825C826D827E829D
S11330108F829886FE013996BA2E1192BA94E9F7F6
S113302029873A87CB86DC86ED86FE860F87188B48
S1133030FE0171961192AA95E9F7C980DA80EB80B6
S1133040FC80C9A6DAA6EBA6FCA6870176018FEF61
S11330509FEFA0E0B0E0E822F9220A231B23A9A4F1
S1133060BAA4CBA4DCA416014424552489859A85EA
S1133070AB85BC858DA79EA7AFA7B8AB5C016D01DE
S11330808FEF9FEFA0E0B0E0A822B922CA22DB2292
S11330908DA59EA5AFA5B8A93D0188249924C80192
S11330A0B701A60195010E94B51969A37AA38BA360
S11330B09CA3C801B701A40193010E94B5196DA393
S11330C07EA38FA398A7C201B101A60195010E9416
S11330D0B5197B018C01C201B101A40193010E94C5
S11330E0B5199B01AC01A9A0BAA0CBA0DCA0C60174
S11330F0AA27BB27ADA0BEA0CFA0D8A4A80EB91EF6
S1133100CA1EDB1EAE0CBF1CC01ED11EADA2BEA2C9
S1133110CFA2D8A6AE14BF04C006D10620F4205016
S113312030404F4F5F4FCDA0DEA0EFA0F8A4C70101
S1133130AA27BB27820F931FA41FB51F8D8F9E8FB5
S1133140AF8FB8A3A6013327222789A19AA1ABA1E7
S1133150BCA1A070B070280F391F4A1F5B1F298FB4
S11331603A8F4B8F5C8FA98CBA8CCB8CDC8CED8C1A
S1133170FE8C0F8D18A1ED8AFE8A0F8B188F2D857A
S11331803E854F85588969A57AA58BA59CA50E9483
S1133190B5193B014C018D819E81AF81B885BC017D
S11331A0CD012DA53EA54FA558A90E94B519DC0156
S11331B0CB01680E791E8A1E9B1E8D899E89AF895C
S11331C0B88D860D971DA81DB91D8D8B9E8BAF8B59
S11331D0B88F6D897E898F89988D2A2D3B2D4C2D32
S11331E05D2DE2E1E0960C94F0198F929F92AF92DC
S11331F0BF92CF92DF92EF92FF920F93CF93DF9320
S1133200CDB7DEB768970FB6F894DEBF0FBECDBF5B
S1133210E82E002349F4298B3A8B4B8B5C8B6D8B06
S11332207E8B8F8B988F6CC088E0FE013196119253
S11332308A95E9F729833A834B835C836D837E8384
S1133240EF82988740E2401B14160CF041C08D8138
S11332509E81AF81B8856C017D0104C0CC0CDD1C5E
S1133260EE1CFF1C4A95D2F7202F332727FD3095FB
S1133270022E04C0B695A795979587950A94D2F720
S11332808D879E87AF87B88B89819A81AB81BC81FA
S113329004C0B695A795979587952A95D2F78C295A
S11332A09D29AE29BF2989879A87AB87BC87298541
S11332B03A854B855C856D857E858F859889298BBC
S11332C03A8B4B8B5C8B6D8B7E8B8F8B988F18C05E
S11332D01D861E861F86188A842F992787FD909540
S11332E022273327281B390B8D819E81AF81B88516
S11332F004C0B695A795979587952A95D2F7D3CF0D
S113330029893A894B895C896D897E898F89988D51
S113331068960FB6F894DEBF0FBECDBFDF91CF9194
S11333200F91FF90EF90DF90CF90BF90AF909F9060
S11333308F900895DC0101C06D9341505040E0F737
S11333400895AA1BBB1B51E107C0AA1FBB1FA617E8
S1133350B70710F0A61BB70B881F991F5A95A9F73A
S113336080959095BC01CD010895629FD001739F13
S1133370F001829FE00DF11D649FE00DF11D929F0D
S1133380F00D839FF00D749FF00D659FF00D99274C
S1133390729FB00DE11DF91F639FB00DE11DF91F70
S11333A0BD01CF01112408952F923F924F925F9255
S11333B06F927F928F929F92AF92BF92CF92DF9241
S11333C0EF92FF920F931F93CF93DF93CDB7DEB7A6
S11333D0CA1BDB0B0FB6F894DEBF0FBECDBF09943A
S11333E02A88398848885F846E847D848C849B8491
S11333F0AA84B984C884DF80EE80FD800C811B819F
S1133400AA81B981CE0FD11D0FB6F894DEBF0FBECD
S10B3410CDBFED010895FFCFCB
S10D34180101FFFFFF0100010000A5
S9030000FC
