:020000040800F2
:1000000034040020250100088D0100088D0100083E
:100010008D0100088D0100088D010008000000001E
:100020000000000000000000000000008D0100083A
:100030008D010008000000008D0100088D010008FE
:100040008D0100088D0100088D010008850A000857
:100050008D0100088D0100088D0100088D01000848
:100060008D0100088D0100088D0100088D01000838
:100070008D0100088D0100088D0100088D01000828
:100080008D0100088D0100088D01000800000000AE
:100090000000000000000000000000008D010008CA
:1000A0008D0100088D0100088D0100088D010008F8
:1000B0008D0100088D0100088D0100088D010008E8
:1000C0008D0100088D0100088D0100088D010008D8
:1000D0008D0100088D0100088D0100088D010008C8
:1000E0008D0100088D0100088D010008000000004E
:1000F0000000000000000000000000000000000000
:1001000000000000000000000000000000000000EF
:1001100000000000000000008D0100088D010008B3
:100120005FF808F180B582B000AF134B7B60134BD2
:100130003B600BE07B681A683B681A603B6803F120
:1001400004033B607B6803F104037B603A680C4B5B
:100150009A42EFD30B480C494FF000028842B8BFD7
:1001600040F8042BFADB00F02BFA00F0D5FA07F187
:100170000807BD4680BD00BF7410000800000020C5
:1001800024000020240000203800002080B400AFAC
:10019000FEE700BF80B485B000AF0346FB714FF0AF
:1001A0000003FB60FB79062B25D801A252F823F04F
:1001B000CD010008D3010008D9010008DF010008C3
:1001C000E5010008EB010008F10100080E4BFB609F
:1001D00012E00E4BFB600FE00D4BFB600CE00D4B93
:1001E000FB6009E00C4BFB6006E00C4BFB6003E09E
:1001F0000B4BFB6000E000BFFB68184607F11407DB
:10020000BD4680BC704700BF00080140000C0140A3
:10021000001001400014014000180140001C014082
:100220000020014080B584B000AF0346FB804FF052
:100230000003FB60FB884FEA13239BB2FB72FB8831
:10024000BB72FB7A1846FFF7A5FFF860FB7A062B16
:1002500002D8BB7A0F2B02D94FF0010336E0FB7AAC
:10026000042B30D801A252F823F000BF810200080D
:100270008F0200089D020008AB020008B9020008C6
:10028000154B154A926942F005029A611CE0124B27
:10029000114A926942F009029A6115E00E4B0E4A2A
:1002A000926942F011029A610EE00B4B0A4A926980
:1002B00042F021029A6107E0074B074A926942F037
:1002C00041029A6100E000BF4FF00003184607F1B9
:1002D0001007BD4680BD00BF0010024080B584B04D
:1002E00000AF02460B46FA807B714FF00003FB60C3
:1002F000FB884FEA13239BB2FB72FB88BB72FB7A2D
:100300001846FFF747FFF8607B79002B58D1BB7A7E
:10031000072B2CD9BB7AA3F10803BB72FB685A6880
:10032000BB7A4FEA83034FF0030101FA03F36FEA4C
:1003300003031A40FB685A60FB685A68BB7A4FEAAD
:1003400083034FF0080101FA03F36FEA03031A4035
:10035000FB685A60FB685A68BB7A4FEA83034FF028
:10036000040101FA03F31A43FB685A6064E0FB6876
:100370001A68BB7A4FEA83034FF0030101FA03F3D3
:100380006FEA03031A40FB681A60FB681A68BB7ABD
:100390004FEA83034FF0080101FA03F36FEA030306
:1003A0001A40FB681A60FB681A68BB7A4FEA83033D
:1003B0004FF0040101FA03F31A43FB681A603BE0B3
:1003C000BB7A072B1ED9BB7AA3F10803BB72FB686B
:1003D0005A68BB7A4FEA83034FF0030101FA03F333
:1003E0001A43FB685A60FB685A68BB7A4FEA83037A
:1003F0004FF00C0101FA03F36FEA03031A40FB68A4
:100400005A6019E0FB681A68BB7A4FEA83034FF021
:10041000030101FA03F31A43FB681A60FB681A68C8
:10042000BB7A4FEA83034FF00C0101FA03F36FEA42
:1004300003031A40FB681A604FF00003184607F1E7
:100440001007BD4680BD00BF80B586B000AF034633
:10045000FB804FF000033B61FB884FEA13239BB204
:10046000FB73FB88BB73FB7B1846FFF793FE386179
:10047000BB7B072B2AD93B695A68BB7BA3F10803D6
:100480004FEA830322FA03F303F00303002B0ED198
:100490003B699A68BB7B22FA03F3002B03D14FF030
:1004A0000003FB753AE04FF00103FB7536E03B6952
:1004B000DA68BB7B22FA03F3002B03D14FF0000371
:1004C000FB752BE04FF00103FB7527E03B691A68D1
:1004D000BB7B4FEA830322FA03F303F00303002BF1
:1004E0000ED13B699A68BB7B22FA03F3002B03D140
:1004F0004FF00003FB7511E04FF00103FB750DE0B9
:100500003B69DA68BB7B22FA03F3002B03D14FF07F
:100510000003FB7502E04FF00103FB75FB7D1846FD
:1005200007F11807BD4680BD80B584B000AF024614
:100530000B46FA807B714FF00003FB60FB884FEAAB
:1005400013239BB2FB72FB88BB72FB7A1846FFF742
:1005500021FEF860FB881846FFF776FF03467B72A2
:100560007B79002B0AD1FB681A69BB7A4FF0010135
:1005700001FA03F31A43FB681A6109E0FB685A6940
:10058000BB7A4FF0010101FA03F31A43FB685A6189
:100590007B7A184607F11007BD4680BD80B485B050
:1005A00000AFBA607B600346FB810B467B734FF064
:1005B0000103184607F11407BD4680BC704700BF11
:1005C00080B500AF174B174A126842F001021A605B
:1005D000144A144B5968144B01EA03035360114A3F
:1005E000104B1B6823F0847323F4803313600D4B8E
:1005F0000C4A126822F480221A600A4B094A526897
:1006000022F4FE025A60074B4FF41F029A60054B1A
:100610004FF00002DA6200F00BF8044B4FF000627A
:100620009A6080BD001002400000FFF800ED00E07D
:1006300080B500AF00F002F880BD00BF80B483B089
:1006400000AF4FF000037B604FF000033B60314B85
:10065000304A126842F480321A602E4B1B6803F451
:1006600000333B607B6803F101037B603B68002B38
:1006700003D17B68B3F5A06FEFD1264B1B6803F461
:100680000033002B03D04FF001033B6002E04FF03A
:1006900000033B603B68012B37D11E4B1D4A52685B
:1006A0005A601C4B1B4A52685A601A4B194A5268CE
:1006B0005A60184B174A526822F47C125A60154B44
:1006C000144A526842F498125A60124B114A126846
:1006D00042F080721A6000BF0E4B1B6803F000737B
:1006E000002BF9D00B4B0B4A526822F003025A60E0
:1006F000084B084A526842F002025A6000BF054B9C
:100700005B6803F00C03082BF9D107F10C07BD4619
:1007100080BC70470010024080B500AF00F080F848
:10072000FEE700BF80B483B000AF7860054A7B6805
:1007300043F0BE6343F42023D36007F10C07BD46AA
:1007400080BC704700ED00E080B487B000AF7860F7
:100750004FF000037B614FF000033B614FF00F034C
:10076000FB607B68DB78002B3FD02B4BDB686FEAAC
:10077000030303F4E0634FEA13237B617B69C3F156
:1007800004033B617B69FA6822FA03F3FB607B6830
:100790005B781A463B6902FA03F37B617B689B78BE
:1007A0001A46FB6802EA03037A6942EA03037B61A3
:1007B0007B694FEA03137B6118497B681B787A6970
:1007C000D2B2CB1883F80023144B7A6812784FEA20
:1007D0005212D2B27968097801F01F014FF001007E
:1007E00000FA01F143F8221011E00C4B7A681278FC
:1007F0004FEA5212D2B27968097801F01F014FF026
:10080000010000FA01F102F1200243F8221007F181
:100810001C07BD4680BC704700ED00E000E100E031
:1008200080B582B000AF4FF00003FB7000F0D8F845
:100830004FF000037B600BE02A4B1B682A4A796863
:1008400032F81120104698477B6803F101037B6062
:100850007B68012BF0D94FF000037B600DE0214B4A
:100860005B68214A796832F8112010464FF0010187
:1008700098477B6803F101037B607B68012BEED90D
:100880001A4B1B681B689847184B1B685B68984796
:10089000164B1B681B69164898470346FB70144BA0
:1008A0004FF021025A60124B4FF032021A600F4B88
:1008B0001B685B690E480F4998470346FB700B4B5A
:1008C0001B689B689847094B1B68DB68084898477A
:1008D000064B1B689B694FF0020007494FF000026E
:1008E0009847FEE7441000080000002004000020A4
:1008F0000800002031090008FD08000880B500AF9D
:10090000084B1B7883F00103DAB2064B1A70064BD2
:100910009B68064A1188034A127808461146984790
:1009200080BD00BF300000204410000800000020FF
:1009300080B582B000AF244B9B68244A5288104691
:100940004FF0010198474FF000037B6003E07B68A4
:1009500003F101037B607A681D4B9A42F7D91A4B69
:100960009B681A4A528810464FF0000198474FF092
:1009700000037B6003E07B6803F101037B607A681E
:10098000134B9A42F7D9134B1B685B689847114B7E
:100990001B681B69104898470F4B5B6803F1010205
:1009A0000D4B5A600C4B4FF000021A60094B1B684C
:1009B0005B69094809499847064B1B689B6898473B
:1009C00007F10807BD4680BD441000080000002064
:1009D000FEFF0F000400002008000020310900087D
:1009E00080B582B000AF4FF4C060FFF79BFE4FF0C0
:1009F00003033B714FF001037B714FF00003BB71A8
:100A00004FF00103FB7107F104031846FFF79CFE4A
:100A100007F10807BD4680BD80B483B000AF7860A1
:100A200013460A467A807B707B78002B03D07A8845
:100A30007B681A6102E07A887B685A6107F10C07CB
:100A4000BD4680BC704700BF80B485B000AF786001
:100A50000B467B804FF00003FB737B68DA687B8872
:100A600002EA0303002B03D04FF00103FB7302E003
:100A70004FF00003FB73FB7B184607F11407BD46DC
:100A800080BC704780B500AF454B9B889BB203F09C
:100A90000103DBB2002B55D0414B414A928892B200
:100AA00022F0010292B29A803E484FF04001FFF7D7
:100AB000CBFF0346C3F10103DBB23A484FF04001DC
:100AC0001A46FFF7A9FF384B4FF001021A6000BF2A
:100AD000334B9B889BB203F02003002BF8D0304BA4
:100AE0001B8B9BB24FEA03422D4B9B8B9BB21A434D
:100AF0002E4B9A421FD12A4B294A928892B242F039
:100B0000100292B29A80264B4FF000021A83244BB7
:100B10004FF000029A83224B214A928892B222F02F
:100B2000100292B29A8000BF1D4B9B889BB203F0CB
:100B30002003002BF8D01E4B1B68002B02D01C4B4F
:100B40001B689847164B9B889BB203F00203002B4F
:100B50000ED0184B1B68002B02D0164B1B68984711
:100B60000F4B0F4A928892B222F0020292B29A8000
:100B70000B4B9B889BB203F00403002B0ED00E4B53
:100B80001B68002B02D00C4B1B689847044B044A8F
:100B9000928892B222F0040292B29A8080BD00BF85
:100BA0000028004000100140340000208051010066
:100BB00028000020240000202C00002080B485B0F4
:100BC00000AF4FF000037B604FF00003FB604FF07D
:100BD0000003FB72574B574AD26942F0C052DA61A8
:100BE000554B4FF001021A60544B4FF001021A604E
:100BF000524B4FF000021A60514B4FF000021A7036
:100C00004F4B4FF000021A704D4B4FF001021A701B
:100C1000484B484A126A42F001021A624FF002033E
:100C20007B607B68012B03D1424B1B68FB6009E0B2
:100C30007B68022B03D13F4B1B6AFB6002E03D4BFC
:100C40005B6AFB604FF001037B607B68FA6822FA05
:100C500003F303F00103DBB2002B03D04FF00103D9
:100C6000FB7202E04FF00003FB72FB7A002BD5D041
:100C7000304B304A126A42F480721A62314B4FF0A4
:100C800001021A60304B304A928892B222F0080278
:100C900092B29A8000BF2C4B9B889BB203F0080352
:100CA000002BF8D000BF284B9B889BB203F0200399
:100CB000002BF8D000BF244B9B889BB203F020038D
:100CC000002BF8D0204B204A928892B242F01002BA
:100CD00092B29A801C4B4FF000021A811A4B4FF4CB
:100CE00000429A81184B184A928892B222F0100260
:100CF00092B29A80144B9B889BB203F00803002B9E
:100D000008D1114B104A928892B242F0100292B26E
:100D10009A8000E000BF0C4B9B889BB203F020033D
:100D2000002BF8D04FF00003184607F11407BD461A
:100D300080BC70470010024020000E424004424236
:100D4000201002403C0442420028004080B400AF22
:100D500000BF0D4B9B889BB203F02003002BF8D003
:100D6000094B094A928892B242F0100292B29A80DC
:100D700000BF054B9B889BB203F02003002BF8D0EB
:100D8000BD4680BC704700BF0028004080B400AF63
:100D900000BF0D4B9B889BB203F02003002BF8D0C3
:100DA000094B094A928892B222F0100292B29A80BC
:100DB00000BF054B9B889BB203F02003002BF8D0AB
:100DC000BD4680BC704700BF0028004080B485B09D
:100DD00000AF78604FF00003FB814FF00003BB6071
:100DE000214B9B8BFB81204B1B8B9BB24FEA034219
:100DF000FB8942EA0303BB60BA681C4BA3FB0213E6
:100E00004FEAD3227B689A60BA68184BA3FB02139F
:100E10004FEAD3234FF4616101FB03F3D31A144A61
:100E2000A2FB03134FEA53127B685A60BB680F4A58
:100E3000A2FB03124FEAD2214FF4616202FB01F2DE
:100E4000991A0B4BA3FB01234FEA531213464FEAA7
:100E500003139B1A4FEA8303CA1A7B681A6007F1CF
:100E60001407BD4680BC704700280040C5B3A2915E
:100E70008988888880B485B000AF78607B689B687B
:100E80004FF4616202FB03F17B685A6813464FEA34
:100E900003139B1A4FEA8303CA187B681B68D31895
:100EA000FB600B4BFA684FEA124292B21A83084B6E
:100EB000FA6892B29A83074B4AF2A5521A804FF011
:100EC0000003184607F11407BD4680BC704700BFF9
:100ED00000280040046C004080B485B000AF78600A
:100EE00039603B68002B2ED07B68002B02D14FF07D
:100EF000010336E07B689B684FF4616202FB03F1FB
:100F00007B685A6813464FEA03139B1A4FEA830320
:100F1000CA187B681B68D318FB60154BFA684FEA48
:100F2000124292B21A84124BFA6892B29A84114B0E
:100F30003A681A600E4B0E4A128892B242F00202D0
:100F400092B21A800BE00B4B4FF000021A60084B74
:100F5000074A128892B202F0050292B21A804FF04C
:100F60000003184607F11407BD4680BC704700BF58
:100F7000002800402400002080B487B000AF034662
:100F8000B9607A60FB734FF00103FB75FB7B012BAB
:100F90000FD0022B19D0002B23D1264B4FF000028B
:100FA0001A80244B4FF004021A804FF00003FB75A7
:100FB00018E0204B4FF000021A801E4B4FF0020247
:100FC0001A804FF00003FB750CE01A4B4FF0000243
:100FD0001A80184B4FF001021A804FF00003FB7586
:100FE00000E000BFFB7B002B05D0FB7B012B02D078
:100FF000FB7B022B16D1BB68002B13D0FB7B022B93
:1010000003D10D4BBA681A600CE0FB7B012B03D1B6
:101010000A4BBA681A6005E0FB7B002B02D1084B33
:10102000BA681A604FF00003184607F11C07BD4666
:1010300080BC7047002800402800002024000020C9
:101040002C00002025020008DD0200082905000808
:10105000490400089D050008BD0B00084D0D00085F
:101060008D0D0008CD0D0008750E0008D90E000882
:04107000790F0008EC
:1010740008020902581000082C000000210000009A
:101084001600000000000000000000000000000046
:041094000000000058
:0400000508000000EF
:00000001FF
