:100000000C94A1010C9461120C946B120C94751257
:100010000C947F120C946F200C9449180C94891244
:100020000C9493120C94C0010C94C0010C94C00168
:100030000C94C0010C94310D0C94C0010C94261644
:100040000C94061E0C943E1E0C94ED0C0C94F80CB3
:100050000C94030D0C94C0010C94C0010C94C001CD
:100060000C94850D0C94D50F0C94C0010C94581071
:100070000C94C0010C94E5110C94C0010C94B211C5
:100080000C9491110C949C110C94A7110C94C51113
:100090000C9474110C94C0010C9486110C9443239D
:1000A0000C94C0010C94C0010C94C0010C94C001CC
:1000B0000C94C0010C94C0010C94C0010C94C001BC
:1000C0000C94C0010C94C0010C94C001912AE72A41
:1000D000F92A142B172B232B3C2BFA2B052C162C2F
:1000E000292C452C982CC42CC62D4F2F872F7B2FC5
:1000F0005E308730A4302B315E31B931CD31D13112
:1001000074347734813495344E304835563559350A
:10011000823586359135B635D8353D365936553028
:10012000BB36C936CC362237E23925377F378F3791
:10013000F7376138DF380D3963396639000021102F
:10014000422063308440A550C660E7700881299141
:100150004AA16BB18CC1ADD1CEE1EFF131121002E9
:1001600073325222B5529442F772D6623993188391
:100170007BB35AA3BDD39CC3FFF3DEE362244334B5
:1001800020040114E664C774A44485546AA54BB5E1
:1001900028850995EEE5CFF5ACC58DD55336722689
:1001A00011163006D776F6669556B4465BB77AA731
:1001B00019973887DFF7FEE79DD7BCC7C448E558D5
:1001C0008668A7784008611802282338CCC9EDD981
:1001D0008EE9AFF9488969990AA92BB9F55AD44A29
:1001E000B77A966A711A500A333A122AFDDBDCCBD1
:1001F000BFFB9EEB799B588B3BBB1AABA66C877CF5
:10020000E44CC55C222C033C600C411CAEED8FFD20
:10021000ECCDCDDD2AAD0BBD688D499D977EB66EC8
:10022000D55EF44E133E322E511E700E9FFFBEEF70
:10023000DDDFFCCF1BBF3AAF599F788F8891A98132
:10024000CAB1EBA10CD12DC14EF16FE18010A1001C
:10025000C230E3200450254046706760B98398930C
:10026000FBA3DAB33DC31CD37FE35EF3B10290126C
:10027000F322D2323542145277625672EAB5CBA5D8
:10028000A89589856EF54FE52CD50DC5E234C324BC
:10029000A01481046674476424540544DBA7FAB7AC
:1002A0009987B8975FE77EF71DC73CD7D326F2360C
:1002B0009106B01657667676154634564CD96DC9F8
:1002C0000EF92FE9C899E9898AB9ABA9445865485C
:1002D00006782768C018E1088238A3287DCB5CDB4C
:1002E0003FEB1EFBF98BD89BBBAB9ABB754A545AAC
:1002F000376A167AF10AD01AB32A923A2EFD0FED18
:100300006CDD4DCDAABD8BADE89DC98D267C076CFB
:10031000645C454CA23C832CE01CC10C1FEF3EFFEB
:100320005DCF7CDF9BAFBABFD98FF89F176E367E4B
:10033000554E745E932EB23ED10EF01E00020E0694
:100340000C0411241FBECFEFD1E2DEBFCDBF12E0FF
:10035000A0E0B2E0ECE2F3E800E00BBF02C00790DF
:100360000D92A832B107D9F71DE0A8E2B2E001C0B2
:100370001D92A134B107E1F70E941E3A0C949541F9
:100380000C9400008FB7F894992708958FBF0895B3
:100390002091300A222319F440E050E016C08091E9
:1003A0000809E82FFF27EE0FFF1FE350F64F4081AB
:1003B00051811182108221502093300A8F5F8093E7
:1003C0000809893111F410920809CA0108958FB7FC
:1003D000F894992722B134E0232722B98FBF0895DA
:1003E000AC0120914F02293118F081E090E008958E
:1003F00080914E02E82FFF27EE0FFF1FE45FF64FBC
:10040000518340838F5F80934E02893111F41092A3
:100410004E022F5F20934F0280E090E008952091DC
:10042000300A293118F081E090E00895E091080940
:10043000E20FE93108F0E951FF27EE0FFF1FE3500B
:10044000F64F918380832F5F2093300A80E090E005
:1004500008959FB7F894292F3327422F90912602B1
:10046000981741F480916602833021F42FBF81E018
:1004700090E008954FBF80E090E0089580E00E94F2
:100480002902992708958FB7F89499272091BC00E5
:1004900020934A0C8FBF0895282F9FB7F894E82F18
:1004A000FF27E853F34F80818F3F91F48091EF0C49
:1004B000821781F40DC02093BD0C06C0E091EF0CB3
:1004C000FF27E853F34F20832093EF0C20E007C071
:1004D00025E005C08091BD0C8F3F81F7ECCF892FBF
:1004E00099278FBF822F9927089581E00E944C029F
:1004F0009927089582E00E944C029927089580E090
:100500000E944C029927089585E10E944C02992788
:10051000089586E10E944C029927089584E10E9483
:100520004C029927089589E10E944C029927089569
:100530008EE10E944C029927089582E20E944C02AB
:10054000992708958FE10E944C029927089580E22F
:100550000E944C029927089581E20E944C0299273B
:1005600008951F93CF93DF93982F8FB7F894282F78
:100570003327422F80916602882309F048C011E09A
:10058000109366029093E8092FBF8FB7F894C82F95
:10059000DD27809167028823C9F4589A599A5098A8
:1005A00051981092B90081E48093B8001092BA007B
:1005B0001092BC000E94430280914A0C84608E7F9E
:1005C00080934A0C8093BC0010936702CFBF8FB713
:1005D000F894C82FDD279C2F80912602843099F44F
:1005E00080916602813021F483E20E944C0209C0AE
:1005F000823049F48091E8098093260283E0809359
:100600006602CFBF01C09FBF80E090E021C0E92F0C
:10061000FF27E55CF34F80818F3F89F4E09125024D
:10062000E91789F40CC09093240204C0FF27E55C0D
:10063000F34F90839093250280E090E002C085E024
:1006400090E04FBF05C0809124028F3F79F7EBCF38
:10065000DF91CF911F91089580E00E94B102992708
:10066000089584E20E944C02992708950F931F93E6
:100670000FB7F89411270E94430280914A0C8E7F95
:10068000806980934A0C8093BC000FBF1F910F912B
:10069000089520E030E040E0E3E9F9E08081992727
:1006A00086FF06C083FD21E084FD31E085FD41E049
:1006B000319689E0E13AF80789F7222309F4429854
:1006C000332309F44398442309F44598222329F459
:1006D000332319F4442309F4419A0895EF920F93B8
:1006E0001F93AE2D99E0899FF0011124E65FFC4F26
:1006F0004083518362837383048315832683378306
:10070000A17080858E7F8A2B8260808784E00E9422
:100710004C021F910F91EF900895EF920F931F934A
:10072000E1E0EE2E0E946E031F910F91EF9008956D
:100730007FB7F8946091B20020916704309168040B
:100740004091690450916A04B99B11C08091B30033
:100750009091B200280F311D411D511D2F5F3F4F59
:100760004F4F5F4F290F311D411D511D04C0260FF2
:10077000311D411D511D872F99278FBFCA01B90116
:100780000895EF920F931F9380915B0C813069F471
:100790000E949803AB01BC01EE2404E610E020E0C7
:1007A00030E080E00E946E0307C0823029F480911F
:1007B00012038D7F809312031F910F91EF90089584
:1007C000EF92FF920F931F93CF93DF93F62EE22EBB
:1007D000E8019FB7F894292F3327909127029817A3
:1007E00009F05CC02FBF8FB7F894282F3327809172
:1007F0006702813041F582E0809367022FBF8FB797
:10080000F89499275093F10C4093F00C1093DD0964
:100810000093DC09E092F809609356041092620498
:10082000109268028FBF0E9443028FB7F894282F5E
:1008300080914A0C982F916C90934A0C6F2D7727DA
:1008400060FD0BC011C0882321F42FBF84E090E02D
:1008500030C02FBF85E090E02CC0816E80934A0CA1
:1008600085E0809367021EC0EE2059F084E08093FB
:10087000670280916204C80FD11D88818093BB00FC
:1008800011C061FF08C086E0809367029F7B906182
:1008900090934A0C07C081E0809367022FBF81E0EC
:1008A00090E007C080914A0C8093BC002FBF80E08D
:1008B00090E0DF91CF911F910F91FF90EF900895FD
:1008C000EF92FF920F931F93E62EF22E9FB7F894AC
:1008D000292F332790912702981721F02FBF81E00D
:1008E00090E061C02FBF8FB7F894282F3327609115
:1008F0006702613039F582E0809367022FBF8FB7BE
:10090000F89499275093F10C4093F00C1093DD0963
:100910000093DC09F092F809E09256041092620408
:10092000609368028FBF0E9443029FB7F8942091A2
:100930004A0C21682F7B20934A0C6E2D772760FD8F
:100940000BC00FC0662321F42FBF84E090E02BC0C2
:100950002FBF85E090E027C0206220934A0C85E0FD
:100960000BC081E08F1520F0FF2061F062FF07C00F
:10097000206420934A0C84E0809367020BC081E0DE
:10098000F816C9F361FF06C086E080936702206114
:1009900020934A0C80914A0C8093BC00892F9927A0
:1009A0008FBF80E090E01F910F91FF90EF9008952E
:1009B0002FB7F894EF9890E89CBB90916A009068EC
:1009C00090936A00882321F080916A00806403C0BC
:1009D00080916A008F7B80936A00EF9A822F99271B
:1009E0008FBF80E090E008951F93982F1FB7F89471
:1009F00080916502823079F580912302891759F53B
:100A00008091210290E08F3F09F491E09923E1F475
:100A10008F3F19F42FEF30E00EC0282F3327F90154
:100A2000E25FFB4F8081809321028F3F11F480931E
:100A300022028FEF808320936C0C81E0809365020B
:100A40008DE10E944C0205C08FEF8093230210922B
:100A5000650221E001C020E0812F99278FBF90E03F
:100A6000213009F491E081E09827892F99271F917F
:100A7000089581E00E94F4049927089580E00E947F
:100A8000F4049927089580E020E0409A67998160F6
:100A9000273031F0880F40982F5F283011F0F5CFC4
:100AA00040986F9A7798409A40986F98779A9927CC
:100AB0000895982F969596959695EBE0F9E0E90FB5
:100AC000F11D877021E030E002C0220F331F8A95AC
:100AD000E2F780818223992708958091420C882330
:100AE00019F02FE170E002C078E02EE1622FEFB73D
:100AF000F8948091EE0C8E7F8093EE0C80917C00B8
:100B0000982F9F71829586958695837019F080E065
:100B100090E012C0822F8850863118F081E090E07A
:100B20000BC040E050E03327892F99272817390759
:100B300011F441E050E0CA01982F9170990F809113
:100B4000EE0C8178262F2F71422F440F440F892BF2
:100B5000842B8093EE0C332720937C00783059F55A
:100B60008091350A9091360A21E08638920718F074
:100B700087E090E01FC0833C910518F086E090E08C
:100B800019C08136910518F085E090E013C08033DC
:100B9000910518F084E090E00DC08831910518F0BF
:100BA00083E090E007C00C9718F082E090E002C06C
:100BB00080E090E0782F7770887D872B886D99276B
:100BC00080937A008E2F99278FBF08952FB7F894BE
:100BD00033278091E50980931F0283E080936202AE
:100BE0002FBF80911F02882339F481E08093B00BDE
:100BF0001092420C0E946D0508951F931FB7F89440
:100C00008091D809882341F48EE00E944C02882309
:100C100019F481E08093D809812F99278FBF1F9104
:100C20000895FA01422F6683672F772765838387AC
:100C300021878091390290913A02892B19F085E041
:100C400090E008952FB7F894332785E080933C0215
:100C500010923D02F0933802E093370282E090E078
:100C600090933A028093390210923F0210923E0212
:100C7000445F40933B022FBF9FB7F8948091390A9D
:100C8000882311F020E006C081E08093390A109299
:100C90003A0A21E0892F99278FBF222329F00E9449
:100CA000FD0580E090E0089510923A02109239021A
:100CB00081E090E008951F93CF93DF93182FFA01FE
:100CC000422FDF011196ED018981218150E09927A2
:100CD000982F88273327822B932B87749C7C8154F1
:100CE000984809F451E0552331F481E4818388E880
:100CF000ED01898310A62FB7F8943327809107025E
:100D0000909108022FBF8087892F992781872FB75D
:100D1000F8943327809132022FBF9927848315825C
:100D200013876683872F992787838FE38287809134
:100D3000AE0C8F5F8093AE0C83834D3118F086E04C
:100D400090E017C08091AF0A882319F085E090E009
:100D500010C0435F4083F093ED09E093EC0981E01C
:100D60008093AF0A10923C0D86E00E944C0280E016
:100D700090E0DF91CF911F910895CF93DF93582F8B
:100D8000FB01823018F081E090E033C0C82FDD27EE
:100D9000CC0FDD1FCA54DC4F88819981892B19F053
:100DA00085E090E026C079836883435F40834D509F
:100DB00080910C02823018F480E090E01AC08385A4
:100DC00067817727762F662726813327622B732B3F
:100DD00050930C02242FAF010E945B069927282F05
:100DE000882329F082E080930C0219821882822FD6
:100DF0009927DF91CF910895882319F08CB58064ED
:100E000002C08CB58F7B8CBD0895882319F08CB5FA
:100E1000806802C08CB58F778CBD08950F931F93A7
:100E200080E00E94FC060FB7F8941127229A2398BD
:100E3000219A8CB580618CBD80E00E9405078DB53C
:100E400081608DBD8CB5877F8CBD8CB58B7F8CBD53
:100E50008CB58E7F8CBD81E00E94FC060FBF1F9178
:100E60000F9108950F931F93CF93DF93182F0FB710
:100E7000F89480913302882311F40E940E07802F8A
:100E800099278FBF8FB7F894C82FDD272C2F80911B
:100E90003302882361F481E0809333021093BB0B0B
:100EA0008BE00E944C02CFBF80E090E021C0E12F98
:100EB000FF27E65FF24F80818F3F89F4E0910A02BD
:100EC000E11789F40CC01093090204C0FF27E65F04
:100ED000F24F108310930A0280E090E002C085E098
:100EE00090E02FBF05C0809109028F3F79F7EBCFCB
:100EF000DF91CF911F910F9108958FB7F8942091B2
:100F00000209309103094091040950910509E091CB
:100F10008400F0918500B09B08C02F5F3F4F4F4F7A
:100F20005F4FE0918400F091850099278FBFC90140
:100F3000772766279F0144275527622B732B842B25
:100F4000952B0895AC01EFB7F8942091840030916F
:100F50008500C901841B950B03968617970720F01F
:100F6000B9016D5F7F4F02C0640F751F6115710578
:100F700011F461E070E061507040709389006093FB
:100F8000880082E086BB80916F00826080936F0052
:100F90008E2F99278FBF0895DC01FC018191FD01FF
:100FA0009181282F332795FF03C0C9018B9608959F
:100FB000C90140960895FC0180A5662311F0816067
:100FC00001C08E7F80A70895FC018281218199272D
:100FD000982F88273327822B932B85FF1FC0877478
:100FE0009C7C81549848D1F4878146812FB7F8942E
:100FF000332760910702709108022FBF20E09927E4
:10100000982F88275527842B952B8617970709F04B
:1010100021E081E02827822F9927089580E090E041
:101020000895FF920F931F93CF93DF93AC018091AC
:10103000B40A282F3327F901EE0FFF1FEF54F44FA6
:1010400080819181609106098417950769F4F901FF
:10105000E85AFB4F8081861709F464C0862F8F5FA2
:101060008093060980831BC000E010E080E090E0E0
:10107000C1EBDBE0E8E5F4E0F62EF394DF01782F36
:101080009C01888199818417950759F42093B40AAB
:101090008C91861709F446C0F0920609FC9200E88C
:1010A00028C08081962F981B091710F4092F122F42
:1010B0007F5FC90101961196229631968530910580
:1010C000F1F67530B1F41093B40AA12FBB27FD01DE
:1010D000EE0FFF1FEF54F44F51834083862F8F5F35
:1010E00080930609FD01E85AFB4F8083A052B64F5A
:1010F0001C9290910609892F8F778F3779F40F37DB
:1011000068F0E8E5F4E0292F207880818F67891363
:101110002083319684E0ED35F807B9F78091B40A61
:10112000282F3327C901DF91CF911F910F91FF9095
:101130000895EF92FF920F931F937C018FB7F8945D
:10114000992700919F0C1091A00C0F5E1E4F1093D9
:10115000A00C00939F0C015111408FBF89E00E94A9
:101160004C02C801B7010E9415418A5D9E4F1F9134
:101170000F91FF90EF9008959FB7F8948091AC0C79
:101180008A3011F020E006C020E08091B30A84305C
:1011900009F421E0892F99278FBF222349F080E1AC
:1011A0000E944C028FB7F89499271092340206C01F
:1011B0008FB7F894992721E0209334028FBF0895C8
:1011C0002FB7F89433278093C600E0ECF0E08081DD
:1011D000806480832FBF0895FC016115710519F4A7
:1011E00081E090E0089580913F0D9091400D892B12
:1011F00019F085E090E008957093B20C6093B10C03
:10120000F093400DE0933F0D1092B0031092AF03A6
:1012100081E080935F098091C00080648093C0006A
:101220008091C10080648093C100808121E030E022
:101230003093B0032093AF030E94E00880E090E079
:101240000895809145028E7F809345028EE78093BA
:101250006D0C61E070E08DE69CE00E94EC0899273F
:1012600008951F938FB7F8941092D8092091AC0C71
:1012700040E0283009F441E030E0293009F431E061
:10128000442311F4332351F01092AC0CE091AD0CD7
:10129000FF27EE0FFF1FE95CF54F108299278FBFE4
:1012A000442311F4332319F18091310A8F5F809325
:1012B000310A8091B40C8334A1F49FB7F894209143
:1012C000B60C8091B50C821741F0822F8F5F80930E
:1012D000B60C863010F01092B60C892F99278FBF6C
:1012E0000AC0A0E0442309F4A1E071E006C0222373
:1012F00011F010E069C0A0E070E08FB7F894992772
:10130000209134028FBF222341F08FB7F8949927A0
:101310002AE02093AC0C8FBF43C08FB7F894992775
:101320006091370A4091390A8FBF8FB7F894282F00
:10133000332750E09091B50C8091B60C981709F4C2
:1013400051E02FBF552349F5662339F55FB7F8946F
:1013500082E08093370A8FB7F894282F332740E034
:101360009091B50C8091B60C981709F441E02FBF0D
:10137000442311F080E006C0E091B60CFF27EB5447
:10138000F34F82818093380A852F99278FBF83E49A
:101390008093B40C1092AD0C0BC04150423010F051
:1013A00010E007C085E48093B40C81E08093AD0C1D
:1013B00011E0772349F08FB7F8949927A0933D0265
:1013C0008FBF82E10E944C028091AC0C8A3019F4EC
:1013D0000E94BC081CC01123D1F02FB7F89433270A
:1013E0001092F0091092EF091092F50981E08093B4
:1013F000AC0C2FBF0E942109882349F08FB7F894C5
:10140000992729E02093AC0C8FBF0E94FD051F9106
:1014100008952F923F924F925F926F927F928F9298
:101420009F92AF92BF92CF92DF92EF92FF920F9373
:101430001F93CF93DF93CDB7DEB729970FB6F894FC
:10144000DEBF0FBECDBF6FB76983F89420905B09F4
:1014500030905C0940905D0950905E0966247724C5
:1014600088248EE4A82E03E8B02ECC24DD24EE24BC
:10147000FF2400E010E0222D332D442D552D662D44
:10148000772D882D90E00E94433E2A833B834C8336
:101490005D836E837F8388879987822E932EA42E07
:1014A000B52E2401350100E20E94413FA22EB32E49
:1014B000C42ED52EA30192015695479537952795B1
:1014C0002A0D3B1D4C1D5D1D57FF05C05F772F5F2B
:1014D0003F4F4F4F5F4F20935B0930935C09409320
:1014E0005D0950935E09E9818E2F99278FBFCA014C
:1014F000B90129960FB6F894DEBF0FBECDBFDF91BC
:10150000CF911F910F91FF90EF90DF90CF90BF9000
:10151000AF909F908F907F906F905F904F903F9093
:101520002F9008950E94090ADC01CB010895E091F3
:101530001804F0911904309711F081E08083E09154
:101540001A04F0911B04309711F081E08083E09140
:101550001C04F0911D04309711F081E0808380918C
:101560005A0381FF03C08D7F80935A0380916303E8
:1015700081FF03C08D7F8093630380916C0381FFA3
:1015800003C08D7F80936C0380E090E00895CF933B
:10159000DF93EC01613049F0613008F458C06F3FCF
:1015A00009F484C081E090E0A8C08F3F9105C1F4A8
:1015B0000E94970AE0911604F09117048FEF808340
:1015C000E0911804F09119048083E0911A04F091DD
:1015D0001B048083E0911C04F0911D0480838BC068
:1015E00040E050E0A6E1B4E0ED91FC9111978481D8
:1015F00095818C179D0721F58FEF8083413071F025
:10160000413030F0423081F0433009F074C012C0F4
:10161000809151038D7F809351036DC080915A0357
:101620008D7F80935A0367C0809163038D7F809381
:10163000630361C080916C038D7F80936C035BC0FA
:101640004F5F5F4F129644305105C9F0CDCF8F3FA9
:101650009105A9F4E0ECFBE08FB7F89499272FEF00
:10166000208311828FBF32968BE0E43DF80709F4A6
:1016700042C0F2CF8FEF808311824FBF3CC0E0ECBD
:10168000FBE08FB7F894482F552781819927982F31
:10169000882720813327822B932B8C179D0751F3AA
:1016A0004FBF32968BE0E43DF80759F70E94970A46
:1016B000E0911604F09117048FEF8083E0911804F5
:1016C000F09119048083E0911A04F0911B04808347
:1016D000E0911C04F0911D048083E0ECFBE08FB7E7
:1016E000F89499272FEF208311828FBF32968BE0D9
:1016F000E43DF807A1F780E090E0DF91CF910895F5
:10170000FC01DB018091D80B9091D90B892B19F446
:1017100020816C9103C02385FB016385621718F457
:101720008FEF9FEF0895261719F480E090E0089559
:1017300080E090E0261710F481E090E00895DC014D
:10174000FB019C9180818D939193415050401416E0
:101750001506BCF30895EF92FF920F931F93CF935A
:10176000DF937C01EB018A010E94800B97FF0DC083
:10177000B801CE010E94800B97FD17C0B801C701C8
:101780000E94800B992374F40FC0B801CE010E940F
:10179000800B181619064CF0B801C7010E94800B87
:1017A00097FF02C0E70101C0E801CE01DF91CF91B0
:1017B0001F910F91FF90EF9008958F929F92AF929B
:1017C000BF92CF92DF92EF92FF920F931F93CF932E
:1017D000DF934C016A017093D90B6093D80B5C01C5
:1017E000A40EB51EEA01CC0FDD1FCC0DDD1DCC0F04
:1017F000DD1FC80FD91F15C0A601B701C8010E947F
:101800009F0B87018016910650F47801EC18FD08B3
:10181000B801C7010E94800B181619066CF3AC0CB6
:10182000BD1CAC16BD0610F48501ECCFDF91CF9145
:101830001F910F91FF90EF90DF90CF90BF90AF90EE
:101840009F908F9008952FB7F8943327E82FFF27A4
:10185000E25EFB4F60832FBF772760FD09C061FD0B
:1018600007C02FB7F89433278081816080832FBF12
:1018700081E090E00895DF92EF92FF920F931F9323
:101880008FB7F894282F3327D22E9091B3008091F0
:10189000B20047B3981711F041FF02C02FBF71C0CB
:1018A0008091F7098823E1F10E949803E090440CAD
:1018B000F090450C0091460C1091470C2091450981
:1018C0003091460940914709509148096E197F09A6
:1018D000800B910B621773078407950720F0109215
:1018E000F70971E01EC02E0D3F1D401F511F809152
:1018F000670490916804A0916904B0916A04281B60
:10190000390B4A0B5B0B273E31054105510540F46D
:10191000822F223010F070E005C070E082E002C03B
:1019200070E086EE682F61508091B60083FDFCCF99
:101930008091B200681709F46F5F209167043091BD
:1019400068044091690450916A04DA01C901019662
:10195000A11DB11D860F911DA11DB11D82179307F9
:10196000A407B50710F4622F60958091B60083FD3F
:10197000FCCF6093B300DFBE772319F083E00E94B1
:101980004C021F910F91FF90EF90DF900895AFB739
:10199000F894BB27E1E0E093F7096093440C70935F
:1019A000450C8093460C9093470C20934509309347
:1019B00046094093470950934809AFBF0E943B0C2A
:1019C0000895FB018683892F9927878382E3838784
:1019D00080E00E94BD069927089578941F920F9287
:1019E0000FB60F9211240F900FBE0F901F901895F5
:1019F00078941F920F920FB60F9211240F900FBE82
:101A00000F901F90189578941F920F920FB60F9217
:101A100011242F933F938F939F93AF93BF932FB72F
:101A2000F89433278091020990910309A091040949
:101A3000B09105090196A11DB11D809302099093F3
:101A40000309A0930409B09305092FBFBF91AF917B
:101A50009F918F913F912F910F900FBE0F901F90EC
:101A600018951F920F920FB60F9211242F933F9348
:101A70004F935F936F937F938F939F93AF93BF9396
:101A8000EF93FF938091B0008093B0008091B600F7
:101A900081FDFCCF8091B30099270196AA27BB272F
:101AA00020916704309168044091690450916A0460
:101AB000280F391F4A1F5B1F209367043093680467
:101AC0004093690450936A0478940E943B0CFF9100
:101AD000EF91BF91AF919F918F917F916F915F91A6
:101AE0004F913F912F910F900FBE0F901F9018951F
:101AF0001F93182F81E00E94FC061EBD0DB407FE47
:101B0000FDCF8EB599271F9108951F920F920FB6A2
:101B10000F9211248F929F92AF92BF92CF92DF9239
:101B2000EF92FF920F931F932F933F934F935F93E7
:101B30006F937F938F939F93AF93BF93CF93DF93D5
:101B4000EF93FF932EB5E0911204F09113043097B8
:101B500039F08091430990914409E80FF91F2083DF
:101B60008091430990914409019690934409809390
:101B7000430980E00E940507C0914309D0914409C0
:101B80008091390C90913A0CC817D90708F046C0DB
:101B90000091DE091091DF098090120490901304E7
:101BA0000F2EFAE0AF2EBB24F02DAC0EBD1E8A1511
:101BB0009B0508F45C016401CC0EDD1E7801EC0E7F
:101BC000FD1E15C00115110519F0F701808101C036
:101BD00080E00E94780D8114910411F0F601808359
:101BE00021960894C11CD11C0894E11CF11CC5016C
:101BF0000197C817D90730F381E00E940507011546
:101C0000110531F00C0F1D1FF80180818EBD01C040
:101C10001EBCD0934409C093430911C01092130411
:101C2000109212041092DF091092DE0910923A0C01
:101C30001092390C10924409109243098EB5FF910D
:101C4000EF91DF91CF91BF91AF919F918F917F9154
:101C50006F915F914F913F912F911F910F91FF9045
:101C6000EF90DF90CF90BF90AF909F908F900F90AC
:101C70000FBE0F901F901895ECE3F1E06927660FF7
:101C8000F11DE60FF11DC895982F802D3196C8954E
:101C900090250895982F80914002882381F59923FB
:101CA00071F531E03093400280910D028093410242
:101CB00020913502822F817080934B09809112020E
:101CC00090911302909343028093420280913602D6
:101CD0008093440232273170267EE32FFF27EE0FD8
:101CE000FF1FE25FFD4F80819181909313028093EB
:101CF0001202232B2093350283E10E944C020895A7
:101D00000F931F93082F162F8091B30A8130D9F0BB
:101D1000813038F0823009F44AC0833009F00EC1B6
:101D200059C0002309F43EC11092B2031092B103CE
:101D300010925D0C10926E0C1092F6091092AE0388
:101D40001092AD031FC1002309F02CC18091AD0397
:101D50009091AE030E943C0E9093AE038093AD032E
:101D600082E08093B30A10936E0C143409F0E6C03D
:101D70000BC1869504C08091350286958695817049
:101D800009F0DCC080913502992311F0846001C014
:101D900082608093350280913502877E88608093CF
:101DA0003502109236028FEF80930D02FBC00023A4
:101DB00009F0C4C06093F6098091AD039091AE0321
:101DC0000E943C0E9093AE038093AD0383E080931A
:101DD000B30AE8C080915D0C8F3F09F4AFC00023C7
:101DE00009F447C0823008F4A9C0E091B103EE23A2
:101DF00009F4D1C04E2F4150E42FFF27EF54FC4F80
:101E000082819927382F2227442311F4E2E002C06F
:101E1000E42FE150FF27EF54FC4F82819927282BB4
:101E2000392B8091AD039091AE032817390709F043
:101E300085C080E00E944A0E3091F6098091B50C71
:101E40002091B60C982F9F5F963008F090E0921783
:101E500009F474C0E82FFF27EB54F34F32838F5FF0
:101E60008093B50C863010F01092B50C0E94FD05E1
:101E700065C0823008F44EC0E091B203FF27EF54F2
:101E8000FC4F8281482F5527342F20913502822F15
:101E9000869586958695837099278130910519F0EE
:101EA0000297F9F40EC0277E206120933502442367
:101EB00011F485E001C080E08093360230930D027A
:101EC00010C0809136028F3260F4E0911202F091DE
:101ED0001302E80FF11D4083809136028F5F8093DB
:101EE00036028091B203E82FFF27EF54FC4F628146
:101EF0008F5F8093B203833010F01092B203772784
:101F00008091AD039091AE030E943C0E9093AE037E
:101F10008093AD038091B103E82FFF27EF54FC4F6E
:101F200012838F5F8093B103833010F01092B1035E
:101F300080915D0C8F5F80935D0C34C01092B20372
:101F40001092B1031092B30A10925D0C10926E0CB5
:101F50001092F6091092AE031092AD0380914502E3
:101F60008D7F8093450281E00E944A0E8091340269
:101F7000882331F084E08093B30A0E94BC0812C029
:101F8000002381F081E023CF80913502982F91705A
:101F900080FDEFCEF0CE8091B5039927382F222710
:101FA00042E036CF1F910F9108951F920F920FB606
:101FB0000F9211242F933F934F935F936F937F93CF
:101FC0008F939F93AF93BF93EF93FF938091C00044
:101FD00087FF42C06091C600E0919C0CF0919D0C7F
:101FE000309719F18091330A9091340AE80FF91F64
:101FF000608301969093340A8093330A2091D60B24
:102000003091D70B8217930738F110929D0C1092E4
:102010009C0C80915E048330F9F08091C1008F7731
:102020008093C10010925E0417C06E3719F460E00F
:1020300081E010C0809145026D3721F48260809369
:1020400045020AC081FF05C08D7F8093450280E272
:10205000682780E00E94800EFF91EF91BF91AF91C1
:102060009F918F917F916F915F914F913F912F91B0
:102070000F900FBE0F901F901895982F8D5782309C
:1020800068F48091450281608093450280E289274F
:102090008093DB098DE780936D0C02C090936D0CEB
:1020A00061E070E08DE69CE00E94EC0899270895BD
:1020B00078941F920F920FB60F921124FF920F93F4
:1020C0001F932F933F934F935F936F937F938F93C0
:1020D0009F93AF93BF93CF93DF93EF93FF932091A1
:1020E000AF033091B0038091B10C9091B20C2817DE
:1020F000390780F4E0913F0DF091400DE20FF31F9E
:1021000080812F5F3F4F3093B0032093AF030E9435
:10211000E008D4C01092400D10923F0D10925F095C
:102120008091C1008F7B8093C1008091450280FF28
:102130000EC08E7F809345028091DB0980936D0CE9
:1021400061E070E08DE69CE00E94EC08B7C08091F1
:10215000AC0C843009F494C0853040F4823021F115
:102160008330B8F5813009F0A4C00DC0863009F481
:1021700095C0863008F48BC0873009F496C088304B
:1021800009F097C099C08091B40C0E943D10182F9F
:1021900083E08093AC0C6091B40C8091EF09909136
:1021A000F0090E943C0E10C08091310A0E943D103F
:1021B000182F83E08093AC0C6091310A8091EF0975
:1021C0009091F0090E943C0E9093F0098093EF09E2
:1021D0006EC0FFB6F894E091AD0CFF27EE0FFF1F25
:1021E000E85CF54F80810E943D10082F1091AD0CE6
:1021F000C12FDD27FE01EE0FFF1FE85CF54F608168
:102200008091EF099091F0090E943C0E9093F009A3
:102210008093EF092091F5092F5F2093F509113084
:1022200039F580913C02E0913702F0913802E80FD5
:10223000F11DE0818F5F80933C0290913B029817E3
:1022400030F482E08093390A40E050E002C04E2F23
:102250005527DE01AA0FBB1FFD01E95CF54F808108
:10226000823031F02F3F21F0A85CB54F4C9303C072
:1022700084E08093AC0C102F8F2D99278FBF17C04F
:102280008091EF090E943D10182F85E00BC08091CE
:10229000F0090E943D10182F86E004C00E94210919
:1022A000182F87E08093AC0C02C088E003C0112394
:1022B00029F089E08093AC0C0E94FD05FF91EF911D
:1022C000DF91CF91BF91AF919F918F917F916F914E
:1022D0005F914F913F912F911F910F91FF900F9020
:1022E0000FBE0F901F9018951F920F920FB60F926E
:1022F00011248F938091C80087FF02C08091CE0087
:102300008F910F900FBE0F901F90189578941F9289
:102310000F920FB60F9211240F900FBE0F901F90C7
:10232000189578941F920F920FB60F9211240F9068
:102330000FBE0F901F90189578941F920F920FB6B2
:102340000F9211240F900FBE0F901F901895789444
:102350001F920F920FB60F9211240F900FBE0F9085
:102360001F90189578941F920F920FB60F92112418
:102370008F939F9380919400909195009F918F915E
:102380000F900FBE0F901F90189578941F920F9288
:102390000FB60F9211242F933F938F939F932FB7D4
:1023A000F894332780913F099091400901969093CA
:1023B000400980933F092FBF9F918F913F912F91AB
:1023C0000F900FBE0F901F9018951F920F920FB68F
:1023D0000F9211242F933F934F935F936F937F93AB
:1023E0008F939F93AF93BF93EF93FF9340917800A8
:1023F0005091790078948FB7F89499272091EE0C3A
:10240000322F3695317021708FBF2223F9F48091DD
:102410007A00877F80937A008091B00B813021F021
:10242000823009F03DC00AC0332351F05093660456
:10243000409365048AE10E944C0232C0332319F4B0
:102440000E946D052DC01092B00B2AC08FB7F89472
:1024500099278FBF2FB7F894332780917A00582F90
:102460005770482F4072987D942B952B8074977BE2
:10247000982B90619F77892F992780937A00887D88
:10248000842B852B87738061992780937A00887DC0
:10249000842B852B877B8069992780937A002FBFB7
:1024A000FF91EF91BF91AF919F918F917F916F912C
:1024B0005F914F913F912F910F900FBE0F901F9002
:1024C00018951F920F920FB60F9211240F900FBE06
:1024D0000F901F9018951F920F920FB60F92112414
:1024E0000F900FBE0F901F9018951F920F920FB66E
:1024F0000F9211240F900FBE0F901F9018951F92EE
:102500000F920FB60F9211240F900FBE0F901F90D5
:1025100018951F920F920FB60F9211240F900FBEB5
:102520000F901F9018951F920F920FB60F921124C3
:102530002F933F934F935F936F937F938F939F93CB
:10254000AF93BF93EF93FF93EF988BE10E944C0200
:10255000FF91EF91BF91AF919F918F917F916F917B
:102560005F914F913F912F910F900FBE0F901F9051
:102570001895CF92DF92EF92FF920F931F93CF9314
:10258000DF933AE6C32E3AE0D32EEE24FF2401E097
:1025900010E00E2C02C0000F111F0A94E2F7809188
:1025A00010049091110480239123892B49F10E94FA
:1025B000C801EC01892B19F40E94E7013BC080EAB5
:1025C0008C8780914F028D8780910002909101024B
:1025D0008E87892F99278F87DE015096F60186E036
:1025E00001900D928150E1F787E18883CE010E942E
:1025F000F001882389F0CE010E940F0212981AC0C0
:102600000894E11CF11C86E090E0C80ED91E9BE006
:10261000E916F10479F0BBCF202F20953327809164
:1026200010049091110482239323909311048093BA
:102630001004E6CFDF91CF911F910F91FF90EF90A3
:10264000DF90CF900895623009F409C1633030F40F
:10265000662371F0613009F039C1C7C0643009F4F4
:10266000A9C0643008F4DEC0653009F02FC112C182
:10267000833009F487C0843038F4813009F452C0C3
:10268000823008F067C008C08630A9F1873021F099
:10269000853009F01BC118C080EA9AE09093490C7C
:1026A0008093480C89E08093A00A4093A40A852F68
:1026B00099278093A50A2FB7F894332780911004A7
:1026C000909111049260FDC0809153029091540248
:1026D000019690935402809353024150564008F45F
:1026E000F7C080915B0290915C02019690935C022E
:1026F00080935B02EDC0809151029091520201964D
:1027000090935202809351024631510508F4E0C083
:102710008091590290915A02019690935A028093A7
:102720005902D6C084E99AE09093490C8093480CF2
:1027300087E08093940A4093980A852F9927809385
:10274000990A2FB7F89433278091100490911104BF
:102750008068B7C088E89AE09093490C8093480C51
:1027600085E08093880A40938C0A852F992780936F
:102770008D0A2FB7F894332780911004909111049B
:1027800080629FC082E89AE09093490C8093480C45
:1027900084E08093820A4093860A852F992780934C
:1027A000870A2FB7F8943327809110049091110471
:1027B000806187C0882309F089C08CE79AE09093F4
:1027C000490C8093480C83E080937C0A4093800AF4
:1027D000852F99278093810A2FB7F894332780910A
:1027E00010049091110488606CC08091500288237D
:1027F00009F06EC086E79AE09093490C8093480CEC
:1028000082E08093760A40937A0A852F99278093F5
:102810007B0A2FB7F894332780911004909111040C
:1028200084604FC080915002882309F051C080E736
:102830009AE09093490C8093480C81E08093700A51
:102840004093740A852F99278093750A2FB7F894BF
:1028500033278091100490911104826032C08091DE
:1028600050028823A9F58AE69AE09093490C809358
:10287000480C10926A0A40936E0A852F992780931C
:102880006F0A2FB7F89433278091100490911104A8
:10289000816017C08EE89AE09093490C8093480CB1
:1028A00086E080938E0A4093920A852F9927809321
:1028B000930A2FB7F8943327809110049091110454
:1028C000806490931104809310042FBF0E94B9126A
:1028D00080E090E008956F927F928F929F92AF92E6
:1028E000BF92CF92DF92EF92FF920F931F93CF93FD
:1028F000DF93EB0100915F0210916002B80188271D
:1029000077FD8095982F0E9434406B017C0117FF62
:1029100008C020E030E040E857E40E94D53F6B015A
:102920007C0120E030E040E050E0C701B6010E94A9
:102930003E40882309F49EC0BE01882777FD80951C
:10294000982F0E9434403B014C01D7FF08C020E083
:1029500030E040E857E40E94D53F3B014C012AE0BB
:1029600037ED43E25CE3C701B6010E94AB4020E0D3
:1029700030E040E252E40E94D43F20E030E048ECF6
:1029800051E40E94D43F7B018C012CEA35EC47EAEC
:1029900058E3C401B3010E94AB402AE037ED43E2A3
:1029A0005CE30E94D53F9B01AC01C801B7010E94C6
:1029B000AB405B016C0122EA37EE4BE356EBC401FE
:1029C000B3010E94AB40A40193010E94AB407B0184
:1029D0008C0124E533EE45E25DE3C401B3010E94BE
:1029E000AB409B01AC01C801B7010E94D53F20E07C
:1029F00030E040E850E40E94D43F9B01AC01C601A6
:102A0000B5010E94D53F7B018C0120E030E048EC0D
:102A100052E40E94414018165CF40F2EF0E0EF2EB5
:102A2000F0E0FF2EF8EC0F2FF2E41F2FF02D14C072
:102A30002DEC3CEC4CEC5DE3C801B7010E943E403C
:102A4000882354F40F2EFDECEF2EFCECFF2EFCEC53
:102A50000F2FFDE31F2FF02D1092600210925F02E6
:102A6000C801B7010E941740AB01BC0163E080E0E0
:102A70000E942313DF91CF911F910F91FF90EF9050
:102A8000DF90CF90BF90AF909F908F907F906F908E
:102A90000895AB01863009F451C0873080F482304C
:102AA00091F1833030F4882301F1813009F079C04D
:102AB00023C08430B1F1853008F03AC02BC08A3091
:102AC00009F454C08B3038F4883009F443C089309D
:102AD00008F046C039C08C3009F454C08C3008F47A
:102AE0004BC08D3009F05DC055C06F5F7F4F09F45A
:102AF00058C060E080E04BC06F5F7F4F09F451C069
:102B000060E081E044C06F5F7F4F09F44AC060E03D
:102B100082E03DC06F5F7F4F09F443C060E083E017
:102B200036C06F5F7F4F09F43CC060E084E02FC087
:102B30006F5F7F4FB1F160E085E029C06F5F7F4F2D
:102B400081F160E086E023C06F5F7F4F51F160E06C
:102B500087E01DC06F5F7F4F21F160E088E017C004
:102B60006F5F7F4FF1F060E089E011C06F5F7F4FD2
:102B7000C1F060E08AE00BC06F5F7F4F91F060E0D2
:102B80008BE005C06F5F7F4F61F060E08CE00E94DA
:102B9000231308956F5F7F4F21F060E08DE00E9466
:102BA00023130895AB018230A1F0833028F48823E9
:102BB00051F08130E9F40AC0843089F0843060F04B
:102BC0008530B1F411C064E080E00BC064E081E0C6
:102BD00008C064E082E005C064E083E002C064E015
:102BE00084E00E942313089564E085E00E9423138B
:102BF0000895282F8FB7F8949927E22FFF27DF0138
:102C0000AA0FBB1FA55BB34F6D917C9111978FBF2E
:102C1000E25EFB4F8081807331F08FB7F894992783
:102C20001D921C928FBF822F0E94D21580E090E0EF
:102C300008958FB7F89499274091AF0C5091B00C3C
:102C40008FBF65E080E00E94231308951F920F92CA
:102C50000FB60F9211248F938091B0008093B00033
:102C60008091B60081FDFCCF8F910F900FBE0F9029
:102C70001F90189521E020933F0C20930709209185
:102C8000840030918500BC01C9010E94A20708950B
:102C90008FB7F894282F3327922F80910B02882327
:102CA00031F480913302823011F42FBF13C09FBFE3
:102CB0008FB7F894282F332780913302882369F443
:102CC00082E08093330210920B022FBF0E940E0706
:102CD000209A289A81E090E008952FBF80E00E941A
:102CE000320780E090E008954F925F926F927F925A
:102CF0008F929F92AF92BF92CF92DF92EF92FF920C
:102D00000F931F93CF93DF93EC018091E709882302
:102D100009F052C18091B20A853009F04DC10E947C
:102D20004816882309F448C180914109882309F095
:102D300043C178E2472E512C4C0E5D1E88A582FDC2
:102D400002C090E003C0F20192819F7080914D0912
:102D5000981781F090934D09289885EC8EBD0DB49D
:102D600007FEFDCF8EB590689EBD0DB407FEFDCF6A
:102D70008EB5289A6CE0862E912C8C0E9D1E8A8131
:102D8000298140E09927982F88273327822B932B7E
:102D900087749C7C8154984809F441E0442301F1F4
:102DA000289886E88EBD0DB407FEFDCF8EB51EBCFB
:102DB0000DB407FEFDCF8EB5289A99278F719070BC
:102DC00020914C0940913B0D240F312D311D43E0E2
:102DD000359527954A95E1F7281739070CF4ECC08B
:102DE000289882EC8EBD0DB407FEFDCF8EB589E02C
:102DF0008EBD0DB407FEFDCF8EB5289A0E947D07CB
:102E00007B018C01F201808184FD03C060E070E0F1
:102E100005C088818151B401680F711D289881E82F
:102E20008EBD0DB407FEFDCF8EB51EBC0DB407FEE2
:102E3000FDCF8EB5289A8F71893021F087E080937D
:102E4000B20ABAC08FB7F89499272F9A409184009C
:102E5000509185004E555F4F8FBF2F98289880E680
:102E60008EBD98810DB407FEFDCF8EB59EBDF92FA6
:102E7000F250F73010F4EF2F01C0E7E02196DE01A9
:102E80002E2F9D910DB407FEFDCF8EB59EBD215016
:102E9000C1F7E1506E01CE0ED11CEF5F0894C11C4A
:102EA000D11C4E195F093A01882477FC8094982C34
:102EB0006E0C7F1C801E911E61157105C1F0EB0127
:102EC00088819981AA81BB8186199709A809B909C6
:102ED0008B83292F3A2F4B2F55272A839D01442777
:102EE000552729838B2F9927AA27BB2788839F2FB4
:102EF0009E1BF60121916F010DB407FEFDCF8EB52B
:102F00002EBD9150B1F70DB407FEFDCF8EB5289AB6
:102F1000289882EC8EBD0DB407FEFDCF8EB586E0FD
:102F20008EBD0DB407FEFDCF8EB5289A61157105D3
:102F300089F1EB018881E9802A81AB80332744271E
:102F40005527542F432F322F22279927AA27BB27F3
:102F5000B82FAA2799278827FF2400271127870140
:102F6000FF24EE248E299F29A02BB12BBB24CC2437
:102F7000DD248A299B29AC29BD29282B392B4A2BF2
:102F80005B2B260D371D481D591DFB012083318306
:102F900042835383E201888182608883F2016382E5
:102FA00074828582968286E08093B20A84E0809360
:102FB000E70980E090E002C085E090E0DF91CF91EA
:102FC0001F910F91FF90EF90DF90CF90BF90AF9047
:102FD0009F908F907F906F905F904F900895CF93C8
:102FE000DF93982F8FB7F894C82FDD272C2F80916F
:102FF0006502882361F481E08093650290936C0CF4
:103000008DE10E944C02CFBF80E090E021C0E92F0B
:10301000FF27E25FFB4F80818F3F89F4E09122021E
:10302000E91789F40CC09093210204C0FF27E25FE6
:10303000FB4F90839093220280E090E002C085E0F5
:1030400090E02FBF05C0809121028F3F79F7EBCF31
:10305000DF91CF910895CF93DF93EB0180915D02D3
:10306000882349F07093600260935F0210925D02C2
:1030700081E00E94EF1780915E02882339F0109260
:103080005E02AE0162E080E00E942313DF91CF91E7
:1030900008951F920F920FB60F9211242F933F9312
:1030A0004F935F936F937F938F939F93AF93BF9350
:1030B000EF93FF938091AB0C9091A20C8823A1F425
:1030C000449881E08093AB0C292F332721FF21C046
:1030D0008091AF0C9091B00C01969093B00C8093BE
:1030E000AF0C22FF16C012C0449A1092AB0C292FCD
:1030F000332720FF0EC08091AF0C9091B00C019649
:103100009093B00C8093AF0C22FF03C085E20E9425
:103110004C02FF91EF91BF91AF919F918F917F9161
:103120006F915F914F913F912F910F900FBE0F9034
:103130001F9018951F93982F8FB7F894182F809190
:103140006602833009F043C080912602891709F096
:103150003EC08091240290E08F3F09F491E09923D2
:10316000E1F48F3F19F42FEF30E00EC0282F332702
:10317000F901E55CF34F8081809324028F3F11F4C5
:10318000809325028FEF80832093E80981E080936C
:10319000660283E20E944C0216C084E080932602FD
:1031A0001092660280916702813069F40E944302A6
:1031B00080914A0C8A7780934A0C8093BC0058987F
:1031C0005998109267021FBF80E090E003C01FBFB4
:1031D00081E090E01F9108950F931F93982F1FB7E0
:1031E000F89480913302823079F580910B0289172F
:1031F00059F58091090290E08F3F09F491E09923FD
:10320000E1F48F3F19F42FEF30E00EC0282F332761
:10321000F901E65FF24F8081809309028F3F11F43C
:1032200080930A028FEF80832093BB0B81E0809311
:1032300033028BE00E944C0205C08FEF80930B029B
:103240001092330201E001C000E0812F99278FBF67
:103250001FB7F89480913302882311F40E94FC0672
:10326000812F99278FBF90E0013009F491E081E030
:103270009827892F99271F910F91089580E00E9428
:10328000EC18992708951F93182F882381F48091B3
:103290005F04909160040E94CC072091E90930916D
:1032A000EA09280F391F3093EA092093E9098FB7FB
:1032B000F89499271093430C8FBF86E00E944C022C
:1032C0001F910895FF920F931F93CF93DF938091E7
:1032D0004109882309F40CC10E944816882309F487
:1032E00007C18FB7F8949927C0910909D0910A09AD
:1032F0008FBF1092410928988FE88EBD0DB407FE4C
:10330000FDCF8EB51EBC0DB407FEFDCF8EB5289A3D
:10331000982F082F112700FF0CC08091E7098330F8
:1033200011F0873031F485E08093B20A88E0809311
:10333000E70902FF58C08091E709863019F410921E
:10334000E70903C0882309F04EC09430D9F52898C6
:1033500086E88EBD0DB407FEFDCF8EB51EBC0DB444
:1033600007FEFDCF2EB5289A2F7180913B0D982F27
:1033700096959695322F391B830F80933B0DE091E4
:103380006304F091640480A58B7F886080A722A7E6
:103390000E947D07E0916304F091640420A52260FF
:1033A00020A7C61BD70B27979E01442737FD4095C2
:1033B000542F260F371F481F591F23A734A745A78F
:1033C00056A70EC0E0916304F091640480A5877F46
:1033D00080A7E0916304F091640480A58D7F80A7AD
:1033E00085E08093E70903FF83C08091E70984307B
:1033F00009F04BC085E08093B20A1092E7098091F2
:103400004A09833019F410924A0972C0E091400CC5
:10341000F091410C828121819927982F88273327A9
:10342000822B932B85FF29C087749C7C81549848FC
:1034300021F5878126819927982F88273327822B8A
:10344000932B8F5F9F4FC9F090E0809107098823ED
:1034500009F491E0992389F012E010933F0C81E088
:1034600080930709809184009091850061EE72E05D
:103470000E94A20710934A093BC010924A09109279
:10348000EB0980E00E94431933C0853089F58091B3
:10349000B20A873091F4289882EC8EBD0DB407FEF5
:1034A000FDCF8EB586E08EBD0DB407FEFDCF8EB587
:1034B000289A85E08093B20A17C020914C09289879
:1034C00086E88EBD0DB407FEFDCF8EB51EBC0DB4D3
:1034D00007FEFDCF8EB5289A8F71922F96959695FF
:1034E000891B280F20934C0989E08093E70908C0C5
:1034F0009091E709992309F47BC2993009F0B6C18C
:10350000289880E28EBD0DB407FEFDCF8EB51EBC9F
:103510000DB407FEFDCF8EB5282F3327922F233011
:1035200008F43CC32A3208F039C31EBCE09163049E
:10353000F091640420832091630430916404592F36
:103540005250573010F4452F01C047E02F5F3F4FD6
:10355000942FF90160E070E00DB407FEFDCF8EB549
:103560001EBC808381916827062E6295607F60254E
:10357000072E762F62956F70062666957627672749
:10358000660F660F660F6025915031F74150D901E3
:10359000A40FB11D4F5F1196E0916304F091640494
:1035A0008181282F3327277030702230310509F4AC
:1035B00091E09923B9F080914A09823081F48381A6
:1035C000E091400CF091410C9381891741F490E017
:1035D0002230310509F091E081E098270EC080E0AB
:1035E00090E00DC08FB7F894282F332790E080919A
:1035F000380C833008F491E02FBF892F9927892B4D
:1036000009F4CCC2952F941B18C00DB407FEFDCF52
:103610008EB51EBC8C938D916827062E6295607FB7
:103620006025072E762F62956F70062666957627A1
:103630006727660F660F660F6025915030F70DB44F
:1036400007FEFDCF8EB51EBC9B012827022E2295BA
:10365000207F2025032E322F22952F7002262695BB
:1036600032272327220F220F220F20250DB407FE19
:10367000FDCF8EB51EBC2827022E2295207F202547
:10368000032E322F22952F700226269532272327CC
:10369000220F220F220F20250DB407FEFDCF8EB57D
:1036A000E0916304F091640481A7289A05E0F02E6C
:1036B000F092B20A1092E709232B09F095C1C0914C
:1036C0006304D0916404898160E08770823009F4DA
:1036D00061E0062F112780914A098230A9F4809178
:1036E0006F008D7F80936F0010920709602F80918B
:1036F000400C9091410C0E94DB0710924A091092F5
:10370000EB0980E00E944319002309F0AAC0CE0112
:103710000E94E407882399F0F092A30982E0809345
:10372000A4091092A5098B818093A60983EA99E0E8
:103730000E947416882319F483E080934A0900914B
:10374000840010918500CE010E94E407882311F0C7
:10375000045E1C4F1093D50B0093D40B8091840012
:1037600090918500081B190BC801101611066CF406
:103770002091EB09222331F40E943A1680E88093CD
:10378000EB0903C020682093EB09CE010E94CC070F
:103790002091AD0A3091AE0A280F391F3093AE0A3E
:1037A0002093AD0A898528859927982F8827332764
:1037B000822B932B0E941108E82FFF27E052F64F2F
:1037C000908191FD09C08091AC0A803128F48F5F0F
:1037D0008093AC0A92609083898528859927982FD9
:1037E00088273327822B932B0E9411089B81A82FB7
:1037F000BB27FD01E052F64F808180FF0EC0FD0126
:10380000E054F34F8081981751F480916F0C8F3FF3
:1038100041F18F5F80936F0C24C081608083A0543E
:10382000B34F9C93FFB6F8948091380C8330B0F47A
:10383000E091AF0BE80FE33008F0E350FF27EE0F05
:10384000FF1FEE52F64F00811181D183C0838F5F3D
:103850008093380C87E00E944C02E8018F2D992755
:103860008FBFD0936404C0936304B2C0892F81508A
:10387000833008F08BC081508230E0F43091B20A7E
:103880003130C1F420E080910709882309F421E058
:10389000222381F02F9883E080933F0C3093070917
:1038A00080918400909185006BE273E00E94A207F2
:1038B00082E057C0933091F58091B20A833009F0CD
:1038C00087C00E944816882349F128988FE88EBD4A
:1038D0000DB407FEFDCF8EB51EBC0DB407FEFDCFA7
:1038E0008EB5289A8091810080648093810080E267
:1038F00086BB80916F00806280936F00289882EC75
:103900008EBD0DB407FEFDCF8EB586E08EBD0DB425
:1039100007FEFDCF8EB5289A84E023C08091E70989
:103920008150823000F58091B20A8530E1F40E9426
:1039300048168823C1F0289882EC8EBD0DB407FE8E
:10394000FDCF8EB583E08EBD0DB407FEFDCF8EB5E5
:10395000289A80916F008F7D80936F0010924109AB
:1039600083E08093B20A9091E709913041F480910D
:10397000B20A8330C9F52F9A9093B20A25C09230CB
:1039800039F58091B20A833079F51EC0973001F580
:103990000E9448168823E1F09091FE0C289888EC4C
:1039A0008EBD0DB407FEFDCF8EB590669EBD0DB4E5
:1039B00007FEFDCF8EB5289A8091B20A853021F49A
:1039C00084E08093B20A04C088E08093E70904C0D1
:1039D0008091E709883041F41092E70988E00E945D
:1039E0004C0285E00E944C028091E709882331F562
:1039F0008091B20A8530F9F4809141098823D9F485
:103A000080914A098823B9F48091EB09882399F4BD
:103A100090E080910709882309F491E0992359F0F7
:103A20008091AF0A813039F486E00E944C02809187
:103A3000E709882319F480E00E94EC1880910709B7
:103A4000823009F09EC010920709F0903F0CF816E2
:103A500009F46CC023E0F21609F477C031E0F316E4
:103A600009F08FC02091D40B3091D50B8091840048
:103A7000909185004091EB09403859F41092EB0980
:103A80008091AF0A813009F07CC086E00E944C0230
:103A900078C0E901C81BD90B47FF03C01C161D06DF
:103AA000F4F00091A80C1091A90C80914A09882388
:103AB000B1F4C8010E9474169927882359F460E074
:103AC000C8010E94DB07F0924A091093410C009351
:103AD000400C28C09927182F882321F101C015E038
:103AE0002091EB09822F99278F77019759F420783D
:103AF00022602093EB0980E198E00E9499080E94DF
:103B00003A163FC027FF0AC01C161D063CF480E889
:103B10008093EB09CE010E943A1602C01092EB0985
:103B2000812F10C083E08093EB092BC080916F0C34
:103B30008F3F19F08F5F80936F0C10924A0910929B
:103B4000EB0980E00E9443191CC08091B20A8230C8
:103B500019F4F092B20A13C08091E709863079F423
:103B60001092E709289881E88EBD0DB407FEFDCFBD
:103B70008EB51EBC0DB407FEFDCF8EB5289A0E94EF
:103B8000F21D8FB7F894282F33278091EE098130EA
:103B900061F081E08093EE092FBF99CB289A85E0F0
:103BA0008093B20A1092E7091FCF1092EE092FBF3F
:103BB000DF91CF911F910F91FF9008958FB7F894E7
:103BC000282F33278091EE0981508093EE098038A9
:103BD00011F02FBF089581E08093EE092FBF0E945E
:103BE000621908958FB7F894282F33278091EE0932
:103BF000882329F080688093EE092FBF089581E023
:103C00008093EE092FBF0E946219089578941F9245
:103C10000F920FB60F9211242F933F934F935F9300
:103C20006F937F938F939F93AF93BF93EF93FF9384
:103C300080918400909185002091860030918700CA
:103C40008FB7F894992730930A092093090921E046
:103C5000209341098FBF0E94F21DFF91EF91BF9108
:103C6000AF919F918F917F916F915F914F913F9114
:103C70002F910F900FBE0F901F90189578941F9260
:103C80000F920FB60F9211242F933F934F935F9390
:103C90006F937F938F939F93AF93BF93EF93FF9314
:103CA00080916F008D7F80936F0078949FB7F89418
:103CB00080910709813019F482E080930709892FE8
:103CC00099278FBF0E94F21DFF91EF91BF91AF9195
:103CD0009F918F917F916F915F914F913F912F9124
:103CE0000F900FBE0F901F90189580912802882387
:103CF000B1F180912A02882391F580912B028823CB
:103D000071F580912F02882351F580912D0288232F
:103D100021F480912E02882311F58FB7F89499270A
:103D20002091EE092F5F2093EE098FBF8091AF0A9B
:103D3000882399F482E080935B0C8091E7098823C3
:103D400061F48091B20A813041F081E08093E7090B
:103D50000E94F21D85E08093AF0A0E94DE1D089547
:103D600080912802882369F58FB7F89499272091CC
:103D7000EE092F5F2093EE098FBF8091AF0A882351
:103D8000F1F481E080935B0C8091E7098823B9F41A
:103D90008091B20A813049F490E08091070988232C
:103DA00009F491E0992359F002C0853041F083E095
:103DB0008093E7090E94F21D84E08093AF0A0E947D
:103DC000DE1D08958F929F92AF92BF92CF92DF92A5
:103DD000EF92FF920F931F93CF93DF93982EC82FEC
:103DE000DD27DE01AA0FBB1FAA5EBB4FED91FC9140
:103DF000119783800FB7F894ED91FC9181818F5FCB
:103E0000889D102D1124858524859927782F662774
:103E10003327622B732BAA24BB2412C06F5F7F4F02
:103E2000CB01AA27BB2780935B0990935C09A093E1
:103E30005D09B0935E090E94090A7170A60EB71E53
:103E4000115060F7802F99278FBFFE01EE0FFF1FE3
:103E5000EA5EFB4FC080D180F601E180FF24089428
:103E6000E11CF11C0027F7FC0095102F682D772727
:103E7000882799272AEF3FEE40E050E00E94F64065
:103E80009B01AC01C801B7010E94F6408B019C0167
:103E9000C501AA27BB27080F191F2A1F3B1FF601C0
:103EA0001082F1E09F16D9F09F1640F082E098163C
:103EB00039F1E3E09E1609F046C033C0809151030A
:103EC0008D7F80935103E0911604F0911704468191
:103ED000578160857185E1E0EE2E87E032C08091E8
:103EE0005A038D7F80935A03E0911804F0911904CE
:103EF000468157816085718591E0E92E88E021C077
:103F0000809163038D7F80936303E0911A04F091A5
:103F10001B04468157816085718581E0E82E89E028
:103F200010C080916C038D7F80936C03E0911C0422
:103F3000F0911D044681578160857185B1E0EB2EBB
:103F40008AE00E946E03809114028F3F09F43AC008
:103F5000FE01EE0FFF1FEA5EFB4F0190F081E02DA6
:103F60008181882379F5248135818091620C90913B
:103F7000630C2817390731F5AEE5BCE08EE00190FF
:103F80000D928150E1F74FB7F89455270091140234
:103F900082E3089F800111240E5C1F4F222717FD2A
:103FA0002095322F4FBFCC0FDD1FCA5EDB4FE8815B
:103FB000F9814681578160857185E1E0EE2E8CE0C4
:103FC0000E946E03DF91CF911F910F91FF90EF90B0
:103FD000DF90CF90BF90AF909F908F9008951F93E8
:103FE00010E0E12FFF27EE0FFF1FEA5EFB4F01906D
:103FF000F081E02D309749F0E081EF3F31F0E13082
:1040000029F5812F0E94E21E21C0113069F0113084
:1040100028F0123079F01330C9F412C080915103A6
:104020008D7F8093510316C080915A038D7F8093BA
:104030005A0310C0809163038D7F809363030AC08D
:1040400080916C038D7F80936C0306C01F5F1430DA
:1040500040F202C01F5FC5CF80E090E01F9108953D
:104060001F93CF93DF93182FE82FFF27EE0FFF1F2B
:10407000EC5EFB4F1182108210921E02A09114047C
:10408000B0911504109721F080913E0980FF0FC078
:1040900081E080931E0203C088E10E944C0211233C
:1040A000D1F410924B0284E10E944C0214C0FD0135
:1040B000359624813327ED016D817727762F66278A
:1040C00081819927682B792BAD0186810E94110689
:1040D000882329F3E1CFDF91CF911F9108951F929B
:1040E0000F920FB60F9211242F933F934F935F932C
:1040F0006F937F938F939F93AF93BF93EF93FF93B0
:10410000EC9882E20E944C02882309F4EC9A80E049
:104110000E942902882311F40E94B102FF91EF91BD
:10412000BF91AF919F918F917F916F915F914F91CF
:104130003F912F910F900FBE0F901F9018958E30CA
:1041400018F081E090E008954FB7F894552721E0EA
:1041500030E002C0220F331F8A95E2F780916A0295
:1041600090916B02822B932B90936B0280936A0247
:104170004FBF84E20E944C0280E090E008950F93CC
:104180001F939FB7F8948091690283508230C0F5E5
:1041900021E02093690280915D04863021F187300F
:1041A00070F48330D1F0843028F4813091F0823083
:1041B00071F411C0843099F0853049F412C08B300D
:1041C000B1F08B3090F08C30A9F08D30B1F088E0F8
:1041D00015C08CE013C089E011C08DE00FC08AE0EB
:1041E0000DC08EE00BC08BE009C08FE007C01092BD
:1041F000A10C06C02093A10C03C082E08093A10C07
:104200008091A10C8295807F8F608093A10C892F73
:1042100099278FBF01EA1CE021E04AE450E063E007
:1042200082E00E94E003882319F480E090E00DC052
:104230008FB7F8949927109269028FBF84E20E9489
:104240004C020E94490381E090E01F910F91089574
:104250000F931F93882319F110926902469821E069
:1042600030E000905D0402C0220F331F0A94E2F791
:104270002095309580916A0290916B02822393235E
:1042800090936B0280936A0284E20E944C026FEF6B
:104290007FEF80915D040E9449150E94490380913F
:1042A00069028130A1F482E08093690205EC1CE090
:1042B00023E04AE450E063E00E946004813039F476
:1042C0001092690284E20E944C020E9449031F91ED
:1042D0000F910895F9014330F1F010926902469868
:1042E00021E030E000905D0402C0220F331F0A94E9
:1042F000E2F72095309580916A0290916B028223BB
:10430000932390936B0280936A0284E20E944C0292
:104310006FEF7FEF67C080916902823009F06DC056
:10432000228181819927782F662760707F70620FC4
:10433000711D8091590990915A09680F791F7093E6
:104340005A09609359098091A70C81508093A70C5A
:10435000882309F04EC01092690280915D04282FD5
:104360003327F901ED56F64F8081992782FF08C067
:10437000685F7F4F54E0769567955A95E1F713C0D3
:1043800081FF08C06C5F7F4F43E0769567954A9543
:10439000E1F708C080FF0BC06E5F7F4F7695679591
:1043A000769567957F7070935A096093590946987E
:1043B00081E090E002C0880F991F2A95E2F780956E
:1043C000909520916A0230916B0228233923309313
:1043D0006B0220936A0284E20E944C0260915909A8
:1043E00070915A0980915D040E9449150E94490309
:1043F0000895409369020E94BF200895CF93DF93F0
:10440000809163028823C1F1809199038D7F80930D
:1044100099030E9443059927D82FCC270E94430572
:104420009927C82BD92B0E9443056F9A779A409AF7
:10443000409880913D0D90913E0D8330910519F08B
:104440000597D1F40DC01092630280915704882320
:1044500099F40E94F404BE0180E00E942B180CC065
:104460001092630280915704813031F40E94F40469
:10447000BE0180E00E946B14DF91CF91089585E02A
:1044800090E0019701960197E1F780914909853005
:1044900029F40E94360380E00E949A1808958091C2
:1044A00049098150833018F485E0809349090E94BE
:1044B0003F220895CF92DF92FF920F931F93CF93E5
:1044C000DF93F901E081E0930B0D413029F085E0A5
:1044D00080934909EC9A90C080914909863039F45B
:1044E000E093AA0C85E080934909EC9A87C0882361
:1044F00009F084C08091AA0CFE2EF094F8228095D9
:104500008E23F82AC0E0D0E0EEE1CE2EE4E0DE2EED
:104510000BE41CE0F6018081282F332726FD5AC0CA
:104520008F2D99270C2E02C0959587950A94E2F756
:1045300080FF50C020FF24C08091AA0C99270C2E28
:1045400002C0959587950A94E2F780FD19C0809185
:104550000B0D99270C2E02C0959587950A94E2F7CA
:1045600080FF0EC022FF06C0F801608171818C2F90
:104570000E94D215F80180819181019691838083F8
:10458000F6018081282F332721FF24C08091AA0CB7
:1045900099270C2E02C0959587950A94E2F780FF23
:1045A00019C080910B0D99270C2E02C09595879507
:1045B0000A94E2F780FD0EC022FF06C0F801608178
:1045C00071818C2F0E94D215F80180819181019612
:1045D0009183808321960894C11CD11C0E5F1F4FCC
:1045E000C830D10509F096CF80910B0D8093AA0CAD
:1045F000EC9A85E0809349090E943F22DF91CF9198
:104600001F910F91FF90DF90CF900895EF920F933D
:104610001F93982F8091DA09813021F484E08093F0
:10462000DA0928C0823031F584E08093DA099923D1
:1046300049F410926902469884E20E944C020E945A
:10464000490318C0E0915D04FF27ED56F64F8081C5
:1046500087FF0EC00E949803AB01BC01F1E0EF2E72
:1046600002E310E020E030E081E10E946E0302C02E
:104670000E94BF200E94360381E00E949A181F9179
:104680000F91EF9008951F920F920FB60F92112481
:104690002F933F934F935F936F937F938F939F934A
:1046A000AF93BF93EF93FF930E9443028091670201
:1046B000843009F0A2C08091680290916204409118
:1046C000F809813009F055C09417F0F4E091DC0945
:1046D000F091DD09E90FF11D8091BB0080834091CD
:1046E0006204242F33278091F8099927019728170E
:1046F0003907D9F58091560482FD37C080914A0C64
:104700008F7B80934A0C31C090914A0C292F2E7FC9
:1047100020934A0C8091560481FF09C08D7F8093BD
:104720005604206120934A0C8091B90003C09E7703
:1047300090934A0C80914A0C8093BC0081E0809356
:1047400067022091DC093091DD096091F00C7091D5
:10475000F10C80912702882321F0823009F0C7C034
:1047600002C080E08EC080E090C04F5F4093620442
:10477000BAC020914A0C941778F4E091DC09F091CA
:10478000DD09E90FF11D80818093BB009F5F90934D
:1047900062042093BC00ABC0922F9E7F90934A0C82
:1047A0008091560481FF07C08D7F809356049061ED
:1047B00090934A0C03C02E7720934A0C80914A0CA8
:1047C0008093BC0081E0809367022091DC093091E6
:1047D000DD096091F00C7091F10C8091270281301D
:1047E00041F0813020F0823009F081C004C080E0C7
:1047F00057C080E059C080E05BC0853009F062C0DE
:10480000809156048E7F8093560490914A0C9F7D30
:1048100090934A0C8091B900887F883009F44BC08E
:104820008091B900887F803109F445C00E9443021D
:1048300080914A0C8A7F80934A0C8093BC000E942E
:10484000430280914A0C846080934A0C8093BC00A0
:1048500081E080936702809168024091F80920917D
:10486000DC093091DD096091F00C7091F10C9091B0
:104870002702882369F0992319F09230C1F504C00A
:1048800081E00E945A2233C081E00E946A212FC039
:10489000913049F0913018F0923049F508C081E02C
:1048A0000E944F2224C081E00E94062320C081E0A4
:1048B0000E9428211CC083E080936702906490933B
:1048C0004A0C02C0833099F4809168029091F00CF8
:1048D000813019F4990F916001C0990F9093BB003A
:1048E00084E08093670280914A0C8093BC00FF9122
:1048F000EF91BF91AF919F918F917F916F915F9158
:104900004F913F912F910F900FBE0F901F901895D0
:10491000AF92BF92CF92DF92EF920F931F9380914D
:104920002D02882309F444C00FB7F8941127809111
:10493000BF0B9927982F88272091BE0B3327822BF6
:10494000932B0196AA27BB2780935B0990935C0960
:10495000A0935D09B0935E090E94090A717060938B
:10496000BE0B672F77276093BF0B0FBFA090BF0BC5
:10497000BB24BA2CAA248091BE0B9927A82AB92A55
:10498000CC24DD248091600990916109A091620995
:10499000B0916309A80EB91ECA1EDB1E0E949803BF
:1049A000AB01BC01B1E0EB2E9601850181E00BC0AB
:1049B0000E949803AB01BC01A1E0EA2E0AE010E0DE
:1049C00020E030E084E00E946E031F910F91EF9091
:1049D000DF90CF90BF90AF900895AF92BF92CF92EB
:1049E000DF92EF920F931F935B016C010E9498037B
:1049F000AB01BC0131E0E32E960185018BE00E9402
:104A00006E031F910F91EF90DF90CF90BF90AF900A
:104A100008958F929F92AF92BF92CF92DF92EF92C2
:104A20000F931F938B01823009F47CC0833030F4E4
:104A3000882359F0813009F082C071C0833009F4B5
:104A400074C0843009F07BC076C081E080932B0273
:104A50000E94B01E1093060200930502E0E0F0E011
:104A6000AEEBB3E02E2F8D919C911197801791079B
:104A7000A1F02F5F31961E96E630F10599F72630AA
:104A8000D1F410922B020E94751E61E08091050204
:104A9000909106020E94C70A52C08EE090E0AF01DA
:104AA000489FF001499FF00D589FF00D1124E654E6
:104AB000FC4F438101C041E0332755278EE090E051
:104AC000289F4001299F900C389F900C11248AEB5D
:104AD00093E0880E991EF40181812CE0829FC00131
:104AE00011240C96489F5001499FB00C589FB00C60
:104AF00011240894A11CB11CCC24B7FCC094DC2C5C
:104B00000E949803AB01BC01E1E0EE2E9601850105
:104B100082E00E946E0381E0F401838310C08093E1
:104B20002A0206C010922A0208C081E080932B025C
:104B30000E94B01E04C010922B020E94751E1F918D
:104B40000F91EF90DF90CF90BF90AF909F908F909C
:104B50000895AF92BF92CF92DF92EF92FF920F93A0
:104B60001F93E5EBFAE0A6E9EA2EF12C012D112DB9
:104B700086819781A085B1858F5F9F4FAF4FBF4FD3
:104B800059F082819381A481B5818E159F05A0077C
:104B9000B10714F47C018D013A968BE0EF3AF807E7
:104BA00039F7E5EBFAE086819781A085B1858F5FC3
:104BB0009F4FAF4FBF4F61F082819381A481B58138
:104BC0008E199F09A00BB10B82839383A483B583B5
:104BD0003A968BE0EF3AF80731F70E9498035B01B1
:104BE0006C01C801B70124E630E040E050E00E94CB
:104BF000F640F1E0EF2E8B019C01B601A5018DE09E
:104C00000E946E031F910F91FF90EF90DF90CF9065
:104C1000BF90AF900895EF920F931F9310922902C7
:104C20008091470A9927873989F1883918F486399C
:104C3000A1F505C0883969F1893979F52CC08091D1
:104C40002D02882351F10E9488240E949803AB0111
:104C5000BC018FB7F89499271092F1098FBF109279
:104C60004702B1E0EB2E0DE210E020E030E08BE0F7
:104C70000E946E030E949803AB01BC010AE010E0A1
:104C800020E030E083E00E946E0307C00E94882489
:104C900004C010922A020E94751E1F910F91EF907E
:104CA0000895282FCB01222319F0213079F404C074
:104CB000642F0E940B26089580911D02882321F005
:104CC0002093480210921D0210924A020895FF920A
:104CD0000F931F93CF93DF93082FEB01F42EE82F50
:104CE000FF27EE0FFF1FEA54FC4F118210828091C4
:104CF0000C029927019662E070E00E942941682F1A
:104D000080930C0210E0462F5527FA01EE0FFF1F8B
:104D1000EA54FC4FA081B181109799F0E62FE695F7
:104D2000E695E695FF27ED54F34F808199279A0188
:104D30002770307002C0959587952A95E2F780FF1D
:104D40000DC0CA01019662E070E00E942941682FFF
:104D50001F5F1230C1F610930C0219C060930C0251
:104D60006230A8F42C912D503327FD0167817727FD
:104D7000762F662786819927682B792BAD0183854D
:104D80000E945B06882319F08DE00E944C020023EC
:104D900019F0013081F405C06F2DCE010E940B2661
:104DA0000AC080911D02882321F0009348021092CE
:104DB0001D0210924A02DF91CF911F910F91FF9037
:104DC00008951F938FB7F89499271091430C8FBFC4
:104DD0008091AF0A823011F4112339F080913C0D9B
:104DE0008F5F80933C0D863020F083E08093AF0A84
:104DF0003FC08FB7F89499272091EE092F5F209339
:104E0000EE098FBF2091EC093091ED0930936004D9
:104E100020935F048091EB098823D1F490E0809186
:104E20000709882309F491E0992391F03093A90CA4
:104E30002093A80C81E08093EB0986EB93E20E941B
:104E400099080E943A1682E08093AF0A10E00AC0E7
:104E500080913C0D853011F483E001C081E08093A6
:104E6000AF0A15E00E94DE1D8091AF0A8330C1F4C5
:104E70001092AF0A2091EC093091ED0980910C025B
:104E8000823070F4E82FFF27EE0FFF1FEA54FC4F2B
:104E9000608171816217730719F4412F0E946726A0
:104EA0001F910895EF920F931F938FB7F894282FB7
:104EB000332780916902882311F02FBFC0C02FBF14
:104EC00082E00E942902882321F482E00E94B1023C
:104ED000B6C02FB7F894332710925A091092590987
:104EE00084E08093690240916A0250916B022FBF67
:104EF00020915D042F5F2E30A8F020E013C02F5FBB
:104F00002E3008F020E03F5F3E3069F48FB7F89410
:104F10009927109269028FBF0E94360382E00E9497
:104F20009A188DC030E081E090E0022E02C0880F18
:104F3000991F0A94E2F784239523892B01F38FB7F5
:104F4000F894992720935D048FBF4198E0915D0408
:104F5000FF27ED56F64F8081992783FD429A84FD05
:104F6000439A85FD459A9FB7F89481E08093A70CFA
:104F7000E0915D04FF27ED56F64F8081282F3327FF
:104F800020FF03C084E08093A70C21FF03C088E0CA
:104F90008093A70C22FF03C080E18093A70C892F88
:104FA00099278FBFE0915D048E2F8750843088F55C
:104FB000469AE93029F0EA3029F0E83029F406C0B1
:104FC0009CE005C093E003C090EC01C090E38FB774
:104FD000F894082F11278091DA09843061F482E077
:104FE0008093DA099093E60981E00E94B1020FBF35
:104FF000813029F501C00FBF8FB7F894992710921F
:1050000069028FBF469884E20E944C020E944903C5
:1050100016C0FF27ED56F64F808187FF0EC00E9415
:105020009803AB01BC01E1E0EE2E02E310E020E0CA
:1050300030E081E10E946E0302C00E94BF201F91F8
:105040000F91EF900895AF92BF92CF92DF92EF92BF
:105050000F931F935B016C010E949803AB01BC018D
:10506000F1E0EF2E9601850185E00E946E031F910D
:105070000F91EF90DF90CF90BF90AF900895AF92D7
:10508000BF92CF92DF92EF920F931F935B016C015F
:105090000E949803AB01BC01A1E0EA2E96018501B4
:1050A00086E00E946E031F910F91EF90DF90CF90EA
:1050B000BF90AF9008950F931F93CF93DF931092FB
:1050C0002D028FEF90E090930402809303028FEF04
:1050D0008093020280911B0381FF04C08D7F809327
:1050E0001B0322C06091B6037091B703611571056F
:1050F000D9F08AE06B337807B9F480910C028823E9
:1051000059F48091AF0A813079F41092AF0A43E0EC
:1051100080E00E94672608C08091B30C8160809374
:10512000B30C8CE00E944C0280912A02882311F07B
:1051300010922A028FB7F89499272FEF2093140228
:105140008FBF8FEF90E09093630C8093620CE0919F
:105150001604F091170480818F3F39F083858823EE
:1051600021F082818A3009F4208360E040E050E041
:10517000C6E1D4E0742FA881B981109741F18C91D8
:105180008F3F29F1FD018181882309F58385282F2F
:105190003327222309F473C0E62FFF27EE0FFF1FEA
:1051A000EA5EFB4F00811181F8018385821771F45B
:1051B0009281FD018281981739F4F8019285FD01F1
:1051C0008285891720F402C0981708F0672F4F5F77
:1051D0005F4F22964430510569F6262F3327F90197
:1051E000EE0FFF1FEA5EFB4FC081D18188818F3FA8
:1051F00029F181E08883D901AA0FBB1FAA5EBB4FAA
:10520000ED91FC91119782818F5F8283ED91FC91EA
:1052100011971182662369F02091160430911704CA
:105220008D919C91119790931704809316042D9360
:105230003C930E94EF1F88818F3F71F410923102DE
:1052400081E080932E020E94B01E60E070EF80E04B
:1052500090E00E943F2824C0EC81FD8120E030E0F6
:10526000AEEBB3E08D919C911197E817F90791F09F
:105270002F5F3F4F1E962630310591F0F3CF242F3C
:105280003327F901EE0FFF1FEA5EFB4FC081D1818A
:10529000642FAFCFF0930402E09303022093020245
:1052A00080E090E0DF91CF911F910F910895CF930F
:1052B000DF93823009F45BC0833020F4813009F041
:1052C00060C04CC0833021F0843009F05AC00BC05C
:1052D00081E080934C0270931A026093190284E17A
:1052E0000E944C024EC010924C02809148028823CA
:1052F00009F447C00E94C801EC01009719F40E940C
:10530000E70119C0DC01E0911502F09116028FE26D
:1053100001900D928150E1F7E0911502F091160293
:1053200080818883CE010E94F001882321F0CE0184
:105330000E940F021298809149028F5F8093490268
:105340008230F8F061E08091190290911A020E9477
:10535000C70A0E945B281092490213C08FB7F894C5
:10536000992770931C0260931B028FBF0AC02FB74E
:10537000F89433278FEF90E090931C0280931B02E8
:105380002FBFDF91CF910895AF92BF92CF92DF925E
:10539000EF92FF920F931F93CF93DF935C016B010A
:1053A00079018A0160E070E0A6E1B4E09D01C0E00F
:1053B000D0E0462FED91FC911197309709F442C04F
:1053C000848195818A159B05E9F5C114D10491F07A
:1053D000E60188819981AA81BB8182879387A4870E
:1053E000B587D901ED91FC91E682F782008711879C
:1053F000118224C081818F5F81838091620C9091A2
:10540000630CA816B90671F4E901E881F98181817C
:105410008230A0F061E0848195810E94C70A0E94D9
:105420005B2809C0CA5EDB4FE881F98161E08481B5
:1054300095810E94C70A80E090E015C0842F0E94E9
:10544000E21EF9CF4F5F6F5F7F4F22962E5F3F4F77
:1054500012966430710509F0ACCF80E090E04430E2
:1054600011F481E090E0DF91CF911F910F91FF90B7
:10547000EF90DF90CF90BF90AF9008952F923F9222
:105480004F925F926F927F928F929F92AF92BF9254
:10549000CF92DF92EF92FF920F931F93CF93DF9300
:1054A000CDB7DEB724970FB6F894DEBF0FBECDBFE1
:1054B0005B016C0188249924EAE0F3E0782D608593
:1054C00061FF1CC52081318142815381E480F580D8
:1054D00006811781D601C501821B930BA40BB50B66
:1054E0008E159F05A007B10708F408C560FF03C02B
:1054F0006D7F608708C02E0D3F1D401F511F208308
:10550000318342835383E72FFF27E231F10508F00F
:10551000FEC4EA59FF4FEE0FFF1F0590F491E02DF6
:1055200009942FB7F89433278091EE098F5F809309
:10553000EE092FBF8091E9099091EA099C0143E0AF
:10554000369527954A95E1F7821B930B9093EA09CC
:105550008093E9098091AD0A9091AE0A9C0103E025
:10556000369527950A95E1F7821B930B9093AE0A27
:105570008093AD0A80916F0C982F9695969596958D
:10558000891B80936F0C20914209422F46954695C6
:1055900046953091AC0A431741F4822F99278770C2
:1055A0009070892B11F0215002C0341B230F2093DF
:1055B0004209E0EEF9E080818D7F819389E0E53E4C
:1055C000F807C9F71092AC0A0E94DE1DA0C48091B2
:1055D0002802882311F40E94B01E80912D02882396
:1055E00009F495C481E080932A0280E00E944C0275
:1055F0008EC410922B020E94751E80912D0288236A
:10560000F9F00E9498039B01AC0160E070E080918A
:105610000502909106020E94C4298FEF90E09093BA
:1056200006028093050273C410922A023DC0809145
:105630002D02882309F06BC410922B020E94751E64
:105640000E945B2864C40E94970A11E010932E0206
:10565000109231020E94B01E60E070EF80E090E096
:105660000E943F2880912C02882319F010922C026E
:105670004EC410932F024BC410922E0280912D0223
:105680008823A9F480913102882389F481E08093F2
:105690002C0280913F038D7F80933F0360E070EE8A
:1056A00081E090E00E9423280E94751E30C44EE0E5
:1056B00050E061E070E08AEB93E00E94DD0B40E097
:1056C00025E030E06091030270910402A0E0B4E0B4
:1056D0006F3F710551F0FD01848195818617970711
:1056E00021F4443039F443E005C08C918F3F41F000
:1056F000443030F4E42FFF27E750F64F20834F5F0C
:10570000215030401E97FFEF2F3F3F0709F74423FA
:1057100009F45AC08091620C9091630C8F3F9105FF
:1057200011F430E03AC020E031E05EE0BC011FC07F
:10573000E22FFF27E750F64F8081859FD00111248B
:10574000A654BC4FFD01848195818617970729F4E3
:10575000B0931704A093160409C0E32FFF27EE0FA0
:10576000FF1FEA5EFB4FB183A0833F5F2F5F2417CB
:10577000F9F61FC0A32FBB27FD01E750F64F80812C
:10578000AA0FBB1FAA5EBB4F2EE0829FC00111244F
:1057900086549C4F8D939C933F5F341759F709C0F3
:1057A000E32FFF27EE0FFF1FEA5EFB4F11821082EF
:1057B0003F5F3430A8F38091620C9091630C8F3F6F
:1057C000910511F00E94EF1F80912D02882319F49A
:1057D0000E945B2869CF10922F028FB7F894992707
:1057E00022B132E0232722B98FBF60E070E488E362
:1057F00090E058CFE0911604F091170481E0808387
:10580000E0911604F091170431C0E0911804F09172
:10581000190481E08083E0911804F09119048381D8
:105820008F3021F18F5F838381E010C0E0911A04F3
:10583000F0911B0481E08083E0911A04F0911B0435
:1058400083818F3099F08F5F838382E00E94E21E14
:105850005EC3E0911C04F0911D0481E08083E0911F
:105860001C04F0911D0483818F3059F4048115814B
:10587000B80180E00E940925B80180E00E94572904
:1058800046C38F5F838383E0E1CF8FB7F894E82E20
:10589000FF2480914702E091F1098823F1F01092F2
:1058A0004702FF27EE0FFF1FE254F44F018111273B
:1058B000102F002780819927082B192BB80182E02F
:1058C0000E940925B80182E00E94572965E070E036
:1058D00080E090E00E94ED2402C0EA3011F4EFBEB7
:1058E00016C3FF27EE0FFF1FE054F44F8181992765
:1058F000182F002780819927082B192B0F3F11059E
:1059000051F081E080934702B8010E940925B80157
:1059100081E00E945729EFBE8091F1098F5F80934B
:10592000F1096DE270E080E090E00E94ED24EFC2AA
:10593000809146020091620C1091630C8823C9F497
:10594000B80183E00E940925B80183E00E9457292D
:105950000E949803AB01BC0191E0E92E08E210E03F
:1059600020E030E08CE00E946E0381E080934602EC
:10597000CEC2B80184E00E940925B80184E00E94EB
:10598000572910924602C3C285EBE82E8AE0F82E12
:10599000F70126813781408551852F3FFFEF3F0773
:1059A000FFEF4F07FFEF5F0709F4E5C0F7018281C2
:1059B0009381A481B5810097A105B10509F0DBC0F1
:1059C00022833383448355839181992309F043C013
:1059D0008081863081F1873078F4823021F1833004
:1059E00030F48823D1F0813009F0C5C018C084306C
:1059F000F1F08530F0F419C08A3029F18B3028F4A9
:105A00008830E9F08930E8F418C08C3001F18C302E
:105A1000E0F08D3009F0AFC01CC080E001C081E033
:105A20000E949F20A8C082E0FBCF83E0F9CF84E0F2
:105A3000F7CF85E0F5CF86E0F3CF87E0F1CF88E0C0
:105A4000EFCF89E0EDCF8AE0EBCF8BE0E9CF8CE0C0
:105A5000E7CF8DE0E5CF913009F03FC08FB7F894E4
:105A6000082F112780916202882359F590936202D2
:105A70001092E5090FBF2FB7F894332780917A0071
:105A8000806880937A002FBF8FB7F894082F112772
:105A9000902F80911F02813091F4809162028130B9
:105AA00021F489E10E944C0216C0823041F48091B9
:105AB000E50980931F0283E0809362020CC09FBFC0
:105AC0005AC080E00E945905882329F480910B096F
:105AD000816080930B090FBF4EC0892F82508230A6
