S01800006275696C642F6D6963617A2F6D61696E2E73726563E5
S11300000C9472010C94BF0D0C94C90D0C94D30D77
S11300100C94DD0D0C94CC170C9443130C947B18A6
S11300200C94E70D0C9491010C9491010C943420E0
S11300300C94F6210C94890D0C949F0D0C94A81229
S11300400C94780D0C9407240C94A80F0C94910133
S11300500C9424100C94AD110C9491010C94910106
S11300600C94940D0C947A110C9459110C94641101
S11300700C946F110C948D110C943C110C949101FF
S11300800C944E110C94733D0C9491011E3022304B
S11300903F30C630E930F33026312A3130316A310D
S11300A06E3172317631913494341730BC34BF34AC
S11300B09735AC35AF35B235B535B835BB35BE350A
S11300C0FE35013604361C3672362D39AF36B2365B
S11300D0B536B8362A37B237E0373738FA38000041
S11300E02110422063308440A550C660E770088127
S11300F029914AA16BB18CC1ADD1CEE1EFF131129E
S1130100100273325222B5529442F772D662399376
S113011018837BB35AA3BDD39CC3FFF3DEE36224ED
S1130120433420040114E664C774A44485546AA5C6
S11301304BB528850995EEE5CFF5ACC58DD553367D
S1130140722611163006D776F6669556B4465BB716
S11301507AA719973887DFF7FEE79DD7BCC7C4484D
S1130160E5588668A7784008611802282338CCC966
S1130170EDD98EE9AFF9488969990AA92BB9F55ADD
S1130180D44AB77A966A711A500A333A122AFDDBB6
S1130190DCCBBFFB9EEB799B588B3BBB1AABA66CAD
S11301A0877CE44CC55C222C033C600C411CAEED06
S11301B08FFDECCDCDDD2AAD0BBD688D499D977EBD
S11301C0B66ED55EF44E133E322E511E700E9FFF56
S11301D0BEEFDDDFFCCF1BBF3AAF599F788F88910C
S11301E0A981CAB1EBA10CD12DC14EF16FE18010F0
S11301F0A100C230E3200450254046706760B983F3
S11302009893FBA3DAB33DC31CD37FE35EF3B1023F
S11302109012F322D2323542145277625672EAB502
S1130220CBA5A89589856EF54FE52CD50DC5E2348F
S1130230C324A01481046674476424540544DBA7D2
S1130240FAB79987B8975FE77EF71DC73CD7D326DF
S1130250F2369106B01657667676154634564CD962
S11302606DC90EF92FE9C899E9898AB9ABA944582F
S1130270654806782768C018E1088238A3287DCB32
S11302805CDB3FEB1EFBF98BD89BBBAB9ABB754A7F
S1130290545A376A167AF10AD01AB32A923A2EFDC2
S11302A00FED6CDD4DCDAABD8BADE89DC98D267CCF
S11302B0076C645C454CA23C832CE01CC10C1FEF12
S11302C03EFF5DCF7CDF9BAFBABFD98FF89F176E1F
S11302D0367E554E745E932EB23ED10EF01E00084B
S11302E01C18141011241FBECFEFD0E1DEBFCDBF08
S11302F011E0A0E0B1E0EAEEF1E800E00BBF02C0DB
S113030007900D92AA32B107D9F71CE0AAE2B1E036
S113031001C01D92AD33B107E1F70E9469390C9415
S1130320F4400C9400008FB7F894992708958FBF78
S113033008958FB7F894992720914F013091500177
S1130340409133088FBF8FB7F894E42FFF27EE0F47
S1130350FF1FE15FFE4F318320832091420144233C
S113036011F02B7F01C02D7F2093420110924D018B
S113037099278FBF0895623009F409C1633030F4BE
S1130380662371F0613009F039C1C7C0643009F4E3
S1130390A9C0643008F4DEC0653009F02FC112C171
S11303A0833009F487C0843038F4813009F452C0B2
S11303B0823008F067C008C08630A9F1873021F088
S11303C0853009F01BC118C08AE399E09093D70ADD
S11303D08093D60A89E080933A0940933E09852F99
S11303E0992780933F092FB7F894332780918D0282
S11303F090918E029260FDC08091600190916101A4
S1130400019690936101809360014150564008F435
S1130410F5C08091680190916901019690936901FA
S113042080936801EBC080915E0190915F01019619
S113043090935F0180935E014631510508F4DEC05C
S11304408091660190916701019690936701809372
S11304506601D4C08EE299E09093D70A8093D60ABD
S113046087E080932E0940933209852F9927809342
S113047033092FB7F894332780918D0290918E021F
S11304808068B7C082E299E09093D70A8093D60A35
S113049085E08093220940932609852F992780932C
S11304A027092FB7F894332780918D0290918E02FB
S11304B080629FC08CE199E09093D70A8093D60A1A
S11304C084E080931C0940932009852F9927809309
S11304D021092FB7F894332780918D0290918E02D1
S11304E0806187C0882309F089C086E199E09093F0
S11304F0D70A8093D60A83E08093160940931A0999
S1130500852F992780931B092FB7F894332780915F
S11305108D0290918E0288606CC080915D01882369
S113052009F06CC080E199E09093D70A8093D60AD1
S113053082E08093100940931409852F99278093B2
S113054015092FB7F894332780918D0290918E026C
S113055084604FC080915D01882309F04FC08AE018
S113056099E09093D70A8093D60A81E080930A0990
S113057040930E09852F992780930F092FB7F8947C
S1130580332780918D0290918E02826032C08091D7
S11305905D01882399F584E099E09093D70A8093CC
S11305A0D60A1092040940930809852F992780934D
S11305B009092FB7F894332780918D0290918E0208
S11305C0816017C088E299E09093D70A8093D60A95
S11305D086E08093280940932C09852F99278093DE
S11305E02D092FB7F894332780918D0290918E02B4
S11305F0806490938E0280938D022FBF80E090E000
S113060008958FB7F89499274091820B5091830BEA
S11306108FBF65E080E00E94BB0108959FB7F89406
S1130620292F3327422F90912801981741F4809164
S11306306F01833021F42FBF81E090E008954FBF14
S113064080E090E0089580E00E940E0399270895C9
S11306508FB7F8949927209174002093D90A8FBFFB
S11306600895282F9FB7F894E82FFF27E556F44FF5
S113067080818F3F91F48091C70B821781F40DC064
S11306802093930B06C0E091C70BFF27E556F44F68
S113069020832093C70B20E007C025E005C080918C
S11306A0930B8F3F81F7ECCF892F99278FBF822F30
S11306B09927089588E00E943103992708952FB758
S11306C0F89433278091460A80930A0182E080934C
S11306D03B012FBF80910A01882329F4B89AC0985E
S11306E089E00E943103089582E00E943103992732
S11306F0089580E00E9431039927089584E10E94BF
S113070031039927089588E10E94310399270895B8
S113071089E10E9431039927089587E10E943103FA
S1130720992708958CE10E9431039927089581E265
S11307300E9431039927089585E20E943103992785
S1130740089582E20E9431039927089583E20E946A
S113075031039927089584E20E943103992708956B
S11307601F93CF93DF93982F8FB7F894282F3327B5
S1130770422F80916F01882309F048C011E0109343
S11307806F01909379082FBF8FB7F894C82FDD2796
S1130790809170018823C9F4909A919A88988998D5
S11307A01092710081E48093700010927200109294
S11307B074000E9428038091D90A84608E7F8093FC
S11307C0D90A8093740010937001CFBF8FB7F89447
S11307D0C82FDD279C2F80912801843099F48091C3
S11307E06F01813021F486E20E94310309C0823016
S11307F049F4809179088093280183E080936F0104
S1130800CFBF01C09FBF80E090E021C0E92FFF2748
S1130810EF52F54F80818F3F89F4E0912701E9176A
S113082089F40CC09093260104C0FF27EF52F54FC2
S113083090839093270180E090E002C085E090E0EF
S11308404FBF05C0809126018F3F79F7EBCFDF9131
S1130850CF911F91089580E00E94B00399270895D5
S113086087E20E943103992708950F931F930FB7CE
S1130870F89411270E9428038091D90A8E7F8069F9
S11308808093D90A809374000FBF1F910F9108952C
S113089020E030E040E0E4E5F8E08081992786FF3D
S11308A006C083FD21E084FD31E085FD41E0319601
S11308B088E0E236F80789F7222309F4AA9833235B
S11308C009F4AB98442309F4AD98222329F4332383
S11308D019F4442309F4A99A0895EF920F931F93EE
S11308E0AE2D99E0899FF0011124EC57FE4F40830F
S11308F05183628373830483158326833783A170B2
S113090080858E7F8A2B826080878EE00E943103EF
S11309101F910F91EF900895EF920F931F9391E021
S1130920E92E0E946D041F910F91EF9008957FB7F7
S1130930F89462B72091CB0A3091CC0A4091CD0A49
S11309405091CE0A06B601FE0FC081B792B7280FA8
S1130950311D411D511D2F5F3F4F4F4F5F4F290FD9
S1130960311D411D511D04C0260F311D411D511D56
S1130970872F99278FBFCA01B9010895AF92BF92FB
S1130980CF92DF92EF92FF920F931F93F82E5A01AA
S11309906B010E949704AB01BC0121E0E22E960199
S11309A085018F2D0E946D041F910F91FF90EF9090
S11309B0DF90CF90BF90AF900895EF92FF920F9386
S11309C01F93CF93DF93F62EE22EE8019FB7F8949E
S11309D0292F332790912901981709F05CC02FBF64
S11309E08FB7F894282F332780917001813041F517
S11309F082E0809370012FBF8FB7F89499275093AA
S1130A00C90B4093C80B1093720800937108E092CD
S1130A1087086093D9021092DE02109271018FBF91
S1130A200E9428038FB7F894282F8091D90A982F11
S1130A30916C9093D90A6F2D772760FD0BC011C07C
S1130A40882321F42FBF84E090E030C02FBF85E0DD
S1130A5090E02CC0816E8093D90A85E08093700168
S1130A601EC0EE2059F084E0809370018091DE0274
S1130A70C80FD11D88818093730011C061FF08C025
S1130A8086E0809370019F7B90619093D90A07C0A0
S1130A9081E0809370012FBF81E090E007C08091D6
S1130AA0D90A809374002FBF80E090E0DF91CF914A
S1130AB01F910F91FF90EF900895EF92FF920F9383
S1130AC01F93E62EF22E9FB7F894292F3327909187
S1130AD02901981721F02FBF81E090E061C02FBF5A
S1130AE08FB7F894282F332760917001613039F55E
S1130AF082E0809370012FBF8FB7F89499275093A9
S1130B00C90B4093C80B1093720800937108F092BC
S1130B108708E092D9021092DE02609371018FBFC0
S1130B200E9428039FB7F8942091D90A21682F7B4B
S1130B302093D90A6E2D772760FD0BC00FC0662362
S1130B4021F42FBF84E090E02BC02FBF85E090E01C
S1130B5027C020622093D90A85E00BC081E08F155D
S1130B6020F0FF2061F062FF07C020642093D90ABF
S1130B7084E0809370010BC081E0F816C9F361FF33
S1130B8006C086E08093700120612093D90A809189
S1130B90D90A80937400892F99278FBF80E090E051
S1130BA01F910F91FF90EF9008952FB7F89499B784
S1130BB09F7799BF90E898BF9AB790689ABF8823A7
S1130BC019F08AB7806402C08AB78F7B8ABF89B75D
S1130BD0806889BF822F99278FBF80E090E00895B5
S1130BE01F93982F1FB7F89480916E01823079F586
S1130BF080912501891759F58091230190E08F3F59
S1130C0009F491E09923E1F48F3F19F42FEF30E0D8
S1130C100EC0282F3327F901E557FD4F80818093BB
S1130C2023018F3F11F4809324018FEF808320935D
S1130C30320B81E080936E0180E20E94310305C093
S1130C408FEF8093250110926E0121E001C020E016
S1130C50812F99278FBF90E0213009F491E081E042
S1130C609827892F99271F91089580E020E0A89A5A
S1130C700F998160273031F0880FA8982F5F2830B2
S1130C8011F0F5CFA898179A1F98A89AA8981798C2
S1130C901F9A99270895982F969596959695E8EF1B
S1130CA0F7E0E90FF11D877021E030E002C0220F68
S1130CB0331F8A95E2F780818223992708958091D2
S1130CC0D50A882319F02FE170E002C078E02EE104
S1130CD0622FEFB7F8948091C40B8E7F8093C40B7E
S1130CE087B1982F9F71829586958695837019F0A8
S1130CF080E090E012C0822F8850863118F081E0A5
S1130D0090E00BC040E050E03327892F9927281743
S1130D10390711F441E050E0CA01982F9170990FFE
S1130D208091C40B8178262F2F71422F440F440FDA
S1130D30892B842B8093C40B332727B9783059F53A
S1130D408091C6089091C70821E08638920718F070
S1130D5087E090E01FC0833C910518F086E090E0A6
S1130D6019C08136910518F085E090E013C08033F6
S1130D70910518F084E090E00DC08831910518F0D9
S1130D8083E090E007C00C9718F082E090E002C086
S1130D9080E090E0782F7770887D872B886D992785
S1130DA086B98E2F99278FBF08951F931FB7F89484
S1130DB080916708882341F481E10E9431038823EC
S1130DC019F481E080936708812F99278FBF1F91C1
S1130DD00895FA01422F6683672F772765838387F7
S1130DE021878091460190914701892B19F085E074
S1130DF090E008952FB7F894332785E08093490154
S1130E0010924A01F0934501E093440182E090E09E
S1130E10909347018093460110924C0110924B012C
S1130E20445F409348012FBF9FB7F8948091CA084C
S1130E30882311F020E006C081E08093CA08109254
S1130E40CB0821E0892F99278FBF222329F00E9404
S1130E50D50680E090E00895109247011092460173
S1130E6081E090E00895FC016683672F772767830C
S1130E700895282F9FB7F894662349F0E82FFF2799
S1130E80E759F74F8081882311F021E006C0E22F53
S1130E90FF27E759F74F608320E0892F99278FBFF9
S1130EA0822F99270895E82F8FB7F894282F332796
S1130EB090E0FF27E759F74F8081861709F491E006
S1130EC02FBF892F99270895682F81E00E94530727
S1130ED099270895882311F06E9A08956E980895BD
S1130EE0882311F06F9A08956F98089580E00E9406
S1130EF06A07BA9ABB98B99A6C9A80E00E94700704
S1130F00709A6B986A98689881E00E946A070895BD
S1130F100F931F93CF93DF93182F8FB7F894C82F95
S1130F20DD270C2F61E080E00E943907882321F03F
S1130F30CFBF85E090E024C080910A018823A1F40A
S1130F4080913B01823081F409C082E080933B01AF
S1130F5010920A010E947607B89AC098109307016C
S1130F6080E00FBF99270CC080913B01882369F36F
S1130F708FB7F8949927109269088FBF81E0F1CF59
S1130F80DF91CF911F910F9108951F93182F81E046
S1130F900E946A071FB9779BFECF8FB199271F91D3
S1130FA008958F929F92AF92BF92CF92DF92EF9269
S1130FB0FF920F931F93CF93DF938FB7F8949927E2
S1130FC0C0907308D090740880908F029090900223
S1130FD0C0912F08D09130082091CF0A3091D00AC7
S1130FE05AE0A52EB12CAC0EBD1E2A153B0508F403
S1130FF059018FBF7401EC0EFD1E86010C0F1D1FDD
S113100014C0C114D10419F0F801808101C080E03A
S11310100E94C5078114910411F0F7018083219681
S11310200894E11CF11C0F5F1F4FC5010197C817FD
S1131030D90738F381E00E9470079FB7F894C11470
S1131040D10431F0CC0EDD1EF60180818FB901C0D0
S11310501FB8D0933008C0932F08892F99278FBFCA
S113106080E090E0DF91CF911F910F91FF90EF907E
S1131070DF90CF90BF90AF909F908F9008952FB73F
S1131080F89433275093D00A4093CF0A909374086E
S1131090809373087093900260938F0210923008CB
S11310A010922F082FBF452B29F08FB10E94D10732
S11310B0992708958AE00E94310380E090E0089522
S11310C08FB7F894992710926B088FBF08952091D9
S11310D0C108222319F440E050E016C08091F707BC
S11310E0E82FFF27EE0FFF1FE257F74F4081518192
S11310F01182108221502093C1088F5F8093F707DB
S1131100893111F41092F707CA010895AC012091B6
S11311105C01293118F081E090E0089580915B0131
S1131120E82FFF27EE0FFF1FE750F84F518340834E
S11311308F5F80935B01893111F410925B012F5F03
S113114020935C0180E090E008952091C10829314A
S113115018F081E090E00895E091F707E20FE9319B
S113116008F0E951FF27EE0FFF1FE257F74F918375
S113117080832F5F2093C10880E090E008958FB7AB
S1131180F8946091F5077091F6072CB53DB506B655
S113119002FE04C06F5F7F4F2CB53DB599278FBF0A
S11311A088279927CB017727662744275527622B61
S11311B0732B842B952B0895EF92FF920F931F931B
S11311C00E94BF087B018C0120914E0830914F088A
S11311D0409150085091510880917C0B90917D0B67
S11311E0A0917E0BB0917F0B820F931FA41FB51F9C
S11311F0E216F3060407150730F082179307A407D5
S1131200B50758F005C082179307A407B507E0F5A2
S1131210E816F9060A071B07B8F59C01AD012E195B
S11312203F09400B510B213060E8360760E0460768
S113123060E0560768F180E090E8A0E0B0E0E80ED6
S1131240F91E0A1F1B1FE0924E08F0924F080093EC
S113125050081093510880E090E8AFEFBFEFE80E1C
S1131260F91E0A1F1B1F2050304840405040209355
S11312707C0B30937D0B40937E0B50937F0B20E0CF
S113128030E840E050E014C020E030E040E050E0BE
S113129080934E0890934F08A0935008B093510840
S11312A010927C0B10927D0B10927E0B10927F0B90
S11312B0A901B7012CB53DB5C9018E199F09039643
S11312C08417950720F0B9016D5F7F4F02C0640F4A
S11312D0751F6115710511F461E070E06150704093
S11312E07BBD6ABD80E186BF87B7806187BF1F91E0
S11312F00F91FF90EF9008950F931F930FB7F894F9
S1131300112760934E0870934F0880935008909370
S1131310510820937C0B30937D0B40937E0B5093AC
S11313207F0B0E94DC080FBF1F910F9108959FB798
S1131330F8948091800B8A3011F020E006C020E000
S113134080914809843009F421E0892F99278FBFBF
S1131350222349F083E10E9431038FB7F89499273F
S11313601092410106C08FB7F894992721E0209389
S113137041018FBF08952FB7F89433278CB95E9A33
S11313802FBF0895FC016115710519F481E090E007
S1131390089580913B0C90913C0C892B19F085E0C9
S11313A090E008957093850B6093840BF0933C0C4C
S11313B0E0933B0C10922D0210922C0281E080935A
S11313C048085E9A569A808121E030E030932D02DD
S11313D020932C020E94BB0980E090E00895809144
S11313E052018E7F809352018EE78093350B61E02A
S11313F070E085E39BE00E94C209992708952F922B
S11314003F924F925F926F927F928F929F92AF9290
S1131410BF92CF92DF92EF92FF920F931F93CF93DD
S1131420DF93CDB7DEB728970FB6F894DEBF0FBEB3
S1131430CDBF209044083090450840904608509015
S113144047086624772488248EE4A82E03E8B02E67
S1131450CC24DD24EE24FF2400E010E0222D332DE3
S1131460442D552D662D772D882D90E00E94B83E91
S113147029833A834B835C836D837E838F83988730
S1131480822E932EA42EB52E2401350100E20E9453
S1131490B63FA22EB32EC42ED52EC301B20196950B
S11314A08795779567956A0D7B1D8C1D9D1D97FF0C
S11314B005C09F776F5F7F4F8F4F9F4F60934408A6
S11314C070934508809346089093470828960FB672
S11314D0F894DEBF0FBECDBFDF91CF911F910F9166
S11314E0FF90EF90DF90CF90BF90AF909F908F9040
S11314F07F906F905F904F903F902F90089580E879
S11315008093930210922C081092850810924A0935
S11315101092CB0B08951092380110923701DE9887
S1131520DD98DE9A80E090E008952FB7F894332791
S1131530E82FFF27E456FD4F60832FBF772760FD18
S113154009C061FD07C02FB7F894332780818160FB
S113155080832FBF81E090E00895AB018230A1F039
S1131560833028F4882351F08130E9F40AC08430B0
S113157089F0843060F08530B1F411C064E080E01B
S11315800BC064E081E008C064E082E005C064E070
S113159083E002C064E084E00E94BB01089564E03B
S11315A085E00E94BB010895282F8FB7F8949927EE
S11315B0E22FFF27DF01AA0FBB1FA652B54F6D9183
S11315C07C9111978FBFE456FD4F8081807331F079
S11315D08FB7F89499271D921C928FBF822F0E9477
S11315E0AD0A80E090E00895E0919602F0919702B0
S11315F0309711F081E08083E0919802F091990294
S1131600309711F081E08083E0919A02F0919B027F
S1131610309711F081E080838091D40181FF03C071
S11316208D7F8093D4018091DD0181FF03C08D7F84
S11316308093DD018091E60181FF03C08D7F80935B
S1131640E60180E090E00895CF93DF93EC016130F0
S113165049F0613008F458C06F3F09F484C081E058
S113166090E0A8C08F3F9105C1F40E94F40AE09174
S11316709402F09195028FEF8083E0919602F091AD
S113168097028083E0919802F09199028083E0911F
S11316909A02F0919B0280838BC040E050E0A4E961
S11316A0B2E0ED91FC911197848195818C179D078F
S11316B021F58FEF8083413071F0413030F04230BA
S11316C081F0433009F074C012C08091CB018D7F4A
S11316D08093CB016DC08091D4018D7F8093D40120
S11316E067C08091DD018D7F8093DD0161C08091B1
S11316F0E6018D7F8093E6015BC04F5F5F4F1296DA
S113170044305105C9F0CDCF8F3F9105A9F4EBE4E6
S1131710FAE08FB7F89499272FEF208311828FBFB7
S113172032968AE0EF35F80709F442C0F2CF8FEF22
S1131730808311824FBF3CC0EBE4FAE08FB7F8948A
S1131740482F552781819927982F8827208133276F
S1131750822B932B8C179D0751F34FBF32968AE04F
S1131760EF35F80759F70E94F40AE0919402F091DA
S113177095028FEF8083E0919602F0919702808327
S1131780E0919802F09199028083E0919A02F0919D
S11317909B028083EBE4FAE08FB7F89499272FEF4C
S11317A0208311828FBF32968AE0EF35F807A1F7C4
S11317B080E090E0DF91CF910895FC01DB018091FE
S11317C0610A9091620A892B19F420816C9103C0FB
S11317D02385FB016385621718F48FEF9FEF08954B
S11317E0261719F480E090E0089580E090E0261731
S11317F010F481E090E00895DC01FB019C9180816C
S11318008D9391934150504014161506BCF30895DE
S1131810EF92FF920F931F93CF93DF937C01EB0121
S11318208A010E94DD0B97FF0DC0B801CE010E9412
S1131830DD0B97FD17C0B801C7010E94DD0B99238A
S113184074F40FC0B801CE010E94DD0B18161906FE
S11318504CF0B801C7010E94DD0B97FF02C0E701FD
S113186001C0E801CE01DF91CF911F910F91FF904C
S1131870EF9008958F929F92AF92BF92CF92DF9292
S1131880EF92FF920F931F93CF93DF934C016A0162
S11318907093620A6093610A5C01A40EB51EEA01AA
S11318A0CC0FDD1FCC0DDD1DCC0FDD1FC80FD91FE4
S11318B015C0A601B701C8010E94FC0B8701801660
S11318C0910650F47801EC18FD08B801C7010E9494
S11318D0DD0B181619066CF3AC0CBD1CAC16BD065A
S11318E010F48501ECCFDF91CF911F910F91FF9000
S11318F0EF90DF90CF90BF90AF909F908F9008951E
S1131900DF92EF92FF920F931F938FB7F894282FD3
S11319103327D22E91B782B746B7981711F041FFFB
S113192002C02FBF6AC08091D80A8823E1F10E94C7
S11319309704E0900009F0900109009102091091C8
S1131940030920911F0B3091200B4091210B5091E2
S1131950220B6E197F09800B910B621773078407A2
S1131960950720F01092D80A71E01EC02E0D3F1D7D
S1131970401F511F8091CB0A9091CC0AA091CD0AAF
S1131980B091CE0A281B390B4A0B5B0B273E31055D
S11319904105510540F4822F223010F070E005C05B
S11319A070E082E002C070E086EE682F615000B6FD
S11319B001FCFDCF82B7681709F46F5F2091CB0A51
S11319C03091CC0A4091CD0A5091CE0ADA01C90176
S11319D00196A11DB11D860F911DA11DB11D821778
S11319E09307A407B50710F4622F609561BFDFBEAB
S11319F0772319F08DE00E9431031F910F91FF901E
S1131A00EF90DF900895AFB7F894BB27E1E0E0933F
S1131A10D80A609300097093010980930209909396
S1131A20030920931F0B3093200B4093210B5093F9
S1131A30220BAFBF0E94800C0895CF93DF93FC016B
S1131A4015A6DC019E96ED011B821A82198280E89C
S1131A5086A7DF91CF91089597B79F7D97BF90E2B6
S1131A6096BF882319F08EB5806402C08EB58F7B33
S1131A708EBD87B7806287BF80E090E00895EF92C3
S1131A80FF920F931F930FB7F894112781E00E94E0
S1131A902C0D51E0E52EF12CF0923E01E0923D0137
S1131AA010923F01109275011092880B0FBF0FB76F
S1131AB0F89411270E947F0AF0923608E0923508C4
S1131AC010922C0889B78F7B89BF80E488BF8AB7BE
S1131AD080628ABF8AB78F7E8ABF89B7806489BFD4
S1131AE00FBF80E090E01F910F91FF90EF90089559
S1131AF01F920F920FB60F9211248F9383B783BF57
S1131B0000B600FCFDCF8F910F900FBE0F901F9079
S1131B10189578941F920F920FB60F9211240F907C
S1131B200FBE0F901F90189578941F920F920FB6C6
S1131B300F9211240F900FBE0F901F901895789458
S1131B401F920F920FB60F9211242F933F938F93EE
S1131B509F932FB7F89433278091F5079091F60758
S1131B6001969093F6078093F5072FBF9F918F916D
S1131B703F912F910F900FBE0F901F9018951F92B9
S1131B800F920FB60F9211240F900FBE0F901F905B
S1131B9018951F920F920FB60F9211240F900FBE3B
S1131BA00F901F9018951F920F920FB60F92112449
S1131BB00F900FBE0F901F9018951F920F920FB6A3
S1131BC00F9211240F900FBE0F901F9018951F9223
S1131BD00F920FB60F9211242F933F934F935F935D
S1131BE06F937F938F939F93AF93BF93EF93FF93E1
S1131BF089B78F7789BF8EE10E943103FF91EF91FE
S1131C00BF91AF919F918F917F916F915F914F9110
S1131C103F912F910F900FBE0F901F901895EEEDEE
S1131C20F0E06927660FF11DE60FF11DC895982FA6
S1131C30802D3196C89590250895982F80914D0157
S1131C40882381F5992371F531E030934D0180911A
S1131C500E0180934E0120914201822F8170809366
S1131C603308809113019091140190935001809353
S1131C704F01809143018093510132273170267EB8
S1131C80E32FFF27EE0FFF1FE15FFE4F808191815D
S1131C909093140180931301232B2093420186E136
S1131CA00E94310308950F931F93082F162F8091DC
S1131CB048098130D9F0813038F0823009F44AC0C3
S1131CC0833009F00EC159C0002309F43EC11092BB
S1131CD02F0210922E021092230B1092360B1092A8
S1131CE0840810922A02109229021FC1002309F0CD
S1131CF02CC18091290290912A020E940F0E909388
S1131D002A028093290282E0809348091093360BBB
S1131D10143409F0E6C00BC1869504C080914201D9
S1131D2086958695817009F0DCC0809142019923E3
S1131D3011F0846001C0826080934201809142016D
S1131D40877E886080934201109243018FEF8093D5
S1131D500E01FBC0002309F0C4C060938408809185
S1131D60290290912A020E940F0E90932A028093D6
S1131D70290283E080934809E8C08091230B8F3FB8
S1131D8009F4AFC0002309F447C0823008F4A9C0A5
S1131D90E0912E02EE2309F4D1C04E2F4150E42FDE
S1131DA0FF27E25DFD4F82819927382F22274423A4
S1131DB011F4E2E002C0E42FE150FF27E25DFD4FA1
S1131DC082819927282B392B8091290290912A020C
S1131DD02817390709F085C080E00E941D0E309154
S1131DE0840880918B0B20918C0B982F9F5F9630E9
S1131DF008F090E0921709F474C0E82FFF27E55724
S1131E00F44F32838F5F80938B0B863010F01092E7
S1131E108B0B0E94D50665C0823008F44EC0E09159
S1131E202F02FF27E25DFD4F8281482F5527342F73
S1131E3020914201822F86958695869583709927F5
S1131E408130910519F00297F9F40EC0277E2061C4
S1131E5020934201442311F485E001C080E0809383
S1131E60430130930E0110C080914301843360F428
S1131E70E0911301F0911401E80FF11D408380916A
S1131E8043018F5F8093430180912F02E82FFF2746
S1131E90E25DFD4F62818F5F80932F02833010F0EB
S1131EA010922F0277278091290290912A020E9492
S1131EB00F0E90932A028093290280912E02E82F1C
S1131EC0FF27E25DFD4F12838F5F80932E028330E4
S1131ED010F010922E028091230B8F5F8093230BBE
S1131EE034C010922F0210922E02109248091092C0
S1131EF0230B1092360B1092840810922A0210922F
S1131F002902809152018D7F8093520181E00E94C9
S1131F101D0E80914101882331F084E080934809AB
S1131F200E94970912C0002381F081E023CF8091A1
S1131F304201982F917080FDEFCEF0CE8091320255
S1131F409927382F222742E036CF1F910F91089509
S1131F501F920F920FB60F9211242F933F934F931A
S1131F605F936F937F938F939F93AF93BF93EF93FD
S1131F70FF935F9B3DC06CB1E0916F0BF091700BD0
S1131F803097F9F08091C4089091C508E80FF91FC3
S1131F90608301969093C5088093C40820915F0ADA
S1131FA03091600A8217930718F11092700B109207
S1131FB06F0B8091DC028330D9F057981092DC02C9
S1131FC017C06E3719F460E081E010C080915201AF
S1131FD06D3721F48260809352010AC081FF05C0ED
S1131FE08D7F8093520180E2682780E00E94530E27
S1131FF0FF91EF91BF91AF919F918F917F916F91DD
S11320005F914F913F912F910F900FBE0F901F90B2
S11320101895982F8D57823068F480915201816011
S11320208093520180E28927809370088DE7809322
S1132030350B02C09093350B61E070E085E39BE0C3
S11320400E94C2099927089578941F920F920FB69F
S11320500F921124FF920F931F932F933F934F934B
S11320605F936F937F938F939F93AF93BF93CF931C
S1132070DF93EF93FF9320912C0230912D028091F6
S1132080840B9091850B2817390780F4E0913B0C61
S1132090F0913C0CE20FF31F80812F5F3F4F309390
S11320A02D0220932C020E94BB09D0C010923C0C3C
S11320B010923B0C1092480856988091520180FF70
S11320C00EC08E7F80935201809170088093350BEF
S11320D061E070E085E39BE00E94C209B7C0809193
S11320E0800B843009F494C0853040F4823021F1AF
S11320F08330B8F5813009F0A4C00DC0863009F4EE
S113210095C0863008F48BC0873009F496C08830B7
S113211009F097C099C080918A0B0E940910182F6A
S113212083E08093800B60918A0B80917D0890916D
S11321307E080E940F0E10C08091C2080E940910F0
S1132140182F83E08093800B6091C20880917D08F2
S113215090917E080E940F0E90937E0880937D08D4
S11321606EC0FFB6F894E091810BFF27EE0FFF1FBE
S1132170E753F74F80810E940910082F1091810BBB
S1132180C12FDD27FE01EE0FFF1FE753F74F6081DC
S113219080917D0890917E080E940F0E90937E0896
S11321A080937D08209183082F5F2093830811304A
S11321B039F580914901E0914401F0914501E80F1E
S11321C0F11DE0818F5F8093490190914801981738
S11321D030F482E08093CA0840E050E002C04E2F01
S11321E05527DE01AA0FBB1FFD01E853F74F80817D
S11321F0823031F02F3F21F0A753B74F4C9303C0E7
S113220084E08093800B102F8F2D99278FBF17C0E8
S113221080917D080E940910182F85E00BC08091E1
S11322207E080E940910182F86E004C00E94EF095E
S1132230182F87E08093800B02C088E003C011232D
S113224029F089E08093800B0E94D506FF91EF91DD
S1132250DF91CF91BF91AF919F918F917F916F91BA
S11322605F914F913F912F911F910F91FF900F908C
S11322700FBE0F901F9018951F920F920FB60F92DA
S113228011248F9380919B0087FF02C080919C0052
S11322908F910F900FBE0F901F90189578941F92F6
S11322A00F920FB60F9211240F900FBE0F901F9034
S11322B0189578941F920F920FB60F9211240F90D5
S11322C00FBE0F901F90189578941F920F920FB61F
S11322D00F9211240F900FBE0F901F9018957894B1
S11322E01F920F920FB60F9211240F900FBE0F90F2
S11322F01F90189578941F920F920FB60F92112485
S11323008F939F9380918800909189009F918F91E2
S11323100F900FBE0F901F90189578941F920F92F4
S11323200FB60F9211242F933F938F939F932FB740
S1132330F894332780912D0890912E08019690935C
S11323402E0880932D082FBF9F918F913F912F913D
S11323500F900FBE0F901F9018951F920F920FB6FB
S11323600F9211242F933F934F935F936F937F9317
S11323708F939F93AF93BF93EF93FF9344B155B162
S113238078948FB7F89499272091C40B322F3695FF
S1132390317021708FBF2223D9F433988091450A7C
S11323A0813021F0823009F039C00AC0332351F062
S11323B05093E0024093DF028DE10E9431032EC06E
S11323C0332319F40E945F0629C01092450A26C0DF
S11323D08FB7F89499278FBF2FB7F894332786B116
S11323E0582F5770482F4072987D942B952B8074EA
S11323F0977B982B90619F77892F992786B9887D41
S1132400842B852B87738061992786B9887D842BDB
S1132410852B877B8069992786B92FBFFF91EF9120
S1132420BF91AF919F918F917F916F915F914F91E8
S11324303F912F910F900FBE0F901F901895AB01F5
S1132440863009F451C0873080F4823091F18330B2
S113245030F4882301F1813009F079C023C084303D
S1132460B1F1853008F03AC02BC08A3009F454C069
S11324708B3038F4883009F443C0893008F046C002
S113248039C08C3009F454C08C3008F44BC08D3002
S113249009F05DC055C06F5F7F4F09F458C060E01C
S11324A080E04BC06F5F7F4F09F451C060E081E072
S11324B044C06F5F7F4F09F44AC060E082E03DC0D2
S11324C06F5F7F4F09F443C060E083E036C06F5F05
S11324D07F4F09F43CC060E084E02FC06F5F7F4F02
S11324E0B1F160E085E029C06F5F7F4F81F160E06A
S11324F086E023C06F5F7F4F51F160E087E01DC02D
S11325006F5F7F4F21F160E088E017C06F5F7F4FFE
S1132510F1F060E089E011C06F5F7F4FC1F060E0CF
S11325208AE00BC06F5F7F4F91F060E08BE005C0E5
S11325306F5F7F4F61F060E08CE00E94BB01089503
S11325406F5F7F4F21F060E08DE00E94BB01089532
S11325501F920F920FB60F9211242F933F934F9314
S11325605F936F937F938F939F93AF93BF93EF93F7
S1132570FF9383B783BF00B600FCFDCF81B79927D3
S11325800196AA27BB272091CB0A3091CC0A40910F
S1132590CD0A5091CE0A280F391F4A1F5B1F209382
S11325A0CB0A3093CC0A4093CD0A5093CE0A789448
S11325B00E94800CFF91EF91BF91AF919F918F91F9
S11325C07F916F915F914F913F912F910F900FBE2B
S11325D00F901F9018950F931F938B0181E00E9419
S11325E0F005A80163E080E00E94BB011F910F91F8
S11325F00895CF93DF93982F8FB7F894C82FDD27D2
S11326002C2F80916E01882361F481E080936E0108
S11326109093320B80E20E943103CFBF80E090E0C0
S113262021C0E92FFF27E557FD4F80818F3F89F4B3
S1132630E0912401E91789F40CC09093230104C0AC
S1132640FF27E557FD4F90839093240180E090E0AD
S113265002C085E090E02FBF05C0809123018F3F29
S113266079F7EBCFDF91CF9108950F931F938B01EF
S113267080E00E94F005A80162E080E00E94BB01B6
S11326801F910F9108951F920F920FB60F9211246C
S11326902F933F934F935F936F937F938F939F9366
S11326A0AF93BF93EF93FF9380917A0B9091730B49
S11326B08823A1F4AC9881E080937A0B292F3327E7
S11326C021FF21C08091820B9091830B01969093FE
S11326D0830B8093820B22FF16C012C0AC9A109217
S11326E07A0B292F332720FF0EC08091820B909103
S11326F0830B01969093830B8093820B22FF03C07C
S113270088E20E943103FF91EF91BF91AF919F91B5
S11327108F917F916F915F914F913F912F910F9086
S11327200FBE0F901F9018951F93982F8FB7F89492
S1132730182F80916F01833009F043C080912801E4
S1132740891709F03EC08091260190E08F3F09F47B
S113275091E09923E1F48F3F19F42FEF30E00EC09C
S1132760282F3327F901EF52F54F808180932601FA
S11327708F3F11F4809327018FEF80832093790892
S113278081E080936F0186E20E94310316C084E0E9
S11327908093280110926F0180917001813069F457
S11327A00E9428038091D90A8A778093D90A80935A
S11327B0740090989198109270011FBF80E090E08F
S11327C003C01FBF81E090E01F9108951F93182F4D
S11327D00E943504812F0E94941399271F91089514
S11327E00F931F9304EA12E021E04FE350E063E00B
S11327F080E00E945D05813021F481E20E94310372
S113280003C081E08093C3081F910F9108950F9333
S11328101F93182F0FB7F89461E080E00E943907E6
S1132820882371F51093070180910A018823A9F583
S113283080913B01823089F589E00CC00E947607C3
S113284080913B01882349F481E080933B011092FD
S1132850460A8BE00E9431032AC08091E30B8F3F2C
S113286031F5E0910901EE2311F11CC01092080129
S113287004C0FF27ED51F44F10821092090117C0D4
S113288081E090E002C0880F991F1A95E2F7209129
S11328903A01282B20933A010AC080913B018823F6
S11328A0E1F6CCCF809108018F3F19F7DFCF802F5D
S11328B099278FBF80E090E01F910F9108951F9397
S11328C08FB7F894282F3327122F8091310888234B
S11328D021F02FBF81E090E013C081E080933108A4
S11328E08091370190913801049721F481E00E948E
S11328F0071403C087E00E9431031FBF80E090E00B
S11329001F9108951F9383E00E9488079927182F29
S1132910882319F083E00E940714812F99271F91BF
S11329200895CF92DF92EF92FF920F931F93CF936C
S1132930DF9390E080915C01882309F491E099236E
S113294009F448C034E0C32E39E0D32EEE24FF242A
S113295001E010E00E2C02C0000F111F0A94E2F7F0
S113296080918D0290918E0280239123892B31F1E5
S11329700E946708EC01892B69F180EA8C878091B9
S11329805C018D8780910001909101018E87892FD0
S113299099278F87DE015096F60186E001900D920B
S11329A08150E1F787E18883CE010E94860888235D
S11329B009F475C0CE010E94A5080CC00894E11C5E
S11329C0F11C86E090E0C80ED91E9BE0E916F104E4
S11329D009F0BECF4091000150910101411551050C
S11329E029F480915801882309F067C090915C0113
S11329F020E0992309F421E0222309F05EC08091AC
S1132A005A01E82FFF27EE0FFF1FE750F84F019000
S1132A10F081E02D222351F48F5F80935A01893194
S1132A2011F410925A01915090935C01309709F47B
S1132A3044C0452B71F481E080935801C091190181
S1132A40D0911A01DF0184E30D900992815059F06D
S1132A50FBCFC0911701D0911801DF0184E30D90E1
S1132A6009928150E1F7CF010E94A50880910001ED
S1132A7090910101892B79F080911B0190911C01A7
S1132A80909365088093640888E10E94310381E093
S1132A9080931F0112C089E10E9431030EC0202FD0
S1132AA02095332780918D0290918E028223932367
S1132AB090938E0280938D0281CFDF91CF911F91ED
S1132AC00F91FF90EF90DF90CF9008958F929F9297
S1132AD0AF92BF92CF92DF92EF92FF920F931F9328
S1132AE0CF93DF93982EC82FDD27DE01AA0FBB1FDB
S1132AF0AC56BD4FED91FC91119783800FB7F894BC
S1132B00ED91FC9181818F5F889D102D1124858525
S1132B1024859927782F66273327622B732BAA24C1
S1132B20BB2412C06F5F7F4FCB01AA27BB278093C2
S1132B30440890934508A0934608B09347080E9420
S1132B40FF097170A60EB71E115060F7802F9927E8
S1132B508FBFFE01EE0FFF1FEC56FD4FC080D180EA
S1132B60F601E180FF240894E11CF11C0027F7FC26
S1132B700095102F682D7727882799272AEF3FEE95
S1132B8040E050E00E9449409B01AC01C801B701FC
S1132B900E9449408B019C01C501AA27BB27080F4D
S1132BA0191F2A1F3B1FF6011082F1E09F16D9F06E
S1132BB09F1640F082E0981639F1E3E09E1609F082
S1132BC046C033C08091CB018D7F8093CB01E091CF
S1132BD09402F09195024681578160857185E1E008
S1132BE0EE2E87E032C08091D4018D7F8093D40192
S1132BF0E0919602F0919702468157816085718534
S1132C0091E0E92E88E021C08091DD018D7F8093E1
S1132C10DD01E0919802F091990246815781608527
S1132C20718581E0E82E89E010C08091E6018D7FF6
S1132C308093E601E0919A02F0919B0246815781CC
S1132C4060857185B1E0EB2E8AE00E946D0480916D
S1132C5015018F3F09F43AC0FE01EE0FFF1FEC5639
S1132C60FD4F0190F081E02D8181882379F5248145
S1132C7035818091280B9091290B2817390731F55C
S1132C80A4E2BBE08EE001900D928150E1F74FB7D2
S1132C90F89455270091150182E3089F80011124BF
S1132CA00E5C1F4F222717FD2095322F4FBFCC0FEC
S1132CB0DD1FCC56DD4FE881F9814681578160855F
S1132CC07185E1E0EE2E8CE00E946D04DF91CF91DE
S1132CD01F910F91FF90EF90DF90CF90BF90AF9036
S1132CE09F908F9008951F9310E0E12FFF27EE0F20
S1132CF0FF1FEC56FD4F0190F081E02D309749F015
S1132D00E081EF3F31F0E13029F5812F0E94661513
S1132D1021C0113069F0113028F0123079F01330ED
S1132D20C9F412C08091CB018D7F8093CB0116C072
S1132D308091D4018D7F8093D40110C08091DD01F6
S1132D408D7F8093DD010AC08091E6018D7F8093A1
S1132D50E60106C01F5F143040F202C01F5FC5CFFA
S1132D6080E090E01F9108951F93CF93DF93182F75
S1132D70E82FFF27EE0FFF1FEF56FD4F1182108241
S1132D8010922001A0919102B0919202109721F02B
S1132D9080912B0880FF0FC081E08093200103C045
S1132DA08BE10E9431031123D1F41092580187E181
S1132DB00E94310314C0FD01359624813327ED01AF
S1132DC06D817727762F662781819927682B792B48
S1132DD0AD0186810E94E906882329F3E1CFDF91C2
S1132DE0CF911F91089510924701109246018FB719
S1132DF0F894992740914A018FBF80914B0181112A
S1132E0043E0209144013091450180914C01882395
S1132E1069F480912001882349F4609191027091B2
S1132E2092026217730711F40E94B41608958091F8
S1132E302001E82FFF27EE0FFF1FEF56FD4F6081A3
S1132E40718141E00E94B41608951F9380912B086C
S1132E50882319F120E011E090912B08892F812318
S1132E60B9F0E22FFF27EE0FFF1FEF56FD4F11823F
S1132E701082812F8095982390932B08222341F46C
S1132E801092580187E10E943103110F21E0E4CF31
S1132E902F5F283010F4110FDFCF1F9108950F9387
S1132EA01F938FB7F894082F11278091320885302B
S1132EB011F0813051F481E0809332080FBF80E03B
S1132EC00E940E03882351F405C082E20E9431035C
S1132ED00FBF5FC080E00E94B0035BC08FB7F8945F
S1132EE099272091790B2093040C8FBF60E070E048
S1132EF0ECE9F2E0809168089927062E02C09595C6
S1132F0087950A94E2F780FF11C08FB7F894992748
S1132F1021E030E0062E02C0220F331F0A94E2F7AC
S1132F204091040C422B4093040C8FBF808186FD9A
S1132F3011C08FB7F894992721E030E0062E02C023
S1132F40220F331F0A94E2F74091040C422B409362
S1132F50040C8FBF6F5F7F4F31966830710509F0A5
S1132F60C9CF04E01CE021E04FE350E061E080E0E1
S1132F700E94DD04813059F48FB7F894992725E035
S1132F80209332088FBF82E20E94310302C0109264
S1132F9068081F910F9108951F920F920FB60F9218
S1132FA011242F933F934F935F936F937F938F934A
S1132FB09F93AF93BF93EF93FF9389B78F7E89BF9E
S1132FC085E20E943103882319F489B7806189BF9F
S1132FD080E00E940E03882311F40E94B003FF9145
S1132FE0EF91BF91AF919F918F917F916F915F917D
S1132FF04F913F912F910F900FBE0F901F901895F6
S11330001F93CF93DF93182F8FB7F894C82FDD2722
S113301060E080E00E945307882321F0CFBF80E066
S113302090E005C0CFBF812F0E94C5079927DF918B
S1133030CF911F91089583E00E9400189927089565
S1133040EF92FF920F931F93CF93DF93182F7B017F
S1133050042F8FB7F894C82FDD2760E080E00E942A
S11330605307882321F0CFBF80E090E014C0CFBF86
S11330701064812F992790938908809388080E946F
S1133080C507182F402F5527B70180E090E00E9414
S11330903F08812F9927DF91CF911F910F91FF90C6
S11330A0EF900895C098609176017091770141E0A6
S11330B08FE30E942018089582E090E090933608F0
S11330C08093350881E080932C0820E030E08091E3
S11330D00701843011F421E030E0232B29F484E04B
S11330E00E948807882319F40E945218089584E0E6
S11330F00E94071408951F920F920FB60F92112485
S11331002F933F934F935F936F937F938F939F93EB
S1133110AF93BF93EF93FF93809135089091360856
S1133120019719F40E945C1805C08091CB0B8F5F46
S11331308093CB0BFF91EF91BF91AF919F918F91B2
S11331407F916F915F914F913F912F910F900FBE9F
S11331500F901F9018951F9380913A01882309F0CE
S113316046C0109107011F3F09F041C060E00E9472
S113317053078823E1F181E080932802809175014F
S11331808823C1F11092280285E090E041C092307A
S113319049F5C09A8091080190E08F3F09F491E0CD
S11331A09923D9F48F3F19F42FEF30E00DC0282F65
S11331B03327F901ED51F44F8081809308018F3F4B
S11331C011F48093090110832093460A81E08093CF
S11331D03B018BE00E94310305C010930A01109259
S11331E03B0111C080913B01882369F00FC081E04D
S11331F090E00EC080910A0190913B01882339F23E
S1133200923021F0EFCF80E00E946A0780E090E0E6
S11332101F9108951F93CF93DF939FB7F894C92FFD
S1133220DD271C2F90910701981721F0CFBF81E073
S113323090E03AC08FEF8093070130913A01332335
S1133240F1F48FB7F8949927109269088FBF0E9400
S1133250AB18CFBF11C02093070181E090E002C0FA
S1133260880F991F4A95E2F78095382330933A01E5
S113327089E00E9431031FBF80E090E015C080E028
S113328065E0E32FFF270E946840292F492F552727
S1133290CF01042E02C0959587950A94E2F780FD2C
S11332A0DACF822F8F5FEFCFDF91CF911F910895F7
S11332B00F931F930FB7F894112710923E011092A9
S11332C03D0187B78F7E87BF87B78F7D87BF83E038
S11332D00E940A19C09A0FBF0FB7F89411271092D1
S11332E03608109235080E947F0AC09A89B78F7BEE
S11332F089BF0FBF80E090E01F910F9108950E9455
S113330058190E948B0A84E00E94310308951F9388
S1133310CF93DF938FB7F894C82FDD271C2F8091AC
S1133320350890913608892B29F484E00E940A1903
S1133330CFBF1EC010922C088091CB0B882311F0B4
S1133340B79904C00E9908C0882319F0815080935E
S1133350CB0B0E945C180BC081E090E09093360880
S1133360809335081092CB0B84E00E940A191FBF8A
S1133370DF91CF911F9108950E947F0AC09AC0984F
S113338088E00E94001888E00E940018C09A84E037
S11333900E940A190E9487190895FF920F931F93A0
S11333A0CF93DF93F82E8B018FB7F894C82FDD27C6
S11333B060E080E00E945307882321F0CFBF80E0C3
S11333C090E00CC0CFBF8F2D0E94C507812F992795
S11333D00E94C507802F0E94C5079927DF91CF91CE
S11333E01F910F91FF9008951F931FB7F894809138
S11333F03408882319F460E070E009C060E080912B
S1133400860B882309F461E081E06827772780919F
S11334104908882319F480E090E00AC090E0809184
S11334206608882309F491E081E09827892F992779
S1133430762F6627770F770F770FE4E0880F991FB1
S1133440EA95E1F7826E9262682B792B81E10E9402
S1133450CD19812F99278FBF1F9108958FB7F894A5
S1133460992760917B0B8FBF85E0689FB001112481
S1133470625D7E4F706488E10E94CD190895EF92D9
S1133480FF921F93CF93DF93E0906208F09063085C
S1133490F70182A59927182F882309F41FE1C09802
S11334A08091880B811749F0612F77276F717070B5
S11334B0606E706885E10E94CD191093880BF70146
S11334C010818FB7F894C82FDD2760E080E00E9458
S11334D05307882311F0CFBF12C0CFBF8EE390E013
S11334E090938908809388088EE30E94C507115041
S11334F0412F552760E070E0C7010E943F08DF912B
S1133500CF911F91FF90EF900895CF92DF92EF92A9
S1133510FF920F931F93CF93DF938C01F62E6A01D2
S1133520E22E8FB7F894C82FDD2760E080E00E9478
S11335305307882321F0CFBF80E090E01EC0CFBFA7
S11335400F0D111D802F80680E94C507F82E169557
S11335500795802F807C0E94C5070E2D0AC0EE2D92
S1133560FF27E01BF109EC0DFD1D80810E94C507BA
S113357001500023A1F78F2D9927DF91CF911F913F
S11335800F91FF90EF90DF90CF900895CF93DF934A
S1133590CDB7DEB724970FB6F894DEBF0FBECDBF0C
S11335A08FB7F894992720917B0830917C08298360
S11335B0232F33272A832091990B30919A0B2B8345
S11335C0232F33272C838FBF24E0AE014F5F5F4F3F
S11335D060E088E691E00E94851A24960FB6F8947C
S11335E0DEBF0FBECDBFDF91CF910895FF920F9341
S11335F01F93CF93DF93EA01F22E8B876E83672F9D
S113360077276F832FB7F894332780917B089091A5
S11336107C082FBF8C83892F99278D832FB7F8942B
S1133620332780910B0190910C012FBF8887892F3C
S11336309927898761E082E00E943907882319F07D
S113364085E090E06BC0809178018F5F8093780172
S113365081508B838FE38A878FB7F894082F1127C3
S113366062E081E00E945307882329F40FBF0E947F
S1133670600881E052C08FB7F894992724E0209322
S11336806A088FBFD093C60BC093C50B0FBF8DE0E4
S1133690F80EFE01F19289819927807290708983D6
S11336A0118289819927816498688983892F992750
S11336B081831CA618A619A61DA619AA18AA1FA6B6
S11336C080E88EA71092870B4091C50B5091C60BD2
S11336D08FB7F894282F332780913D0190913E01B4
S11336E08830910511F0019711F02FBF15C082E0C9
S11336F090E090933E0180933D0110926D085093A9
S1133700630840936208109286082FBF0E948214B7
S1133710882311F40E943F1A80E09927DF91CF910A
S11337201F910F91FF900895CF93DF93582FFB01C2
S1133730823018F081E090E033C0C82FDD27CC0F31
S1133740DD1FCD5CDD4F88819981892B19F085E0DF
S113375090E026C079836883435F40834D50809115
S11337600D01823018F480E090E01AC083856781EF
S11337707727762F662726813327622B732B509366
S11337800D01242FAF010E94F61A9927282F8823B0
S113379029F082E080930D0119821882822F9927E3
S11337A0DF91CF910895FF920F931F938B01F42E15
S11337B0BC01C8010E94330782E3F80183874F2DBF
S11337C0B80180E00E94941B99271F910F91FF90EC
S11337D008951F9310912A01113019F580912B013E
S11337E08823F9F486E98093D8088091470A909158
S11337F0480AA091490AB0914A0A8093D908909343
S1133800DA08A093DB08B093DC0845E06CEC78E0C0
S11338108FEF9FEF0E94D31B882331F410932B0169
S113382003C080E00E9431031F910895EF92FF923C
S11338300F931F93E0901701F0901801F701008196
S11338400D5011276091640870916508C7010E94AA
S1133850330783E3F7018387402FB70181E00E9498
S1133860941B882321F088E10E94310303C081E086
S1133870809357011F910F91FF90EF9008958091CD
S11338802A01882369F561E081E00E9439078823D1
S1133890E9F48FB7F894282F33278091370190915A
S11338A03801892B11F02FBF089581E090E09093A7
S11338B03801809337012FBFDD9A0E94BF0824E1AD
S11338C030E040E050E00E947C09089562E081E02D
S11338D00E945307882321F461E081E00E9453078A
S11338E008951F93182F81E090E090933E018093F8
S11338F03D01109275010E94AB188FB7F894992777
S1133900109336018FBF85E00E9431031F91089503
S11339108E3018F081E090E008954FB7F894552761
S113392021E030E002C0220F331F8A95E2F7809134
S1133930730190917401822B932B90937401809363
S113394073014FBF87E20E94310380E090E0089545
S11339500F931F939FB7F894809172018350823024
S1133960C0F521E0209372018091DB02863021F1C1
S1133970873070F48330D1F0843028F4813091F0B2
S1133980823071F411C0843099F0853049F412C04A
S11339908B30B1F08B3090F08C30A9F08D30B1F0D9
S11339A088E015C08CE013C089E011C08DE00FC021
S11339B08AE00DC08EE00BC08BE009C08FE007C029
S11339C01092720B06C02093720B03C082E08093A6
S11339D0720B8091720B8295807F8F608093720B43
S11339E0892F99278FBF02E71BE021E04AE450E0CA
S11339F063E082E00E94DD04882319F480E090E013
S1133A000DC08FB7F8949927109272018FBF87E287
S1133A100E9431030E94480481E090E01F910F91BD
S1133A2008950F931F93882319F110927201AE9891
S1133A3021E030E00090DB0202C0220F331F0A9421
S1133A40E2F720953095809173019091740182235F
S1133A509323909374018093730187E20E9431034E
S1133A606FEF7FEF8091DB020E941F120E944804D7
S1133A70809172018130A1F482E08093720106E9A1
S1133A801BE023E04AE450E063E00E945D058130DE
S1133A9039F41092720187E20E9431030E944804B3
S1133AA01F910F910895F9014330F1F010927201C2
S1133AB0AE9821E030E00090DB0202C0220F331FF9
S1133AC00A94E2F7209530958091730190917401E6
S1133AD082239323909374018093730187E20E945D
S1133AE031036FEF7FEF67C080917201823009F07C
S1133AF06DC0228181819927782F662760707F703D
S1133B00620F711D8091420890914308680F791FDC
S1133B1070934308609342088091780B815080939E
S1133B20780B882309F04EC0109272018091DB0259
S1133B30282F3327F901EC5AF74F8081992782FF08
S1133B4008C0685F7F4F34E0769567953A95E1F752
S1133B5013C081FF08C06C5F7F4F93E07695679533
S1133B609A95E1F708C080FF0BC06E5F7F4F769592
S1133B706795769567957F707093430860934208C4
S1133B80AE9881E090E002C0880F991F2A95E2F771
S1133B9080959095209173013091740128233923E5
S1133BA0309374012093730187E20E943103609182
S1133BB04208709143088091DB020E941F120E9408
S1133BC048040895409372010E94A81C089585E05A
S1133BD090E0019701960197E1F7809132088530D2
S1133BE029F40E94350480E00E9494130895809182
S1133BF032088150833018F485E0809332080E94A3
S1133C00E71D0895CF92DF92FF920F931F93CF93F6
S1133C10DF93F901E081E093040C413039F085E051
S1133C208093320889B7806189BF94C0809132083B
S1133C30863049F4E093790B85E08093320889B7A4
S1133C40806189BF89C0882309F086C08091790B7F
S1133C50FE2EF094F82280958E23F82AC0E0D0E05E
S1133C606CE9C62E62E0D62E0AED1AE0F6018081D8
S1133C70282F332726FD5AC08F2D99270C2E02C0DA
S1133C80959587950A94E2F780FF50C020FF24C0E1
S1133C908091790B99270C2E02C0959587950A94EB
S1133CA0E2F780FD19C08091040C99270C2E02C004
S1133CB0959587950A94E2F780FF0EC022FF06C00F
S1133CC0F801608171818C2F0E94AD0AF801808116
S1133CD09181019691838083F6018081282F332777
S1133CE021FF24C08091790B99270C2E02C0959551
S1133CF087950A94E2F780FF19C08091040C9927F4
S1133D000C2E02C0959587950A94E2F780FD0EC0AB
S1133D1022FF06C0F801608171818C2F0E94AD0AD8
S1133D20F801808191810196918380832196089482
S1133D30C11CD11C0E5F1F4FC830D10509F096CFAE
S1133D408091040C8093790B89B7806189BF85E0E9
S1133D50809332080E94E71DDF91CF911F910F914C
S1133D60FF90DF90CF90089580912A01882309F471
S1133D7044C080912C01882309F03FC080912D011B
S1133D80882309F03AC080913101882309F035C0B5
S1133D9080912F01882321F480913001882369F5D3
S1133DA062E081E00E945307882379F08FB7F8948A
S1133DB0992723E020936A088FBF0E9458190E9414
S1133DC08B0A84E00E943103089560E081E00E9440
S1133DD05307882391F464E081E00E945307882309
S1133DE041F08FB7F894992723E020936A088FBF96
S1133DF0089563E081E00E9453070895CF92DF9213
S1133E00EF92FF920F931F930FB7F8941127C0906E
S1133E107608D0907708EE24FF240E94BF08A701FB
S1133E2096010E947C090FBF1F910F91FF90EF90A4
S1133E30DF90CF9008951F93CF93DF938FB7F894BB
S1133E40C82FDD271C2F80913D0190913E010897DA
S1133E50C9F489E00E94001883E00E940A19C09AFC
S1133E6081E090E090933E0180933D018FB7F894F8
S1133E70992723E0209336018FBF85E00E94310308
S1133E80CFBF30C0C09880916D08882311F085E0C1
S1133E9001C084E00E94001883FD09C080E00E94F4
S1133EA0001883FF04C085E090E020E003C083E0B5
S1133EB090E021E090933E0180933D01C09A1FBFA2
S1133EC0222341F01092860883E00E940A190E947E
S1133ED0FE1E08C00E94BF0820E431E040E050E02C
S1133EE00E947C09DF91CF911F9108951F93CF9376
S1133EF0DF938FB7F8949927109107018FBF123081
S1133F0009F460C0133030F4112359F0113009F072
S1133F10A7C043C0133009F46FC0143009F0A0C027
S1133F209DC0C0988FB7F894C82FDD2780913701C2
S1133F3090913801029779F583E090E090933801ED
S1133F408093370168E170E08DE10E94CD1981E032
S1133F50809327021092390180B3992776E09695D1
S1133F6087957A95E1F78170907080937A0888E05C
S1133F700E94310381E00E9400186FE772E08CE137
S1133F800E94CD190E942E1A0E94F41966E57AE265
S1133F9087E10E94CD19CFBF63C0C09886E00E941C
S1133FA000180E942E1A0E94F4190E94C61AC09A80
S1133FB0C09883E00E940018C09A81E00E940A1908
S1133FC087E045C0C0988FB7F894C82FDD2760E01C
S1133FD080E00E945307882311F0CFBF0AC0CFBFEF
S1133FE083E50E94C50780E00E94C50780E00E9427
S1133FF0C507C09A82E02FC08FB7F8949927209103
S11340003D018FBF243039F0283041F0223011F5C2
S11340100E943F1A25C00E941B1F22C0C09889E03D
S11340200E940018C09A83E00E940A198FB7F8947E
S1134030992721E030E030933E0120933D018FBF6A
S11340408FB7F8949927109336018FBF85E00E94AB
S1134050310306C083E00E940A1902C00E9452186C
S1134060DF91CF911F91089578941F920F920FB60C
S11340700F9211242F923F924F925F926F927F92F0
S11340808F929F92AF92BF92CF92DF92EF92FF9264
S11340900F931F932F933F934F935F936F937F934C
S11340A08F939F93AF93BF93EF93FF93CF93DF933C
S11340B0CDB7DEB72F97F894DEBF7894CDBF2CB57B
S11340C03DB53F872E8780E286BF0E94BF089B01D3
S11340D0AC018E859F857C0100271127DA01C90177
S11340E0A070B0708E159F05A007B10798F4212C1D
S11340F0312C7FEF472E7FEF572E220E331E441EA6
S1134100551E80E090E0AFEFBFEF282239224A220B
S11341105B220AC0212C312C6FEF462E6FEF562EF6
S113412022223322442255222E283F28402A512A73
S11341308FB7F894898380913D0190913E01853039
S1134140910521F0069709F0DBC0BAC086E090E043
S113415090933E0180933D0191E09093490980E062
S11341600E942C0D2091620830916308F90121AA64
S1134170BB27A52D942D832D8A839B83AC83BD837C
S113418080ABC201AA27BB278E839F83A887B987E8
S113419087A7852D9927AA27BB278A879B87AC8762
S11341A0BD8786A7E0916208F091630885A58823FE
S11341B009F464C080813C968550E80FF11D94EFAA
S11341C0892E9FEF992E8E0E9F1ED4012C9185EF80
S11341D0682E8FEF782E6E0E7F1ED301EC90BF01F8
S11341E06A507040DB018C913997A0809927AA27E7
S11341F0BB27BA2FA92F982F882733274427552761
S1134200522F442733272227FF2400271127870111
S1134210FF24EE242E293F29402B512BBB24CC24F0
S1134220DD242A293B294C295D29822B932BA42B9D
S1134230B52B82199309A409B5098083292F3A2F34
S11342404B2F5527FB0120839D0144275527F3015C
S113425020838B2F9927AA27BB27F4018083C0983A
S1134260E0916208F091630860816550772724E04B
S1134270A40180E090E00E94851AC09AE09162084F
S1134280F0916308818185FF03C0F1E0F09375012B
S113429083E00E940A1987B78F7E87BFA0916208C6
S11342A0B0916308FD0181818770813039F421AABE
S11342B02A8120AB3E8137A78A8586A784996DC061
S11342C01092490981E00E942C0DE0916208F0915E
S11342D06308818185FF0FC087E090E090933E01E1
S11342E080933D010E94BF0820E031E040E050E0AF
S11342F00E947C0903C080E00E94711C849B4DC015
S113430080913F01882349F511E0109349090E94E7
S11343102C0D80914A09883098F4E0918508E80FC3
S1134320FF27E770F070EE0FFF1FEE0FFF1FEC5139
S1134330F44F20823182428253828F5F80934A09F4
S113434010933F01AE85BF85B093340BA093330B1C
S1134350849B03C0B981BFBF22C01092490981E088
S11343600E942C0D10923F018091330B9091340BDD
S1134370EE85FF85E81BF90B3A9778F480914A099A
S1134380882319F0815080934A09809162089091A2
S11343906308009711F00E941D0DF981FFBF2F964D
S11343A0F894DEBFCDBFDF91CF91FF91EF91BF9124
S11343B0AF919F918F917F916F915F914F913F91B9
S11343C02F911F910F91FF90EF90DF90CF90BF90AE
S11343D0AF909F908F907F906F905F904F903F90A1
S11343E02F900F900FBE0F901F90189578941F92E6
S11343F00F920FB60F9211241F932F933F934F9355
S11344005F936F937F938F939F93AF93BF93EF9338
S1134410FF9387B78F7E87BF78941FB7F8948091F6
S11344207C0B90917D0BA0917E0BB0917F0B00973C
S1134430A105B10509F051C080913D0190913E0163
S11344408530910561F18630910530F48330910512
S113445049F0049781F51AC087309105F1F0089767
S113446051F514C0869B0FC084E090E090933E0108
S113447080933D010E94BF0827E030E040E050E017
S11344800E947C0918C00E94FE1E15C00E9482145E
S1134490882389F40E941B1F0EC080E00AC089E0B3
S11344A00E94001881E00E942C0D83E00E940A19EA
S11344B087E00E94711C8091370190913801019727
S11344C071F482E090E09093380180933701DE9894
S11344D0DE9A80E00E94071402C00E94DC08812F4B
S11344E099278FBFFF91EF91BF91AF919F918F91CA
S11344F07F916F915F914F913F912F911F910F90F9
S11345000FBE0F901F901895EF92FF920F931F9379
S1134510CF93DF938B01809188089091890886FF5F
S11345202AC18F7B8F3309F06BC1C0917601D09182
S11345307701588150932B02809135089091360869
S11345408330910509F443C08430910509F48AC08D
S1134550029709F009C183E090E0909336088093B4
S1134560350840919302852F99270196242F3327EC
S1134570281739074CF1B79906C00E9904C0451B9A
S113458041504093930240912B024A32E8F4442371
S1134590A1F0BE016F5F7F4F4D3018F047E050E04F
S11345A007C084E090E0909336088093350855273F
S11345B080E090E00E943F0823C110922C08C09A2A
S11345C084E00E940A19CDC00E94BC1919C184E07C
S11345D090E09093360880933508809149088823A9
S11345E009F439C0809166088823A9F5898185FF7B
S11345F032C08F814E812FB7F89433276091990B85
S113460070919A0B2FBF9927982F88275527842BB1
S1134610952B8617970759F08F812E819927982F0C
S113462088273327822B932B8F5F9F4FA1F4898197
S11346308770813081F4C09AC0988AE00E94001883
S1134640C09AC09840912B0247502896BE018FE330
S11346500E942018D5C040912B0247505527289618
S1134660BE01A6CFC09A8091CB0B882319F484E0B5
S11346700E940A1980914A098823A1F180912B0292
S11346808B30B0F1E0918508FF27EE0FFF1FEE0F8E
S1134690FF1FEC51F44F2081318142815381E0911D
S11346A07601F091770121ABBB27A52F942F832F9F
S11346B080ABCA01AA27BB2787A7252F3327442706
S11346C0552726A7809185089927019668E070E010
S11346D00E9474408093850880914A098150809398
S11346E04A0906C080917601909177010E941D0DC0
S11346F080912B02FE01E80FF11D808187FF31C0FC
S1134700012B79F169816770E0917601F09177016D
S1134710623019F5A0916208B0916308109709F10D
S113472080913D0190913E010797D9F4ED019B8161
S113473083819817B1F487B78F7E87BF908181E01A
S11347408CA7E90FF11D8291319688A780818F771C
S113475089A780E00E94711C04C0613011F48CE0D0
S11347602AC00E9487194CC010922C08C09A84E079
S11347700E940A1945C08E3309F042C0C09A809144
S11347803D0190913E010897C9F4C09889E00E94C8
S11347900018C09A83E00E940A1981E090E0909387
S11347A03E0180933D018FB7F894992723E020932D
S11347B036018FBF85E00E94310322C080916D08CD
S11347C0882349F484E090E090933E0180933D0176
S11347D00E941B1F15C083E00E940A1983E090E029
S11347E090933E0180933D01E0905208F09053086D
S11347F0002711270E94BF08A80197010E947C0985
S1134800DF91CF911F910F91FF90EF9008951F9228
S11348100F920FB60F9211242F933F934F935F93F0
S11348206F937F938F939F93AF93BF93EF93FF9374
S11348302FB1E0918F02F0919002309739F080917E
S11348402F0890913008E80FF91F208380912F08DA
S11348509091300801969093300880932F0880E05F
S11348600E9470074091CF0A5091D00A80912F087E
S1134870909130088417950718F40E94D1071CC042
S113488060918F02709190028091730890917408E6
S11348901092900210928F02109274081092730872
S11348A01092D00A1092CF0A1092300810922F085A
S11348B02FB120E00E948422FF91EF91BF91AF912C
S11348C09F918F917F916F915F914F913F912F9124
S11348D00F900FBE0F901F9018950F931F930FB753
S11348E0F89411274091CF0A5091D00A60918F0219
S11348F070919002809173089091740810929002C4
S113490010928F0210927408109273081092D00AB9
S11349101092CF0A1092300810922F0820E00E94C3
S113492084220FBF1F910F910895AF92BF92CF922F
S1134930DF92EF920F931F935B016C010E94970427
S1134940AB01BC01E1E0EE2E9601850185E00E94F9
S11349506D041F910F91EF90DF90CF90BF90AF90B7
S11349600895AF92BF92CF92DF92EF920F931F936D
S11349705B016C010E949704AB01BC01F1E0EF2ED6
S1134980960185018BE00E946D041F910F91EF90B9
S1134990DF90CF90BF90AF900895AF92BF92CF9227
S11349A0DF92EF920F931F935B016C010E949704B7
S11349B0AB01BC01A1E0EA2E9601850186E00E94CC
S11349C06D041F910F91EF90DF90CF90BF90AF9047
S11349D00895CF92DF92EF92FF920F931F93CF939C
S11349E0DF9310922F018FEF90E090930401809356
S11349F003018091950181FF04C08D7F809395010F
S1134A0028C08091330290913402009711F18C5C9C
S1134A109840F9F480910D01882399F48FB7F894A4
S1134A20282F332780913D0190913E0102970397EF
S1134A3030F488E090E090933E0180933D012FBFD5
S1134A4008C08091890B81608093890B8FE00E945C
S1134A50310380912C01882311F010922C018FB71F
S1134A60F89499272FEF209315018FBFE091160139
S1134A70EF3F91F0FF27EE0FFF1FEC56FD4F019023
S1134A80F081E02D80818F3F39F08385882321F0E8
S1134A9082818A3009F420838FEF90E09093290B70
S1134AA08093280B00E040E050E0C4E9D2E0E42E1B
S1134AB0A881B981109741F18C918F3F29F1FD01B3
S1134AC08181882309F58385282F3327222309F43C
S1134AD094C0E02FFF27EE0FFF1FEC56FD4F6081BF
S1134AE07181FB018385821771F49281FD018281BA
S1134AF0981739F4FB019285FD018285891720F40A
S1134B0002C0981708F00E2D4F5F5F4F2296443075
S1134B10510569F6202F3327F901EE0FFF1FEC56DC
S1134B20FD4FC080D180E60188818F3F09F443C0E6
S1134B3000931601E901CC0FDD1FCC56DD4FE8814F
S1134B40F98181E08083E881F98182818F5F8283AA
S1134B500E949704E880F980F70111812381129F54
S1134B60102D11241F5F2681378140855185621BDA
S1134B70730B840B950B20E030EF40E050E00E9473
S1134B808740120FF7011383E881F9811182002312
S1134B9061F02091940230919502888199819093DB
S1134BA0950280939402398328830E947316E60148
S1134BB088818F3F71F41092350181E08093300138
S1134BC00E943F1C60E070EF80E090E00E94CD24E2
S1134BD025C0E601EC81FD8120E030E0ABE3B2E0EA
S1134BE08D919C911197E817F90791F02F5F3F4F32
S1134BF01E962630310591F0F3CF242F3327F90187
S1134C00EE0FFF1FEC56FD4FC080D180042F90CFD4
S1134C10F0930401E09303012093020180E090E00B
S1134C20DF91CF911F910F91FF90EF90DF90CF9084
S1134C300895BF92CF92DF92EF92FF920F931F934A
S1134C40CF93DF93EC016B0179018A0160E070E09E
S1134C50A4E9B2E09D0140E050E0B62EED91FC9154
S1134C601197309709F442C0848195818C179D0770
S1134C70E9F5D583C483C114D104A9F0D901ED9118
S1134C80FC91E60188819981AA81BB8182879387FF
S1134C90A487B587D901ED91FC91E682F78200875C
S1134CA0118711821FC0DA01AC56BD4FED91FC9102
S1134CB0119781818F5F8183ED91FC918181823095
S1134CC088F061E0848195810E94240B8091280BF7
S1134CD09091290BC817D90711F40E94E92480E0A8
S1134CE090E017C08B2D0E946615F9CFEB2DEF5F76
S1134CF06F5F7F4F4E5F5F4F2E5F3F4F1296643062
S1134D00710509F0AACF80E090E0E43011F481E06D
S1134D1090E0DF91CF911F910F91FF90EF90DF9082
S1134D20CF90BF900895823009F44AC0833020F4B4
S1134D30813009F04FC03BC0833021F0843009F04A
S1134D4049C00BC081E08093590170931C016093AA
S1134D501B0187E10E94310308951092590180914B
S1134D605501882309F436C00E946708009761F052
S1134D70DC01E0911701F091180124E301900D92F8
S1134D802150E1F70E948608809156018F5F80933D
S1134D9056018230F8F061E080911B0190911C0172
S1134DA00E94240B0E94E9241092560108958FB7A3
S1134DB0F894992770931E0160931D018FBF089585
S1134DC02FB7F89433278FEF90E090931E018093D0
S1134DD01D012FBF0895AF92BF92CF92DF92EF9241
S1134DE00F931F9380912F01882309F462C00FB79A
S1134DF0F894112780914A0A9927982F882720919F
S1134E00490A3327822B932B0196AA27BB27809329
S1134E10440890934508A0934608B09347080E941D
S1134E20FF0971706093490A672F772760934A0AD4
S1134E300FBFA0904A0ABB24BA2CAA248091490A25
S1134E409927A82AB92ACC24DD2480914A08909174
S1134E504B08A0914C08B0914D08A80EB91ECA1E6B
S1134E60DB1E0E949704AB01BC01F1E0EF2E96011A
S1134E70850181E00E946D04409133015091340119
S1134E80842F992787FD9095252F332727FD30956B
S1134E90821B930B05971CF00E94E92417C048302D
S1134EA014F458309CF0451B4093330110923401A4
S1134EB00DC00E949704AB01BC01E1E0EE2E08E0B6
S1134EC010E020E030E084E00E946D041F910F9117
S1134ED0EF90DF90CF90BF90AF900895AF92BF92C4
S1134EE0CF92DF92EF920F931F935B016C010E94AC
S1134EF09704AB01BC0101E0E02E960185018FE02F
S1134F000E946D041F910F91EF90DF90CF90BF909E
S1134F10AF900895A09AA89817981F9A89B78F7789
S1134F2089BF179A1F9AA89880E0A89AA8988F5FBB
S1134F308930D9F7179A1F9AA898A89A1F98A89801
S1134F40A89A1F9AA8988091390C90913A0C8F7165
S1134F50907090933A0C8093390C282F30E027FFFF
S1134F6002C01F9A01C01F98A89AA8983F5F3830C2
S1134F7011F0220FF4CF17981F9AA89A0F990AC01C
S1134F80A89885309105B1F08E31910541F00397D1
S1134F9059F01FC010926C0181E090E008956BE01D
S1134FA070E080E090E013C017981F9A80E00E94A0
S1134FB0D50509C017981F9A80E00E94D5058091F5
S1134FC06D0180FF09C06AEF70E080E090E00E940C
S1134FD06E2780E090E008956AEF70E080E090E052
S1134FE00E946E2780E090E008958FB7F894992787
S1134FF02091320B2093250122E020936E018FBF74
S113500020912501222321F0213009F041C021C043
S113501080912201882399F080916C01882379F48E
S113502081E080936C0183E090E090933A0C80934C
S1135030390C1092DA020E948A27882349F180E011
S11350400E94F00540E050E062E080E00E94BB0175
S1135050089580912201882391F080916C01882326
S113506071F420936C0185E090E090933A0C809366
S1135070390C2093DA020E948A27882349F081E0C0
S11350800E94F00540E050E063E080E00E94BB0134
S11350900895AF92BF92CF92DF92EF920F931F9336
S11350A0CF93DF93EB01823009F470C0833030F486
S11350B0882359F0813009F076C065C0833009F443
S11350C068C0843009F06FC06AC081E080932D010C
S11350D00E943F1CD0930601C0930501E0E0F0E07C
S11350E0ABE3B2E01E2F8D919C9111978C179D0715
S11350F049F01F5F31961E96E630F10599F7163098
S113510079F012C08EE090E09F01289FF001299F62
S1135110F00D389FF00D1124E95CFD4F438105C06B
S113512010922D010E94B41E41E05527212F3327F0
S11351308EE090E0289FF001299FF00D389FF00D3C
S11351401124E95CFD4F81812CE0829FC001112470
S11351500C96489F5001499FB00C589FB00C1124E5
S11351600894A11CB11CCC24B7FCC094DC2C0E9474
S11351709704AB01BC0181E0E82E9601850182E031
S11351800E946D0410C080932C0106C010922C0163
S113519008C081E080932D010E943F1C04C010923E
S11351A02D010E94B41EDF91CF911F910F91EF90BA
S11351B0DF90CF90BF90AF900895AF92BF92CF92FF
S11351C0DF92EF92FF920F931F93EBE4F9E036E93D
S11351D0E32EF12C012D112D86819781A085B185B7
S11351E08F5F9F4FAF4FBF4F59F082819381A4814E
S11351F0B5818E159F05A007B10714F47C018D01BC
S11352003A968AE0E534F80739F7EBE4F9E0868169
S11352109781A085B1858F5F9F4FAF4FBF4F61F0DE
S113522082819381A481B5818E199F09A00BB10B52
S113523082839383A483B5833A968AE0E534F8079E
S113524031F70E9497045B016C01C801B70124E6A1
S113525030E040E050E00E94494021E0E22E8B0122
S11352609C01B601A5018DE00E946D041F910F9170
S1135270FF90EF90DF90CF90BF90AF9008952F9262
S11352803F924F925F926F927F928F929F92AF92D2
S1135290BF92CF92DF92EF92FF920F931F93CF931F
S11352A0DF93CDB7DEB724970FB6F894DEBF0FBEF9
S11352B0CDBF4B015C0166247724E4E8F1E0D62CF1
S11352C0608561FFD9C42081318142815381E480AA
S11352D0F58006811781D501C401821B930BA40BB1
S11352E0B50B8E159F05A007B10708F4C5C460FF70
S11352F003C06D7F608708C02E0D3F1D401F511FE6
S1135300208331834283538388E0D81609F45BC138
S11353108D15D0F094E0D91609F45DC09D1560F0A8
S1135320A2E0DA1609F43FC0AD1508F451C0B1E0AB
S1135330DB1609F0AAC426C0E6E0DE1609F46CC048
S1135340ED1508F435C14FC0FCE0DF1609F4B9C10E
S1135350FD1540F08AE0D81609F455C18D1508F4FE
S11353605DC146C19EE0D91609F4CDC2D91608F430
S1135370D4C1AFE0DA1609F451C4B1E1DB1609F087
S113538084C477C480912A01882311F40E943F1CAD
S113539080912F01882309F478C4D0922C0180E0F5
S11353A00E94310372C410922D010E94B41E809198
S11353B02F018823A9F00E9497049B01AC0160E0AF
S11353C070E080910501909106010E9419265DC448
S11353D010922C01EAC080912F01882309F055C452
S11353E00E94E92452C40E94F40A11E0109330018F
S11353F0109235010E943F1C60E070EF80E090E065
S11354000E94CD2480912E01882319F010922E0140
S11354103CC41093310139C4109230014EE050E085
S113542061E070E087E392E00E943A0C40E025E0FE
S113543030E06091030170910401ADE7B2E0FD0139
S1135440848195818617970721F4443039F443E029
S113545005C08C918F3F41F0443030F4E42FFF2796
S1135460E657F74F20834F5F215030401E97FFEFE0
S11354702F3F3F0721F7442309F470C02091280BE4
S11354803091290B2F3F310511F490E050C080E09A
S1135490B90111E05FE030C0E82EFF248AE898E00B
S11354A0E80EF91ED7018C913EE0839FD0011124B0
S11354B0A95CBD4FFD01848195818617970789F406
S11354C0E0919402F09195021383D7018C91839F0C
S11354D0C0011124895C9D4F90939502809394029E
S11354E00AC0E22FFF27EE0FFF1FEC56FD4FB183DA
S11354F0A083FD015383822F282F2F5F841761F629
S1135500922F21C0A92FBB27FD01E657F74FE08159
S11355108EE0E89FF0011124E95CFD4FAA0FBB1F48
S1135520AC56BD4FED93FC938FE083839F5F94173C
S113553049F709C0E92FFF27EE0FFF1FEC56FD4F77
S1135540118210829F5F9430A8F38091280B909170
S1135550290B8F3F910511F00E94731680912F0142
S1135560882339F080910301909104018F3F9105C4
S1135570A1F480913501882369F481E080932E01A0
S11355808091B9018D7F8093B90160E070EE81E074
S113559090E009C00E94E92408C01092310160E043
S11355A070E488E390E00E9495240E94B41E6DC3C9
S11355B0E0919402F091950281E08083E09194025D
S11355C0F09195020AC0E0919602F091970281E071
S11355D08083E0919602F091970204811581B801CD
S11355E080E00E944928B80180E00E9493264DC3C0
S11355F0E0919802F091990281E08083E091980211
S1135600F0919902EACFE0919A02F0919B0281E035
S11356108083E0919A02F0919B02DFCF8FB7F894D8
S1135620E82EFF2480915401E0917F088823F1F053
S113563010925401FF27EE0FFF1FE75BF54F018126
S11356401127102F002780819927082B192BB801C7
S113565082E00E944928B80182E00E94932665E016
S113566070E080E090E00E94B12402C0EA3011F4BE
S1135670EFBE0BC3FF27EE0FFF1FE55BF54F8181E4
S11356809927182F002780819927082B192B0F3F62
S1135690110551F081E080935401B8010E9449281A
S11356A0B80181E00E949326EFBE80917F088F5F4E
S11356B080937F086DE270E080E090E00E94B12466
S11356C0E4C2809153010091280B1091290B882387
S11356D0C9F4B80183E00E944928B80183E00E941C
S11356E093260E949704AB01BC0181E0E82E08E2F6
S11356F010E020E030E08CE00E946D0481E08093B3
S11357005301C3C2B80184E00E944928B80184E06F
S11357100E94932610925301B8C20BE419E0F801D9
S113572026813781408551852F3FFFEF3F07FFEFEB
S11357304F07FFEF5F0709F4DEC0F8018281938110
S1135740A481B5810097A105B10509F0D4C02283D5
S11357503383448355839181992309F043C0808125
S1135760863081F1873078F4823021F1833030F44F
S11357708823D1F0813009F0BEC018C08430F1F024
S11357808530F0F419C08A3029F18B3028F4883040
S1135790E9F08930E8F418C08C3001F18C30E0F085
S11357A08D3009F0A8C01CC080E001C081E00E94D7
S11357B0881CA1C082E0FBCF83E0F9CF84E0F7CF5F
S11357C085E0F5CF86E0F3CF87E0F1CF88E0EFCF37
S11357D089E0EDCF8AE0EBCF8BE0E9CF8CE0E7CF37
S11357E08DE0E5CF913009F03BC08FB7F894E82EF7
S11357F0FF2480916B01882339F590936B011092FB
S11358007508EFBE8FB7F8949927379A8FBF8FB773
S1135810F894E82EFF249E2D80912101813091F48B
S113582080916B01813021F48CE10E94310316C018
S1135830823041F4809175088093210183E0809344
S11358406B010CC09FBF57C080E00E944B068823A9
S113585029F48091F80781608093F807EFBE4BC06C
S1135860892F8250823070F4923019F480E00E94C3
S1135870F912F8018181833009F03DC081E00E9472
S1135880F91239C0943001F5D8018C91823091F02D
S1135890833028F4882351F0813069F509C08430BD
S11358A069F0843048F0853031F50AC080E009C0E1
S11358B081E007C082E005C083E003C084E001C04A
S11358C085E00E94D40A17C09530A9F49FB7F894D4
S11358D04091820B5091830B8091730B807321F064
S11358E01092830B1092820B892F99278FBF65E04A
S11358F080E00E94BB01065F1F4FBAE005341B071E
S113590009F00DCF88C180911E0B882309F4BDC115
S113591003E4A02E0BE0B02E17E3412E18E0512E25
S1135920BDEC6B2EBBE07B2EA9E7CA2EA1E0DA2EDC
S1135930F8ED8F2EFBE09F2EF5012081318142810D
S11359405381211531054105510509F44EC1D30197
S11359500C91F601F080D4011C9160E070E0E1E567
S11359602E2EE9E03E2ED1018D919D910D90BC919A
S1135970A02D8F5F9F4FAF4FBF4F59F06F5F7F4F89
S11359808AE090E0280E391E6931710509F428C1B6
S1135990EACFE62E9FEF691709F422C1262E33249D
S11359A027FC30948AE090E0289EF001299EF00DB7
S11359B0389EF00D1124E55BF64F1083F1822283AB
S11359C03383448355832683378340875187A4E0F8
S11359D0FA1649F51230A1F0133028F4112351F0CE
S11359E01130D9F40AC0143089F0143060F0153045
S11359F0A1F40FC0602F80E00EC0602F81E00BC0C7
S1135A00602F82E008C0602F83E005C0602F84E02F
S1135A1002C0602F85E00E94950A8091C308882304
S1135A2011F40E94B0038AE090E0289EF001299EC0
S1135A30F00D389EF00D1124E55BF64F8181853021
S1135A4031F59FB7F8940093730B202F332720FD73
S1135A5006C021FD04C0802F81608093730B892FC1
S1135A6099278FBF8091DD02882389F4AC988FB782
S1135A70F89499271092830B1092820B10927A0B50
S1135A808FBF89B7806289BF81E08093DD022AE0FD
S1135A9030E0229EF001239EF00D329EF00D112481
S1135AA0E55BF64F8181882309F09DC08E2D9927EF
S1135AB0829FF001839FF00D929FF00D1124E55B0E
S1135AC0F64F8081863009F44CC0873080F48230F0
S1135AD081F1833030F4882301F1813009F071C001
S1135AE022C0843091F1853008F035C028C08A3056
S1135AF009F44FC08B3038F4883009F43EC0893043
S1135B0008F041C034C08C3009F44FC08C3008F424
S1135B1046C08D3009F055C04EC08FB7F894992710
S1135B20009354084DC08FB7F894992700935508F3
S1135B3047C08FB7F89499270093560841C08FB790
S1135B40F8949927009357083BC08FB7F894992786
S1135B500093580835C08FB7F894992700935908D3
S1135B602FC08FB7F894992700935A0829C08FB78C
S1135B70F894992700935B0823C08FB7F89499276A
S1135B8000935C081DC08FB7F894992700935D08B3
S1135B9017C08FB7F894992700935E0811C08FB788
S1135BA0F894992700935F080BC08FB7F89499274E
S1135BB00093600805C08FB7F89499270093610893
S1135BC08FBF80918008882371F48FB7F894992748
S1135BD024E020936E088FBF81E08093800803C087
S1135BE04FEF242E342EF201208284E090E0A80EA0
S1135BF0B91E0894411C511C0894611C711C089422
S1135C00C11CD11C0894811C911C9FE6A9169BE021
S1135C10B90609F091CE0E94DD2837C08091390C75
S1135C2090913A0C85309105A9F08E31910519F0C7
S1135C30039759F503C010926C0127C010926C01B0
S1135C408091DA02882309F50E94F00540E050E0D3
S1135C5062E00BC010926C018091DA028130A9F4E9
S1135C600E94F00540E050E063E080E00E94BB0148
S1135C700CC00E94A81C09C00894611C711C3996B0
S1135C80A2E16A16710409F01ACB8EE00E94310376
S1135C9024960FB6F894DEBF0FBECDBFDF91CF912F
S1135CA01F910F91FF90EF90DF90CF90BF90AF9036
S1135CB09F908F907F906F905F904F903F902F9028
S1135CC00895EF92FF920F931F93809126028823E9
S1135CD061F52091740B3091750B4091760B5091C6
S1135CE0770BEFB7F894FF276091000970910109D1
