S01700006275696C642F697269732F6D61696E2E7372656343
S11300000C9491010C94561E0C94601E0C946A1E60
S11300100C94741E0C947E1E0C94AB1E0C94F31E54
S11300200C94FD1E0C94B0010C94B0010C94B0011E
S11300300C94B0010C94E31C0C94B0010C942E1D90
S11300400C947D1C0C941F1C0C94671C0C94721C47
S11300500C94B81C0C94B0010C94B0010C94B00135
S11300600C94421D0C9410240C94B0010C947C2428
S11300700C94B0010C94ED1D0C94B0010C94E52586
S11300800C94C4250C94CF250C94DA250C94F825F3
S11300900C94A7250C94B0010C94B9250C949421CC
S11300A00C94B0010C94B0010C94B0010C94B00108
S11300B00C94B0010C94B0010C94B0010C94B001F8
S11300C00C94B0010C94B0010C94B0014F2B832B11
S11300D03A2C4D2CB52C492DF02D7D2EB534CD3434
S11300E013352835DF35F835603696409B36FD36B6
S11300F012378F370E38A238DD383A39043A103ABD
S1130100103C383C463C863D763E433F903F943F0E
S11301109F3FC53FE53F0E401C401F40000021109B
S1130120422063308440A550C660E770088129915D
S11301304AA16BB18CC1ADD1CEE1EFF13112100205
S113014073325222B5529442F772D66239931883AD
S11301507BB35AA3BDD39CC3FFF3DEE362244334D1
S113016020040114E664C774A44485546AA54BB5FD
S113017028850995EEE5CFF5ACC58DD553367226A5
S113018011163006D776F6669556B4465BB77AA74D
S113019019973887DFF7FEE79DD7BCC7C448E558F1
S11301A08668A7784008611802282338CCC9EDD99D
S11301B08EE9AFF9488969990AA92BB9F55AD44A45
S11301C0B77A966A711A500A333A122AFDDBDCCBED
S11301D0BFFB9EEB799B588B3BBB1AABA66C877C11
S11301E0E44CC55C222C033C600C411CAEED8FFD3D
S11301F0ECCDCDDD2AAD0BBD688D499D977EB66EE5
S1130200D55EF44E133E322E511E700E9FFFBEEF8C
S1130210DDDFFCCF1BBF3AAF599F788F8891A9814E
S1130220CAB1EBA10CD12DC14EF16FE18010A10038
S1130230C230E3200450254046706760B983989328
S1130240FBA3DAB33DC31CD37FE35EF3B102901288
S1130250F322D2323542145277625672EAB5CBA5F4
S1130260A89589856EF54FE52CD50DC5E234C324D8
S1130270A01481046674476424540544DBA7FAB7C8
S11302809987B8975FE77EF71DC73CD7D326F23628
S11302909106B01657667676154634564CD96DC914
S11302A00EF92FE9C899E9898AB9ABA94458654878
S11302B006782768C018E1088238A3287DCB5CDB68
S11302C03FEB1EFBF98BD89BBBAB9ABB754A545AC8
S11302D0376A167AF10AD01AB32A923A2EFD0FED34
S11302E06CDD4DCDAABD8BADE89DC98D267C076C18
S11302F0645C454CA23C832CE01CC10C1FEF3EFF08
S11303005DCF7CDF9BAFBABFD98FF89F176E367E67
S1130310554E745E932EB23ED10EF01E00020E06B0
S11303200C0411241FBECFEFD1E2DEBFCDBF12E01B
S1130330A0E0B2E0EEE7F1E900E00BBF02C00790F5
S11303400D92AE31B107D9F71EE0AEE1B2E001C0C3
S11303501D92A132B107E1F70E94AF400C94BD4851
S11303600C9400008FB7F89408958FBF0895FC0192
S11303706115710511F481E00895809172069091E0
S11303807306892B11F085E008957093A10B609397
S1130390A00BF0937306E09372061092510410922E
S11303A0500481E0809352048091C0008064809363
S11303B0C0008091C10080648093C100208181E0ED
S11303C090E090935104809350049FB7F894209345
S11303D0C6008091C00080648093C0009FBF80E00D
S11303E00895982F8D57823068F480915D02816062
S11303F080935D0280E289278093EB088DE78093E8
S11304009E0302C090939E038EE993E061E070E046
S11304100E94B7010895982F2FB7F894E82FF0E0C1
S1130420ED59FC4F80818F3FA9F48091EE0D89171F
S113043089F08091B60B8F3F19F49093B60B06C0E8
S1130440E091EE0DF0E0ED59FC4F90839093EE0DAA
S113045080E001C085E02FBF0895A82FFA01422F44
S1130460928180E0218130E0822B932B87749C7CE5
S11304708154984829F081E4818388E8828310A616
S11304802FB7F89480910202909103022FBF8087C6
S113049091879FB7F89480912C029FBF8483158223
S11304A0A387668377838FE38287809168048F5F55
S11304B08093680483834D3110F086E00895809121
S11304C09C02882311F085E00895435F4083F093F4
S11304D0E908E093E80881E080939C0210927E068C
S11304E086E00E940B0280E008951F93CF93DF9370
S11304F0B82F562F172FA42F843010F091E02FC05F
S1130500C82FD0E0CC0FDD1FC151D94F888199810C
S1130510892B11F095E023C068837983E62FF72FA8
S1130520A35FA083AD5080911002843010F490E05A
S113053016C08385778160E0268130E0622B732BBF
S1130540B0931002452F512F2A2F0E942D02982F6D
S1130550882329F084E08093100219821882892F5D
S1130560DF91CF911F910895CF93DF93982FEA01E4
S113057020E030E0722FF901E257FC4F80818617AA
S113058031F4F901E25FF14F8081891749F07F5F0F
S11305902F5F3F4F2B30310569F77B3008F08BC05C
S11305A0783021F485E190E020E005C07A3089F5C7
S11305B080E096E021E08C179D0758F4E22FF0E0EC
S11305C0EE0FFF1FEA5DFD4F8081918101969183BB
S11305D08083422F50E0440F551FDA01A25EBD4FC5
S11305E08D919C911197019611969C938E93FA018B
S11305F0EE5DFD4F208131818217930709F05BC0C6
S1130600FA01EA5DFD4FC081D181118210821D92F1
S11306101C92E72FF0E061E070E00E2E02C0660F3E
S1130620771F0A94E2F780912A0290E020912C0926
S113063030912D098223932386239723892BF1F06C
S11306404FB7F894EE0FFF1FE354F44FD683C583DE
S11306509B012095309580912C0990912D0982233E
S1130660932390932D0980932C094FBF80912C09DB
S113067090912D09892BF9F482E01BC08FB7F8946F
S113068093E0EE0FFF1F9A95E1F7EA5EF94FD783E7
S1130690C6832091800630918106262B372B309318
S11306A08106209380068FBF8091B603882319F4B6
S11306B081E00E940B0280E0DF91CF9108956F9258
S11306C07F928F929F92AF92BF92CF92DF92EF92DE
S11306D0FF920F931F93CF93DF93EB01609130024E
S11306E07091310280E090E00E94F9467B018C0118
S11306F020E030E040E050E00E94C946882309F43D
S113070093C0BE0180E090E00E94F9465B016C0159
S1130710C801B7012AE037ED43E25CE30E94AF472A
S113072020E030E040E252E40E94644620E030E001
S113073048EC51E40E9464467B018C01C601B5017A
S11307402CEA35EC47EA58E30E94AF472AE037ED3C
S113075043E25CE30E9465469B01AC01C801B7011A
S11307600E94AF473B014C01C601B50122EA37EEB6
S11307704BE356EB0E94AF47A60195010E94AF4799
S11307807B018C01C601B50124E533EE45E25DE34E
S11307900E94AF479B01AC01C801B7010E946546A6
S11307A020E030E040E850E40E9464469B01AC0144
S11307B0C401B3010E9465467B018C0120E030E056
S11307C048EC52E40E94AB4718165CF40F2EF0E09C
S11307D0EF2EF0E0FF2EF8EC0F2FF2E41F2FF02D98
S11307E014C0C801B7012DEC3CEC4CEC5DE30E9455
S11307F0C946882354F40F2EFDECEF2EFCECFF2E9B
S1130800FCEC0F2FFDE31F2FF02D109231021092FC
S11308103002C801B7010E94CD469B01AC0180E0C3
S113082063E0A9010E94B402DF91CF911F910F915F
S1130830FF90EF90DF90CF90BF90AF909F908F90FC
S11308407F906F900895EF92FF920F931F93F82F6C
S11308507A018B016FB7F8948091B20020915D0307
S113086030915E0340915F0350916003B99B11C0C6
S11308708091B3009091B2002F5F3F4F4F4F5F4F75
S1130880280F311D411D511D290F311D411D511DC1
S113089004C0280F311D411D511D6FBFE9E0FE9FAB
S11308A0F0011124E455F84F2083318342835383AC
S11308B0E482F5820683178380858360808784E0E1
S11308C00E940B021F910F91FF90EF9008958823CF
S11308D071F5442339F52FB7F89482B192E0892752
S11308E082B92FBF8091050390910603861797075D
S11308F0C9F44FB7F89481E090E000902A0902C04F
S1130900880F991F0A94E2F78095282F30E0809190
S1130910800690918106822393239093810680938D
S113092080064FBF1092B60381E00E940B02089527
S11309301F93982F2FB7F89480913702882309F0DA
S113094045C031E03093370290935C042FBF2FB73A
S1130950F894809138028823F1F4589A599A50985F
S113096051981092B90081E48093B8001092BA00B3
S11309701092BC009FB7F8948091BC0080939E08AD
S11309809FBF80919E0884608E7F80939E08809391
S1130990BC00309338022FBF1FB7F89480910E0229
S11309A0843089F480913702813021F486E10E94F9
S11309B00B0209C0823039F480915C0480930E02EA
S11309C083E0809337021FBF80E01CC0E92FF0E072
S11309D0E251F44F80818F3F21F4E0910D02E91739
S11309E011F485E00EC080910C028F3F19F49093AE
S11309F00C0204C0F0E0E251F44F908390930D0296
S1130A0080E02FBF1F9108951F93382F2FB7F894BC
S1130A109FB7F8948091BC0080939E089FBF8091FB
S1130A209E088E7F806980939E088093BC002FBFB0
S1130A301FB7F89480913702833009F040C0809149
S1130A400E02831709F03BC090910C029F3FC9F03E
S1130A50A92FB0E0FD01E251F44FE081E0930C02D4
S1130A60EF3F11F4E0930D02A251B44F8FEF8C933A
S1130A7090935C0481E08093370286E10E940B022C
S1130A801BC084E080930E021092370280913802DA
S1130A90813091F49FB7F8948091BC0080939E08B4
S1130AA09FBF80919E088A7780939E088093BC00A4
S1130AB058985998109238021FBF80E002C01FBF97
S1130AC081E01F9108951F931FB7F89480912D0220
S1130AD0823039F580910602882319F59091040239
S1130AE09F3FC9F0A92FB0E0FD01E354FC4FE08122
S1130AF0E0930402EF3F11F4E0930502A354BC4FCA
S1130B008FEF8C939093BB0381E080932D028BE055
S1130B100E940B0204C09093060210922D0291E0F1
S1130B2001C090E01FBF2FB7F89480912D02882355
S1130B3019F48CB58F7B8CBD2FBF80E0913009F008
S1130B4081E01F910895682F8823C9F44091B40B64
S1130B505091B50BE091FC04F091FD04308180E0EC
S1130B602181282B832F90E025FF02C08B9601C0A2
S1130B704096840F951F9093B50B8093B40B8FB759
S1130B80F89460939D038FBF86E00E940B02089542
S1130B90AC0130915C038FEF4F3F580721F0EEEB2F
S1130BA0F3E020E009C0232F09C0808191813896A9
S1130BB08417950719F02F5F2317B8F380915C030E
S1130BC02817D1F0382F315030935C0313C0822F93
S1130BD090E0FC0163E0EE0FFF1F6A95E1F7DF018F
S1130BE0A254BC4FEA53FC4F88E001900D9281500F
S1130BF0E1F72F5F231758F38091970B9091980B8F
S1130C0084179507A1F48FEF9FEF9093980B80932F
S1130C10970B10929A0B1092990B10929B0B1092B7
S1130C209C0B81E080934B028CE10E940B0208959F
S1130C30982F80915802882381F5992371F531E02A
S1130C4030935802809116028093590220914D02EC
S1130C50822F817080935A0380911B0290911C0211
S1130C6090935B0280935A0280914E0280935C02BF
S1130C7032273170267EE32FF0E0EE0FFF1FE95E8E
S1130C80FD4F8081918190931C0280931B02232B42
S1130C9020934D0283E20E940B020895CF93DF93C9
S1130CA010927002109271021092720210927302EA
S1130CB010927402109275021092760210927702CA
S1130CC084E690E0A0E0B0E080937802909379020B
S1130CD0A0937A02B0937B0210927C0210927D0260
S1130CE010927E0210927F02109280021092810272
S1130CF01092820210928302109284021092850252
S1130D001092860210928702109288021092890231
S1130D1010928A0210928B0210928C0210928D0211
S1130D2010928E0210928F021092900210929102F1
S1130D3010929202109293021092940210929502D1
S1130D4010929602109297021092980210929902B1
S1130D5010929A0210929B0210922D0910922C0963
S1130D60C0E7D2E0E8E1F6E041E050E020E030E026
S1130D7060E088819981AA81BB810097A105B105B2
S1130D8019F0242B352B6083249638966F5F6B30D3
S1130D9019F0440F551FEDCF30933E0320933D03CC
S1130DA0DF91CF9108958E3010F081E008954FB710
S1130DB0F89421E030E002C0220F331F8A95E2F755
S1130DC080913B0290913C02822B932B90933C02A6
S1130DD080933B024FBF87E10E940B0280E008959D
S1130DE01F93982F1FB7F89480913602882359F4E3
S1130DF081E08093360290936F0680E10E940B029B
S1130E001FBF80E01CC0E92FF0E0E550FA4F80815D
S1130E108F3F21F4E0910A02E91711F485E00EC036
S1130E20809109028F3F19F49093090204C0F0E005
S1130E30E550FA4F908390930A0280E01FBF1F9100
S1130E400895CF93DF93EB0180912E02882349F01C
S1130E50709331026093300210922E0281E00E945E
S1130E60F00680912F02882339F010922F0280E03F
S1130E7062E0AE010E94B402DF91CF910895AB010C
S1130E80823091F0833028F4882351F08130C9F402
S1130E9009C0843069F0843048F0853091F40DC085
S1130EA080E007C081E005C082E003C083E001C0A8
S1130EB084E064E00E94B402089585E064E00E9446
S1130EC0B4020895982F8FB7F894E92FF0E0DF016A
S1130ED0AA0FBB1FA15CBC4F6D917C9111978FBF72
S1130EE0E85BFB4F8081807329F08FB7F8941D92E3
S1130EF01C928FBF892F0E943F0780E008951F93A3
S1130F00182F90E0FC0123E0EE0FFF1F2A95E1F774
S1130F10880F991FE80FF91FEF5FFA4F918199230A
S1130F2009F050C0812FFC01A3E0EE0FFF1FAA952A
S1130F30E1F7880F991FE80FF91FEF5FFA4FE0817F
S1130F40E63081F1E73078F4E23021F1E33030F437
S1130F50EE23D1F0E13009F0D3C018C0E430F1F051
S1130F60E530F0F419C0EA3029F1EB3028F4E83028
S1130F70E9F0E930E8F418C0EC3001F1EC30E0F0CD
S1130F80ED3009F0BDC01CC080E001C081E00E94CA
S1130F90D306B6C082E0FBCF83E0F9CF84E0F7CF7D
S1130FA085E0F5CF86E0F3CF87E0F1CF88E0EFCF9F
S1130FB089E0EDCF8AE0EBCF8BE0E9CF8CE0E7CF9F
S1130FC08DE0E5CF913009F035C02FB7F8948091CA
S1130FD03302882331F590933302109242092FBFD4
S1130FE08FB7F89490917A00906890937A008FBFAD
S1130FF01FB7F89480910702813089F480913302FD
S1131000813021F48CE00E940B0209C0823039F453
S1131010809142098093070283E0809333021FBFCB
S11310206FC08091AB0780FD03C081608093AB07E4
S11310302FBF66C0892F82508230F0F4923031F491
S113104081E080932F0280E00E94F006812F90E0DF
S1131050FC0163E0EE0FFF1F6A95E1F7880F991F0B
S1131060E80FF91FEF5FFA4F8181833009F048C020
S113107081E080932E0244C0943069F5812F90E082
S1131080FC0143E0EE0FFF1F4A95E1F7880F991F1B
S1131090E80FF91FEF5FFA4FE081E23091F0E3309F
S11310A028F4EE2351F0E13059F509C0E43069F039
S11310B0E43048F0E53021F50AC080E009C081E061
S11310C007C082E005C083E003C084E001C085E07E
S11310D00E94620715C0953099F49FB7F894409127
S11310E0F90B5091FA0B80917806807321F01092DD
S11310F0FA0B1092F90B9FBF80E065E00E94B402E6
S11311001F9108951F931FB7F89480910D0C8823A5
S113111041F48EE10E940B02882319F481E080934C
S11311200D0C1FBF1F910895DA01322FFA01359675
S1131130618315967C93159786832483809151024D
S113114090915202892B11F085E008952FB7F894FD
S113115085E08093540210925502509350024093BC
S11311604F0282E090E090935202809351021092D9
S1131170570210925602345F309353022FBF9FB729
S1131180F89480917606882311F080E005C081E010
S113119080937606109277069FBF882321F00E94E1
S11311A0820880E00895109252021092510281E068
S11311B008952FB7F8948091E3088A3011F090E0F5
S11311C006C090E080911804843009F491E02FBFA8
S11311D0992349F080E20E940B028FB7F894109291
S11311E04C028FBF08959FB7F89481E080934C021E
S11311F09FBF08953F924F925F926F927F928F921A
S11312009F92AF92BF92CF92DF92EF92FF920F9391
S11312101F93CF93DF93EC012B013FB6F894A0907A
S11312206404B0906504C0906604D090670495018E
S1131230A60160E070E080E090E0FEE4AF2EE3E819
S1131240BE2ECC24DD24EE24FF2400E010E00E9416
S1131250DA4439014A0100E20E94D54559016A0184
S1131260B401A30176956795579547954A0D5B1D83
S11312706C1D7D1D77FF05C07F774F5F5F4F6F4FFC
S11312807F4F4093640450936504609366047093A5
S113129067043FBE4C235D23440D551D60E070E0A0
S11312A088E00E942304DF91CF911F910F91FF905A
S11312B0EF90DF90CF90BF90AF909F908F907F90F2
S11312C06F905F904F903F900895FC0162859385E5
S11312D0662339F48AE0989FB00111246A50704063
S11312E00BC08AE0989FC001112470E00E9451480D
S11312F06A50704012861386808591859C01A3E014
S1131300220F331FAA95E1F7280F391FCB01820F53
S1131310931F6AE070E00E943D48718760870895DA
S1131320AC01E2E3F7E020E0858180FF05C0808125
S113133091818417950731F02F5F3C962A30A1F7ED
S113134081E008958CE0289FF0011124EE5CF84FB1
S113135082858F5F828783858F5F8387853010F4D2
S113136080E00895CF010E94650980E00895E2EAD3
S1131370F8E090E020E030E0808186FF06C083FD45
S113138091E084FD21E085FD31E0319688E0E03B89
S1131390F80791F7992309F44298222309F4439812
S11313A0332309F44598992329F4222319F4332388
S11313B009F4419A08950F931F93F8013FB7F894E5
S11313C090910F02981711F03FBF59C03FBF9FB7CC
S11313D0F89430913802313049F582E08093380234
S11313E09FBF8FB7F89450936104409360041093A7
S11313F0BA030093B9032093040360930D0E109273
S1131400AC0B109239028FBF9FB7F8948091BC0047
S113141080939E089FBF4FB7F89480919E08982FA1
S1131420916C90939E0860FD09C00FC0332319F49A
S11314309FBF84E02CC09FBF85E029C0816E80934C
S11314409E0885E0809338021CC0222359F084E072
S1131450809338028091AC0BE80FF11D808180935A
S1131460BB000FC061FF08C086E0809338029F7BF9
S1131470906190939E0805C0309338024FBF81E07D
S113148006C080919E088093BC004FBF80E01F91EE
S11314900F9108950F931F932FB7F89480913A02F8
S11314A083508230C0F591E090933A0280913C03DE
S11314B0863021F1873070F48330D1F0843028F401
S11314C0813091F0823071F411C0843099F085300C
S11314D049F412C08B30B1F08B3090F08C30A9F00D
S11314E08D30B1F088E015C08CE013C089E011C0E4
S11314F08DE00FC08AE00DC08EE00BC08BE009C008
S11315008FE007C01092560406C09093560403C09F
S113151082E080935604809156048295807F8F6088
S1131520809356042FBF82E063E04AE450E021E058
S113153006E514E00E94DB09882359F08FB7F8947C
S113154010923A028FBF87E10E940B020E94B709F2
S113155081E01F910F9108950F931F933FB7F89463
S113156090910F02981719F03FBF81E058C03FBF18
S11315709FB7F89430913802313049F582E0809376
S113158038029FBF8FB7F89450936104409360046E
S11315901093BA030093B9032093040360930D0ED0
S11315A01092AC0B309339028FBF9FB7F89480919F
S11315B0BC0080939E089FBF3FB7F89490919E080B
S11315C091689F7B90939E0860FD09C00DC03323F2
S11315D019F49FBF84E023C09FBF85E020C09062C0
S11315E090939E0885E00AC0223020F4222349F01B
S11315F062FF03C0906490939E0884E08093380255
S113160008C061FF06C086E0809338029061909321
S11316109E0880919E088093BC003FBF80E01F918C
S11316200F910895389A40986F98779AEF986F9A27
S1131630779A409880E0409A40988F5F8930D9F734
S11316406F9A779A4098409A77984098409A779AF8
S113165040988091B4069091B5068F7190709093E4
S1131660B5068093B406382F20E037FF02C0779A7E
S113167001C07798409A40982F5F283011F0330FBB
S1131680F4CF6F98779A409A67990BC04098853049
S1131690910529F18E31910541F0039709F03DC080
S11316A00AC01092340281E0089583E04BE050E0D8
S11316B060E070E030C06F98779A9FB7F894EF9825
S11316C080E88CBB80916A00806880936A00809176
S11316D06A008F7B80936A00EF9A9FBF17C06F9850
S11316E0779A9FB7F894EF9880E88CBB80916A0052
S11316F0806880936A0080916A008F7B80936A007F
S1131700EF9A9FBF8091350280FF09C083E04AEFC2
S113171050E060E070E00E94230480E0089583E0DC
S11317204AEF50E060E070E00E94230480E00895F6
S11317301F93982F1FB7F89480913602823039F5A1
S113174080910B02891719F5909109029F3FC9F006
S1131750A92FB0E0FD01E550FA4FE081E0930902C2
S1131760EF3F11F4E0930A02A550BA4F8FEF8C9328
S113177090936F0681E08093360280E10E940B0211
S113178004C090930B021092360291E001C090E0E5
S11317901FBF80E0913009F081E01F9108951F93ED
S11317A0CF93DF93162FEA01813039F481E00E9450
S11317B0980B812FBE010E945F03DF91CF911F918F
S11317C008951F93CF93DF93162FEA01882339F4EA
S11317D080E00E94980B812FBE010E942107DF91B7
S11317E0CF911F91089580E090E0409A67998160BD
S11317F0973009F0880F40989F5F9830B1F76F9A3F
S11318007798409A40986F98779A08958091ED0B55
S1131810882319F448E03EE102C040E03FE15FB7AD
S1131820F8948091B4038E7F8093B40380917C00FC
S1131830282F2F71829586958695837019F080E004
S113184090E00AC0832F8850863120F480E090E035
S1131850321711F481E090E0982F9170990F8091E4
S1131860B40381783F71232F220F220F892B822BFF
S11318708093B40330937C00483019F58091B70B02
S11318809091B80B21E08638920710F047E019C018
S1131890833C910510F046E014C08136910510F0A8
S11318A045E00FC08033910510F044E00AC0883150
S11318B0910510F043E005C00C9710F440E001C01E
S11318C042E04770486D40937A005FBF08958CB53D
S11318D08F7B8CBD9FB7F894229A2398219A8CB55C
S11318E080618CBD8CB58F778CBD8DB581608DBDCD
S11318F08CB5877F8CBD8CB58B7F8CBD8CB58E7F72
S11319008CBD8CB580648CBD9FBF08951F931FB799
S1131910F89480912D02882311F40E94670C1FBF54
S11319201FB7F89480912D02882359F481E08093A5
S11319302D021092BB038BE00E940B021FBF80E0BC
S113194019C08091BD038F3F21F4E0910502EE237D
S113195011F485E00EC0809104028F3F19F41092B7
S1131960040204C0F0E0E354FC4F1082109205021C
S113197080E01FBF1F9108959FB7F89480910602DD
S1131980882331F480912D02823011F49FBF11C05D
S11319909FBF9FB7F89480912D02882361F482E061
S11319A080932D02109206029FBF0E94670C209A1A
S11319B0289A81E008959FBF0E94860C80E00895D4
S11319C06F927F929F92AF92BF92CF92DF92EF92EB
S11319D0FF920F931F93CF93DF935C0180910005D7
S11319E0882309F066C180916203853009F061C1E2
S11319F00E94BC0C882309F45CC18091A10888234F
S1131A0009F057C188E2682E712C6A0C7B1CE50131
S1131A1088A582FD02C090E003C0F30192819F700B
S1131A208091E508981781F09093E508289885EC53
S1131A308EBD0DB407FEFDCF8EB590689EBD0DB46E
S1131A4007FEFDCF8EB5289AE5019A8180E02981B1
S1131A5030E0822B932B87749C7C8154984801F549
S1131A60289886E88EBD0DB407FEFDCF8EB51EBC4A
S1131A700DB407FEFDCF8EB5289A90E08F7190705B
S1131A8040910A032091F00D30E0240F311D03E052
S1131A90359527950A95E1F7281739070CF409C1FC
S1131AA0289882EC8EBD0DB407FEFDCF8EB589E07B
S1131AB08EBD0DB407FEFDCF8EB5289A8FB7F8946E
S1131AC02091F9063091FA064091FB065091FC06EC
S1131AD0A0918400B0918500B09B08C02F5F3F4F58
S1131AE04F4F5F4FA0918400B09185008FBFE501F7
S1131AF088A584FD03C0E0E0F0E008C0F501808122
S1131B008151E82FF0E03C96EA0DFB1D289881E80E
S1131B108EBD0DB407FEFDCF8EB51EBC0DB407FE01
S1131B20FDCF8EB5289A8F71893021F087E080939C
S1131B306203BFC08FB7F8942F9AC0908400D090EE
S1131B4085008FBF2F98289880E68EBDE501888197
S1131B500DB407FEFDCF9EB58EBD1EEF912E980EDF
S1131B6086E0891510F0692D01C067E0E501219632
S1131B70862F79910DB407FEFDCF9EB57EBD8150B1
S1131B80C1F76150C62FD0E06F5F2296CA0DDB1DEE
S1131B90A90133272227CD01A0E0B0E0282B392B5F
S1131BA04A2B5B2B82EA90E0C80ED91EC21AD30AD4
S1131BB076010027F7FC0095102FE20EF31E041F98
S1131BC0151F3097B9F080819181A281B3818E195C
S1131BD09F09A00BB10B8383292F3A2F4B2F552735
S1131BE022839D014427552721838B2F9927AA27D8
S1131BF0BB278083892D861B99910DB407FEFDCFE9
S1131C002EB59EBD8150C1F70DB407FEFDCF8EB534
S1131C10289A289882EC8EBD0DB407FEFDCF8EB5B0
S1131C2086E08EBD0DB407FEFDCF8EB5289A3097A1
S1131C3079F1208130E040E050E0522F44273327EF
S1131C402227818190E0A0E0B0E0DC019927882779
S1131C50282B392B4A2B5B2B838190E0A0E0B0E04A
S1131C60282B392B4A2B5B2B828190E0A0E0B0E03B
S1131C70BA2FA92F982F8827282B392B4A2B5B2B77
S1131C802E0D3F1D401F511F2083318342835383F8
S1131C90E50188A5826088A7F301E382F4820583C5
S1131CA0168386E08093620384E08093000580E0DD
S1131CB001C085E0DF91CF911F910F91FF90EF90CC
S1131CC0DF90CF90BF90AF909F907F906F900895DA
S1131CD0BC0181E080932B098093FA044091840035
S1131CE050918500EFB7F8942091840030918500DD
S1131CF02D5F3F4FC901841B950B8617970718F476
S1131D009B01240F351F2115310511F421E030E02A
S1131D1021503040309389002093880082E086BBB4
S1131D2080916F00826080936F00EFBF08950F93DE
S1131D301F93BC0140916103242F30E0F901EE0FA1
S1131D40FF1FEE55F44F808191815091A0088617B2
S1131D50970771F4F901EB51F24F8081851709F46B
S1131D6062C0852F8F5F8093A008808310E844C0F1
S1131D70A2EABBE000E010E020E030E0422F8D91C9
S1131D809C911197F901EB51F24F8617970769F46B
S1131D90209361038081851709F445C0852F8F5FE7
S1131DA08093A008808310E80EC08081952F981B33
S1131DB0191710F4022F192F4F5F2F5F3F4F129600
S1131DC025303105D9F64530B9F400936103A02FCD
S1131DD0B0E0FD01EE0FFF1FEE55F44F71836083F9
S1131DE08091A0088F5F8093A008FD01EB51F24F12
S1131DF08083A45EB14F1C929091A008892F8F77A5
S1131E008F3779F41F3768F0E5EEFDE0292F20784D
S1131E1080818F678913208331968DE0EA3EF8072D
S1131E20B9F740916103842F1F910F9108952F9268
S1131E303F924F925F926F927F928F929F92AF9256
S1131E40BF92CF92DF92EF92FF920F931F93DF9393
S1131E50CF93CDB7DEB72C970FB6F894DEBF0FBE85
S1131E60CDBFF2E0CF2E8091A108882309F444C1AC
S1131E700E94BC0C882309F43FC18FB7F8940091E9
S1131E80F7061091F8068FBF1092A10828982FE842
S1131E902EBD0DB407FEFDCF8EB51EBC0DB407FEDE
S1131EA0FDCF9EB5289A392F90FF0CC08091000574
S1131EB0833011F0873031F475E07093620388E069
S1131EC08093000532FF7AC080910005863011F4BA
S1131ED01092000580910005882309F06FC09430AA
S1131EE089F5289896E89EBD0DB407FEFDCF8EB502
S1131EF01EBC0DB407FEFDCF2EB5289A2F7180911C
S1131F000A03922F980F86958695981B90930A033F
S1131F10E0919903F0919A0380A58B7F886080A754
S1131F2022A72FB7F8944091F9065091FA066091D0
S1131F30FB067091FC068091840090918500B09915
S1131F4010C017C0E0919903F0919A0380A5877F90
S1131F5080A7E0919903F0919A0380A58D7F80A7D3
S1131F602AC04F5F5F4F6F4F7F4F809184009091E5
S1131F708500BA0155274427A0E0B0E0482B592B2F
S1131F806A2B7B2B2FBF07501040041B150BC80175
S1131F90AA2797FDA095BA2FE0919903F0919A038F
S1131FA020A5226020A7840F951FA61FB71F83A713
S1131FB094A7A5A7B6A7E5E0E093000533FF9CC06E
S1131FC080910005843009F066C0F5E0F093620367
S1131FD01092000580916304833019F41092630415
S1131FE08BC0E0917A06F0917B0672806624818131
S1131FF090E08629972985FF46C087749C7C81548C
S1132000984809F040C020E057804424868190E03D
S1132010842995298F5F9F4F09F421E0213099F19C
S11320208091FA04882379F5C0922B0971E07093AA
S1132030FA0440918400509185006FB7F894209180
S11320408400309185002D5F3F4FC901841B950B9F
S1132050815E924018F49A012F513D4F21153105AC
S113206011F421E030E02150304030938900209376
S11320708800C6BA80916F00826080936F006FBF42
S1132080C092630439C01092630410920E0C80E075
S11320900E94A30531C0853079F5809162038730B1
S11320A091F42898F2ECFEBD0DB407FEFDCF8EB579
S11320B026E02EBD0DB407FEFDCF8EB5289A35E07F
S11320C03093620316C0289876E87EBD0DB407FEEF
S11320D0FDCF8EB51EBC0DB407FEFDCF8EB5289A7C
S11320E09091F00D8F71890F96959695891B809329
S11320F0F00D89E08093000590910005992309F47F
S113210003C3993009F021C2289890E29EBD0DB412
S113211007FEFDCF8EB51EBC0DB407FEFDCF8EB5F8
S1132120833008F4C5C08A3208F0C2C01EBCE091F6
S11321309903F0919A0380839091990340919A03B3
S1132140782F7250773010F4672F01C067E0292F81
S1132150342FF9013196962F40E050E00DB407FE7C
S1132160FDCF8EB51EBC81934827042E4295407F37
S11321704025052E542F42954F700426469554272A
S11321804527440F440F440F4025915039F76150BF
S1132190062F10E06F5F0E5F1F4F020F131FA091F9
S11321A09903B0919A031296BC901297AA2411969F
S11321B08C91119790E08A299B29877090700297DF
S11321C0B1F480916304823019F080E090E00DC096
S11321D020E0E0917A06F0917B0613969C9183812E
S11321E0981321E0E1E02E27822F982F09C02FB702
S11321F0F89490E080913007833008F491E02FBF89
S1132200992309F455C0972F961B1AC00DB407FEE5
S1132210FDCF8EB51EBCF80181938F014827042E93
S11322204295407F4025052E542F42954F70042639
S1132230469554274527440F440F440F4025915099
S1132240992321F70DB407FEFDCF8EB51EBC482798
S1132250042E4295407F4025052E542F42954F7001
S11322600426469554274527440F440F440F402520
S11322700DB407FEFDCF8EB51EBC4827042E429533
S1132280407F4025052E542F42954F7004264695D5
S113229054274527440F440F440F4025E0919903E8
S11322A0F0919A030DB407FEFDCF8EB581A702C04D
S11322B041E050E0289AF5E0F093620310920005A3
S11322C0452B09F016C2E0909903D0909A03EB864F
S11322D0DC8610E0EB85FC8592808824818190E087
S11322E08829992987709070029709F411E08091E8
S11322F063048230D1F480916F008D7F80936F00EE
S11323001092FA04E0917A06F0917B06112319F0F9
S113231080A5816002C080A58E7F80A7109263048F
S113232010920E0C80E00E94A305112309F008C14D
S1132330EB85FC85F281FA831982EB85FC8581812A
S113234090E029813A81822B932B85FF2DC08774DD
S11323509C7C8154984841F577817C831B828681DB
S113236090E0EB81FC818E2B9F2B4FB7F89420914A
S11323700202309103024FBF82179307A9F4F5E0DC
S1132380F0938306C092840610928506EB85FC8543
S113239083818093860683E896E00E94E00C88237C
S11323A019F4F3E0F0936304609184007091850064
S11323B0EB85FC8532802224818190E08229932957
S11323C085FF1EC087749C7C81549848C9F4EB85B2
S11323D0FC85F781FE831D82EB85FC85868190E078
S11323E02D813E81822B932B4FB7F89420910202CA
S11323F0309103024FBF8217930711F4645E7C4F40
S11324007093170460931604809184009091850062
S1132410FB01E81BF90BCF011E161F066CF420917B
S11324200E0C222331F40E94680EF0E8F0930E0C97
S113243003C0206820930E0C40915304509154041F
S1132440EB85FC85908181818060292F30E085FFB8
S113245003C0C9018B9602C0C9014096840F951F21
S11324609093540480935304EB85FC85F185F8879D
S11324701F82EB85FC85808590E02F813885822B37
S1132480932B0E94970EE82FF0E0E45EF14F9081C9
S113249091FD09C080915D04803128F48F5F8093A1
S11324A05D0492609083EB85FC85F185FA8719863B
S11324B0EB85FC85808590E029853A85822B932BDA
S11324C00E94970EEB85FC859381A82FB0E0FD0157
S11324D0E45EF14F808180FF0EC0FD01ED5DF64F9B
S11324E08081981751F48091E4088F3F49F18F5F00
S11324F08093E40825C081608083AD5DB64F9C93D2
S1132500FFB6F894809130078330C8F4E091580303
S1132510E80FE33008F0E350F0E0EE0FFF1FE25065
S1132520FD4F10810181E082D182809130078F5F5D
S11325308093300787E00E940B02E12ED02EFFBE6D
S1132540E0929903D0929A03D4C0892F81508330AA
S113255008F0AEC081508230C0F520916203213072
S1132560A1F58091FA04882381F52F98F3E0F09384
S11325702B092093FA0440918400509185006FB791
S1132580F89420918400309185002D5F3F4FC9015C
S1132590841B950B8B52934018F49A01255D3C4F94
S11325A02115310511F421E030E021503040309301
S11325B0890020938800C6BA80916F00826080935E
S11325C06F006FBFC09262035AC0933099F5809137
S11325D06203833079F50E94BC0C882359F1289852
S11325E08FE88EBD0DB407FEFDCF8EB51EBC0DB4B5
S11325F007FEFDCF8EB5289A809181008064809378
S1132600810090E296BB80916F00806280936F009E
S11326102898E2ECEEBD0DB407FEFDCF8EB5F6E0D2
S1132620FEBD0DB407FEFDCF8EB5289A24E020939D
S1132630620325C0809100058150823000F58091AD
S113264062038530E1F40E94BC0C8823C1F0289811
S113265032EC3EBD0DB407FEFDCF8EB573E07EBDFA
S11326600DB407FEFDCF8EB5289A80916F008F7D43
S113267080936F001092A10883E08093620390918D
S11326800005913059F480916203833091F52F9ABB
S11326909093620398E0909300052BC0923049F523
S11326A080916203833029F5E8E0E093000521C0BE
S11326B09730F9F40E94BC0C8823D9F08091F80B70
S11326C02898F8ECFEBD0DB407FEFDCF9EB58066DC
S11326D08EBD0DB407FEFDCF8EB5289A809162039E
S11326E0853021F424E02093620303C038E0309362
S11326F0000580910005883039F4109200050E948D
S11327000B0285E00E940B02809100058823D9F416
S1132710809162038530B9F48091A108882399F4EB
S113272080916304882379F480910E0C882359F4F2
S11327308091FA04882339F480919C02813019F441
S113274086E00E940B0280910005882311F40E9408
S113275063058091FA04823009F0A6C01092FA044D
S113276090912B09923009F474C0933009F480C01D
S1132770913009F099C0209116043091170480918A
S113278084009091850040910E0C403859F41092C9
S11327900E0C80919C02813009F086C086E00E9474
S11327A00B0282C08901081B190B47FF04C01016D5
S11327B011060CF4A0C080915E0490915F049C8784
S11327C08B8780916304882309F095C08B859C8551
S11327D00E94E00CF82E882309F08FC0EB85FC855D
S11327E080A58E7F80A7F1E0F09363042B853C8560
S11327F030937B0620937A0633E030930E0C54C05A
S11328009078926090930E0C2FB7F8948091B70350
S11328109091B8038F5E9E4F9093B8038093B70353
S11328202FBF89E00E940B0286E291E00E94680EAD
S11328303BC097FF0AC0101611063CF470E8709371
S11328400E0CC8010E94680E02C010920E0C8F2D4F
S11328500CC08091E4088F3F19F08F5F8093E408E7
S11328601092630410920E0C80E00E94A3051CC019
S113287080916203823019F49093620313C08091B3
S11328800005863079F410920005289881E88EBD01
S11328900DB407FEFDCF8EB51EBC0DB407FEFDCFF3
S11328A08EB5289A0E9485149FB7F8948091B50339
S11328B08130E1F41092B5039FBF2C960FB6F894C3
S11328C0DEBF0FBECDBFCF91DF911F910F91FF905F
S11328D0EF90DF90CF90BF90AF909F908F907F90BC
S11328E06F905F904F903F902F900895E1E0E093B8
S11328F0B5039FBFB8CA65E0F62E90910E0C892FE0
S11329008F77813009F095CF7BCF9FB7F894809172
S1132910B503882329F080688093B5039FBF089589
S113292081E08093B5039FBF0E94170F0895EF9233
S1132930FF920F931F93F82F7A018B016FB7F894CE
S11329408091B20020915D0330915E0340915F035A
S113295050916003B99B11C08091B3009091B20073
S11329602F5F3F4F4F4F5F4F280F311D411D511DAA
S1132970290F311D411D511D04C0280F311D411D5A
S1132980511D6FBFE9E0FE9FF0011124E455F84F9B
S11329902083318342835383E482F5820683178341
S11329A080858E7F8260808784E00E940B021F9165
S11329B00F91FF90EF9008953F924F925F926F9224
S11329C07F928F929F92AF92BF92CF92DF92EF92BB
S11329D0FF920F931F93CF93DF93C82FD0E08BE028
S11329E090E0C89FF001C99FF00DD89FF00D11240D
S11329F0EB59FD4F82819381A481B5810097A10594
S1132A00B10569F080819181880F991F918380833A
S1132A108150944020F080E094E0918380838BE0A7
S1132A2090E0C89FF001C99FF00DD89FF00D1124CC
S1132A30EB59FD4F86819781A085B185828393836D
S1132A40A483B583408051803FB6F894A090640479
S1132A50B0906504C0906604D09067049501A60107
S1132A6060E070E080E090E00EE4A02E13E8B12E68
S1132A70CC24DD24EE24FF2400E010E00E94DA449C
S1132A8039014A0100E20E94D54559016A01B401A5
S1132A90A30176956795579547954A0D5B1D6C1D67
S1132AA07D1D77FF05C07F774F5F5F4F6F4F7F4F6F
S1132AB040936404509365046093660470936704C0
S1132AC03FBE8BE090E0C89FF001C99FF00DD89FF6
S1132AD0F00D1124EB59FD4FF080820120E030E02D
S1132AE0A9E0000F111F221F331FAA95D1F7FF0C75
S1132AF0CA0160E07F2D0E943D48A0E0B0E0800F55
S1132B00911FA21FB31F3F2D330F20E040E050E080
S1132B10281B390B4A0B5B0B26833783408751876D
S1132B202281338144815581820F931FA41FB51FD5
S1132B3082839383A483B583DF91CF911F910F91F7
S1132B40FF90EF90DF90CF90BF90AF909F908F90C9
S1132B507F906F905F904F903F900895AF92BF9297
S1132B60CF92DF92EF92FF920F931F936FB7F89477
S1132B708091B20020915D0330915E0340915F0328
S1132B8050916003B99B11C08091B3009091B20041
S1132B902F5F3F4F4F4F5F4F280F311D411D511D78
S1132BA0290F311D411D511D04C0280F311D411D28
S1132BB0511D6FBFA0900608B0900708C090080888
S1132BC0D0900908E0906702F090680200916902D1
S1132BD010916A02E114F10401051105C1F09FB7D7
S1132BE0F89480919F0880FD0BC08E7F80939F088E
S1132BF02A193B094C095D09E21AF30A040B150B67
S1132C009FBF8AE0B801A7010E94230405C08091F8
S1132C100E088D7F80930E081F910F91FF90EF9007
S1132C20DF90CF90BF90AF9008958453924189F57F
S1132C3081E090E0909366028093650210926F02A7
S1132C408091670290916802A0916902B0916A0232
S1132C500097A105B105E9F09FB7F89480919F080A
S1132C60816080939F089FBF109267021092680250
S1132C701092690210926A0210926B0210926C0216
S1132C8010926D0210926E0280E00E94DC140E9489
S1132C90AE1508950F931F93CF93DF93482F50E001
S1132CA0FA01EE0FFF1FE40FF51FDF01AA0FBB1F90
S1132CB0AA0FBB1FAE5CB84F15968C91159782FF77
S1132CC00AC0EE0FFF1FEE0FFF1FEC5CF84F60838E
S1132CD08B7F15968C939A01220F331F240F351F77
S1132CE0F901EE0FFF1FEE0FFF1FEC5CF84F808120
S1132CF0962F981B6083D901AA0FBB1FAA0FBB1F75
S1132D00AE5CB84F13968C9113978F5F13968C9388
S1132D10139786E016968C9316979923A1F0F901E0
S1132D20EE0FFF1FEE0FFF1FEA5CF84F808181500A
S1132D30890F80839B3038F0108281E013968C9346
S1132D40139717961C92FA01EE0FFF1FE40FF51F5D
S1132D50EE0FFF1FEE0FFF1FEE5CF84F83818330F1
S1132D6008F462C0C081D181E2E3F7E00FEF19E01B
S1132D7041E0808191818C179D0709F04FC08581C6
S1132D8080FF4CC08681882311F081508683868120
S1132D909581882321F49427958317821BC0926020
S1132DA0958383816481680F633008F463E0809FB6
S1132DB0C001112470E00E9451488781819FC001A5
S1132DC01124860F911D6AE070E00E9451486783C8
S1132DD0138214826781662311F46FEF0DC086EFAE
S1132DE099E070E00E9451486A5070406F3F71054D
S1132DF019F010F06FEF70E020853185C90153E0C0
S1132E00880F991F5A95E1F7820F931F860F911D22
S1132E106AE070E00E943D48718760873C9687E0D5
S1132E20EA3AF80709F0A5CFDF91CF911F910F91EE
S1132E3008959C01809111028823C9F540915C0397
S1132E408FEF2F3F380721F0AEEBB3E0E0E00AC08C
S1132E50E42F0AC08D919C911197189682179307BD
S1132E6019F0EF5FE417B0F380915C03E81748F4BE
S1132E70F0E0A3E0EE0FFF1FAA95E1F7E254FC4F48
S1132E80678380919C0B882331F0662321F48CE1C5
S1132E900E940B0208958091970B9091980B8217D2
S1132EA0930729F4662319F08CE10E940B0208951C
S1132EB05F926F927F928F929F92AF92BF92CF92C6
S1132EC0DF92EF92FF920F931F93809112029091E1
S1132ED01302A0911402B0911502B695A795979587
S1132EE0879580930E0490930F04A0931004B093DD
S1132EF011045FB6F894A0906404B0906504C09087
S1132F006604D09067049501A60160E070E080E05B
S1132F1090E00EE4A02E13E8B12ECC24DD24EE24A0
S1132F20FF2400E010E00E94DA4439014A0100E283
S1132F300E94D54559016A01C401B301969587954C
S1132F40779567956A0D7B1D8C1D9D1D97FF05C0A8
S1132F509F776F5F7F4F8F4F9F4F60936404709391
S1132F60650480936604909367045FBEE0900E044A
S1132F70F0900F040091100410911104A80197011E
S1132F800E946448AB01BC014E0D5F1D601F711FA0
S1132F9040930E0450930F04609310047093110433
S1132FA01092910B8091EA078D7F8093EA0786E067
S1132FB00E9423041F910F91FF90EF90DF90CF9018
S1132FC0BF90AF909F908F907F906F905F90089587
S1132FD09FB7F894E82FF0E0E85BFB4F60839FBF56
S1132FE060FD08C061FD06C09FB7F89480818160D0
S1132FF080839FBF81E00895CF93DF93E3E0F5E002
S1133000EF0126E930E040E050E08C819D81AE8103
S1133010BF818F5F9F4FAF4FBF4F59F08881998118
S1133020AA81BB8182179307A407B50710F49C01FA
S1133030AD012A9685E0CD3FD80739F78481958183
S1133040A681B7818F5F9F4FAF4FBF4F61F08081E3
S11330509181A281B381821B930BA40BB50B808356
S11330609183A283B3833A96EC17FD0739F7CA011B
S1133070B90124E630E040E050E00E941248AB0180
S1133080BC0181E00E942304DF91CF9108956F92E7
S11330907F928F929F92AF92BF92CF92DF92EF92E4
S11330A0FF920F931F93CF93DF935B016C01ECEAC4
S11330B0F7E060E0708571FF00C3E080F180028179
S11330C013812481358146815781D601C5018E192A
S11330D09F09A00BB10B82179307A407B50708F447
S11330E0ECC270FF03C07D7F708708C02E0D3F1DAA
S11330F0401F511F2083318342835383653009F479
S113310037C2663060F4613009F483C06130D0F0B6
S1133110623009F4A1C0633009F0D4C204C268303B
S113312009F48CC2693038F4663009F424C267307B
S113313009F0C8C277C2693009F482C26A3009F062
S1133140C1C282C29FB7F8948091B5038F5F809308
S1133150B5039FBF8091B40B9091B50B9C0153E0D4
S1133160369527955A95E1F7821B930B9093B50BEF
S11331708093B40B80915304909154049C0143E0D8
S1133180369527954A95E1F7821B930B9093540447
S1133190809353048091E408982F9695969596957C
S11331A0891B8093E40830911304432F4695469578
S11331B0469520915D04421761F4832F90E0877057
S11331C09070892B31F0315030931304ECE1FEE020
S11331D005C0230F241B20931304F8CF80818D7F17
S11331E081932EE0E132F207C9F710925D049FB794
S11331F0F8948091B50381508093B503803811F021
S11332009FBF60C281E08093B5039FBF0E94170FE8
S113321059C2C3E0D5E010E02C813D814E815F812D
S11332202F3F8FEF38078FEF48078FEF580779F05C
S113323088819981AA81BB810097A105B10539F4E0
S1133240288339834A835B83812F0E947F071F5F12
S11332502A96193109F764C180910A0C882309F46C
S113326031C200E7C02E02E0D02EEE24FF2414E089
S1133270A12EBB24B394F601208131814281538174
S1133280211531054105510509F43DC1F701E25FFE
S1133290F14F6081F701E257FC4F7081F701E5506F
S11332A0F44F1081E7E0F5E000E0608071808280F7
S11332B093808FEF68168FEF78068FEF88068FEF75
S11332C0980631F00F5F3A96093179F70FEF17C17D
S11332D0C02FDD27C7FDD095FE01EE0FFF1FCE01E5
S11332E0A3E0880F991FAA95E1F7E80FF91FEF5F94
S11332F0FA4F60837183DE01AA0FBB1FAA0FBB1FA5
S1133300AC0FBD1FAA0FBB1FAD5FBA4F2D933D93EA
S11333104D935C931397268337834087518774308A
S113332029F5623091F0633028F4662351F061305E
S1133330B1F409C0643069F0643048F0653079F460
S11333400AC080E009C081E007C082E005C083E0D4
S113335003C084E001C085E0612F0E94E8178091DA
S11333605503882319F46C980E949804FE01EE0F0B
S1133370FF1FCE01A3E0880F991FAA95E1F7E80F7C
S1133380F91FEF5FFA4F81818530F1F49FB7F8940C
S113339010937806812F10FD05C011FD03C08160D4
S11333A0809378069FBF8091FD02882369F4449836
S11333B08FB7F8941092FA0B1092F90B1092E70859
S11333C08FBFED9AB092FD02FE0173E0EE0FFF1F76
S11333D07A95E1F7CC0FDD1FEC0FFD1FEF5FFA4F7D
S11333E08181882309F08BC0802F90E0FC0153E099
S11333F0EE0FFF1F5A95E1F7880F991FE80FF91F89
S1133400EF5FFA4FE081E63009F446C0E73080F41C
S1133410E23071F1E33030F4EE2301F1E13009F0F0
S113342063C021C0E43071F1E53008F030C025C03C
S1133430EA3009F445C0EB3038F4E83009F436C01A
S1133440E93008F038C02DC0EC3009F443C0EC304A
S113345008F43BC0ED3009F047C041C08FB7F89481
S11334601093A20840C08FB7F8941093A3083BC0F0
S11334708FB7F8941093A40836C08FB7F8941093BC
S1133480A50831C08FB7F8941093A6082CC08FB745
S1133490F8941093A70827C08FB7F8941093A8083E
S11334A022C08FB7F8941093A9081DC08FB7F89461
S11334B01093AA0818C08FB7F8941093AB0813C0E0
S11334C08FB7F8941093AC080EC08FB7F89410938C
S11334D0AD0809C08FB7F8941093AE0804C08FB735
S11334E0F8941093AF088FBF80915603882339F462
S11334F08FB7F894A09279068FBFB0925603F70164
S1133500E350FA4F00830894E11CF11CE4E0F0E07E
S1133510CE0EDF1EFBE0EF16F10409F0ACCE1198DD
S11335200E94FC17CFC08091B4069091B5068530F7
S11335309105A1F08E31910521F0039709F0C2C0E5
S113354003C010923402BEC0109234028091EA0883
S113355061E040E050E00E94E10BB4C010923402FC
S11335608091EA0861E040E050E00E94CF0BAAC0DD
S11335700E944A0AA7C080914802882309F4A2C085
S113358080914902882309F49DC08091910B88237E
S113359009F58CE10E940B028DE10E940B0240911F
S11335A012025091130260911402709115028091DD
S11335B00E0490910F04A0911004B0911104481BC3
S11335C0590B6A0B7B0B81E08093910B86E00E9480
S11335D0230478C08091120290911302A0911402E6
S11335E0B0911502880F991FAA1FBB1F8093120266
S11335F090931302A0931402B09315028150904D3E
S1133600A740B04060F080E090EDA7E0B0E0809388
S1133610120290931302A0931402B09315020E9415
S1133620581750C080914802882309F44BC08091F8
S11336304902882309F446C08CE103C01092420277
S113364089E10E940B023EC020910A0830910B08C8
S113365040910C0850910D08809167029091680286
S1133660A0916902B0916A020097A105B10511F118
S1133670821B930BA40BB50BA9F480916F028823D2
S113368059F49FB7F8948091310781608093310792
S11336909FBF87E20E940B0280E00E94DC1410921C
S11336A06F0208C08093670290936802A093690236
S11336B0B0936A020E94AE1505C06F5F39966B30F5
S11336C009F0F8CC84E00E940B02DF91CF911F91A6
S11336D00F91FF90EF90DF90CF90BF90AF909F90AD
S11336E08F907F906F900895EF92FF920F931F93A6
S11336F0EFB7F8949091B3008091B20027B3981774
S113370011F021FF02C0EFBF95C0809157048823B8
S113371009F460C06FB7F8948091B20020915D0302
S113372030915E0340915F0350916003B99B11C0D7
S11337308091B3009091B2002F5F3F4F4F4F5F4F86
S1133740280F311D411D511D290F311D411D511DD2
S113375004C0280F311D411D511D6FBFE09050035F
S1133760F090510300915203109153038091F40B94
S11337709091F50BA091F60BB091F70B2E193F0920
S1133780400B510B281739074A075B0720F01092AA
S1133790570471E020C09C01AD012E0D3F1D401F58
S11337A0511F80915D0390915E03A0915F03B091DE
S11337B06003281B390B4A0B5B0B273E310541057F
S11337C0510540F4622F223010F070E005C070E023
S11337D062E002C070E066EE962F91508091B600D0
S11337E083FDFCCF8091B2009813692F20915D0373
S11337F030915E0340915F0350916003DA01C90187
S11338000196A11DB11D860F911DA11DB11D821729
S11338109307A407B50710F4622F60958091B60052
S113382083FDFCCF6093B300EFBF772319F083E0EF
S11338300E940B021F910F91FF90EF9008957894CE
S11338401F920F920FB60F920BB60F9211242F9363
S11338503F934F935F936F937F938F939F93AF9314
S1133860BF93EF93FF9380916F008D7F80936F00E0
S113387078949FB7F8948091FA04813019F482E027
S11338808093FA049FBF9FB7F8948091B50388236F
S113389029F080688093B5039FBF06C081E08093C0
S11338A0B5039FBF0E94170FFF91EF91BF91AF9196
S11338B09F918F917F916F915F914F913F912F9144
S11338C00F900BBE0F900FBE0F901F901895789419
S11338D01F920F920FB60F9211240F900FBE0F90EC
S11338E01F90189578941F920F920FB60F9211247F
S11338F00F900FBE0F901F90189578941F920F92FF
S11339000FB60F920BB60F9211242F933F934F9340
S11339105F936F937F938F939F93AF93BF93EF9333
S1133920FF9380918400909185008091860090910E
S113393087002FB7F8949093F8068093F70681E0F8
S11339408093A1082FBF0E948514FF91EF91BF912E
S1133950AF919F918F917F916F915F914F913F9123
S11339602F910F900BBE0F900FBE0F901F901895C4
S113397078941F920F920FB60F9211242F938F9366
S11339809F93AF93BF932FB7F8948091F9069091CA
S1133990FA06A091FB06B091FC060196A11DB11D8B
S11339A08093F9069093FA06A093FB06B093FC0665
S11339B02FBFBF91AF919F918F912F910F900FBE09
S11339C00F901F9018951F920F920FB60F920BB67F
S11339D00F9211242F933F934F935F936F937F9391
S11339E08F939F93AF93BF93EF93FF938091B00016
S11339F08093B0008091B60081FDFCCF8091B3002C
S1133A0090E00196A0E0B0E020915D0330915E0368
S1133A1040915F0350916003280F391F4A1F5B1FB9
S1133A2020935D0330935E0340935F0350936003E0
S1133A3078940E94741BFF91EF91BF91AF919F9175
S1133A408F917F916F915F914F913F912F910F9043
S1133A500BBE0F900FBE0F901F9018951F920F92E0
S1133A600FB60F9211248F938091B0008093B00011
S1133A708091B60081FDFCCF8F910F900FBE0F9007
S1133A801F9018951F920F920FB60F920BB60F92BC
S1133A9011240F931F932F933F934F935F936F932F
S1133AA07F938F939F93AF93BF93CF93DF93EF93C2
S1133AB0FF932EB5E0916D08F0916E08309739F0C0
S1133AC08091ED069091EE06E80FF91F2083409156
S1133AD0ED065091EE06BA016F5F7F4F7093EE06CC
S1133AE06093ED068CB58F778CBD2091CC0230911C
S1133AF0CD026217730708F048C0E091080CF091FA
S1133B00090C00916D0810916E08CA010B962817D4
S1133B10390708F4C901E801C40FD51FDF01A40F58
S1133B20B51F9C01215030401DC0309759F01196AB
S1133B309C9111978CB580648CBD9EBD0DB407FE1D
S1133B40FDCF07C08CB580648CBD1EBC0DB407FED0
S1133B50FDCF8EB50115110509F089836F5F7F4F85
S1133B60219611966217730700F38CB580688CBD9B
S1133B70309729F0E60FF71F80818EBD01C01EBC6F
S1133B807093EE066093ED0611C010926E081092C9
S1133B906D081092090C1092080C1092CD0210922C
S1133BA0CC021092EE061092ED068EB5FF91EF91C5
S1133BB0DF91CF91BF91AF919F918F917F916F9141
S1133BC05F914F913F912F911F910F910F900BBED9
S1133BD00F900FBE0F901F9018951F920F920FB663
S1133BE00F920BB60F9211242F933F934F935F9331
S1133BF06F937F938F939F93AF93BF93EF93FF93B1
S1133C00409178005091790078949FB7F89480910E
S1133C10B403282F2695217081709FBF8823F1F467
S1133C2080917A00877F80937A0080917F0681302B
S1133C3019F0823041F50AC0222351F05093E20872
S1133C404093E1088DE00E940B021DC0222319F469
S1133C500E94060C18C010927F0615C08FB7F89406
S1133C608FBF2FB7F89490917A00892F877680615F
S1133C7080937A009772892F806180937A0090698B
S1133C8090937A002FBFFF91EF91BF91AF919F91D5
S1133C908F917F916F915F914F913F912F910F90F1
S1133CA00BBE0F900FBE0F901F9018951F920F928E
S1133CB00FB60F9211240F900FBE0F901F901895FE
S1133CC01F920F920FB60F9211240F900FBE0F90F8
S1133CD01F9018951F920F920FB60F9211240F90F8
S1133CE00FBE0F901F9018951F920F920FB60F9250
S1133CF011240F900FBE0F901F9018951F920F92D2
S1133D000FB60F920BB60F9211242F933F934F933C
S1133D105F936F937F938F939F93AF93BF93EF932F
S1133D20FF93EC9885E10E940B02813009F4EC9A30
S1133D30FF91EF91BF91AF919F918F917F916F917F
S1133D405F914F913F912F910F900BBE0F900FBE3B
S1133D500F901F9018951F920F920FB60F920BB6EB
S1133D600F9211242F933F934F935F936F937F93FD
S1133D708F939F93AF93BF93EF93FF938091E70843
S1133D8090917806882341F4449881E08093E70871
S1133D90292F91FD07C014C0449A1092E708292FD7
S1133DA090FF0EC08091F90B9091FA0B01969093BD
S1133DB0FA0B8093F90B22FF03C088E10E940B02E7
S1133DC0FF91EF91BF91AF919F918F917F916F91EF
S1133DD05F914F913F912F910F900BBE0F900FBEAB
S1133DE00F901F9018951F920F920FB60F921124E7
S1133DF00F900FBE0F901F9018951F920F920FB641
S1133E000F920BB60F9211242F933F934F935F930E
S1133E106F937F938F939F93AF93BF93EF93FF938E
S1133E20EF988EE00E940B02FF91EF91BF91AF914A
S1133E309F918F917F916F915F914F913F912F91BE
S1133E400F900BBE0F900FBE0F901F901895AB01F3
S1133E50863009F44FC0873078F4823089F183309A
S1133E6030F48823F9F0813009F079C022C084301D
S1133E70A9F18530C8F52BC08A3009F453C08B30C2
S1133E8038F4883009F442C0893008F045C038C09D
S1133E908C3009F453C08C3008F44AC08D3009F0DA
S1133EA05EC055C08FEF6F3F780709F458C080E0BB
S1133EB04AC08FEF6F3F780709F451C081E043C0D7
S1133EC08FEF6F3F780709F44AC082E03CC08FEF60
S1133ED06F3F780709F443C083E035C08FEF6F3F2D
S1133EE07807E9F184E02FC08FEF6F3F7807B9F1CD
S1133EF085E029C08FEF6F3F780789F186E023C002
S1133F008FEF6F3F780759F187E01DC08FEF6F3F48
S1133F10780729F188E017C08FEF6F3F7807F9F031
S1133F2089E011C08FEF6F3F7807C9F08AE00BC0BA
S1133F308FEF6F3F780799F08BE005C08FEF6F3FED
S1133F40780769F08CE060E00E94B40208958FEF76
S1133F506F3F780721F08DE060E00E94B40208957D
S1133F60CF92DF92EF92FF920F931F93CF93DF9341
S1133F70F90180910F02882321F0823009F03BC1BE
S1133F80A8C021812093150480910A0E863079F40B
S1133F902093620485E080930A0EEC9A85E090E019
S1133FA0019701960197E1F780E00E940405809152
S1133FB00A0E882309F01FC18091620490911504B0
S1133FC0282F2095292390959823292BB8E4EB2EAC
S1133FD0B4E0FB2E0FE313E0C0E0D0E0C22EDD24FA
S1133FE0F7018081282F86FD58C0C6010C2E02C01F
S1133FF0959587950A94E2F780FF4FC020FF24C06F
S11340008091620490E00C2E02C0959587950A94E5
S1134010E2F780FD19C08091150490E00C2E02C0D7
S1134020959587950A94E2F780FF0EC022FF06C09B
S1134030F801608171818C2F0E943F07F801808113
S11340409181019691838083F7018081282F81FFDC
S113405024C08091620490E00C2E02C0959587954F
S11340600A94E2F780FF19C08091150490E00C2EA9
S113407002C0959587950A94E2F780FD0EC022FF51
S113408006C0F801608171818C2F0E943F07F801FE
S11340908081918101969183808321960894E11C0B
S11340A0F11C0E5F1F4FC830D10509F099CF8091E4
S11340B0150480936204EC9A85E080930A0E85E0EF
S11340C090E0019701960197E1F780E00E940405D2
S11340D092C0433001F110923A02469821E030E058
S11340E000903C0302C0220F331F0A94E2F720958C
S11340F0309580913B0290913C02822393239093CC
S11341003C0280933B0287E10E940B0280913C03B6
S11341106FEF7FEF67C080913A02823009F06BC085
S1134120918180E0BC0160707F708281680F711D95
S11341308091280990912909680F791F70932909A2
S1134140609328098091EF0D81508093EF0D8823AF
S113415009F04DC010923A0280913C03282F30E0C0
S1134160F901EE55F74F808182FF08C0685F7F4FE9
S1134170A4E076956795AA95E1F713C081FF08C07E
S11341806C5F7F4FF3E076956795FA95E1F708C089
S113419080FF0BC06E5F7F4F769567957695679528
S11341A07F707093290960932809469881E090E014
S11341B002C0880F991F2A95E2F780959095209167
S11341C03B0230913C022823392330933C02209354
S11341D03B0287E10E940B02609128097091290932
S11341E080913C030E94271F0E94B70904C040939A
S11341F03A020E944A0ADF91CF911F910F91FF90DA
S1134200EF90DF90CF9008950F931F93982F809194
S11342100F028130D9F0813020F0823009F081C062
S113422043C080910A0E8150833018F485E0809356
S11342300A0E85E090E0019701960197E1F78091DD
S11342400A0E853009F06DC080E02BC0809179069C
S1134250813021F484E08093790622C0823001F514
S113426084E080937906992349F410923A0246989F
S113427087E10E940B020E94B70912C0E0913C033F
S1134280F0E0EE55F74F808187FF08C085E042E3F8
S113429050E060E070E00E94230402C00E944A0AD9
S11342A081E00E9404053DC0992319F110923A025D
S11342B0469821E030E000903C0302C0220F331FF7
S11342C00A94E2F72095309580913B0290913C024C
S11342D08223932390933C0280933B0287E10E94C4
S11342E00B0280913C036FEF7FEF0E94271F0E9417
S11342F0B70980913A028130A1F482E080933A02B6
S113430063E04AE450E023E00BE813E00E94AC0AC7
S1134310813039F410923A0287E10E940B020E9424
S1134320B7091F910F9108951F920F920FB60F9224
S11343300BB60F9211242F933F934F935F936F9378
S11343407F938F939F93AF93BF93EF93FF939FB705
S1134350F8948091BC0080939E089FBF809138029E
S1134360843009F086C0809139029091AC0B409161
S11343700403813009F049C09417F0F48091BB0024
S1134380E091B903F091BA03E90FF11D80834091E4
S1134390AC0B242F30E08091040390E001972817A0
S11343A0390779F580910D0E82FD2BC080919E080E
S11343B08F7B80939E0825C090919E08292F2E7F85
S11343C080910D0E81FF09C08D7F80930D0E2061B9
S11343D020939E088091B90003C09E7790939E0815
S11343E080919E088093BC0081E0809338026091A4
S11343F06004709161042091B9033091BA0380E0A4
S11344007FC04F5F4093AC0B9FC020919E089417D0
S113441078F4E091B903F091BA03E90FF11D8081BA
S11344208093BB009F5F9093AC0B2093BC0077C03C
S1134430922F9E7F80910D0E81FF07C08D7F809308
S11344400D0E906190939E0803C02E7720939E08D2
S113445080919E088093BC0081E080933802609133
S11344606004709161042091B9033091BA0380E033
S11344704DC0853009F053C080910D0E8E7F80931E
S11344800D0E90919E089F7D90939E088091B90097
S1134490887F883009F43DC08091B900887F8031DD
S11344A009F437C09FB7F8948091BC0080939E08AC
S11344B09FBF80919E088A7F80939E088093BC0052
S11344C09FB7F8948091BC0080939E089FBF809111
S11344D09E08846080939E088093BC0081E0809352
S11344E03802809139022091B9033091BA03609166
S11344F0600470916104882331F081E040910403E9
S11345000E94B01F25C081E0409104030E94042151
S11345101FC083E080933802906490939E0880913A
S113452038028330A9F480913902813029F48091D2
S11345306004880F816003C080916004880F8093B9
S1134540BB0084E08093380280919E088093BC0075
S1134550FF91EF91BF91AF919F918F917F916F9157
S11345605F914F913F912F910F900BBE0F900FBE13
S11345700F901F901895ECE1F1E06927660FF11D8B
S1134580E60FF11DC895382F202D3196C89530259A
S1134590C90108950F931F93082F162F80911804B3
S11345A08130D9F0813038F0823009F44DC0833045
S11345B009F00CC15AC0002309F42FC11092930BC7
S11345C01092920B1092ED081092AD0B10925504BC
S11345D01092FE061092FD061DC1002309F01DC1B4
S11345E08091FD069091FE060E94BB229093FE06E8
S11345F08093FD0682E0809318041093AD0B14346D
S113460009F0E4C080914D02982F917080FF02C0A0
S1134610869502C086958695817009F0D7C08091F1
S11346204D02992311F0846001C0826080934D0291
S113463080914D02877E886080934D0210924E02D5
S11346408FEF80931602E9C0002309F0BFC0609386
S113465055048091FD069091FE060E94BB22909322
S1134660FE068093FD0683E0D6C08091ED088F3F5F
S113467009F4ACC0002309F447C0823008F4A6C092
S1134680E091920BEE2311F482E002C08E2F815050
S1134690E82FF0E0EE56F44F9281882311F4E2E023
S11346A002C0E82FE150392F20E0F0E0EE56F44F3D
S11346B0828190E0822B932B2091FD063091FE069F
S11346C08217930709F082C080E00E941806309197
S11346D05504E091B6062091B7068E2F8F5F863081
S11346E010F090E001C0982F921709F46FC0F0E029
S11346F0EA54F94F32838093B606863010F0109254
S1134700B6060E94820862C0823008F44BC0E09171
S1134710930BF0E0EE56F44F328120914D02822F3C
S1134720869586958695837090E08130910519F081
S11347300297F9F40EC0277E206120934D023323A3
S113474011F080E001C085E080934E0230931602A0
S113475010C080914E028F3260F4E0911B02F09100
S11347601C02E80FF11D308380914E028F5F80930D
S11347704E022091FD063091FE068091930BE82FA6
S1134780F0E0EE56F44F62818F5F8093930B833099
S113479010F01092930BC9010E94BB229093FE0665
S11347A08093FD068091920BE82FF0E0EE56F44FD3
S11347B012838F5F8093920B833010F01092920BD0
S11347C08091ED088F5F8093ED0827C01092930BC2
S11347D01092920B109218041092ED081092AD0BE7
S11347E0109255041092FE061092FD0680915D020F
S11347F08D7F80935D0281E00E94180680914C02B7
S1134800882331F084E0809318040E94D90805C0FD
S1134810002319F081E0809318041F910F910895EB
S11348201F920F920FB60F920BB60F9211242F9373
S11348303F934F935F936F937F938F939F93AF9324
S1134840BF93EF93FF938091C00087FF42C06091B4
S1134850C600E0912E07F0912F07309719F180914F
S11348600B0C90910C0CE80FF91F60830196909348
S11348700C0C80930B0C2091190E30911A0E821798
S1134880930738F110922F0710922E078091B008E9
S11348908330F9F08091C1008F778093C10010922A
S11348A0B00817C06E3719F481E060E010C0809141
S11348B05D026D3721F4826080935D020AC081FF3E
S11348C005C08D7F80935D0280E2682780E00E94AE
S11348D0CA22FF91EF91BF91AF919F918F917F91E8
S11348E06F915F914F913F912F910F900BBE0F905D
S11348F00FBE0F901F90189578941F920F920FB6C9
S11349000F920BB60F921124FF920F931F932F93C4
S11349103F934F935F936F937F938F939F93AF9343
S1134920BF93CF93DF93EF93FF9320915004309183
S113493051048091A00B9091A10B28173907C0F462
S1134940E0917206F0917306E20FF31F80812F5FEE
S11349503F4F30935104209350049FB7F8948093B1
S1134960C6008091C00080648093C0009FBFD7C000
S11349701092730610927206109252048091C10034
S11349808F7B8093C10090915D0290FF0EC09E7F4B
S113499090935D028091EB0880939E038EE993E0EF
S11349A061E070E00E94B701BAC08091E3088430EE
S11349B009F48DC0853040F4823021F18330B8F59C
S11349C0813009F0A7C00DC0863009F48EC086304E
S11349D008F484C0873009F499C0883009F09AC07B
S11349E09CC080916E060E94F101082F83E08093A1
S11349F0E30880910B0E90910C0E60916E060E945C
S1134A00BB2210C08091D80B0E94F101082F83E0D3
S1134A108093E30880910B0E90910C0E6091D80B5B
S1134A200E94BB2290930C0E80930B0E71C0FFB6B4
S1134A30F894E091AA07F0E0EE0FFF1FEB58F94F4E
S1134A4080810E94F101082F1091AA07C12FD0E0A4
S1134A50FE01EE0FFF1FEB58F94F80910B0E909162
S1134A600C0E60810E94BB2290930C0E80930B0E5F
S1134A702091FB042F5F2093FB04113019F58091E2
S1134A805402E0914F02F0915002E80FF11D308181
S1134A908F5F8093540290915302981720F482E020
S1134AA08093760630E0DE01AA0FBB1FFD01EC58AF
S1134AB0F94F8081823031F02F3F21F0AB58B94F4C
S1134AC03C9303C084E08093E308FFBE21C080913F
S1134AD00B0E0E94F101082F85E015C080910C0E89
S1134AE00E94F101082F86E00EC09E7F90935D0224
S1134AF08EE780939E038EE993E061E070E00E946C
S1134B00B701082F87E08093E30802C088E003C060
S1134B10002329F089E08093E3080E948208FF9132
S1134B20EF91DF91CF91BF91AF919F918F917F9141
S1134B306F915F914F913F912F911F910F91FF9032
S1134B400F900BBE0F900FBE0F901F9018951F92E1
S1134B500F920FB60F9211248F938091C80087FF94
S1134B6002C08091CE008F910F900FBE0F901F90C6
S1134B70189578941F920F920FB60F9211240F90EC
S1134B800FBE0F901F90189578941F920F920FB636
S1134B900F9211240F900FBE0F901F9018957894C8
S1134BA01F920F920FB60F9211240F900FBE0F9009
S1134BB01F90189578941F920F920FB60F9211249C
S1134BC00F900FBE0F901F90189578941F920F921C
S1134BD00FB60F9211248F939F938091940090911C
S1134BE095009F918F910F900FBE0F901F90189575
S1134BF078941F920F920FB60F9211242F938F93D4
S1134C009F932FB7F89480916A0490916B04019656
S1134C1090936B0480936A042FBF9F918F912F917F
S1134C200F900FBE0F901F901895CF92DF92EF92C6
S1134C30FF920F931F93CF93DF9320910809309134
S1134C4009098FEF2F3F380741F0809100029091BE
S1134C5001022817390709F020C180910A098F360B
S1134C6009F4CDC0823709F44FC0843609F00EC16F
S1134C700E944E06E0903D03F0903E03F0922D0911
S1134C80E0922C09ADEFB5E000E712E0C1E0D0E01E
S1134C90CE018E219F21892B61F12C91F801408155
S1134CA05181628173812A3120F5332727FD3095A4
S1134CB0F901EE0FFF1FC901880F991F880F991F73
S1134CC0880F991FE80FF91FEF5FFA4F4683578348
S1134CD060877187F901EE0FFF1FEE0FFF1FE20FD0
S1134CE0F31FEE0FFF1FED5FFA4F40835183628382
S1134CF0738311960C5F1F4FF6E0A830BF0709F4C9
S1134D00C5C0CC0FDD1FC4CF10922D0910922C0901
S1134D1060913D0370913E03CDE0D9E020E7E22E9F
S1134D2022E0F22EF70120E030E000E010E091E014
S1134D30C92ED12CA601022E02C0440F551F0A947D
S1134D40E2F7CA0186239723892B61F08881998130
S1134D50009741F0042B152BA0E0B0E080839183F1
S1134D60A283B3832F5F3F4F229634962B303105B5
S1134D7009F700932C0910932D09ADEFB5E0C1E0BC
S1134D80D0E0CE0180239123892B61F12C91F7018E
S1134D9040815181628173812A3120F5332727FDB7
S1134DA03095F901EE0FFF1FC901880F991F880F75
S1134DB0991F880F991FE80FF91FEF5FFA4F468379
S1134DC0578360877187F901EE0FFF1FEE0FFF1FF6
S1134DD0E20FF31FEE0FFF1FED5FFA4F4083518385
S1134DE062837383119684E090E0E80EF91E96E0E6
S1134DF0A830B90709F44AC0CC0FDD1FC2CF9FB752
S1134E00F89481E080932A029FBF80910B099091CE
S1134E100C0990932D0980932C098BE1EDEBFBE0B9
S1134E20DF011D928A95E9F7C0E0D0E001E010E0CF
S1134E3080912C0990912D0920913D0330913E03DE
S1134E408223932398010C2E02C0220F331F0A944D
S1134E50E2F782239323892BA9F0FE01E350FA4F52
S1134E60808120E030E0992787FD90952817390745
S1134E7021F4822F0E947F0705C02F5F3F4F293105
S1134E803105A1F72196CB30D10591F68FB7F8946F
S1134E9092B122E0922792B98FBFDF91CF911F91F7
S1134EA00F91FF90EF90DF90CF900895EF92FF92D3
S1134EB00F931F93CF93DF93EC01E0914302F0E053
S1134EC0EE0FFF1FE958F44FE080F180E114F10484
S1134ED009F4B0C1F701008111810C171D0709F015
S1134EE0A9C1662329F08FEF91E060E072E0A0C1D0
S1134EF080914102882309F481C0F80180A580FDD6
S1134F007DC0978180E0268130E0282B392BE2E3B5
S1134F10F7E040E0858180FF05C0808191818217A0
S1134F20930729F04F5F3C964A30A1F70EC08CE0FE
S1134F30489FF0011124EE5CF84F83858F5F8387CF
S1134F40853018F0CF010E9465098CE10E940B02A4
S1134F50F701838181508383882309F065C1F701B8
S1134F608281882351F4F092070CE092060C82812E
S1134F70B80141E00E9467042FC0F701208131810C
S1134F808091B2068C3090F4E0916904E80FEC3023
S1134F9008F0EC50F0E0EE0FFF1FE251F74F3183C1
S1134FA020838091B2068F5F8093B206809182063F
S1134FB08C3090F4E091F30BE80FEC3008F0EC50F7
S1134FC0F0E0EE0FFF1FEF50F24FF182E08280918C
S1134FD082068F5F8093820690914502992309F49B
S1134FE021C1809143028F5F809343028D3011F47D
S1134FF01092430291509093450214C1F7018281AB
S1135000882311F59F8180E02E8130E0822B932B41
S11350100E949009F092070CE092060C90914502D0
S1135020992361F0809143028F5F809343028D3016
S113503011F41092430291509093450280E0BE0116
S113504040E00E946704EEC08091B2068C3008F004
S1135050F1C09F8180E02E8130E0822B932B0E944F
S11350609009F7016081718180910B03843009F00C
S11350706CC05091B306DB011C9614969C91149756
S113508080E015962C91159730E0282B392B40E0C1
S1135090842F850F837090E0FC01EE0FFF1FEE0F4D
S11350A0FF1FE80FF91FE156FC4F808191812817FB
S11350B0390791F416969C9116978281981761F49A
S11350C011969C9111978481981731F417969C91AD
S11350D017978381981719F04F5F4430C9F64370CE
S11350E059F5852F90E00196837090708093B306F4
S11350F027C08091B30690E0840F911D9C0123701A
S11351003070D901AA0FBB1FAA0FBB1FA20FB31F78
S1135110019683709070FC01EE0FFF1FEE0FFF1FCE
S1135120E80FF91FA156BC4FE156FC4F85E00190F2
S11351300D928150E1F74F5F80910B034817C8F23D
S113514080910B03815080930B0340910B0380915A
S1135150B30690E0840F911D83709070DB011C9660
S1135160FC01EE0FFF1FEE0FFF1FE80FF91FE156C2
S1135170FC4F14969C91149780E015962C911597EA
S113518030E0822B932B9183808316968C91169713
S1135190828311968C911197848317968C918383C3
S11351A04F5F40930B0390914502992361F08091E6
S11351B043028F5F809343028D3011F410924302B7
S11351C0915090934502F701208131818091B2067C
S11351D08C3090F4E0916904E80FEC3008F0EC5066
S11351E0F0E0EE0FFF1FE251F74F318320838091EF
S11351F0B2068F5F8093B206809182068C3090F461
S1135200E091F30BE80FEC3008F0EC50F0E0EE0F17
S1135210FF1FEF50F24FF182E082809182068F5F90
S113522080938206109242028FE790E060E870E07B
S11352300E94FA08DF91CF911F910F91FF90EF9098
S11352400895813061F0813028F0823091F083300C
S1135250A9F412C0CB01642F0E9456270895695106
S1135260744061F480914A02882341F010924A020A
S113527008951092120408951092120408950F9341
S11352801F93CF93DF93182FEB01042FE82FF0E047
S1135290EE0FFF1FE151F94F11821082809110022D
S11352A090E0019683709070682F8093100270E0F4
S11352B0462F50E0FA01EE0FFF1FE151F94F8081B4
S11352C09181892BB1F0E62FE695E695E695F0E01D
S11352D0EE50F44F808190E09A012770307002C044
S11352E0959587952A95E2F780FD03C06093100297
S11352F009C04F5F5F4F642F63707F5F7430C1F6E6
S113530070931002E0911002E430C0F4F0E0EE0F6C
S1135310FF1FE151F94F40815181FA01778160E02B
S1135320868190E0682B792B20812D5083850E9403
S11353302D02882319F08BE10E940B02812FBE01FC
S1135340402F0E942129DF91CF911F910F91089541
S1135350AF92BF92CF92DF92EF92FF920F931F937F
S1135360BC0181E0809312046093DB027093DA0243
S113537082E16433780721F0AA24BB24650108C0C4
S1135380A0906102B0906202C0906302D090640267
S1135390A092DF0255274D2D3C2D2B2D2093DE02AC
S11353A0C601AA27BB278093DD02ED2CFF2400272A
S11353B01127E092DC0290E0A0E0B0E0DC01992744
S11353C0882730E040E050E0542F432F322F22272B
S11353D0822B932BA42BB52B2A2D30E040E050E0F8
S11353E0822B932BA42BB52B1E2D0027FF24EE24F8
S11353F08E299F29A02BB12B0097A105B10511F48B
S113540010E018C06453724121F448E059E01BE1F4
S113541003C040E050E010E0812F90E006964D97E5
S113542008F016E120EE32E0C901BA01412F50E044
S11354300E9454468FEF8093D4028093D50280E675
S11354408093D9021A5F82E06EEC72E0412F0E94D1
S113545075021F910F91FF90EF90DF90CF90BF9056
S1135460AF9008950F931F93162F072F833309F0DE
S113547069C080912B02882391F4283009F062C01E
S1135480A9E1B3E0FA0188E001900D928150E1F7BF
S113549088E08093EC0880E00E940B0253C0909156
S11354A0BC03992309F44EC080915703E82FF0E020
S11354B0EE0FFF1FE752F44F608171811182108259
S11354C091509093BC038F5F809357038A3011F4FB
S11354D01092570361157105A9F1DB011C96FA01BD
S11354E088E001900D928150E1F7909160029A302A
S11354F0A8F480915F02E82FF0E0EE0FFF1FE25D59
S1135500F64F718360838F5F80935F028A3011F45A
S113551010925F029F5F9093600214C08091BC035D
S11355208A3080F4E0915703E80FEA3008F0EA503B
S1135530F0E0EE0FFF1FE752F44F718360838F5F3B
S11355408093BC03812F902F1F910F91089588237E
S1135550E1F510922B02909160029923B1F18091B0
S11355605E02E82FF0E0EE0FFF1FE25DF64F2081B0
S113557031818F5F80935E028A3011F410925E0253
S113558091509093600221153105F9F0ADE0B3E03C
S1135590F9018FE201900D928150E1F78091BC03F3
S11355A08A3098F4E0915703E80FEA3008F0EA50A3
S11355B0F0E0EE0FFF1FE752F44F318320838F5F3B
S11355C08093BC0380E00E940B0208950F931F9305
S11355D0CF93DF93182FEB01042FE82FF0E0EE0FA9
S11355E0FF1FEE54F44F1182108210921D02A091FD
S11355F0B20BB091B30B109721F08091F90480FFA6
S113560003C081E080931D0280911D028823A1F4D0
S1135610FD01359615967C91159760E0818190E0A7
S1135620682B792B8681AD0124810E9494088823FC
S113563019F085E20E940B02812FBE01402F0E94C7
S1135640A72ADF91CF911F910F9108952F923F9236
S11356504F925F926F927F928F929F92AF92BF927E
S1135660CF92DF92EF92FF920F931F93DF93CF932A
S1135670CDB7DEB7AC970FB6F894DEBF0FBECDBF83
S1135680E82FF0E0E832F10510F00C949640EA5966
S1135690FF4FEE0FFF1F0590F491E02D0994209128
S11356A0EC084DE053E0FA0135968FEF8183809347
S11356B0120383E386838091B20B9091B30B892B01
S11356C011F00C9496405093B30B4093B20B248387
S11356D080911D02882391F010921D0283E36FEFE5
S11356E07FEF0E949408882349F081E080931D0293
S11356F01092B30B1092B20B0C94964081E08093FD
S11357002B020C9496408091B603882311F00C94DC
S113571096409FB7F89481E08093B6039FBF409171
S113572080065091810620E030E061E070E0E22FD5
S1135730CB01022E02C0880F991F0A94E2F784233A
S11357409523892B29F020932A092B3068F005C072
S11357502F5F3F4F2B30310551F78FB7F8941092DC
S1135760B6038FBF0C949640209105033091060335
S1135770C9010C9611F0C9014496009739F48FB70A
S1135780F8941092B6038FBF0C949640F0E003E0B7
S1135790EE0FFF1F0A95E1F7DC01EA5EF94F88E09E
S11357A001900D928150E1F7209105033091060399
S11357B080913F02882311F40C9496408DE1D90125
S11357C08C93F9013C9680910002909101028583AB
S11357D09483809154038F5F809354038150868314
S11357E083E387831182A091060CB091070C109774
S11357F011F40C94964011963C932E9312961C929D
S1135800129784E013968C931397809145028D3000
S113581010F00C94964080914402E82FF0E0EE0FD3
S1135820FF1FE958F44FB183A0838F5F8093440234
S11358308D3011F410924402809145028F5F809361
S1135840450280914002882339F08091FC0781FD54
S113585003C089E10E940B021092070C1092060CFF
S11358608FB7F8941092B6038FBF81E00E940B02A9
S11358700C9496408091B603882311F00C949640C2
S11358808FB7F89491E09093B6038FBF8FB7F894D5
S11358901092B6038FBF0C9496408091B303882373
S11358A009F039C06FB7F8942091F40B3091F50BDF
S11358B04091F60B5091F70B809150039091510356
S11358C0A0915203B0915303280F391F4A1F5B1F45
S11358D06FBFE090AE0BF090AF0B0091B00B109146
S11358E0B10B1092B3039FB7F89481E080935704EF
S11358F02093500330935103409352035093530326
S1135900E092F40BF092F50B0093F60B1093F70B67
S11359109FBF0E94741B7FB7F8946091B2002091DE
S11359205D0330915E0340915F0350916003B99B26
S113593011C08091B3009091B2002F5F3F4F4F4F41
S11359405F4F280F311D411D511D290F311D411D70
S1135950511D04C0260F311D411D511D7FBFCA01B9
S1135960B9010E9447180C9496407FB7F89460914F
S1135970B20020915D0330915E0340915F0350912A
S11359806003B99B14C08091B3009091B200590197
S11359906A010894A11CB11CC11CD11CA80EB11C25
S11359A0C11CD11CA90EB11CC11CD11C06C05901BB
S11359B06A01A60EB11CC11CD11C7FBF8FB7F8941D
S11359C0109257048FBFECEAF7E0AFEFEA2EAFEF87
S11359D0FA2EAFEF0A2FAFE71A2F60E0808581FF20
S11359E01BC080819181A281B381A6019501281BEE
S11359F0390B4A0B5B0BDA01C901248135814681DD
S1135A005781281B390B4A0B5B0B2E153F054007AA
S1135A10510714F461E002C0A8019701399678E0B7
S1135A20EF30F70719F079018A01D8CF662311F412
S1135A300C949640121613061406150634F0C6018B
S1135A40B5010E9447180C9496402093AE0B3093F6
S1135A50AF0B4093B00B5093B10B81E08093B30331
S1135A609FB7F89480935704A0925003B0925103C7
S1135A70C0925203D09253032093F40B3093F50B4E
S1135A804093F60B5093F70B9FBF0E94741B0C942A
S1135A90964090919C02892F8450823010F4109289
S1135AA09C02943009F096C081E080934802809172
S1135AB04902882309F445C05FB6F894A0906404B1
S1135AC0B0906504C0906604D09067049501A60167
S1135AD060E070E080E090E0FEE4AF2EE3E8BE2EEC
S1135AE0CC24DD24EE24FF2400E010E00E94DA44FC
S1135AF039014A0100E20E94D54559016A01B40105
S1135B00A30176956795579547954A0D5B1D6C1DC6
S1135B107D1D77FF05C07F774F5F5F4F6F4F7F4FCE
S1135B20409364045093650460936604709367041F
S1135B305FBE5F714050504F60E070E086E00E94AD
S1135B40230481E08093400280914502882319F068
S1135B5089E10E940B028091670290916802A091F2
S1135B606902B0916A020097A105B10511F015E030
S1135B7020C010926702109268021092690210927B
S1135B806A0210926B0210926C0210926D021092D3
S1135B906E0210926F0280E00E94DC149FB7F894AA
S1135BA080919F08816080939F089FBF0E94AE15DB
S1135BB010E084E392E10E941516112319F481E0A8
S1135BC08093070381E080934F038FE10E940B02CF
S1135BD00C94964010924802109240020C94964005
S1135BE08FB7F89410919D038FBF80919C028230EF
S1135BF011F4112339F080917E068F5F80937E0625
S1135C00863020F083E080939C0253C08FB7F894D1
S1135C109091B5039F5F9093B5038FBF2091E808DF
S1135C203091E9083093FD042093FC0480910E0C1C
S1135C30882321F58091FA04882301F530935F04C9
S1135C4020935E0481E080930E0C2FB7F89480912A
S1135C50B7039091B8038F5E9E4F9093B8038093DF
S1135C60B7032FBF89E00E940B0286E291E00E94F5
S1135C70680E82E080939C0210E00AC080917E0648
S1135C80853011F483E001C081E080939C0215E02B
S1135C909FB7F8948091B50381508093B503803801
S1135CA011F09FBF06C081E08093B5039FBF0E949F
S1135CB0170F80919C02833011F00C94964010923F
S1135CC09C022091E8083091E90880911002843008
S1135CD010F00C949640E82FF0E0EE0FFF1FE15116
S1135CE0F94F608171816217730711F00C9496402B
