:100000006C070010D91200004113000041130000DA
:1000100041130000411300004113000000000000E4
:10002000000000000000000000000000411300007C
:100030004113000000000000B9160000DD1D0000A3
:100040004113000041130000411300004113000060
:100050004113000041130000411300004113000050
:100060004113000041130000411300004113000040
:100070004113000041130000411300004113000030
:100080004113000041130000411300004113000020
:100090004113000041130000411300004113000010
:1000A0004113000041130000411300004113000000
:1000B00041130000411300004113000041130000F0
:1000C00041130000411300004113000080B500AF50
:1000D0000F4B1B78DBB2012B11D10E4B1B78012B80
:1000E00001D101F023F80C4B1B78DBB2012B01D1BD
:1000F00000F06AFF064B4FF000021A7007E0044B55
:100100001B78DBB203F1FF33DAB2014B1A7080BD0A
:1001100011000010040200101200001090B587B00A
:1001200000AF0346FB71FA798B4913464FEA43034C
:100130009B184FEAC303CB1803F104031B68FB6051
:10014000FB68002B00F00381844B1B78DBB203F1CA
:100150000103DAB2814B1A70814B1B68002B0CD162
:10016000FA7913464FEA43039B184FEAC3031A4632
:10017000794BD2187A4B1A60E6E0794B1B687B61A9
:10018000FB683B61DCE03A697B695B68D31A3B61E1
:100190003B69002B80F2A3807B695B69002B34D024
:1001A0007B695969FA7913464FEA43039B184FEA72
:1001B000C3031A46684BD3180B61FA797B695969F6
:1001C000654813464FEA43039B184FEAC303C3181D
:1001D00003F114031960FA795F4913464FEA4303A8
:1001E0009B184FEAC303CB1803F110037A691A6016
:1001F000FA7913464FEA43039B184FEAC3031A46A2
:10020000554BD2187B695A6126E0FA79544B19682C
:10021000514813464FEA43039B184FEAC303C318E0
:1002200003F1100319604E4B1968FA7913464FEA2F
:1002300043039B184FEAC3031A46474BD3184B613D
:10024000FA7913464FEA43039B184FEAC3031A4651
:10025000414BD218424B1A60FA79F9793E480B4665
:100260004FEA43035B184FEAC303C31803F11003BB
:100270001B6859683B69C918374813464FEA43035E
:100280009B184FEAC303C31803F104031960FA79FA
:10029000314913464FEA43039B184FEAC303CB1877
:1002A00003F110031968FA792B4813464FEA430308
:1002B0009B184FEAC303C31803F110031B68586867
:1002C000FA79254C13464FEA43039B184FEAC303C0
:1002D000E31803F104031B68C31A4B6034E03B6965
:1002E000002B2ADB7B691B69002B26D1FA791A497E
:1002F00013464FEA43039B184FEAC303CB1803F19D
:1003000014037A691A60FA7913464FEA43039B187B
:100310004FEAC3031A46104BD2187B691A61FA7967
:1003200039690D4813464FEA43039B184FEAC3034C
:10033000C31803F10403196006E07B691B697B6144
:100340007B69002B7FF41FAFFFF7C0FE00E000BF0A
:1003500007F11C07BD4690BD1400001011000010ED
:100360004400001080B584B000AF0346FB71FA79F9
:1003700013464FEA43039B184FEAC3031A46314B17
:10038000D318FB60304B1B78DBB203F10103DAB208
:100390002D4B1A70FB685B69002B08D1FB681B6949
:1003A000002B04D1294B4FF000021A6043E0FB6898
:1003B0005B69002B16D1FB681A69244B1A60234B2A
:1003C0001B684FF000025A61FB681B69FA681269EA
:1003D0005168FA6852688A185A60FB684FF0000248
:1003E0001A6128E0FB681B69002B09D1FB685B6977
:1003F0004FF000021A61FB684FF000025A611AE0E8
:10040000FB685B69FA6812691A61FB681B69FA6824
:1004100052695A61FB681B69FA6812695168FA6887
:1004200052688A185A60FB684FF000021A61FB6834
:100430004FF000025A61FFF749FE07F11007BD4671
:1004400080BD00BF14000010110000104400001017
:1004500080B582B000AF1C4B1B687B6028E07B68D6
:100460005B78002B0CD17B681B781846FFF77AFF6E
:100470007B684FF001029A707B68DB68984714E054
:100480007B685B78012B10D17B681B781846FFF7DF
:1004900069FF7B689A687B685A607B681B7818469E
:1004A000FFF73CFE7B68DB689847074B1B687B6067
:1004B0007B68002B03D07B685B68002BCFD007F1F3
:1004C0000807BD4680BD00BF4400001080B500AFE6
:1004D000084B1B78DBB2012B08D9074B4FF0010208
:1004E0001A70064B4FF001021A7001E0FFF7B0FFDF
:1004F00080BD00BF110000100402001006020010B1
:1005000080B584B000AF0346FB804FF00003FB735F
:10051000FB88B3F5007F3CD0B3F5007F19DC40F2D7
:100520001512934245D040F21512934206DCB3F502
:10053000897F2AD0B3F58A7F2FD05EE0B3F58C7F18
:100540004BD0B3F58D7F50D040F2171293423CD080
:1005500053E0B3F5017F44D0B3F5017F08DC40F2EE
:100560000222934229D040F20222934231DC18E069
:1005700040F21932934218D040F21A32934220D0FE
:1005800040F20522934234D037E04FF00203FB7370
:1005900036E04FF00103FB7332E04FF00203FB73D0
:1005A0002EE04FF00103FB732AE04FF00303FB73CF
:1005B00026E04FF00203FB7322E04FF00103FB73D0
:1005C0001EE04FF00303FB731AE04FF00203FB73CE
:1005D00016E04FF00103FB7312E04FF00203FB73D0
:1005E0000EE04FF00103FB730AE04FF00203FB73D0
:1005F00006E04FF00103FB7302E04FF0010328E037
:10060000FB884FEA13239BB2D9B2FB88DAB2FB7B9B
:10061000084611461A4601F0F5F9FB884FEA132304
:100620009BB2DAB2FB88DBB2104619464FF00002EB
:1006300001F048FAFB884FEA13239BB2DAB2FB8839
:10064000DBB2104619464FF0000201F09BFA4FF062
:100650000003184607F11007BD4680BD80B485B081
:1006600000AF0346FB80FB88B3F5007F3CD0B3F5B9
:10067000007F19DC40F21512934245D040F215126A
:10068000934206DCB3F5897F2AD0B3F58A7F2FD059
:100690005EE0B3F58C7F4BD0B3F58D7F50D040F248
:1006A000171293423CD053E0B3F5017F44D0B3F529
:1006B000017F08DC40F20222934229D040F202225C
:1006C000934231DC18E040F21932934218D040F2E4
:1006D0001A32934220D040F20522934234D037E0C0
:1006E0004FF00103FB7336E04FF00103FB7332E080
:1006F0004FF00203FB732EE04FF00203FB732AE07E
:100700004FF00203FB7326E04FF00303FB7322E07C
:100710004FF00303FB731EE04FF00303FB731AE07B
:100720004FF00403FB7316E04FF00403FB7312E079
:100730004FF00503FB730EE04FF00503FB730AE077
:100740004FF00603FB7306E04FF00603FB7302E075
:100750004FF0FF0300E0FB7B184607F11407BD468E
:1007600080BC704780B500AF4FF040004FF00101F2
:1007700001F022F94FF00C004FF0010101F096FA60
:10078000154B4FF03F021A60134B4FF000025A60B6
:10079000114B4FF000021A670F4B4FF000025A61E5
:1007A0000D4B4FF000029A620B4B4FF00002DA64DF
:1007B000094B4FF000021A65074B4FF00002DA6058
:1007C000054B4FF008025A60034B4FF002025A618A
:1007D0004FF00003184680BD0080014080B586B010
:1007E00000AF03463960FB804FF00C0001F0DAFAED
:1007F0007861786901F092FC03461846396801F087
:10080000E5FC0346184601F0C7FE02460B46C7E961
:100810000223D7E9022352EA030109D0D7E90223D0
:100820004FF0FF304FF00001904271EB030C02D209
:100830004FF001030AE0084BBA689A61064B064A7A
:10084000126D42F001021A654FF00003184607F1DD
:100850001807BD4680BD00BF0080014080B586B04E
:1008600000AF03463960FB80FB881846FFF748FE5F
:10087000FB881846FFF7F2FE0346FB75FB7DFF2B56
:1008800002D14FF0010358E04FF00C0001F08AFA5A
:100890003861386901F042FC03461846396801F0B6
:1008A00095FC0346184601F057FE0346FB60FB68C3
:1008B000002B02D14FF001033FE0FB7D03F1FF333A
:1008C000052B27D801A252F823F000BFE50800004D
:1008D000ED080000F5080000FD0800000509000013
:1008E0000D090000174BFA68DA6113E0154BFA683E
:1008F0001A620FE0134BFA685A620BE0114BFA6868
:100900001A6407E00F4BFA685A6403E00D4BFA686B
:100910009A6400BF0B4A0B4B196DFB7D062B05D863
:10092000FB7D4FF0010000FA03F301E04FF00003FC
:1009300041EA030313654FF00003184607F1180757
:10094000BD4680BD0080014080B586B000AF034643
:100950003960FB804FF00C0001F024FA78617A696D
:10096000194BA3FB02134FEA93133A6802FB03F2FD
:10097000154BA3FB02C34FEA93131A464FF0000333
:10098000C7E90223D7E9022352EA030109D0D7E9D4
:1009900002234FF0FF304FF00001904271EB030C47
:1009A00002D24FF001030AE0084BBA689A61074B84
:1009B000064A126D42F001021A654FF00003184614
:1009C00007F11807BD4680BDD34D6210008001407D
:1009D00080B586B000AF03463960FB80FB881846BF
:1009E000FFF78EFDFB881846FFF738FE0346FB75C0
:1009F000FB7DFF2B02D14FF0010364E04FF00C00B0
:100A000001F0D0F938613A69314BA3FB02134FEA88
:100A100093133A6802FB03F22D4BA3FB02C34FEA88
:100A200093131A464FF00003C7E90223D7E90223C4
:100A30004FF0FF304FF00001904271EB030C02D2F7
:100A40004FF001033FE0FB7D03F1FF33052B27D877
:100A500001A151F823F000BF710A0000790A0000DB
:100A6000810A0000890A0000910A0000990A00002A
:100A7000184BBA68DA6113E0164BBA681A620FE0D5
:100A8000144BBA685A620BE0124BBA681A6407E05A
:100A9000104BBA685A6403E00E4BBA689A6400BF00
:100AA0000C4A0C4B196DFB7D062B05D8FB7D4FF0D6
:100AB000010000FA03F301E04FF0000341EA0303F1
:100AC00013654FF00003184607F11807BD4680BDB7
:100AD000D34D62100080014090B585B000AF034651
:100AE0003960FB804FF001031C4638683A4901F039
:100AF00029FD0346002B02D14FF000031C46E3B250
:100B0000002B02D04FF001035FE0FB881846FFF78F
:100B1000F7FC304B9B69FB60F86801F0FFFA034675
:100B20001846396801F052FB0346184601F014FDDF
:100B30000346FB60FB881846FFF790FD0346FB72F7
:100B4000FB7AFF2B02D14FF001033EE0FB7A03F169
:100B5000FF33052B26D801A252F823F0750B0000B5
:100B60007D0B0000850B00008D0B0000950B000035
:100B70009D0B0000174BFA68DA6113E0154BFA6819
:100B80001A620FE0134BFA685A620BE0114BFA68D5
:100B90001A6407E00F4BFA685A6403E00D4BFA68D9
:100BA0009A6400BF0B4A0B4B196DFB7A062B05D8D4
:100BB000FB7A4FF0010000FA03F301E04FF000036D
:100BC00041EA030313654FF00003184607F11407C9
:100BD000BD4690BD008001400000803F80B584B0DC
:100BE00000AF0346FB80FB881846FFF737FD03463E
:100BF000FB73FB7BFF2B02D14FF001031CE0114A7A
:100C0000104BD96CFB7B03F00703002B07DDFB7B4C
:100C100003F108034FF0010000FA03F301E04FF085
:100C2000000341EA0303D364064B064A526842F0CC
:100C300001025A604FF00003184607F11007BD4645
:100C400080BD00BF0080014080B584B000AF034686
:100C5000FB80FB881846FFF701FD0346FB73FB7B17
:100C6000FF2B02D14FF0010318E00F4A0E4BD96C55
:100C7000FB7B03F00703002B09DDFB7B03F108037B
:100C80004FF0010000FA03F36FEA030301E04FF0B5
:100C9000FF3301EA0303D3644FF00003184607F162
:100CA0001007BD4680BD00BF0080014080B400AF8A
:100CB0005A4B4FF02002C3F8A021584BD3F8A03173
:100CC00003F02003002B07D000BF544BD3F8A03112
:100CD00003F04003002BF8D0504B4FF00302C3F851
:100CE00004214E4B4FF00002C3F8A8214B4B4FF0AC
:100CF0000002C3F8AC21494B4FF00102C3F80C21AC
:100D0000464B474AC3F88420444B4FF0AA02C3F82D
:100D10008C20424B4FF05502C3F88C203F4B4FF0D4
:100D20000102C3F880203D4B4FF0AA02C3F88C208B
:100D30003A4B4FF05502C3F88C2000BF374BD3F825
:100D4000883003F08063002BF8D0344B4FF003025F
:100D5000C3F88020314B4FF0AA02C3F88C202F4BF0
:100D60004FF05502C3F88C2000BF2C4BD3F88830CD
:100D700003F04073002BF8D0284B4FF02302C3F848
:100D8000A420264B4FF0AA02C3F8AC20234B4FF00F
:100D90005502C3F8AC20214B4FF00102C3F8A0204C
:100DA0001E4B4FF0AA02C3F8AC201C4B4FF055026B
:100DB000C3F8AC2000BF194BD3F8A83003F480630C
:100DC000002BF8D0154B4FF00302C3F8A020134BB3
:100DD0004FF0AA02C3F8AC20104B4FF05502C3F8F5
:100DE000AC2000BF0D4BD3F8A83003F44073002BA8
:100DF000F8D00A4B0B4AC3F8C420084B4FF000024E
:100E0000C3F8C821054B43F23A021A60064B4FF073
:100E100000029A60BD4680BC704700BF00C00F4012
:100E200063000500DE87280400ED00E080B487B091
:100E300000AF78607B681B79FB737B684FF0000222
:100E40005A71374B1B683B613B691B79FA7B9A42AD
:100E50001ED13A697B689A421AD03B69002B17D0A1
:100E6000304BD3E90001304BD3E90023904271EBC2
:100E7000030C0DD23B695B8918464FF000012A4BE9
:100E8000D3E90023121843EB01032649C1E90023EB
:100E9000264B1B683B613B69002B07D1244B4FF06D
:100EA00001021A70214B7A681A6034E03B691B79A1
:100EB000FA7B9A420DD21E4B4FF001021A707B68EA
:100EC0003A695A623B697A689A62184B7A681A6082
:100ED00021E03B695B6A7B6109E07B691B79FA7BF6
:100EE0009A4208D37B693B617B695B6A7B617B6962
:100EF000002BF2D100E000BF7B687A695A623B693F
:100F00007A685A627B683A699A627B69002B02D0E0
:100F10007B697A689A6207F11C07BD4680BC7047FE
:100F2000C8010010D001001068030010C0010010BB
:100F30001200001080B483B000AF78607B685B6AF9
:100F4000002B08D17B689B6A002B04D11D4B4FF00E
:100F500000021A6031E07B689B6A002B0DD17B6830
:100F60005A6A184B1A607B684FF000025A62154BA0
:100F70001B684FF000029A621FE07B685B6A002BDF
:100F800009D17B689B6A4FF000025A627B684FF080
:100F900000029A6211E07B689B6A7A68526A5A6220
:100FA0007B685B6A7A68926A9A627B684FF000029B
:100FB0005A627B684FF000029A6207F10C07BD4647
:100FC00080BC7047C001001080B584B000AF4E4BAC
:100FD0001B68FB604D4B1B68BB60BB68002B00F0BF
:100FE00083804B4B1B68FA689A427FD1494B1B7830
:100FF000DBB2012B7CD8484B1B78DBB2002B79D1BC
:10100000464B4FF000021A70FB681B79FB71BB68FE
:101010001B79BB71FB685B79012B0AD03C4BBA682A
:101020001A60BB684FF001025A71B868FFF782FF7F
:101030002FE0BA79FB799A420DD2354BBA681A6023
:10104000F868FFF7F3FEB868FFF774FFBB684FF06E
:1010500001025A711DE0FA79BB799A424CD1304BAA
:10106000D3E900012F4BD3E9002382EA000283EA8F
:10107000010352EA030141D1254BBA681A60F868AE
:10108000FFF7D4FEB868FFF755FFBB684FF00102C9
:101090005A711F4B1B681A791C4B1B681B799A42AB
:1010A0000ED11B4B1B685B8918464FF000011D4B8E
:1010B000D3E90023121843EB01031949C1E90023C6
:1010C000FB681A68FB68DB689A4205D3FB68DB683B
:1010D0001A68154B9A4204D0FB689B79184600F0B9
:1010E00061FF00F0DFFA0AE000BF08E000BF06E0A1
:1010F00000BF04E000BF02E000BF00E000BF07F156
:101100001007BD4680BD00BFC8010010C00100101F
:10111000C401001011000010100000101200001097
:10112000D001001068030010A5A55A5A80B582B0FE
:1011300000AF404B1B78012B05D100F065F93D4B0A
:101140004FF000021A703C4B1B78012B5AD1FFF76D
:101150007FF9394B4FF000021A7056E000F09CFA0C
:10116000364B5B78354A4FEAC303D3183A4603F14E
:10117000040393E8030082E80300304B5B7803F13B
:1011800001012F4B83FB01234FEA63024FEAE17316
:10119000D21A13464FEA83039B18CA1AD2B2274BBE
:1011A0005A70264B1B7803F1FF33DAB2234B1A70C7
:1011B00000F06CFA3B7803F1FF33032B24D801A233
:1011C00052F823F0D5110000DF110000ED110000EE
:1011D000F71100007B78184600F0A0FE15E07A7841
:1011E0007B681046194600F035F80EE07B7818460B
:1011F00000F0E2FA09E07A787B681046194600F0C0
:1012000079FA02E000BF00E000BF0C4B1B78002B16
:10121000A4D100F041FA094B1B78002B03D1094BF4
:101220004FF000021A7000F031FA07F10807BD46CE
:1012300080BD00BF0502001006020010D80100109A
:10124000676666660402001080B500AF00F01CFE01
:10125000FEE700BF80B584B000AF03463960FB7184
:10126000FB79132B02D94FF001032CE0FB794FEAF5
:101270000312174BD318FB60FB685B7903F00F0375
:10128000DBB2022B02D04FF001031CE0FB68DB88CD
:10129000002B16D10F4B1B78DBB203F10103DAB23E
:1012A0000C4B1A70FB683A681A60FB684FF0010239
:1012B000DA80F86800F000F9FEF708FF4FF000034D
:1012C00001E04FF00703184607F11007BD4680BD47
:1012D0000C0200101100001080B582B000AF134B5B
:1012E0007B60134B3B600BE07B681A683B681A60BD
:1012F0003B6803F104033B607B6803F104037B60FC
:101300003A680C4B9A42EFD30B480C494FF000025D
:101310008842B8BF40F8042BFADBFFF7C7FCFFF7A1
:1013200093FF07F10807BD4680BD00BFD42D000024
:1013300000000010100000101000001070030010DA
:1013400080B400AFFEE700BF80B483B000AF786028
:101350007B689B6A002B08D17B685B6A002B04D1F9
:10136000284B4FF000021A6043E07B689B6A002B19
:1013700016D17B685A6A234B1A607B685B6A7A686D
:10138000526A116A7A68126A8A181A627B685B6A02
:101390004FF000029A627B684FF000025A6228E028
:1013A0007B685B6A002B09D17B689B6A4FF0000267
:1013B0005A627B684FF000029A621AE07B689B6A6F
:1013C0007A68526A5A627B685B6A7A68926A9A6241
:1013D0007B685B6A7A68526A116A7A68126A8A184C
:1013E0001A627B684FF000025A627B684FF000027D
:1013F0009A627B684FF0FF321A6207F10C07BD4614
:1014000080BC70470802001080B582B000AF1C4B52
:101410001B687B6028E07B681B7AFF2B02D0786812
:1014200000F0DEF87B68DB69002B04D07B68DB69A9
:10143000184600F079FA7B684FF0FF321A627B6839
:101440005A6A0F4B1A607B684FF000025A62786844
:10145000FFF7ECFC0A4B1B687B607B68002B03D01A
:101460007B684FF000029A627B68002B03D07B6898
:101470001B6A002BCFD007F10807BD4680BD00BF17
:101480000802001080B500AF084B1B78DBB2012BBF
:1014900008D9074B4FF001021A70064B4FF00102BA
:1014A0001A7001E0FFF7B0FF80BD00BF110000100F
:1014B000040200100502001080B584B000AF78600F
:1014C0007B68DB68FB60FB68002B00F08180FB68B9
:1014D0005A697B68DA607B68DB68002B04D07B6824
:1014E000DB684FF000029A61FB684FF000025A611E
:1014F000FB684FF0FF021A72FB681B6AB3F1FF3FF3
:1015000002D0F868FFF720FF7B685B7903F00F03D8
:10151000DBB2022B0FD17B681A68FB681A617B680B
:101520004FF000021A607B68DB8803F1FF339AB248
:101530007B68DA803EE07B685B7903F00F03DBB207
:10154000032B25D17B681B68BB60BB681A68BB682E
:10155000DB884FEA8303D3181A68FB681A61BB68FB
:10156000DB8803F101039AB2BB68DA80BB689B8910
:1015700003F1FF339AB2BB689A81BB68DA88BB6813
:101580005B899A4216D1BB684FF00002DA8011E005
:101590007B685B7903F00F03DBB2012B0AD17B6818
:1015A000DB8803F1FF339AB27B68DA80FB684FF087
:1015B000FF321A61094B1B68FA689A4204D1FB6832
:1015C0004FF001025A7104E0F868FFF72FFC00E0C9
:1015D00000BF07F11007BD4680BD00BFC801001065
:1015E00080B485B000AF78607B681B7A4FEA031245
:1015F000254BD318FB607B685B69002B08D17B68A7
:101600009B69002B04D1FB684FF00002DA6031E0E7
:101610007B689B69002B0DD17B685B694FF00002F2
:101620009A617B685A69FB68DA607B684FF0000258
:101630005A611FE07B685B69002B09D17B689B695D
:101640004FF000025A617B684FF000029A6111E08E
:101650007B689B697A6852695A617B685B697A68C2
:1016600092699A617B684FF000029A617B684FF043
:1016700000025A617B684FF0FF021A7207F11407EB
:10168000BD4680BC704700BF0C02001080B400AFA4
:1016900062B6BD4680BC704780B400AF72B6BD462E
:1016A00080BC7047024B1B68024A11681960704782
:1016B00004000010080000100B4B19680B4A126858
:1016C00091420AD0EFF3098020E9F00F08601A6018
:1016D0001068B0E8F00F80F30988054B00201870FF
:1016E0004EF0040E70470000C8010010C401001045
:1016F0001100001080B584B000AF03463960FB7163
:10170000FB79132B02D94FF001034BE0FB794FEA31
:101710000312274BD318FB60FB685B7903F00F03C0
:10172000DBB2032B02D04FF001033BE0FB681B68E8
:10173000BB60BB689A89BB685B899A4202D14FF053
:1017400008032FE01B4B1B78DBB203F10103DAB275
:10175000184B1A70BB681A68BB681B894FEA830371
:10176000D3183A681A60BB681B8903F101039AB267
:10177000BB681A81BB689B8903F101039AB2BB68FD
:101780009A81BB681A89BB685B899A4203D1BB689E
:101790004FF000021A81F868FFF78EFEFEF796FC04
:1017A0004FF00003184607F11007BD4680BD00BF8B
:1017B0000C0200101100001080B584B000AF034689
:1017C000FB71414BBB60FB791F2B02D94FF001032A
:1017D00074E0BB689A68FB794FF0010101FA03F3EA
:1017E00002EA0303002B02D14FF0010366E0BB685D
:1017F0001A68FB794FF0010101FA03F302EA0303CF
:10180000002B02D04FF0000358E0BB681A68FB7948
:101810004FF0010101FA03F31A43BB681A602B4B26
:101820001B78DBB203F10103DAB2284B1A70BB68F4
:10183000DB68FB603BE0FB681B7C002B18D1FB687E
:101840009A68BB681B681A40FB689B689A4227D15C
:10185000F86800F03DF8F860BB685A68FB794FF013
:10186000010101FA03F302EA0303002B1CD021E07B
:10187000FB689A68BB681B6802EA0303002B0FD061
:10188000F86800F025F8F860BB685A68FB794FF0FB
:10189000010101FA03F302EA0303002B06D009E079
:1018A000FB681B68FB6002E000BF00E000BFFB6854
:1018B000002BC0D1FEF70AFC4FF00003184607F1D9
:1018C0001007BD4680BD00BF50030010110000107E
:1018D00080B584B000AF7860786800F025F87B6848
:1018E000DB68FB60FB681B6AB3F1FF3F02D0F8685E
:1018F000FFF72AFDFB684FF0FF32DA61094B1B68E6
:10190000FA689A4204D1FB684FF001025A7102E072
:10191000F868FFF78BFA7B681B68184607F1100719
:10192000BD4680BDC801001080B483B000AF7860B0
:101930007B681B68002B0CD17B685B68002B08D18F
:101940001C4B4FF00002DA601A4B4FF000021A6194
:1019500025E07B681B68002B09D17B685A68154B12
:101960001A617B685B684FF000021A6017E07B68C1
:101970005B68002B09D17B681A680E4BDA607B68C4
:101980001B684FF000025A6009E07B681B687A68A8
:1019900052685A607B685B687A6812681A607B6874
:1019A000DB684FF00002DA6107F10C07BD4680BC2E
:1019B000704700BF5003001080B483B000AF786060
:1019C0000B46FB70FB78002B0BD10D4B0C4AD2F869
:1019D000C4107A686FEA020201EA0202C3F8C42066
:1019E00008E0074B064AD2F8C4107A6841EA0202BE
:1019F000C3F8C42007F10C07BD4680BC704700BF88
:101A000000C00F4080B487B000AF13460246FA71A1
:101A10000A46BA717B71BB797B61FB794FEA43035C
:101A20003B61274BFB607B690F2B07D97B69A3F1D7
:101A300010037B613B6903F101033B613B694FEAA2
:101A40008303FA68D3181A687B694FEA430322FAC2
:101A500003F3DBB203F00303FB723B694FEA83033A
:101A6000FA68D3183A694FEA8202F9688A1811684D
:101A70007A694FEA42024FF0030000FA02F26FEA7D
:101A8000020201EA02021A603B694FEA8303FA6824
:101A9000D3183A694FEA8202F9688A18116878798E
:101AA0007A694FEA420200FA02F241EA02021A603F
:101AB000FB7A184607F11C07BD4680BC704700BF83
:101AC00000C0024080B487B000AF13460246FA71EE
:101AD0000A46BA717B71BB797B61FB794FEA43039C
:101AE0003B61274BFB607B690F2B07D97B69A3F117
:101AF00010037B613B6903F101033B613B694FEAE2
:101B00008303FA68D3181A687B694FEA430322FA01
:101B100003F3DBB203F00303FB723B694FEA830379
:101B2000FA68D3183A694FEA8202F9688A1811688C
:101B30007A694FEA42024FF0030000FA02F26FEABC
:101B4000020201EA02021A603B694FEA8303FA6863
:101B5000D3183A694FEA8202F9688A1811687879CD
:101B60007A694FEA420200FA02F241EA02021A607E
:101B7000FB7A184607F11C07BD4680BC704700BFC2
:101B800040C0024080B485B000AF13460246FA71EF
:101B90000A46BA717B71214BFB60FB794FEA8303E4
:101BA000FA68D3181A68BB7922FA03F3DBB203F0A0
:101BB0000103FB727B79012B13D1FB794FEA83037D
:101BC000FA68D318FA794FEA8202F9688A1811681C
:101BD000BA794FF0010000FA02F241EA02021A60FB
:101BE00014E0FB794FEA8303FA68D318FA794FEAD5
:101BF0008202F9688A181168BA794FF0010000FA78
:101C000002F26FEA020201EA02021A60FB7A184647
:101C100007F11407BD4680BC704700BF68C0024092
:101C200080B485B000AF78607B681F2B06D87B68D6
:101C3000FB601D4BD3F8A831BB6007E07B68A3F1C4
:101C40002003FB60184BD3F8AC31BB60FB68BA686B
:101C500022FA03F303F00303BB60BB68032B1BD81A
:101C600001A252F823F000BF791C0000811C000083
:101C7000891C0000911C00004FF00403BB600BE0C6
:101C80004FF00103BB6007E04FF00203BB6003E0CD
:101C90004FF00803BB6000BFBB68184607F114078C
:101CA000BD4680BC704700BF00C00F4080B485B007
:101CB00000AF786039603B6803F1FF33072B23D80E
:101CC00001A252F823F000BFE91C0000F11C000043
:101CD000091D0000F91C0000091D0000091D00007D
:101CE000091D0000011D00004FF001033B600FE0E3
:101CF0004FF002033B600BE04FF000033B6007E056
:101D00004FF003033B6003E04FF001033B6000BF73
:101D10007B681F2B03D97B68A3F1200300E07B685D
:101D2000FB607B681F2B1BD81D4B1D4AD2F8A811E6
:101D3000FA684FF0030000FA02F26FEA020201EAC9
:101D40000202C3F8A821164B154AD2F8A811FA6866
:101D5000386800FA02F241EA0202C3F8A8211AE048
:101D60000F4B0F4AD2F8AC11FA684FF0030000FA9B
:101D700002F26FEA020201EA0202C3F8AC21084B48
:101D8000074AD2F8AC11FA68386800FA02F241EA60
:101D90000202C3F8AC2107F11407BD4680BC7047AE
:101DA00000C00F4090B583B000AF786000F00CF831
:101DB00004467868FFF734FF0346B4FBF3F3184694
:101DC00007F10C07BD4690BD80B400AF024B1B6805
:101DD0001846BD4680BC70470000001080B500AFBB
:101DE000244B1B78DBB203F10103DAB2214B1A70EA
:101DF000214BD3E900014FF001024FF0000312180C
:101E000043EB01031C49C1E900231C4B1B68002B59
:101E100012D01A4B1B681B6A012B06D9174B1B6883
:101E20001A6A02F1FF321A6206E0144B1B684FF087
:101E300000021A62FFF726FB114B1B68002B12D021
:101E40000F4B1B685B68012B06D90D4B1B685A684A
:101E500002F1FF325A6006E0094B1B684FF00002A6
:101E60005A60FEF733FB074B4FF001021A70FEF782
:101E70002DF980BD11000010680300100802001049
:101E8000440000101200001080B582B000AF1D4B5E
:101E90007B607B681B6898477B685B6840F2022028
:101EA000194998477B685B6940F2022017499847B7
:101EB0007B685B6940F20320154998477B685B6942
:101EC0004FF40170134998477B685B6940F2052025
:101ED000114998477B689B6940F2022098477B68CC
:101EE0009B6940F2032098477B689B694FF401701F
:101EF00098477B689B6940F20520984707F10807DF
:101F0000BD4680BDB42D00006F12833ACDCCCC3DD0
:101F1000CDCC4C3ECDCCCC3ECDCC4C3F80B584B06E
:101F200000AF0346FB71FB79132B02D94FF001037D
:101F30002EE0FB794FEA0312184BD318FB60FB68C5
:101F40005B7903F00F03DBB2012B02D04FF00103EA
:101F50001EE0FB68DA88FB681B899A4202D14FF0C9
:101F6000060315E00E4B1B78DBB203F10103DAB276
:101F70000B4B1A70FB68DB8803F101039AB2FB6814
:101F8000DA80F868FFF798FAFEF7A0F84FF0000340
:101F9000184607F11007BD4680BD00BF0C020010B7
:101FA0001100001080B483B000AF0346FB71FEE760
:101FB00080F0004002E000BF81F0004142001FBFFE
:101FC0005FEA410392EA030F7FEA226C7FEA236C07
:101FD0006AD04FEA1262D2EB1363C1BFD2184140FC
:101FE00048404140B8BF5B42192B88BF704710F092
:101FF000004F40F4000020F07F4018BF404211F035
:10200000004F41F4000121F07F4118BF494292EA9C
:10201000030F3FD0A2F1010241FA03FC10EB0C00C8
:10202000C3F1200301FA03F100F0004302D5494255
:1020300060EB4000B0F5000F13D3B0F1807F06D302
:1020400040084FEA310102F10102FE2A51D2B1F1FA
:10205000004F40EBC25008BF20F0010040EA0300EF
:102060007047490040EB000010F4000FA2F101029C
:10207000EDD1B0FA80FCACF1080CB2EB0C0200FA26
:102080000CF0AABF00EBC25052421843BCBFD04074
:102090001843704792F0000F81F4000106BF80F4EE
:1020A00000000132013BB5E74FEA41037FEA226CB1
:1020B00018BF7FEA236C21D092EA030F04D092F07C
:1020C000000F08BF0846704790EA010F1CBF0020B0
:1020D000704712F07F4F04D1400028BF40F000400D
:1020E000704712F100723CBF00F50000704700F02D
:1020F000004343F0FE4040F4000070477FEA226254
:1021000016BF08467FEA23630146420206BF5FEA24
:10211000412390EA010F40F4800070474FF0000324
:1021200004E000BF10F0004348BF40425FEA000CEB
:1021300008BF704743F0964301464FF000001CE093
:1021400050EA010208BF70474FF000030AE000BFE9
:1021500050EA010208BF704711F0004302D5404227
:1021600061EB41015FEA010C02BF84460146002099
:1021700043F0B64308BFA3F18053A3F50003BCFAB4
:102180008CF2083AA3EBC25310DB01FA02FC634461
:1021900000FA02FCC2F12002BCF1004F20FA02F268
:1021A00043EB020008BF20F00100704702F120025B
:1021B00001FA02FCC2F1200250EA4C0021FA02F2BC
:1021C00043EB020008BF20EADC7070474FF0FF0CC1
:1021D0001CEAD0521EBF1CEAD15392EA0C0F93EABC
:1021E0000C0F6FD01A4480EA010C400218BF5FEA5E
:1021F00041211ED04FF0006343EA501043EA5111D1
:10220000A0FB01310CF00040B1F5000F3EBF4900CA
:1022100041EAD3715B0040EA010062F17F02FD2ACE
:102220001DD8B3F1004F40EBC25008BF20F00100B1
:10223000704790F0000F0CF0004C08BF49024CEAC8
:10224000502040EA51207F3AC2BFD2F1FF0340EA5A
:10225000C250704740F400004FF00003013A5DDCCB
:1022600012F1190FDCBF00F000407047C2F100020C
:10227000410021FA02F1C2F1200200FA02FC5FEAF9
:10228000310040F1000053EA4C0308BF20EADC7043
:10229000704792F0000F00F0004C02BF400010F4B5
:1022A000000F013AF9D040EA0C0093F0000F01F062
:1022B000004C02BF490011F4000F013BF9D041EA84
:1022C0000C018FE70CEAD15392EA0C0F18BF93EA86
:1022D0000C0F0AD030F0004C18BF31F0004CD8D1B0
:1022E00080EA010000F00040704790F0000F17BF37
:1022F00090F0004F084691F0000F91F0004F14D07D
:1023000092EA0C0F01D142020FD193EA0C0F03D1D4
:102310004B0218BF084608D180EA010000F00040D7
:1023200040F0FE4040F40000704740F0FE4040F4B2
:10233000400070474FF0FF0C1CEAD0521EBF1CEA51
:10234000D15392EA0C0F93EA0C0F69D0A2EB03026F
:1023500080EA010C49024FEA402037D04FF0805309
:1023600043EA111143EA10130CF000408B4238BFCE
:102370005B0042F17D024FF4000C8B4224BF5B1ADC
:1023800040EA0C00B3EB510F24BFA3EB510340EA2A
:102390005C00B3EB910F24BFA3EB910340EA9C00D8
:1023A000B3EBD10F24BFA3EBD10340EADC001B0148
:1023B00018BF5FEA1C1CE0D1FD2A3FF650AF8B42EC
:1023C00040EBC25008BF20F0010070470CF0004CF9
:1023D0004CEA50207F32C2BFD2F1FF0340EAC25024
:1023E000704740F400004FF00003013A37E792F0E5
:1023F000000F00F0004C02BF400010F4000F013A43
:10240000F9D040EA0C0093F0000F01F0004C02BF3D
:10241000490011F4000F013BF9D041EA0C0195E7A6
:102420000CEAD15392EA0C0F08D142027FF47DAF3F
:1024300093EA0C0F7FF470AF084676E793EA0C0F2F
:1024400004D14B023FF44CAF08466EE730F0004C2D
:1024500018BF31F0004CCAD130F000427FF45CAFBD
:1024600031F000437FF43CAF5FE700BF4FF0FF3C2B
:1024700006E000BF4FF0010C02E000BF4FF0010C7E
:102480004DF804CD4FEA40024FEA41037FEA226C47
:1024900018BF7FEA236C11D001B052EA530C18BF69
:1024A00090EA010F58BFB2EB030088BFC81738BFCE
:1024B0006FEAE17018BF40F0010070477FEA226CBC
:1024C00002D15FEA402C05D17FEA236CE4D15FEAB8
:1024D000412CE1D05DF8040B704700BF84460846EC
:1024E0006146FFE70FB5FFF7C9FF002848BF10F1AD
:1024F000000F0FBD4DF808EDFFF7F4FF0CBF0120F2
:1025000000205DF808FB00BF4DF808EDFFF7EAFF7B
:1025100034BF012000205DF808FB00BF4DF808ED36
:10252000FFF7E0FF94BF012000205DF808FB00BF2B
:102530004DF808EDFFF7D2FF94BF012000205DF8B1
:1025400008FB00BF4DF808EDFFF7C8FF34BF0120BE
:1025500000205DF808FB00BF42000ED2B2F1FE4F32
:102560000BD34FF09E03B3EB126209D44FEA002362
:1025700043F0004323FA02F070474FF00000704729
:1025800012F1610F01D1420202D14FF0FF307047CA
:102590004FF00000704700BF70B500F085F90023D0
:1025A0000022C3F6F05304460D4600F0D1F900F0C6
:1025B000E1FB064600F056F900230022C4F2F013B6
:1025C00000F0C6F902460B462046294600F00CF8FA
:1025D00000F0D0FB002231460243104670BD00BF20
:1025E00081F0004102E000BF83F0004330B54FEAC4
:1025F00041044FEA430594EA050F08BF90EA020F31
:102600001FBF54EA000C55EA020C7FEA645C7FEAC3
:10261000655C00F0E2804FEA5454D4EB5555B8BFE6
:102620006D420CDD2C4480EA020281EA030382EA57
:10263000000083EA010180EA020281EA0303362DE9
:1026400088BF30BD11F0004F4FEA01314FF4801CBC
:102650004CEA113102D0404261EB410113F0004FCE
:102660004FEA03334CEA133302D0524263EB430385
:1026700094EA050F00F0A780A4F10104D5F1200E23
:102680000DDB02FA0EFC22FA05F2801841F100017E
:1026900003FA0EF2801843FA05F359410EE0A5F152
:1026A00020050EF1200E012A03FA0EFC28BF4CF083
:1026B000020C43FA05F3C01851EBE37101F0004539
:1026C00007D54FF0000EDCF1000C7EEB00006EEB46
:1026D0000101B1F5801F1BD3B1F5001F0CD34908D0
:1026E0005FEA30004FEA3C0C04F101044FEA445227
:1026F00012F5800F80F09A80BCF1004F08BF5FEAAE
:10270000500C50F1000041EB045141EA050130BD8D
:102710005FEA4C0C404141EB010111F4801FA4F130
:102720000104E9D191F0000F04BF01460020B1FA85
:1027300081F308BF2033A3F10B03B3F120020CDABD
:102740000C3208DD02F1140CC2F10C0201FA0CF09B
:1027500021FA02F10CE002F11402D8BFC2F1200C00
:1027600001FA02F120FA0CFCDCBF41EA0C019040B6
:10277000E41AA2BF01EB0451294330BD6FEA0404FF
:102780001F3C1CDA0C340EDC04F11404C4F12002EA
:1027900020FA04F001FA02F340EA030021FA04F3FC
:1027A00045EA030130BDC4F10C04C4F1200220FA53
:1027B00002F001FA04F340EA0300294630BD21FA91
:1027C00004F0294630BD94F0000F83F4801306BF57
:1027D00081F480110134013D4EE77FEA645C18BF4B
:1027E0007FEA655C29D094EA050F08BF90EA020FE2
:1027F00005D054EA000C04BF1946104630BD91EADA
:10280000030F1EBF0021002030BD5FEA545C05D1DC
:102810004000494128BF41F0004130BD14F580041B
:102820003CBF01F5801130BD01F0004545F0FE418F
:1028300041F470014FF0000030BD7FEA645C1ABFC4
:10284000194610467FEA655C1CBF0B46024650EAFB
:10285000013406BF52EA033591EA030F41F4002127
:1028600030BD00BF90F0000F04BF0021704730B5AD
:102870004FF4806404F132044FF000054FF0000182
:1028800050E700BF90F0000F04BF0021704730B543
:102890004FF4806404F1320410F0004548BF404218
:1028A0004FF000013EE700BF42004FEAE2014FEA6D
:1028B00031014FEA02701FBF12F07F4393F07F4F48
:1028C00081F06051704792F0000F14BF93F07F4F7A
:1028D000704730B54FF4607401F0004521F00041BD
:1028E00020E700BF50EA010208BF704730B54FF043
:1028F00000050AE050EA010208BF704730B511F048
:10290000004502D5404261EB41014FF4806404F17F
:1029100032045FEA915C3FF4DCAE4FF003025FEA01
:10292000DC0C18BF03325FEADC0C18BF033202EB89
:10293000DC02C2F1200300FA03FC20FA02F001FAE3
:1029400003FE40EA0E0021FA02F11444C1E600BF82
:1029500070B54FF0FF0C4CF4E06C1CEA11541DBF35
:102960001CEA135594EA0C0F95EA0C0F00F0DEF800
:102970002C4481EA030621EA4C5123EA4C5350EAE5
:10298000013518BF52EA033541F4801143F4801336
:1029900038D0A0FB02CE4FF00005E1FB02E506F0C7
:1029A0000042E0FB03E54FF00006E1FB03569CF01C
:1029B000000F18BF4EF0010EA4F1FF04B6F5007F22
:1029C00064F5407404D25FEA4E0E6D4146EB060694
:1029D00042EAC62141EA55514FEAC52040EA5E501D
:1029E0004FEACE2EB4F1FD0C88BFBCF5E06F1ED8C7
:1029F000BEF1004F08BF5FEA500E50F1000041EBFE
:102A0000045170BD06F0004646EA010140EA0200AA
:102A100081EA0301B4EB5C04C2BFD4EB0C0541EACC
:102A2000045170BD41F480114FF0000E013C00F3E1
:102A3000AB8014F1360FDEBF002001F0004170BD05
:102A4000C4F10004203C35DA0C341BDC04F114041E
:102A5000C4F1200500FA05F320FA04F001FA05F2AA
:102A600040EA020001F0004221F0004110EBD37077
:102A700021FA04F642EB06015EEA430E08BF20EAA3
:102A8000D37070BDC4F10C04C4F1200500FA04F346
:102A900020FA05F001FA04F240EA020001F00041D8
:102AA00010EBD37041F100015EEA430E08BF20EA4B
:102AB000D37070BDC4F1200500FA05F24EEA020E93
:102AC00020FA04F301FA05F243EA020321FA04F0C2
:102AD00001F0004121FA04F220EA020000EBD37079
:102AE0005EEA430E08BF20EAD37070BD94F0000F79
:102AF0000FD101F00046400041EB010111F4801FAD
:102B000008BF013CF7D041EA060195F0000F18BF5D
:102B1000704703F00046520043EB030313F4801F99
:102B200008BF013DF7D043EA0603704794EA0C0F53
:102B30000CEA135518BF95EA0C0F0CD050EA410669
:102B400018BF52EA4306D1D181EA030101F00041E6
:102B50004FF0000070BD50EA410606BF104619460E
:102B600052EA430619D094EA0C0F02D150EA01361A
:102B700013D195EA0C0F05D152EA03361CBF10465B
:102B800019460AD181EA030101F0004141F0FE41FA
:102B900041F470014FF0000070BD41F0FE4141F47E
:102BA000780170BD70B54FF0FF0C4CF4E06C1CEA7E
:102BB00011541DBF1CEA135594EA0C0F95EA0C0F33
:102BC00000F0A7F8A4EB050481EA030E52EA0335EE
:102BD0004FEA013100F088804FEA03334FF080550F
:102BE00045EA131343EA12634FEA022245EA11153C
:102BF00045EA10654FEA00260EF000419D4208BFED
:102C0000964244F1FD0404F5407402D25B084FEA99
:102C10003202B61A65EB03055B084FEA32024FF445
:102C200080104FF4002CB6EB020E75EB030E22BFA2
:102C3000B61A754640EA0C005B084FEA3202B6EB62
:102C4000020E75EB030E22BFB61A754640EA5C0011
:102C50005B084FEA3202B6EB020E75EB030E22BFA1
:102C6000B61A754640EA9C005B084FEA3202B6EBA2
:102C7000020E75EB030E22BFB61A754640EADC0061
:102C800055EA060E18D04FEA051545EA16754FEAC3
:102C900006164FEAC30343EA52734FEAC2025FEAE1
:102CA0001C1CC0D111F4801F0BD141EA00014FF070
:102CB00000004FF0004CB6E711F4801F04BF014341
:102CC0000020B4F1FD0C88BFBCF5E06F3FF6AFAE5D
:102CD000B5EB030C04BFB6EB020C5FEA500C50F1ED
:102CE000000041EB045170BD0EF0004E4EEA113170
:102CF00014EB5C04C2BFD4EB0C0541EA045170BD77
:102D000041F480114FF0000E013C90E645EA060EBA
:102D10008DE60CEA135594EA0C0F08BF95EA0C0FE8
:102D20003FF43BAF94EA0C0F0AD150EA01347FF430
:102D300034AF95EA0C0F7FF425AF104619462CE707
:102D400095EA0C0F06D152EA03353FF4FDAE10466A
:102D5000194622E750EA410618BF52EA43067FF4BB
:102D6000C5AE50EA41047FF40DAF52EA43057FF44B
:102D7000EBAE12E74A0011D212F5001211D20DD5B6
:102D80006FF47873B3EB62520ED44FEAC12343F071
:102D9000004343EA505323FA02F070474FF000001B
:102DA000704750EA013002D14FF0FF3070474FF0CA
:102DB0000000704765070000DD0700005D080000A7
:102DC00049090000D1090000D90A0000DD0B00000C
:042DD000490C0000AA
:102DD40000E1F50504ED00E000000010FCFFFFFF3A
:00000001FF
