:100000000EC128C127C126C125C124C17CC922C176
:1000100021C120C11FC18FC71DC1D0C7B0C41AC123
:1000200019C118C117C10D0A476F696E6720746F37
:1000300020636865636B2073746174650D0A0057F3
:10004000656C636F6D6520746F2074686520426510
:1000500061676C6520537570706C79206132642023
:1000600074657374210D0A00536F6C617220706F98
:10007000776572206973207765616B0D0A004261B4
:100080007474657279322069732063686172676580
:10009000640D0A00426174746572793220697320BC
:1000A0006368617267696E670D0A00426174746506
:1000B0007279322064656E69656420436861726795
:1000C000696E670D0A004261747465727931206946
:1000D0007320636861726765640D0A00426174741D
:1000E00065727931206973206368617267696E6730
:1000F0000D0A0042617474657279312064656E691D
:100100006564204368617267696E670D0A00536F0A
:100110006C6172206973206E6F74207072657365F4
:100120006E740D0A00436861726765323A206E6F23
:100130000A00436861726765323A207965730A0084
:10014000436861726765313A206E6F0A00436861E7
:10015000726765313A207965730A0053616D706C7E
:10016000653A2025640A000900537570706C793A6D
:1001700020000900536F6C61723A2000090042614F
:100180007474323A2000090042617474313A2000DC
:10019000413132323A202564200052657365742063
:1001A00064756520746F206F746865722072656174
:1001B000736F6E0A005761746368646F67207265BD
:1001C00073657420746F6F6B20706C6163650A00D7
:1001D000303132333435363738394142434445467D
:1001E000001B5B25643B256448001B5B3F32356C7C
:1001F000001B5B3F323568001B5B25646D001B5B99
:10020000324A001B630054696D65206C6566743A60
:1002100020256420746F20636865636B0D001124D2
:100220001FBECFE5D4E0DEBFCDBF10E0A0E6B0E05A
:10023000E8EAF8E102C005900D92A236B107D9F7BD
:1002400011E0A2E6B0E001C01D92AD31B107E1F7C7
:10025000D4D228CBD5CE84990BC081E080936200A4
:1002600000D00F92EDB7FEB781838DE491E00AC014
:100270001092620000D00F9281E0EDB7FEB781834B
:1002800080E491E0938382838CD50F900F900F9040
:1002900083990BC081E08093630000D00F92EDB78B
:1002A000FEB7818382E391E00AC01092630000D020
:1002B0000F9281E0EDB7FEB7818385E291E09383F1
:1002C00082836FD50F900F900F90089504B603FEB0
:1002D0000CC084B7877F84BF00D00F9281E0EDB758
:1002E000FEB7818385EB91E008C000D00F9281E0DA
:1002F000EDB7FEB781838AE991E09383828351D57C
:100300000F900F900F9008952F923F924F925F920F
:100310006F927F928F929F92AF92BF92CF92DF9215
:10032000EF92FF920F931F93CF93DF938EE10DD344
:100330009093EE008093ED0000D000D00F92EDB7C7
:10034000FEB7319621E0ADB7BEB711962C9320E9E8
:1003500031E0328321839483838323D580916500A8
:10036000909166000196909366008093650010E07E
:100370000F900F900F900F900F9069E6262E61E07E
:10038000362E57E6452E51E0552E01E044E7642E07
:1003900041E0742E32E7832E31E0932E28E8A22E1E
:1003A00021E0B22E96E8C92E91E0D92E8EE7E82EF4
:1003B00081E0F82ECCE7D1E0812FC7D2A0E0B0E0F9
:1003C000BC01CD0120D96093040170930501809395
:1003D000060190930701113009F4A2C0113008F40E
:1003E0006CC0123021F0133009F0D0C033C02AE0C5
:1003F00037ED43E25BE3BDD92AE939E949E351E44A
:10040000B8D96093F3007093F4008093F500909353
:10041000F60000D00F92EDB7FEB70183B382A2823F
:10042000C0D40F900F900F904091F3005091F400C2
:100430006091F5007091F60088E0FBD300D00F9238
:10044000ADB7BEB711960C9311971396DC92CE926E
:10045000129798C02AE037ED43E25BE38AD92AE994
:1004600039E949E351E485D96093F7007093F800C6
:100470008093F9009093FA0000D00F92EDB7FEB789
:100480000183F382E2828DD40F900F900F90409100
:10049000F7005091F8006091F9007091FA0088E03F
:1004A000C8D300D00F92ADB7BEB711960C93119779
:1004B0001396DC93CE93129765C02AE037ED43E2A2
:1004C0005BE357D92AE939E949E351E452D960930A
:1004D000FB007093FC008093FD009093FE0000D021
:1004E0000F92EDB7FEB70183738262825AD40F90E8
:1004F0000F900F904091FB005091FC006091FD0027
:100500007091FE0088E095D300D00F92ADB7BEB7D2
:1005100011960C93119713969C928E92129732C05B
:100520002AE037ED43E25BE324D92AE939E949E3DC
:1005300051E41FD96093EF007093F0008093F100B5
:100540009093F20000D00F92EDB7FEB71183338283
:10055000228227D40F900F900F904091EF0050917E
:10056000F0006091F1007091F20088E062D300D059
:100570000F92ADB7BEB711961C93119713965C926C
:100580004E9212970ED40F900F900F901F5F143061
:1005900009F012CF00D000D00F92EDB7FEB7319620
:1005A00081E0ADB7BEB711968C938BE591E0928355
:1005B0008183809165009091660094838383F1D359
:1005C0000F900F900F900F900F9080E0DF91CF91E0
:1005D0001F910F91FF90EF90DF90CF90BF90AF9061
:1005E0009F908F907F906F905F904F903F902F9053
:1005F00008956091FB007091FC008091FD00909146
:10060000FE0020E030E040E551E465D718168CF09C
:1006100097989698959800D00F9281E0EDB7FEB725
:1006200081838EE091E093838283BBD31092640038
:10063000E0C0979A82E090E0AFD666DE0CDE609173
:10064000FB007091FC008091FD009091FE0020E085
:1006500030E040E751E489D888230CF4BDC06091B4
:10066000F3007091F4008091F5009091F60023E37F
:1006700033E343E051E42FD78823A4F5809162004F
:10068000882381F5969A85E090E086D63DDE6091DC
:10069000FB007091FC008091FD009091FE0020E035
:1006A00030E040E551E417D718162CF010926400A2
:1006B0009698979835C0CFDD80916200882371F4B9
:1006C00000D00F9281E0EDB7FEB7818383EF90E019
:1006D0009383828366D30F900F900F9081E0809375
:1006E00064001EC080916200813051F480936400E8
:1006F00000D00F92EDB7FEB781838CED90E00AC079
:1007000081E08093640000D00F92EDB7FEB7818343
:1007100086EC90E09383828344D30F900F900F90E8
:100720006091F7007091F8008091F9009091FA00C3
:1007300023E333E343E051E4CED68823A4F580914C
:100740006300882381F5959A85E090E025D6DCDD6D
:100750006091FB007091FC008091FD009091FE0083
:1007600020E030E040E551E4B6D618162CF01092A7
:1007700064009598979808956EDD809163008823B2
:1007800071F400D00F9281E0EDB7FEB781838BEA60
:1007900090E09383828305D30F900F900F9081E0B8
:1007A00080936400089580916300813051F48093B8
:1007B000640000D00F92EDB7FEB7818384E990E02A
:1007C00015C081E08093640000D00F92EDB7FEB7B2
:1007D00081838EE790E00AC01092640000D00F92EF
:1007E00081E0EDB7FEB7818388E690E09383828352
:1007F000D8D20F900F900F900895DF92EF92FF9252
:100800000F931F93CF93DF935BD460E875E280E092
:1008100090E059D383E897E0C1D000D00F9281E0F7
:10082000EDB7FEB781838FE390E093838283B9D2E3
:100830000F900F900F905CD049DD2FE088E190E0A1
:100840000FB6F894A89581BD0FBE21BDA89514BA26
:1008500015BA81B3806E81BB8B988C9882B3886106
:1008600082BB87E058D083E05BD096989598979AA2
:10087000DD24D394E6E2EE2EE0E0FE2E0FE010E061
:10088000C4E8D3E0A89500D00F92EDB7FEB7D182AF
:10089000F382E28286D20F900F900F9035DDDBDC81
:1008A000A8DE80916400882359F4809160009091C3
:1008B0006100880F991F909361008093600006C0CB
:1008C000813021F4109361000093600080916000FA
:1008D000909161008558934020F0D0936100C093BF
:1008E0006000809160009091610056D5A895CACFB4
:1008F000379A359886B1887F866086B987B18F73BD
:10090000806487B93D98339A1092080178940895CD
:1009100033983798089596B1987F982B96B9089593
:1009200097B18295880F880F807C9F73982B97B919
:10093000089597B18F71907E892B87B90895349A65
:10094000369A089586B1807408951092080197B17F
:100950008F71907E892B87B9349A369A3699FECF5B
:1009600024B145B1942F80E030E0282B392BC90108
:100970000895EBDF969587959695879508951F9234
:100980000F920FB60F9211248F938FEF809308016F
:100990008F910F900FBE0F901F9018959093680045
:1009A0008093670008951F93182F8A3031F4E091E7
:1009B0006700F09168008DE00995E0916700F09183
:1009C0006800812F09951F910895CF93DF93EC0163
:1009D000009719F405C02196E6DF88818823D9F7AE
:1009E000DF91CF910895EF92FF920F931F93CF93D2
:1009F000DF938C017A010097E1F020E030E02617C8
:100A0000370738F4F80181918F012F5F3F4F88231A
:100A1000B1F7C0E0D0E00AC0F8018081882319F066
:100A20000F5F1F4F01C080E2BEDF2196CE15DF05AC
:100A300098F3DF91CF911F910F91FF90EF90089560
:100A4000CF93DF93EC01009711F406C0ACDFFE01F9
:100A5000219684918823D1F7DF91CF9108958AE080
:100A6000A2DF0895E82FF0E0EF70F070E053FE4F42
:100A7000E4918E2F98DF08951F93182F82958F7021
:100A8000F1DF812FEFDF1F9108951F93182F892F1A
:100A9000F3DF812FF1DF1F910895EF92FF920F9303
:100AA0001F937B018C01C801AA27BB27EEDFC7017A
:100AB000ECDF1F910F91FF90EF9008952F923F92DE
:100AC0004F925F926F927F928F929F92AF92BF925E
:100AD000CF92DF92EF92FF920F931F93DF93CF930A
:100AE000CDB7DEB7A3970FB6F894DEBF0FBECDBF6C
:100AF0006AA3242E2BA337014801442351F017FF8A
:100B000008C0EE24FF248701E618F7080809190930
:100B100002C0840173012AA1215090E0211091E0CC
:100B2000291B29A318A2A82EBB24CC24DD24C8018C
:100B3000B701A601950194D6FB01EF70F070E05368
:100B4000FE4F64916F8FC801B701A601950188D649
:100B5000C901DA017C018D019EE1492E512C4C0E18
:100B60005D1E39A023C0E114F10401051105B9F09F
:100B7000C801B701A601950173D6FB01EF70F070B3
:100B8000E053FE4F6491F2016083C801B701A601F2
:100B9000950166D6C901DA017C018D0103C02BA144
:100BA000F20120833A940894410851083320D9F681
:100BB000CE014F968C01E9A10E1B11092220E9F00C
:100BC00097FE05C08DE2F80182938F0116C0C8011F
:100BD0000197611471048104910419F08C018BE276
:100BE00002C08C0180E2F801808307C0F801819186
:100BF0008F01D9DEFAA1F150FAA32AA12223B1F77D
:100C0000A3960FB6F894DEBF0FBECDBFCF91DF9194
:100C10001F910F91FF90EF90DF90CF90BF90AF901A
:100C20009F908F907F906F905F904F903F902F900C
:100C300008954F925F926F927F928F929F92AF92A0
:100C4000BF92CF92DF92EF92FF920F931F93CF93B9
:100C5000DF93482E5A016B01CB01BA0120E030E04E
:100C600040E050E082D518161CF43501460106C05C
:100C70003501460197FA909497F8909455240F2ED9
:100C8000F0E0EF2EF0E0FF2EF0E80F2FFFE31F2F34
:100C9000F02DC401B301A801970121D420E030E078
:100CA00040E251E418D487FD0DC0C801B70120E02F
:100CB00030E040E251E45DD57B018C0153948FE03C
:100CC000581639F7C601B50120E030E040E050E0A9
:100CD00002D4882314F48DE201C08BE264DEDD24AB
:100CE000AA244BC0C401B301A8019701F8D35FD473
:100CF000B62ED62ACD2DD0E0CC24DD24C801B701F4
:100D000020E030E040E85FE3E6D3882319F421E0F7
:100D1000C22ED12CCC29DD29CD2B31F08B2D805D3D
:100D200042DEDD24DA9403C080E23DDEDD24C8012A
:100D3000B70120E030E040E85FE3CDD3882311F431
:100D40008EE231DE6B2D70E0882777FD8095982F3D
:100D50005CD4A80197010DD59B01AC01C401B3017E
:100D600055D33B014C01C801B70120E030E040E21F
:100D700051E4B5D37B018C01A394A41408F4B2CF41
:100D8000DF91CF911F910F91FF90EF90DF90CF9067
:100D9000BF90AF909F908F907F906F905F904F909B
:100DA00008957F928F929F92AF92BF92CF92DF92DF
:100DB000EF92FF920F931F93DF93CF93CDB7DEB7E0
:100DC0007888C988DA8863E1E62EF12CEC0EFD1EE6
:100DD00013C0882381F480E090E0CF91DF911F91D0
:100DE0000F91FF90EF90DF90CF90BF90AF909F90CA
:100DF0008F907F900895D7DD96012F5F3F4F77202A
:100E000021F0F6016901849103C0F6018081690136
:100E10008532F9F62F5F3F4F772021F0F601690107
:100E2000849103C0F60180816901843629F08837F6
:100E300081F0833601F706C000E117E25AE0A52EE3
:100E4000B12C0CC0F701808122E030E0E20EF31EED
:100E5000D2CF00E010E140E1A42EB12C32E0832E8D
:100E6000912C8E0C9F1CF701E080F1808436A1F458
:100E7000F7FE0FC0F094E194F108F3948DE293DD56
:100E800008C0C8016AE070E0D7D48B0162307105F8
:100E900018F0E016F106A8F3C701B801CDD4862FEB
:100EA000E1DDC701B801C8D47C01C801B501C4D4D3
:100EB0008B016115710581F774019ECF9093EA0053
:100EC0008093E90008959B01AC01605C7D4B804FED
:100ED0009F4FF3E0660F771F881F991FFA95D1F790
:100EE000E4E0220F331F441F551FEA95D1F7B8D411
:100EF0002150304029B930BD08958AE091E008952D
:100F000083E191E00895982F809109018823E1F30E
:100F10009CB910920901089510920F0110920E01D0
:100F2000089580910E0190910F01892B11F080E0BE
:100F300008958FEF08951F920F920FB60F9211240C
:100F40002F933F934F935F936F937F938F939F93D1
:100F5000AF93BF93EF93FF936CB18091E9009091B1
:100F6000EA00892B39F0E091E900F091EA00862F40
:100F700009950EC08AE091E08DD1882349F48091D3
:100F80001B0190911C01019690931C0180931B0101
:100F9000FF91EF91BF91AF919F918F917F916F9151
:100FA0005F914F913F912F910F900FBE0F901F9027
:100FB0001895682F83E191E06DD108951F920F92EB
:100FC0000FB60F9211242F933F934F935F936F931C
:100FD0007F938F939F93AF93BF93EF93FF938091F2
:100FE0001201882369F08091170190911801892BD3
:100FF00029F083E191E0E6D08CB905C0109212018E
:101000008FEF80930901FF91EF91BF91AF919F9175
:101010008F917F916F915F914F913F912F910F90A1
:101020000FBE0F901F9018958FEF8093120183E1F0
:1010300091E0C8D0982F809109018823E1F39CB9F1
:10104000109209010895CF93DF93EC0180910C0178
:1010500090910D01892B61F080910E0190910F010B
:10106000892B31F08AE091E0ADD088838FEF01C009
:1010700080E0DF91CF910895DF93CF930F92CDB7AA
:10108000DEB7CE010196DFDF882319F42FEF3FEFA3
:1010900003C08981282F30E0C9010F90CF91DF91E3
:1010A00008958AE091E069E670E040E450E07DD088
:1010B00083E191E069EA70E040E450E076D0089581
:1010C000F0DF1092EA001092E90088ED8AB960E83A
:1010D00075E280E090E0F7DE8FEF809309011092D7
:1010E000120110921C0110921B01789408952DB7E3
:1010F0003EB7275030400FB6F8943EBF0FBE2DBF0D
:10110000EDB7FEB7319691E0ADB7BEB711969C939F
:1011100021EE31E03283218383831482658316823A
:1011200040DE2DB73EB7295F3F4F0FB6F8943EBF64
:101130000FBE2DBF0895882349F000D00F9281E0A3
:10114000EDB7FEB7818381EF91E008C000D00F9228
:1011500081E0EDB7FEB781838AEE91E093838283CD
:1011600020DE0F900F900F90089500D000D00F92C6
:10117000EDB7FEB7319691E0ADB7BEB711969C932F
:1011800028EF31E032832183838314820ADE0F90BB
:101190000F900F900F900F9008958EEF91E050DC1C
:1011A000089583E092E04CDC0895FC018FB7F89439
:1011B000718360835383428317821682158214825F
:1011C0008FBF0895DC014FB7F89414968D919C91D0
:1011D0001597892B11F4E0E025C016968D919C910E
:1011E0001797ED91FC911197E80FF91FE081019697
:1011F00017969C938E93169712962D913C91139768
:101200008217930730F0821B930B17969C938E9353
:10121000169714968D919C911597019715969C930E
:101220008E9314974FBF8E2F0895FC014FB7F894FB
:101230008481958168177907B0F486819781860F3C
:10124000971F97838683228133818217930720F02B
:10125000821B930B9783868384819581861B970BD2
:101260009583848302C0158214824FBF0895FC01C8
:10127000CB012FB7F8942FBF26813781628173810C
:10128000820F931FD9D20190F081E02DE80FF91F52
:10129000808108951F93CF93DF93EC01162F4FB7F2
:1012A000F8942C813D816A817B812617370790F461
:1012B0008E819F81820F931FBFD2E881F981E80F51
:1012C000F91F10838C819D8101969D838C834FBF74
:1012D0008FEF02C04FBF80E0DF91CF911F91089543
:1012E000FC018FB7F8948FBF22813381848195816F
:1012F000281B390BC9010895FC018FB7F89415829A
:1013000014828FBF08951F920F920FB60F9211246F
:101310008F939F938091EB009091EC0001979093B5
:10132000EC008093EB009F918F910F900FBE0F9078
:101330001F90189585B7806885BF85B78F7E85BF5C
:10134000889585B78F7785BF08958EB588608EBDE7
:101350001DBC1CBC8EB585608EBD82E19AE79BBD2D
:101360008ABD789489B7806189BF08951DBC1CBC73
:101370002EB525602EBD22E13AE73BBD2ABD78940B
:1013800096958795969587959093EC008093EB00C2
:1013900089B7806189BF0895DF92EF92FF920F9322
:1013A0001F93CF93DF93EC0130E5E32E33ECF32E64
:1013B000DD24D39406E012E01FC080E090E0F70146
:1013C0003197F1F7019688329105C9F7A89500D0B9
:1013D00000D00F92EDB7FEB73196ADB7BEB71196FC
:1013E000DC9212830183D483C383DBDC21970F90CB
:1013F0000F900F900F900F902097F9F6DF91CF91FB
:101400001F910F91FF90EF90DF9008955058BB27E8
:10141000AA270ED070C161D130F066D120F031F42E
:101420009F3F11F41EF456C10EF4E095E7FB4CC14A
:10143000E92F72D180F3BA17620773078407950703
:1014400018F071F49EF58AC10EF4E0950B2EBA2FB8
:10145000A02D0B01B90190010C01CA01A0011124BA
:10146000FF27591B99F0593F50F4503E68F11A1666
:10147000F040A22F232F342F4427585FF3CF4695F7
:1014800037952795A795F0405395C9F77EF41F1619
:10149000BA0B620B730B840BBAF09150A1F0FF0FE3
:1014A000BB1F661F771F881FC2F70EC0BA0F621FCF
:1014B000731F841F48F4879577956795B795F795BF
:1014C0009E3F08F0B3CF9395880F08F09927EE0F51
:1014D000979587950895D4D008F481E008950CD0AD
:1014E0000AC102D140F0F9D030F021F45F3F19F089
:1014F000EBC0511134C1EEC00FD198F39923C9F359
:101500005523B1F3951B550BBB27AA276217730709
:10151000840738F09F5F5F4F220F331F441FAA1FBD
:10152000A9F333D00E2E3AF0E0E830D0915050407D
:10153000E695001CCAF729D0FE2F27D0660F771F2B
:10154000881FBB1F261737074807AB07B0E809F00D
:10155000BB0B802DBF01FF2793585F4F2AF09E3FA2
:10156000510568F0B1C0FBC05F3FECF3983EDCF37F
:10157000869577956795B795F7959F5FC9F7880F1B
:10158000911D9695879597F90895E1E0660F771F6D
:10159000881FBB1F621773078407BA0720F0621BFE
:1015A000730B840BBA0BEE1F88F7E0950895BCD03F
:1015B00088F09F5790F0B92F9927B751A0F0D1F03C
:1015C000660F771F881F991F1AF0BA95C9F712C0C6
:1015D000B13081F0C3D0B1E00895C0C0672F782F3B
:1015E0008827B85F39F0B93FCCF386957795679532
:1015F000B395D9F73EF490958095709561957F4F9E
:101600008F4F9F4F0895E89409C097FB3EF4909543
:101610008095709561957F4F8F4F9F4F9923A9F0CB
:10162000F92F96E9BB279395F6958795779567955A
:10163000B795F111F8CFFAF4BB0F11F460FF1BC09E
:101640006F5F7F4F8F4F9F4F16C0882311F096E931
:1016500011C0772321F09EE8872F762F05C06623DF
:1016600071F096E8862F70E060E02AF09A95660F98
:10167000771F881FDAF7880F9695879597F9089551
:10168000990F0008550FAA0BE0E8FEEF1616170693
:10169000E807F907C0F012161306E407F50798F0FB
:1016A000621B730B840B950B39F40A2661F0232B14
:1016B000242B252B21F408950A2609F4A140A69590
:1016C0008FEF811D811D089597F99F6780E870E075
:1016D00060E008959FEF80EC089500240A941616A8
:1016E000170618060906089500240A941216130610
:1016F000140605060895092E0394000C11F488239E
:1017000052F0BB0F40F4BF2B11F460FF04C06F5FB9
:101710007F4F8F4F9F4F089557FD9058440F551F8F
:1017200059F05F3F71F04795880F97FB991F61F063
:101730009F3F79F087950895121613061406551FDA
:10174000F2CF4695F1DF08C0161617061806991F46
:10175000F1CF86957105610508940895E894BB273B
:1017600066277727CB0197F908958ADF08F48FEF72
:1017700008950BD0C0CFB1DF28F0B6DF18F0952365
:1017800009F0A2CFA7CF1124EACFC6DFA0F3959F1F
:10179000D1F3950F50E0551F629FF001729FBB2758
:1017A000F00DB11D639FAA27F00DB11DAA1F649F04
:1017B0006627B00DA11D661F829F2227B00DA11DB7
:1017C000621F739FB00DA11D621F839FA00D611D3D
:1017D000221F749F3327A00D611D231F849F600D5E
:1017E000211D822F762F6A2F11249F5750408AF097
:1017F000E1F088234AF0EE0FFF1FBB1F661F771F23
:10180000881F91505040A9F79E3F510570F05CCF62
:10181000A6CF5F3FECF3983EDCF38695779567950E
:10182000B795F795E7959F5FC1F7FE2B880F911D40
:101830009695879597F90895AA1BBB1B51E107C0A0
:10184000AA1FBB1FA617B70710F0A61BB70B881F50
:10185000991F5A95A9F780959095BC01CD010895DF
:10186000A1E21A2EAA1BBB1BFD010DC0AA1FBB1FA4
:10187000EE1FFF1FA217B307E407F50720F0A21B16
:10188000B30BE40BF50B661F771F881F991F1A9483
:1018900069F760957095809590959B01AC01BD01AD
:0818A000CF010895F894FFCF79
:0218A80001003D
:00000001FF
